{
	"contracts/KipuBank.sol": {
		"KipuBank": {
			"abi": [
				{
					"inputs": [
						{
							"internalType": "address",
							"name": "_tokenAddress",
							"type": "address"
						}
					],
					"stateMutability": "nonpayable",
					"type": "constructor"
				},
				{
					"inputs": [
						{
							"internalType": "address",
							"name": "owner",
							"type": "address"
						}
					],
					"name": "OwnableInvalidOwner",
					"type": "error"
				},
				{
					"inputs": [
						{
							"internalType": "address",
							"name": "account",
							"type": "address"
						}
					],
					"name": "OwnableUnauthorizedAccount",
					"type": "error"
				},
				{
					"inputs": [],
					"name": "ReentrancyGuardReentrantCall",
					"type": "error"
				},
				{
					"anonymous": false,
					"inputs": [
						{
							"indexed": true,
							"internalType": "address",
							"name": "owner",
							"type": "address"
						}
					],
					"name": "AccountCreated",
					"type": "event"
				},
				{
					"anonymous": false,
					"inputs": [
						{
							"indexed": true,
							"internalType": "address",
							"name": "owner",
							"type": "address"
						},
						{
							"indexed": false,
							"internalType": "uint256",
							"name": "amount",
							"type": "uint256"
						}
					],
					"name": "Deposited",
					"type": "event"
				},
				{
					"anonymous": false,
					"inputs": [
						{
							"indexed": false,
							"internalType": "uint256",
							"name": "newLockPeriod",
							"type": "uint256"
						}
					],
					"name": "LockPeriodUpdated",
					"type": "event"
				},
				{
					"anonymous": false,
					"inputs": [
						{
							"indexed": false,
							"internalType": "uint256",
							"name": "newMinimumDeposit",
							"type": "uint256"
						}
					],
					"name": "MinimumDepositUpdated",
					"type": "event"
				},
				{
					"anonymous": false,
					"inputs": [
						{
							"indexed": true,
							"internalType": "address",
							"name": "previousOwner",
							"type": "address"
						},
						{
							"indexed": true,
							"internalType": "address",
							"name": "newOwner",
							"type": "address"
						}
					],
					"name": "OwnershipTransferred",
					"type": "event"
				},
				{
					"anonymous": false,
					"inputs": [
						{
							"indexed": false,
							"internalType": "address",
							"name": "newTokenAddress",
							"type": "address"
						}
					],
					"name": "TokenAddressUpdated",
					"type": "event"
				},
				{
					"anonymous": false,
					"inputs": [
						{
							"indexed": false,
							"internalType": "uint256",
							"name": "newWithdrawalFee",
							"type": "uint256"
						}
					],
					"name": "WithdrawalFeeUpdated",
					"type": "event"
				},
				{
					"anonymous": false,
					"inputs": [
						{
							"indexed": true,
							"internalType": "address",
							"name": "owner",
							"type": "address"
						},
						{
							"indexed": false,
							"internalType": "uint256",
							"name": "amount",
							"type": "uint256"
						},
						{
							"indexed": false,
							"internalType": "uint256",
							"name": "fee",
							"type": "uint256"
						}
					],
					"name": "Withdrawn",
					"type": "event"
				},
				{
					"inputs": [
						{
							"internalType": "address",
							"name": "",
							"type": "address"
						}
					],
					"name": "accounts",
					"outputs": [
						{
							"internalType": "uint256",
							"name": "balance",
							"type": "uint256"
						},
						{
							"internalType": "uint256",
							"name": "lastDepositTimestamp",
							"type": "uint256"
						},
						{
							"internalType": "bool",
							"name": "exists",
							"type": "bool"
						}
					],
					"stateMutability": "view",
					"type": "function"
				},
				{
					"inputs": [],
					"name": "createAccount",
					"outputs": [],
					"stateMutability": "nonpayable",
					"type": "function"
				},
				{
					"inputs": [
						{
							"internalType": "uint256",
							"name": "amount",
							"type": "uint256"
						}
					],
					"name": "deposit",
					"outputs": [],
					"stateMutability": "nonpayable",
					"type": "function"
				},
				{
					"inputs": [
						{
							"internalType": "address",
							"name": "accountOwner",
							"type": "address"
						}
					],
					"name": "getAccountBalance",
					"outputs": [
						{
							"internalType": "uint256",
							"name": "",
							"type": "uint256"
						}
					],
					"stateMutability": "view",
					"type": "function"
				},
				{
					"inputs": [],
					"name": "lockPeriod",
					"outputs": [
						{
							"internalType": "uint256",
							"name": "",
							"type": "uint256"
						}
					],
					"stateMutability": "view",
					"type": "function"
				},
				{
					"inputs": [],
					"name": "minimumDeposit",
					"outputs": [
						{
							"internalType": "uint256",
							"name": "",
							"type": "uint256"
						}
					],
					"stateMutability": "view",
					"type": "function"
				},
				{
					"inputs": [],
					"name": "owner",
					"outputs": [
						{
							"internalType": "address",
							"name": "",
							"type": "address"
						}
					],
					"stateMutability": "view",
					"type": "function"
				},
				{
					"inputs": [],
					"name": "renounceOwnership",
					"outputs": [],
					"stateMutability": "nonpayable",
					"type": "function"
				},
				{
					"inputs": [
						{
							"internalType": "uint256",
							"name": "_lockPeriod",
							"type": "uint256"
						}
					],
					"name": "setLockPeriod",
					"outputs": [],
					"stateMutability": "nonpayable",
					"type": "function"
				},
				{
					"inputs": [
						{
							"internalType": "uint256",
							"name": "_minimumDeposit",
							"type": "uint256"
						}
					],
					"name": "setMinimumDeposit",
					"outputs": [],
					"stateMutability": "nonpayable",
					"type": "function"
				},
				{
					"inputs": [
						{
							"internalType": "address",
							"name": "_tokenAddress",
							"type": "address"
						}
					],
					"name": "setTokenAddress",
					"outputs": [],
					"stateMutability": "nonpayable",
					"type": "function"
				},
				{
					"inputs": [
						{
							"internalType": "uint256",
							"name": "_withdrawalFee",
							"type": "uint256"
						}
					],
					"name": "setWithdrawalFee",
					"outputs": [],
					"stateMutability": "nonpayable",
					"type": "function"
				},
				{
					"inputs": [],
					"name": "token",
					"outputs": [
						{
							"internalType": "contract IERC20",
							"name": "",
							"type": "address"
						}
					],
					"stateMutability": "view",
					"type": "function"
				},
				{
					"inputs": [
						{
							"internalType": "address",
							"name": "newOwner",
							"type": "address"
						}
					],
					"name": "transferOwnership",
					"outputs": [],
					"stateMutability": "nonpayable",
					"type": "function"
				},
				{
					"inputs": [
						{
							"internalType": "uint256",
							"name": "amount",
							"type": "uint256"
						}
					],
					"name": "withdraw",
					"outputs": [],
					"stateMutability": "nonpayable",
					"type": "function"
				},
				{
					"inputs": [],
					"name": "withdrawFees",
					"outputs": [],
					"stateMutability": "nonpayable",
					"type": "function"
				},
				{
					"inputs": [],
					"name": "withdrawalFee",
					"outputs": [
						{
							"internalType": "uint256",
							"name": "",
							"type": "uint256"
						}
					],
					"stateMutability": "view",
					"type": "function"
				}
			],
			"devdoc": {
				"errors": {
					"OwnableInvalidOwner(address)": [
						{
							"details": "The owner is not a valid owner account. (eg. `address(0)`)"
						}
					],
					"OwnableUnauthorizedAccount(address)": [
						{
							"details": "The caller account is not authorized to perform an operation."
						}
					],
					"ReentrancyGuardReentrantCall()": [
						{
							"details": "Unauthorized reentrant call."
						}
					]
				},
				"kind": "dev",
				"methods": {
					"owner()": {
						"details": "Returns the address of the current owner."
					},
					"renounceOwnership()": {
						"details": "Leaves the contract without owner. It will not be possible to call `onlyOwner` functions. Can only be called by the current owner. NOTE: Renouncing ownership will leave the contract without an owner, thereby disabling any functionality that is only available to the owner."
					},
					"transferOwnership(address)": {
						"details": "Transfers ownership of the contract to a new account (`newOwner`). Can only be called by the current owner."
					}
				},
				"version": 1
			},
			"evm": {
				"assembly": "    /* \"contracts/KipuBank.sol\":229:4543  contract KipuBank is Ownable, ReentrancyGuard {... */\n  mstore(0x40, 0x80)\n    /* \"contracts/KipuBank.sol\":500:512  100 * 10**18 */\n  0x056bc75e2d63100000\n    /* \"contracts/KipuBank.sol\":468:512  uint256 public minimumDeposit = 100 * 10**18 */\n  0x04\n  sstore\n    /* \"contracts/KipuBank.sol\":563:564  5 */\n  0x05\n    /* \"contracts/KipuBank.sol\":532:564  uint256 public withdrawalFee = 5 */\n  dup1\n  sstore\n    /* \"contracts/KipuBank.sol\":608:614  1 days */\n  0x015180\n    /* \"contracts/KipuBank.sol\":580:614  uint256 public lockPeriod = 1 days */\n  0x06\n  sstore\n    /* \"contracts/KipuBank.sol\":1030:1209  constructor(address _tokenAddress) Ownable(msg.sender) {... */\n  callvalue\n  dup1\n  iszero\n  tag_1\n  jumpi\n  revert(0x00, 0x00)\ntag_1:\n  pop\n  mload(0x40)\n  sub(codesize, bytecodeSize)\n  dup1\n  bytecodeSize\n  dup4\n  codecopy\n  dup2\n  dup2\n  add\n  0x40\n  mstore\n  dup2\n  add\n  swap1\n  tag_2\n  swap2\n  swap1\n  tag_3\n  jump\t// in\ntag_2:\n    /* \"contracts/KipuBank.sol\":1073:1083  msg.sender */\n  caller\n    /* \"@openzeppelin/contracts/access/Ownable.sol\":1297:1298  0 */\n  0x00\n    /* \"@openzeppelin/contracts/access/Ownable.sol\":1273:1299  initialOwner == address(0) */\n  0xffffffffffffffffffffffffffffffffffffffff\n  and\n    /* \"@openzeppelin/contracts/access/Ownable.sol\":1273:1285  initialOwner */\n  dup2\n    /* \"@openzeppelin/contracts/access/Ownable.sol\":1273:1299  initialOwner == address(0) */\n  0xffffffffffffffffffffffffffffffffffffffff\n  and\n  sub\n    /* \"@openzeppelin/contracts/access/Ownable.sol\":1269:1364  if (initialOwner == address(0)) {... */\n  tag_8\n  jumpi\n    /* \"@openzeppelin/contracts/access/Ownable.sol\":1350:1351  0 */\n  0x00\n    /* \"@openzeppelin/contracts/access/Ownable.sol\":1322:1353  OwnableInvalidOwner(address(0)) */\n  mload(0x40)\n  0x1e4fbdf700000000000000000000000000000000000000000000000000000000\n  dup2\n  mstore\n  0x04\n  add\n  tag_9\n  swap2\n  swap1\n  tag_10\n  jump\t// in\ntag_9:\n  mload(0x40)\n  dup1\n  swap2\n  sub\n  swap1\n  revert\n    /* \"@openzeppelin/contracts/access/Ownable.sol\":1269:1364  if (initialOwner == address(0)) {... */\ntag_8:\n    /* \"@openzeppelin/contracts/access/Ownable.sol\":1373:1405  _transferOwnership(initialOwner) */\n  tag_11\n    /* \"@openzeppelin/contracts/access/Ownable.sol\":1392:1404  initialOwner */\n  dup2\n    /* \"@openzeppelin/contracts/access/Ownable.sol\":1373:1391  _transferOwnership */\n  shl(0x20, tag_12)\n    /* \"@openzeppelin/contracts/access/Ownable.sol\":1373:1405  _transferOwnership(initialOwner) */\n  0x20\n  shr\n  jump\t// in\ntag_11:\n    /* \"@openzeppelin/contracts/access/Ownable.sol\":1225:1412  constructor(address initialOwner) {... */\n  pop\n    /* \"@openzeppelin/contracts/utils/ReentrancyGuard.sol\":1857:1858  1 */\n  0x01\n    /* \"@openzeppelin/contracts/utils/ReentrancyGuard.sol\":2061:2068  _status */\n  dup1\n    /* \"@openzeppelin/contracts/utils/ReentrancyGuard.sol\":2061:2082  _status = NOT_ENTERED */\n  dup2\n  swap1\n  sstore\n  pop\n    /* \"contracts/KipuBank.sol\":1128:1129  0 */\n  0x00\n    /* \"contracts/KipuBank.sol\":1103:1130  _tokenAddress != address(0) */\n  0xffffffffffffffffffffffffffffffffffffffff\n  and\n    /* \"contracts/KipuBank.sol\":1103:1116  _tokenAddress */\n  dup2\n    /* \"contracts/KipuBank.sol\":1103:1130  _tokenAddress != address(0) */\n  0xffffffffffffffffffffffffffffffffffffffff\n  and\n  sub\n    /* \"contracts/KipuBank.sol\":1095:1163  require(_tokenAddress != address(0), \"Token address cannot be zero\") */\n  tag_15\n  jumpi\n  mload(0x40)\n  0x08c379a000000000000000000000000000000000000000000000000000000000\n  dup2\n  mstore\n  0x04\n  add\n  tag_16\n  swap1\n  tag_17\n  jump\t// in\ntag_16:\n  mload(0x40)\n  dup1\n  swap2\n  sub\n  swap1\n  revert\ntag_15:\n    /* \"contracts/KipuBank.sol\":1188:1201  _tokenAddress */\n  dup1\n    /* \"contracts/KipuBank.sol\":1173:1178  token */\n  0x02\n  0x00\n    /* \"contracts/KipuBank.sol\":1173:1202  token = IERC20(_tokenAddress) */\n  0x0100\n  exp\n  dup2\n  sload\n  dup2\n  0xffffffffffffffffffffffffffffffffffffffff\n  mul\n  not\n  and\n  swap1\n  dup4\n  0xffffffffffffffffffffffffffffffffffffffff\n  and\n  mul\n  or\n  swap1\n  sstore\n  pop\n    /* \"contracts/KipuBank.sol\":1030:1209  constructor(address _tokenAddress) Ownable(msg.sender) {... */\n  pop\n    /* \"contracts/KipuBank.sol\":229:4543  contract KipuBank is Ownable, ReentrancyGuard {... */\n  jump(tag_18)\n    /* \"@openzeppelin/contracts/access/Ownable.sol\":2912:3099  function _transferOwnership(address newOwner) internal virtual {... */\ntag_12:\n    /* \"@openzeppelin/contracts/access/Ownable.sol\":2985:3001  address oldOwner */\n  0x00\n    /* \"@openzeppelin/contracts/access/Ownable.sol\":3004:3010  _owner */\n  0x00\n  0x00\n  swap1\n  sload\n  swap1\n  0x0100\n  exp\n  swap1\n  div\n  0xffffffffffffffffffffffffffffffffffffffff\n  and\n    /* \"@openzeppelin/contracts/access/Ownable.sol\":2985:3010  address oldOwner = _owner */\n  swap1\n  pop\n    /* \"@openzeppelin/contracts/access/Ownable.sol\":3029:3037  newOwner */\n  dup2\n    /* \"@openzeppelin/contracts/access/Ownable.sol\":3020:3026  _owner */\n  0x00\n  0x00\n    /* \"@openzeppelin/contracts/access/Ownable.sol\":3020:3037  _owner = newOwner */\n  0x0100\n  exp\n  dup2\n  sload\n  dup2\n  0xffffffffffffffffffffffffffffffffffffffff\n  mul\n  not\n  and\n  swap1\n  dup4\n  0xffffffffffffffffffffffffffffffffffffffff\n  and\n  mul\n  or\n  swap1\n  sstore\n  pop\n    /* \"@openzeppelin/contracts/access/Ownable.sol\":3083:3091  newOwner */\n  dup2\n    /* \"@openzeppelin/contracts/access/Ownable.sol\":3052:3092  OwnershipTransferred(oldOwner, newOwner) */\n  0xffffffffffffffffffffffffffffffffffffffff\n  and\n    /* \"@openzeppelin/contracts/access/Ownable.sol\":3073:3081  oldOwner */\n  dup2\n    /* \"@openzeppelin/contracts/access/Ownable.sol\":3052:3092  OwnershipTransferred(oldOwner, newOwner) */\n  0xffffffffffffffffffffffffffffffffffffffff\n  and\n  0x8be0079c531659141344cd1fd0a4f28419497f9722a3daafe3b4186f6b6457e0\n  mload(0x40)\n  mload(0x40)\n  dup1\n  swap2\n  sub\n  swap1\n  log3\n    /* \"@openzeppelin/contracts/access/Ownable.sol\":2975:3099  {... */\n  pop\n    /* \"@openzeppelin/contracts/access/Ownable.sol\":2912:3099  function _transferOwnership(address newOwner) internal virtual {... */\n  pop\n  jump\t// out\n    /* \"#utility.yul\":88:205   */\ntag_21:\n    /* \"#utility.yul\":197:198   */\n  0x00\n    /* \"#utility.yul\":194:195   */\n  0x00\n    /* \"#utility.yul\":187:199   */\n  revert\n    /* \"#utility.yul\":334:460   */\ntag_23:\n    /* \"#utility.yul\":371:378   */\n  0x00\n    /* \"#utility.yul\":411:453   */\n  0xffffffffffffffffffffffffffffffffffffffff\n    /* \"#utility.yul\":404:409   */\n  dup3\n    /* \"#utility.yul\":400:454   */\n  and\n    /* \"#utility.yul\":389:454   */\n  swap1\n  pop\n    /* \"#utility.yul\":334:460   */\n  swap2\n  swap1\n  pop\n  jump\t// out\n    /* \"#utility.yul\":466:562   */\ntag_24:\n    /* \"#utility.yul\":503:510   */\n  0x00\n    /* \"#utility.yul\":532:556   */\n  tag_37\n    /* \"#utility.yul\":550:555   */\n  dup3\n    /* \"#utility.yul\":532:556   */\n  tag_23\n  jump\t// in\ntag_37:\n    /* \"#utility.yul\":521:556   */\n  swap1\n  pop\n    /* \"#utility.yul\":466:562   */\n  swap2\n  swap1\n  pop\n  jump\t// out\n    /* \"#utility.yul\":568:690   */\ntag_25:\n    /* \"#utility.yul\":641:665   */\n  tag_39\n    /* \"#utility.yul\":659:664   */\n  dup2\n    /* \"#utility.yul\":641:665   */\n  tag_24\n  jump\t// in\ntag_39:\n    /* \"#utility.yul\":634:639   */\n  dup2\n    /* \"#utility.yul\":631:666   */\n  eq\n    /* \"#utility.yul\":621:684   */\n  tag_40\n  jumpi\n    /* \"#utility.yul\":680:681   */\n  0x00\n    /* \"#utility.yul\":677:678   */\n  0x00\n    /* \"#utility.yul\":670:682   */\n  revert\n    /* \"#utility.yul\":621:684   */\ntag_40:\n    /* \"#utility.yul\":568:690   */\n  pop\n  jump\t// out\n    /* \"#utility.yul\":696:839   */\ntag_26:\n    /* \"#utility.yul\":753:758   */\n  0x00\n    /* \"#utility.yul\":784:790   */\n  dup2\n    /* \"#utility.yul\":778:791   */\n  mload\n    /* \"#utility.yul\":769:791   */\n  swap1\n  pop\n    /* \"#utility.yul\":800:833   */\n  tag_42\n    /* \"#utility.yul\":827:832   */\n  dup2\n    /* \"#utility.yul\":800:833   */\n  tag_25\n  jump\t// in\ntag_42:\n    /* \"#utility.yul\":696:839   */\n  swap3\n  swap2\n  pop\n  pop\n  jump\t// out\n    /* \"#utility.yul\":845:1196   */\ntag_3:\n    /* \"#utility.yul\":915:921   */\n  0x00\n    /* \"#utility.yul\":964:966   */\n  0x20\n    /* \"#utility.yul\":952:961   */\n  dup3\n    /* \"#utility.yul\":943:950   */\n  dup5\n    /* \"#utility.yul\":939:962   */\n  sub\n    /* \"#utility.yul\":935:967   */\n  slt\n    /* \"#utility.yul\":932:1051   */\n  iszero\n  tag_44\n  jumpi\n    /* \"#utility.yul\":970:1049   */\n  tag_45\n  tag_21\n  jump\t// in\ntag_45:\n    /* \"#utility.yul\":932:1051   */\ntag_44:\n    /* \"#utility.yul\":1090:1091   */\n  0x00\n    /* \"#utility.yul\":1115:1179   */\n  tag_46\n    /* \"#utility.yul\":1171:1178   */\n  dup5\n    /* \"#utility.yul\":1162:1168   */\n  dup3\n    /* \"#utility.yul\":1151:1160   */\n  dup6\n    /* \"#utility.yul\":1147:1169   */\n  add\n    /* \"#utility.yul\":1115:1179   */\n  tag_26\n  jump\t// in\ntag_46:\n    /* \"#utility.yul\":1105:1179   */\n  swap2\n  pop\n    /* \"#utility.yul\":1061:1189   */\n  pop\n    /* \"#utility.yul\":845:1196   */\n  swap3\n  swap2\n  pop\n  pop\n  jump\t// out\n    /* \"#utility.yul\":1202:1320   */\ntag_27:\n    /* \"#utility.yul\":1289:1313   */\n  tag_48\n    /* \"#utility.yul\":1307:1312   */\n  dup2\n    /* \"#utility.yul\":1289:1313   */\n  tag_24\n  jump\t// in\ntag_48:\n    /* \"#utility.yul\":1284:1287   */\n  dup3\n    /* \"#utility.yul\":1277:1314   */\n  mstore\n    /* \"#utility.yul\":1202:1320   */\n  pop\n  pop\n  jump\t// out\n    /* \"#utility.yul\":1326:1548   */\ntag_10:\n    /* \"#utility.yul\":1419:1423   */\n  0x00\n    /* \"#utility.yul\":1457:1459   */\n  0x20\n    /* \"#utility.yul\":1446:1455   */\n  dup3\n    /* \"#utility.yul\":1442:1460   */\n  add\n    /* \"#utility.yul\":1434:1460   */\n  swap1\n  pop\n    /* \"#utility.yul\":1470:1541   */\n  tag_50\n    /* \"#utility.yul\":1538:1539   */\n  0x00\n    /* \"#utility.yul\":1527:1536   */\n  dup4\n    /* \"#utility.yul\":1523:1540   */\n  add\n    /* \"#utility.yul\":1514:1520   */\n  dup5\n    /* \"#utility.yul\":1470:1541   */\n  tag_27\n  jump\t// in\ntag_50:\n    /* \"#utility.yul\":1326:1548   */\n  swap3\n  swap2\n  pop\n  pop\n  jump\t// out\n    /* \"#utility.yul\":1554:1723   */\ntag_28:\n    /* \"#utility.yul\":1638:1649   */\n  0x00\n    /* \"#utility.yul\":1672:1678   */\n  dup3\n    /* \"#utility.yul\":1667:1670   */\n  dup3\n    /* \"#utility.yul\":1660:1679   */\n  mstore\n    /* \"#utility.yul\":1712:1716   */\n  0x20\n    /* \"#utility.yul\":1707:1710   */\n  dup3\n    /* \"#utility.yul\":1703:1717   */\n  add\n    /* \"#utility.yul\":1688:1717   */\n  swap1\n  pop\n    /* \"#utility.yul\":1554:1723   */\n  swap3\n  swap2\n  pop\n  pop\n  jump\t// out\n    /* \"#utility.yul\":1729:1907   */\ntag_29:\n    /* \"#utility.yul\":1869:1899   */\n  0x546f6b656e20616464726573732063616e6e6f74206265207a65726f00000000\n    /* \"#utility.yul\":1865:1866   */\n  0x00\n    /* \"#utility.yul\":1857:1863   */\n  dup3\n    /* \"#utility.yul\":1853:1867   */\n  add\n    /* \"#utility.yul\":1846:1900   */\n  mstore\n    /* \"#utility.yul\":1729:1907   */\n  pop\n  jump\t// out\n    /* \"#utility.yul\":1913:2279   */\ntag_30:\n    /* \"#utility.yul\":2055:2058   */\n  0x00\n    /* \"#utility.yul\":2076:2143   */\n  tag_54\n    /* \"#utility.yul\":2140:2142   */\n  0x1c\n    /* \"#utility.yul\":2135:2138   */\n  dup4\n    /* \"#utility.yul\":2076:2143   */\n  tag_28\n  jump\t// in\ntag_54:\n    /* \"#utility.yul\":2069:2143   */\n  swap2\n  pop\n    /* \"#utility.yul\":2152:2245   */\n  tag_55\n    /* \"#utility.yul\":2241:2244   */\n  dup3\n    /* \"#utility.yul\":2152:2245   */\n  tag_29\n  jump\t// in\ntag_55:\n    /* \"#utility.yul\":2270:2272   */\n  0x20\n    /* \"#utility.yul\":2265:2268   */\n  dup3\n    /* \"#utility.yul\":2261:2273   */\n  add\n    /* \"#utility.yul\":2254:2273   */\n  swap1\n  pop\n    /* \"#utility.yul\":1913:2279   */\n  swap2\n  swap1\n  pop\n  jump\t// out\n    /* \"#utility.yul\":2285:2704   */\ntag_17:\n    /* \"#utility.yul\":2451:2455   */\n  0x00\n    /* \"#utility.yul\":2489:2491   */\n  0x20\n    /* \"#utility.yul\":2478:2487   */\n  dup3\n    /* \"#utility.yul\":2474:2492   */\n  add\n    /* \"#utility.yul\":2466:2492   */\n  swap1\n  pop\n    /* \"#utility.yul\":2538:2547   */\n  dup2\n    /* \"#utility.yul\":2532:2536   */\n  dup2\n    /* \"#utility.yul\":2528:2548   */\n  sub\n    /* \"#utility.yul\":2524:2525   */\n  0x00\n    /* \"#utility.yul\":2513:2522   */\n  dup4\n    /* \"#utility.yul\":2509:2526   */\n  add\n    /* \"#utility.yul\":2502:2549   */\n  mstore\n    /* \"#utility.yul\":2566:2697   */\n  tag_57\n    /* \"#utility.yul\":2692:2696   */\n  dup2\n    /* \"#utility.yul\":2566:2697   */\n  tag_30\n  jump\t// in\ntag_57:\n    /* \"#utility.yul\":2558:2697   */\n  swap1\n  pop\n    /* \"#utility.yul\":2285:2704   */\n  swap2\n  swap1\n  pop\n  jump\t// out\n    /* \"contracts/KipuBank.sol\":229:4543  contract KipuBank is Ownable, ReentrancyGuard {... */\ntag_18:\n  dataSize(sub_0)\n  dup1\n  dataOffset(sub_0)\n  0x00\n  codecopy\n  0x00\n  return\nstop\n\nsub_0: assembly {\n        /* \"contracts/KipuBank.sol\":229:4543  contract KipuBank is Ownable, ReentrancyGuard {... */\n      mstore(0x40, 0x80)\n      callvalue\n      dup1\n      iszero\n      tag_1\n      jumpi\n      revert(0x00, 0x00)\n    tag_1:\n      pop\n      jumpi(tag_2, lt(calldatasize, 0x04))\n      shr(0xe0, calldataload(0x00))\n      dup1\n      0x8bc7e8c4\n      gt\n      tag_20\n      jumpi\n      dup1\n      0xac1e5025\n      gt\n      tag_21\n      jumpi\n      dup1\n      0xac1e5025\n      eq\n      tag_15\n      jumpi\n      dup1\n      0xb6b55f25\n      eq\n      tag_16\n      jumpi\n      dup1\n      0xe78ec42e\n      eq\n      tag_17\n      jumpi\n      dup1\n      0xf2fde38b\n      eq\n      tag_18\n      jumpi\n      dup1\n      0xfc0c546a\n      eq\n      tag_19\n      jumpi\n      jump(tag_2)\n    tag_21:\n      dup1\n      0x8bc7e8c4\n      eq\n      tag_11\n      jumpi\n      dup1\n      0x8da5cb5b\n      eq\n      tag_12\n      jumpi\n      dup1\n      0x93423e9c\n      eq\n      tag_13\n      jumpi\n      dup1\n      0x9dca362f\n      eq\n      tag_14\n      jumpi\n      jump(tag_2)\n    tag_20:\n      dup1\n      0x5e5c06e2\n      gt\n      tag_22\n      jumpi\n      dup1\n      0x5e5c06e2\n      eq\n      tag_7\n      jumpi\n      dup1\n      0x636bfbab\n      eq\n      tag_8\n      jumpi\n      dup1\n      0x715018a6\n      eq\n      tag_9\n      jumpi\n      dup1\n      0x779972da\n      eq\n      tag_10\n      jumpi\n      jump(tag_2)\n    tag_22:\n      dup1\n      0x26a4e8d2\n      eq\n      tag_3\n      jumpi\n      dup1\n      0x2e1a7d4d\n      eq\n      tag_4\n      jumpi\n      dup1\n      0x3fd8b02f\n      eq\n      tag_5\n      jumpi\n      dup1\n      0x476343ee\n      eq\n      tag_6\n      jumpi\n    tag_2:\n      revert(0x00, 0x00)\n        /* \"contracts/KipuBank.sol\":3549:3789  function setTokenAddress(address _tokenAddress) external onlyOwner {... */\n    tag_3:\n      tag_23\n      0x04\n      dup1\n      calldatasize\n      sub\n      dup2\n      add\n      swap1\n      tag_24\n      swap2\n      swap1\n      tag_25\n      jump\t// in\n    tag_24:\n      tag_26\n      jump\t// in\n    tag_23:\n      stop\n        /* \"contracts/KipuBank.sol\":2025:2729  function withdraw(uint256 amount) external nonReentrant {... */\n    tag_4:\n      tag_27\n      0x04\n      dup1\n      calldatasize\n      sub\n      dup2\n      add\n      swap1\n      tag_28\n      swap2\n      swap1\n      tag_29\n      jump\t// in\n    tag_28:\n      tag_30\n      jump\t// in\n    tag_27:\n      stop\n        /* \"contracts/KipuBank.sol\":580:614  uint256 public lockPeriod = 1 days */\n    tag_5:\n      tag_31\n      tag_32\n      jump\t// in\n    tag_31:\n      mload(0x40)\n      tag_33\n      swap2\n      swap1\n      tag_34\n      jump\t// in\n    tag_33:\n      mload(0x40)\n      dup1\n      swap2\n      sub\n      swap1\n      return\n        /* \"contracts/KipuBank.sol\":3795:4541  function withdrawFees() external onlyOwner {... */\n    tag_6:\n      tag_35\n      tag_36\n      jump\t// in\n    tag_35:\n      stop\n        /* \"contracts/KipuBank.sol\":419:462  mapping(address => Account) public accounts */\n    tag_7:\n      tag_37\n      0x04\n      dup1\n      calldatasize\n      sub\n      dup2\n      add\n      swap1\n      tag_38\n      swap2\n      swap1\n      tag_25\n      jump\t// in\n    tag_38:\n      tag_39\n      jump\t// in\n    tag_37:\n      mload(0x40)\n      tag_40\n      swap4\n      swap3\n      swap2\n      swap1\n      tag_41\n      jump\t// in\n    tag_40:\n      mload(0x40)\n      dup1\n      swap2\n      sub\n      swap1\n      return\n        /* \"contracts/KipuBank.sol\":468:512  uint256 public minimumDeposit = 100 * 10**18 */\n    tag_8:\n      tag_42\n      tag_43\n      jump\t// in\n    tag_42:\n      mload(0x40)\n      tag_44\n      swap2\n      swap1\n      tag_34\n      jump\t// in\n    tag_44:\n      mload(0x40)\n      dup1\n      swap2\n      sub\n      swap1\n      return\n        /* \"@openzeppelin/contracts/access/Ownable.sol\":2293:2394  function renounceOwnership() public virtual onlyOwner {... */\n    tag_9:\n      tag_45\n      tag_46\n      jump\t// in\n    tag_45:\n      stop\n        /* \"contracts/KipuBank.sol\":3394:3543  function setLockPeriod(uint256 _lockPeriod) external onlyOwner {... */\n    tag_10:\n      tag_47\n      0x04\n      dup1\n      calldatasize\n      sub\n      dup2\n      add\n      swap1\n      tag_48\n      swap2\n      swap1\n      tag_29\n      jump\t// in\n    tag_48:\n      tag_49\n      jump\t// in\n    tag_47:\n      stop\n        /* \"contracts/KipuBank.sol\":532:564  uint256 public withdrawalFee = 5 */\n    tag_11:\n      tag_50\n      tag_51\n      jump\t// in\n    tag_50:\n      mload(0x40)\n      tag_52\n      swap2\n      swap1\n      tag_34\n      jump\t// in\n    tag_52:\n      mload(0x40)\n      dup1\n      swap2\n      sub\n      swap1\n      return\n        /* \"@openzeppelin/contracts/access/Ownable.sol\":1638:1723  function owner() public view virtual returns (address) {... */\n    tag_12:\n      tag_53\n      tag_54\n      jump\t// in\n    tag_53:\n      mload(0x40)\n      tag_55\n      swap2\n      swap1\n      tag_56\n      jump\t// in\n    tag_55:\n      mload(0x40)\n      dup1\n      swap2\n      sub\n      swap1\n      return\n        /* \"contracts/KipuBank.sol\":2735:2972  function getAccountBalance(address accountOwner)... */\n    tag_13:\n      tag_57\n      0x04\n      dup1\n      calldatasize\n      sub\n      dup2\n      add\n      swap1\n      tag_58\n      swap2\n      swap1\n      tag_25\n      jump\t// in\n    tag_58:\n      tag_59\n      jump\t// in\n    tag_57:\n      mload(0x40)\n      tag_60\n      swap2\n      swap1\n      tag_34\n      jump\t// in\n    tag_60:\n      mload(0x40)\n      dup1\n      swap2\n      sub\n      swap1\n      return\n        /* \"contracts/KipuBank.sol\":1215:1511  function createAccount() external {... */\n    tag_14:\n      tag_61\n      tag_62\n      jump\t// in\n    tag_61:\n      stop\n        /* \"contracts/KipuBank.sol\":3157:3388  function setWithdrawalFee(uint256 _withdrawalFee) external onlyOwner {... */\n    tag_15:\n      tag_63\n      0x04\n      dup1\n      calldatasize\n      sub\n      dup2\n      add\n      swap1\n      tag_64\n      swap2\n      swap1\n      tag_29\n      jump\t// in\n    tag_64:\n      tag_65\n      jump\t// in\n    tag_63:\n      stop\n        /* \"contracts/KipuBank.sol\":1517:2019  function deposit(uint256 amount) external nonReentrant {... */\n    tag_16:\n      tag_66\n      0x04\n      dup1\n      calldatasize\n      sub\n      dup2\n      add\n      swap1\n      tag_67\n      swap2\n      swap1\n      tag_29\n      jump\t// in\n    tag_67:\n      tag_68\n      jump\t// in\n    tag_66:\n      stop\n        /* \"contracts/KipuBank.sol\":2978:3151  function setMinimumDeposit(uint256 _minimumDeposit) external onlyOwner {... */\n    tag_17:\n      tag_69\n      0x04\n      dup1\n      calldatasize\n      sub\n      dup2\n      add\n      swap1\n      tag_70\n      swap2\n      swap1\n      tag_29\n      jump\t// in\n    tag_70:\n      tag_71\n      jump\t// in\n    tag_69:\n      stop\n        /* \"@openzeppelin/contracts/access/Ownable.sol\":2543:2758  function transferOwnership(address newOwner) public virtual onlyOwner {... */\n    tag_18:\n      tag_72\n      0x04\n      dup1\n      calldatasize\n      sub\n      dup2\n      add\n      swap1\n      tag_73\n      swap2\n      swap1\n      tag_25\n      jump\t// in\n    tag_73:\n      tag_74\n      jump\t// in\n    tag_72:\n      stop\n        /* \"contracts/KipuBank.sol\":281:300  IERC20 public token */\n    tag_19:\n      tag_75\n      tag_76\n      jump\t// in\n    tag_75:\n      mload(0x40)\n      tag_77\n      swap2\n      swap1\n      tag_78\n      jump\t// in\n    tag_77:\n      mload(0x40)\n      dup1\n      swap2\n      sub\n      swap1\n      return\n        /* \"contracts/KipuBank.sol\":3549:3789  function setTokenAddress(address _tokenAddress) external onlyOwner {... */\n    tag_26:\n        /* \"@openzeppelin/contracts/access/Ownable.sol\":1531:1544  _checkOwner() */\n      tag_80\n        /* \"@openzeppelin/contracts/access/Ownable.sol\":1531:1542  _checkOwner */\n      tag_81\n        /* \"@openzeppelin/contracts/access/Ownable.sol\":1531:1544  _checkOwner() */\n      jump\t// in\n    tag_80:\n        /* \"contracts/KipuBank.sol\":3659:3660  0 */\n      0x00\n        /* \"contracts/KipuBank.sol\":3634:3661  _tokenAddress != address(0) */\n      0xffffffffffffffffffffffffffffffffffffffff\n      and\n        /* \"contracts/KipuBank.sol\":3634:3647  _tokenAddress */\n      dup2\n        /* \"contracts/KipuBank.sol\":3634:3661  _tokenAddress != address(0) */\n      0xffffffffffffffffffffffffffffffffffffffff\n      and\n      sub\n        /* \"contracts/KipuBank.sol\":3626:3694  require(_tokenAddress != address(0), \"Token address cannot be zero\") */\n      tag_83\n      jumpi\n      mload(0x40)\n      0x08c379a000000000000000000000000000000000000000000000000000000000\n      dup2\n      mstore\n      0x04\n      add\n      tag_84\n      swap1\n      tag_85\n      jump\t// in\n    tag_84:\n      mload(0x40)\n      dup1\n      swap2\n      sub\n      swap1\n      revert\n    tag_83:\n        /* \"contracts/KipuBank.sol\":3719:3732  _tokenAddress */\n      dup1\n        /* \"contracts/KipuBank.sol\":3704:3709  token */\n      0x02\n      0x00\n        /* \"contracts/KipuBank.sol\":3704:3733  token = IERC20(_tokenAddress) */\n      0x0100\n      exp\n      dup2\n      sload\n      dup2\n      0xffffffffffffffffffffffffffffffffffffffff\n      mul\n      not\n      and\n      swap1\n      dup4\n      0xffffffffffffffffffffffffffffffffffffffff\n      and\n      mul\n      or\n      swap1\n      sstore\n      pop\n        /* \"contracts/KipuBank.sol\":3748:3782  TokenAddressUpdated(_tokenAddress) */\n      0x2f0c7f17be551d1f4566672cd67adbe50173e96632f56ff80d80acc4ac00f328\n        /* \"contracts/KipuBank.sol\":3768:3781  _tokenAddress */\n      dup2\n        /* \"contracts/KipuBank.sol\":3748:3782  TokenAddressUpdated(_tokenAddress) */\n      mload(0x40)\n      tag_86\n      swap2\n      swap1\n      tag_56\n      jump\t// in\n    tag_86:\n      mload(0x40)\n      dup1\n      swap2\n      sub\n      swap1\n      log1\n        /* \"contracts/KipuBank.sol\":3549:3789  function setTokenAddress(address _tokenAddress) external onlyOwner {... */\n      pop\n      jump\t// out\n        /* \"contracts/KipuBank.sol\":2025:2729  function withdraw(uint256 amount) external nonReentrant {... */\n    tag_30:\n        /* \"@openzeppelin/contracts/utils/ReentrancyGuard.sol\":2500:2521  _nonReentrantBefore() */\n      tag_88\n        /* \"@openzeppelin/contracts/utils/ReentrancyGuard.sol\":2500:2519  _nonReentrantBefore */\n      tag_89\n        /* \"@openzeppelin/contracts/utils/ReentrancyGuard.sol\":2500:2521  _nonReentrantBefore() */\n      jump\t// in\n    tag_88:\n        /* \"contracts/KipuBank.sol\":2091:2114  Account storage account */\n      0x00\n        /* \"contracts/KipuBank.sol\":2117:2125  accounts */\n      0x03\n        /* \"contracts/KipuBank.sol\":2117:2137  accounts[msg.sender] */\n      0x00\n        /* \"contracts/KipuBank.sol\":2126:2136  msg.sender */\n      caller\n        /* \"contracts/KipuBank.sol\":2117:2137  accounts[msg.sender] */\n      0xffffffffffffffffffffffffffffffffffffffff\n      and\n      0xffffffffffffffffffffffffffffffffffffffff\n      and\n      dup2\n      mstore\n      0x20\n      add\n      swap1\n      dup2\n      mstore\n      0x20\n      add\n      0x00\n      keccak256\n        /* \"contracts/KipuBank.sol\":2091:2137  Account storage account = accounts[msg.sender] */\n      swap1\n      pop\n        /* \"contracts/KipuBank.sol\":2155:2162  account */\n      dup1\n        /* \"contracts/KipuBank.sol\":2155:2169  account.exists */\n      0x02\n      add\n      0x00\n      swap1\n      sload\n      swap1\n      0x0100\n      exp\n      swap1\n      div\n      0xff\n      and\n        /* \"contracts/KipuBank.sol\":2147:2196  require(account.exists, \"Account does not exist\") */\n      tag_91\n      jumpi\n      mload(0x40)\n      0x08c379a000000000000000000000000000000000000000000000000000000000\n      dup2\n      mstore\n      0x04\n      add\n      tag_92\n      swap1\n      tag_93\n      jump\t// in\n    tag_92:\n      mload(0x40)\n      dup1\n      swap2\n      sub\n      swap1\n      revert\n    tag_91:\n        /* \"contracts/KipuBank.sol\":2233:2239  amount */\n      dup2\n        /* \"contracts/KipuBank.sol\":2214:2221  account */\n      dup2\n        /* \"contracts/KipuBank.sol\":2214:2229  account.balance */\n      0x00\n      add\n      sload\n        /* \"contracts/KipuBank.sol\":2214:2239  account.balance >= amount */\n      lt\n      iszero\n        /* \"contracts/KipuBank.sol\":2206:2264  require(account.balance >= amount, \"Insufficient balance\") */\n      tag_94\n      jumpi\n      mload(0x40)\n      0x08c379a000000000000000000000000000000000000000000000000000000000\n      dup2\n      mstore\n      0x04\n      add\n      tag_95\n      swap1\n      tag_96\n      jump\t// in\n    tag_95:\n      mload(0x40)\n      dup1\n      swap2\n      sub\n      swap1\n      revert\n    tag_94:\n        /* \"contracts/KipuBank.sol\":2345:2355  lockPeriod */\n      sload(0x06)\n        /* \"contracts/KipuBank.sol\":2314:2321  account */\n      dup2\n        /* \"contracts/KipuBank.sol\":2314:2342  account.lastDepositTimestamp */\n      0x01\n      add\n      sload\n        /* \"contracts/KipuBank.sol\":2314:2355  account.lastDepositTimestamp + lockPeriod */\n      tag_97\n      swap2\n      swap1\n      tag_98\n      jump\t// in\n    tag_97:\n        /* \"contracts/KipuBank.sol\":2295:2310  block.timestamp */\n      timestamp\n        /* \"contracts/KipuBank.sol\":2295:2355  block.timestamp >= account.lastDepositTimestamp + lockPeriod */\n      lt\n      iszero\n        /* \"contracts/KipuBank.sol\":2274:2397  require(... */\n      tag_99\n      jumpi\n      mload(0x40)\n      0x08c379a000000000000000000000000000000000000000000000000000000000\n      dup2\n      mstore\n      0x04\n      add\n      tag_100\n      swap1\n      tag_101\n      jump\t// in\n    tag_100:\n      mload(0x40)\n      dup1\n      swap2\n      sub\n      swap1\n      revert\n    tag_99:\n        /* \"contracts/KipuBank.sol\":2408:2425  uint256 feeAmount */\n      0x00\n        /* \"contracts/KipuBank.sol\":2455:2458  100 */\n      0x64\n        /* \"contracts/KipuBank.sol\":2438:2451  withdrawalFee */\n      sload(0x05)\n        /* \"contracts/KipuBank.sol\":2429:2435  amount */\n      dup5\n        /* \"contracts/KipuBank.sol\":2429:2451  amount * withdrawalFee */\n      tag_102\n      swap2\n      swap1\n      tag_103\n      jump\t// in\n    tag_102:\n        /* \"contracts/KipuBank.sol\":2428:2458  (amount * withdrawalFee) / 100 */\n      tag_104\n      swap2\n      swap1\n      tag_105\n      jump\t// in\n    tag_104:\n        /* \"contracts/KipuBank.sol\":2408:2458  uint256 feeAmount = (amount * withdrawalFee) / 100 */\n      swap1\n      pop\n        /* \"contracts/KipuBank.sol\":2468:2490  uint256 amountAfterFee */\n      0x00\n        /* \"contracts/KipuBank.sol\":2502:2511  feeAmount */\n      dup2\n        /* \"contracts/KipuBank.sol\":2493:2499  amount */\n      dup5\n        /* \"contracts/KipuBank.sol\":2493:2511  amount - feeAmount */\n      tag_106\n      swap2\n      swap1\n      tag_107\n      jump\t// in\n    tag_106:\n        /* \"contracts/KipuBank.sol\":2468:2511  uint256 amountAfterFee = amount - feeAmount */\n      swap1\n      pop\n        /* \"contracts/KipuBank.sol\":2541:2547  amount */\n      dup4\n        /* \"contracts/KipuBank.sol\":2522:2529  account */\n      dup4\n        /* \"contracts/KipuBank.sol\":2522:2537  account.balance */\n      0x00\n      add\n      0x00\n        /* \"contracts/KipuBank.sol\":2522:2547  account.balance -= amount */\n      dup3\n      dup3\n      sload\n      tag_108\n      swap2\n      swap1\n      tag_107\n      jump\t// in\n    tag_108:\n      swap3\n      pop\n      pop\n      dup2\n      swap1\n      sstore\n      pop\n        /* \"contracts/KipuBank.sol\":2558:2570  bool success */\n      0x00\n        /* \"contracts/KipuBank.sol\":2573:2578  token */\n      0x02\n      0x00\n      swap1\n      sload\n      swap1\n      0x0100\n      exp\n      swap1\n      div\n      0xffffffffffffffffffffffffffffffffffffffff\n      and\n        /* \"contracts/KipuBank.sol\":2573:2587  token.transfer */\n      0xffffffffffffffffffffffffffffffffffffffff\n      and\n      0xa9059cbb\n        /* \"contracts/KipuBank.sol\":2588:2598  msg.sender */\n      caller\n        /* \"contracts/KipuBank.sol\":2600:2614  amountAfterFee */\n      dup5\n        /* \"contracts/KipuBank.sol\":2573:2615  token.transfer(msg.sender, amountAfterFee) */\n      mload(0x40)\n      dup4\n      0xffffffff\n      and\n      0xe0\n      shl\n      dup2\n      mstore\n      0x04\n      add\n      tag_109\n      swap3\n      swap2\n      swap1\n      tag_110\n      jump\t// in\n    tag_109:\n      0x20\n      mload(0x40)\n      dup1\n      dup4\n      sub\n      dup2\n      0x00\n      dup8\n      gas\n      call\n      iszero\n      dup1\n      iszero\n      tag_112\n      jumpi\n      returndatacopy(0x00, 0x00, returndatasize)\n      revert(0x00, returndatasize)\n    tag_112:\n      pop\n      pop\n      pop\n      pop\n      mload(0x40)\n      returndatasize\n      not(0x1f)\n      0x1f\n      dup3\n      add\n      and\n      dup3\n      add\n      dup1\n      0x40\n      mstore\n      pop\n      dup2\n      add\n      swap1\n      tag_113\n      swap2\n      swap1\n      tag_114\n      jump\t// in\n    tag_113:\n        /* \"contracts/KipuBank.sol\":2558:2615  bool success = token.transfer(msg.sender, amountAfterFee) */\n      swap1\n      pop\n        /* \"contracts/KipuBank.sol\":2633:2640  success */\n      dup1\n        /* \"contracts/KipuBank.sol\":2625:2666  require(success, \"Token transfer failed\") */\n      tag_115\n      jumpi\n      mload(0x40)\n      0x08c379a000000000000000000000000000000000000000000000000000000000\n      dup2\n      mstore\n      0x04\n      add\n      tag_116\n      swap1\n      tag_117\n      jump\t// in\n    tag_116:\n      mload(0x40)\n      dup1\n      swap2\n      sub\n      swap1\n      revert\n    tag_115:\n        /* \"contracts/KipuBank.sol\":2692:2702  msg.sender */\n      caller\n        /* \"contracts/KipuBank.sol\":2682:2722  Withdrawn(msg.sender, amount, feeAmount) */\n      0xffffffffffffffffffffffffffffffffffffffff\n      and\n      0x92ccf450a286a957af52509bc1c9939d1a6a481783e142e41e2499f0bb66ebc6\n        /* \"contracts/KipuBank.sol\":2704:2710  amount */\n      dup7\n        /* \"contracts/KipuBank.sol\":2712:2721  feeAmount */\n      dup6\n        /* \"contracts/KipuBank.sol\":2682:2722  Withdrawn(msg.sender, amount, feeAmount) */\n      mload(0x40)\n      tag_118\n      swap3\n      swap2\n      swap1\n      tag_119\n      jump\t// in\n    tag_118:\n      mload(0x40)\n      dup1\n      swap2\n      sub\n      swap1\n      log2\n        /* \"contracts/KipuBank.sol\":2081:2729  {... */\n      pop\n      pop\n      pop\n      pop\n        /* \"@openzeppelin/contracts/utils/ReentrancyGuard.sol\":2542:2562  _nonReentrantAfter() */\n      tag_120\n        /* \"@openzeppelin/contracts/utils/ReentrancyGuard.sol\":2542:2560  _nonReentrantAfter */\n      tag_121\n        /* \"@openzeppelin/contracts/utils/ReentrancyGuard.sol\":2542:2562  _nonReentrantAfter() */\n      jump\t// in\n    tag_120:\n        /* \"contracts/KipuBank.sol\":2025:2729  function withdraw(uint256 amount) external nonReentrant {... */\n      pop\n      jump\t// out\n        /* \"contracts/KipuBank.sol\":580:614  uint256 public lockPeriod = 1 days */\n    tag_32:\n      sload(0x06)\n      dup2\n      jump\t// out\n        /* \"contracts/KipuBank.sol\":3795:4541  function withdrawFees() external onlyOwner {... */\n    tag_36:\n        /* \"@openzeppelin/contracts/access/Ownable.sol\":1531:1544  _checkOwner() */\n      tag_123\n        /* \"@openzeppelin/contracts/access/Ownable.sol\":1531:1542  _checkOwner */\n      tag_81\n        /* \"@openzeppelin/contracts/access/Ownable.sol\":1531:1544  _checkOwner() */\n      jump\t// in\n    tag_123:\n        /* \"contracts/KipuBank.sol\":3848:3871  uint256 contractBalance */\n      0x00\n        /* \"contracts/KipuBank.sol\":3874:3879  token */\n      0x02\n      0x00\n      swap1\n      sload\n      swap1\n      0x0100\n      exp\n      swap1\n      div\n      0xffffffffffffffffffffffffffffffffffffffff\n      and\n        /* \"contracts/KipuBank.sol\":3874:3889  token.balanceOf */\n      0xffffffffffffffffffffffffffffffffffffffff\n      and\n      0x70a08231\n        /* \"contracts/KipuBank.sol\":3898:3902  this */\n      address\n        /* \"contracts/KipuBank.sol\":3874:3904  token.balanceOf(address(this)) */\n      mload(0x40)\n      dup3\n      0xffffffff\n      and\n      0xe0\n      shl\n      dup2\n      mstore\n      0x04\n      add\n      tag_125\n      swap2\n      swap1\n      tag_56\n      jump\t// in\n    tag_125:\n      0x20\n      mload(0x40)\n      dup1\n      dup4\n      sub\n      dup2\n      dup7\n      gas\n      staticcall\n      iszero\n      dup1\n      iszero\n      tag_127\n      jumpi\n      returndatacopy(0x00, 0x00, returndatasize)\n      revert(0x00, returndatasize)\n    tag_127:\n      pop\n      pop\n      pop\n      pop\n      mload(0x40)\n      returndatasize\n      not(0x1f)\n      0x1f\n      dup3\n      add\n      and\n      dup3\n      add\n      dup1\n      0x40\n      mstore\n      pop\n      dup2\n      add\n      swap1\n      tag_128\n      swap2\n      swap1\n      tag_129\n      jump\t// in\n    tag_128:\n        /* \"contracts/KipuBank.sol\":3848:3904  uint256 contractBalance = token.balanceOf(address(this)) */\n      swap1\n      pop\n        /* \"contracts/KipuBank.sol\":3914:3939  uint256 totalUserBalances */\n      0x00\n        /* \"contracts/KipuBank.sol\":3942:3943  0 */\n      0x00\n        /* \"contracts/KipuBank.sol\":3914:3943  uint256 totalUserBalances = 0 */\n      swap1\n      pop\n        /* \"contracts/KipuBank.sol\":4112:4134  address[] memory users */\n      0x00\n        /* \"contracts/KipuBank.sol\":4151:4152  0 */\n      0x00\n        /* \"contracts/KipuBank.sol\":4137:4153  new address[](0) */\n      0xffffffffffffffff\n      dup2\n      gt\n      iszero\n      tag_130\n      jumpi\n      tag_131\n      tag_132\n      jump\t// in\n    tag_131:\n    tag_130:\n      mload(0x40)\n      swap1\n      dup1\n      dup3\n      mstore\n      dup1\n      0x20\n      mul\n      0x20\n      add\n      dup3\n      add\n      0x40\n      mstore\n      dup1\n      iszero\n      tag_133\n      jumpi\n      dup2\n      0x20\n      add\n      0x20\n      dup3\n      mul\n      dup1\n      calldatasize\n      dup4\n      calldatacopy\n      dup1\n      dup3\n      add\n      swap2\n      pop\n      pop\n      swap1\n      pop\n    tag_133:\n      pop\n        /* \"contracts/KipuBank.sol\":4112:4153  address[] memory users = new address[](0) */\n      swap1\n      pop\n        /* \"contracts/KipuBank.sol\":4208:4217  uint256 i */\n      0x00\n        /* \"contracts/KipuBank.sol\":4220:4221  0 */\n      0x00\n        /* \"contracts/KipuBank.sol\":4208:4221  uint256 i = 0 */\n      swap1\n      pop\n        /* \"contracts/KipuBank.sol\":4203:4318  for (uint256 i = 0; i < users.length; i++) {... */\n    tag_134:\n        /* \"contracts/KipuBank.sol\":4227:4232  users */\n      dup2\n        /* \"contracts/KipuBank.sol\":4227:4239  users.length */\n      mload\n        /* \"contracts/KipuBank.sol\":4223:4224  i */\n      dup2\n        /* \"contracts/KipuBank.sol\":4223:4239  i < users.length */\n      lt\n        /* \"contracts/KipuBank.sol\":4203:4318  for (uint256 i = 0; i < users.length; i++) {... */\n      iszero\n      tag_135\n      jumpi\n        /* \"contracts/KipuBank.sol\":4281:4289  accounts */\n      0x03\n        /* \"contracts/KipuBank.sol\":4281:4299  accounts[users[i]] */\n      0x00\n        /* \"contracts/KipuBank.sol\":4290:4295  users */\n      dup4\n        /* \"contracts/KipuBank.sol\":4296:4297  i */\n      dup4\n        /* \"contracts/KipuBank.sol\":4290:4298  users[i] */\n      dup2\n      mload\n      dup2\n      lt\n      tag_137\n      jumpi\n      tag_138\n      tag_139\n      jump\t// in\n    tag_138:\n    tag_137:\n      0x20\n      mul\n      0x20\n      add\n      add\n      mload\n        /* \"contracts/KipuBank.sol\":4281:4299  accounts[users[i]] */\n      0xffffffffffffffffffffffffffffffffffffffff\n      and\n      0xffffffffffffffffffffffffffffffffffffffff\n      and\n      dup2\n      mstore\n      0x20\n      add\n      swap1\n      dup2\n      mstore\n      0x20\n      add\n      0x00\n      keccak256\n        /* \"contracts/KipuBank.sol\":4281:4307  accounts[users[i]].balance */\n      0x00\n      add\n      sload\n        /* \"contracts/KipuBank.sol\":4260:4307  totalUserBalances += accounts[users[i]].balance */\n      dup4\n      tag_140\n      swap2\n      swap1\n      tag_98\n      jump\t// in\n    tag_140:\n      swap3\n      pop\n        /* \"contracts/KipuBank.sol\":4241:4244  i++ */\n      dup1\n      dup1\n      0x01\n      add\n      swap2\n      pop\n      pop\n        /* \"contracts/KipuBank.sol\":4203:4318  for (uint256 i = 0; i < users.length; i++) {... */\n      jump(tag_134)\n    tag_135:\n      pop\n        /* \"contracts/KipuBank.sol\":4328:4340  uint256 fees */\n      0x00\n        /* \"contracts/KipuBank.sol\":4361:4378  totalUserBalances */\n      dup3\n        /* \"contracts/KipuBank.sol\":4343:4358  contractBalance */\n      dup5\n        /* \"contracts/KipuBank.sol\":4343:4378  contractBalance - totalUserBalances */\n      tag_141\n      swap2\n      swap1\n      tag_107\n      jump\t// in\n    tag_141:\n        /* \"contracts/KipuBank.sol\":4328:4378  uint256 fees = contractBalance - totalUserBalances */\n      swap1\n      pop\n        /* \"contracts/KipuBank.sol\":4403:4404  0 */\n      0x00\n        /* \"contracts/KipuBank.sol\":4396:4400  fees */\n      dup2\n        /* \"contracts/KipuBank.sol\":4396:4404  fees > 0 */\n      gt\n        /* \"contracts/KipuBank.sol\":4388:4428  require(fees > 0, \"No fees to withdraw\") */\n      tag_142\n      jumpi\n      mload(0x40)\n      0x08c379a000000000000000000000000000000000000000000000000000000000\n      dup2\n      mstore\n      0x04\n      add\n      tag_143\n      swap1\n      tag_144\n      jump\t// in\n    tag_143:\n      mload(0x40)\n      dup1\n      swap2\n      sub\n      swap1\n      revert\n    tag_142:\n        /* \"contracts/KipuBank.sol\":4439:4451  bool success */\n      0x00\n        /* \"contracts/KipuBank.sol\":4454:4459  token */\n      0x02\n      0x00\n      swap1\n      sload\n      swap1\n      0x0100\n      exp\n      swap1\n      div\n      0xffffffffffffffffffffffffffffffffffffffff\n      and\n        /* \"contracts/KipuBank.sol\":4454:4468  token.transfer */\n      0xffffffffffffffffffffffffffffffffffffffff\n      and\n      0xa9059cbb\n        /* \"contracts/KipuBank.sol\":4469:4476  owner() */\n      tag_145\n        /* \"contracts/KipuBank.sol\":4469:4474  owner */\n      tag_54\n        /* \"contracts/KipuBank.sol\":4469:4476  owner() */\n      jump\t// in\n    tag_145:\n        /* \"contracts/KipuBank.sol\":4478:4482  fees */\n      dup5\n        /* \"contracts/KipuBank.sol\":4454:4483  token.transfer(owner(), fees) */\n      mload(0x40)\n      dup4\n      0xffffffff\n      and\n      0xe0\n      shl\n      dup2\n      mstore\n      0x04\n      add\n      tag_146\n      swap3\n      swap2\n      swap1\n      tag_110\n      jump\t// in\n    tag_146:\n      0x20\n      mload(0x40)\n      dup1\n      dup4\n      sub\n      dup2\n      0x00\n      dup8\n      gas\n      call\n      iszero\n      dup1\n      iszero\n      tag_148\n      jumpi\n      returndatacopy(0x00, 0x00, returndatasize)\n      revert(0x00, returndatasize)\n    tag_148:\n      pop\n      pop\n      pop\n      pop\n      mload(0x40)\n      returndatasize\n      not(0x1f)\n      0x1f\n      dup3\n      add\n      and\n      dup3\n      add\n      dup1\n      0x40\n      mstore\n      pop\n      dup2\n      add\n      swap1\n      tag_149\n      swap2\n      swap1\n      tag_114\n      jump\t// in\n    tag_149:\n        /* \"contracts/KipuBank.sol\":4439:4483  bool success = token.transfer(owner(), fees) */\n      swap1\n      pop\n        /* \"contracts/KipuBank.sol\":4501:4508  success */\n      dup1\n        /* \"contracts/KipuBank.sol\":4493:4534  require(success, \"Token transfer failed\") */\n      tag_150\n      jumpi\n      mload(0x40)\n      0x08c379a000000000000000000000000000000000000000000000000000000000\n      dup2\n      mstore\n      0x04\n      add\n      tag_151\n      swap1\n      tag_117\n      jump\t// in\n    tag_151:\n      mload(0x40)\n      dup1\n      swap2\n      sub\n      swap1\n      revert\n    tag_150:\n        /* \"contracts/KipuBank.sol\":3838:4541  {... */\n      pop\n      pop\n      pop\n      pop\n      pop\n        /* \"contracts/KipuBank.sol\":3795:4541  function withdrawFees() external onlyOwner {... */\n      jump\t// out\n        /* \"contracts/KipuBank.sol\":419:462  mapping(address => Account) public accounts */\n    tag_39:\n      mstore(0x20, 0x03)\n      dup1\n      0x00\n      mstore\n      keccak256(0x00, 0x40)\n      0x00\n      swap2\n      pop\n      swap1\n      pop\n      dup1\n      0x00\n      add\n      sload\n      swap1\n      dup1\n      0x01\n      add\n      sload\n      swap1\n      dup1\n      0x02\n      add\n      0x00\n      swap1\n      sload\n      swap1\n      0x0100\n      exp\n      swap1\n      div\n      0xff\n      and\n      swap1\n      pop\n      dup4\n      jump\t// out\n        /* \"contracts/KipuBank.sol\":468:512  uint256 public minimumDeposit = 100 * 10**18 */\n    tag_43:\n      sload(0x04)\n      dup2\n      jump\t// out\n        /* \"@openzeppelin/contracts/access/Ownable.sol\":2293:2394  function renounceOwnership() public virtual onlyOwner {... */\n    tag_46:\n        /* \"@openzeppelin/contracts/access/Ownable.sol\":1531:1544  _checkOwner() */\n      tag_153\n        /* \"@openzeppelin/contracts/access/Ownable.sol\":1531:1542  _checkOwner */\n      tag_81\n        /* \"@openzeppelin/contracts/access/Ownable.sol\":1531:1544  _checkOwner() */\n      jump\t// in\n    tag_153:\n        /* \"@openzeppelin/contracts/access/Ownable.sol\":2357:2387  _transferOwnership(address(0)) */\n      tag_155\n        /* \"@openzeppelin/contracts/access/Ownable.sol\":2384:2385  0 */\n      0x00\n        /* \"@openzeppelin/contracts/access/Ownable.sol\":2357:2375  _transferOwnership */\n      tag_156\n        /* \"@openzeppelin/contracts/access/Ownable.sol\":2357:2387  _transferOwnership(address(0)) */\n      jump\t// in\n    tag_155:\n        /* \"@openzeppelin/contracts/access/Ownable.sol\":2293:2394  function renounceOwnership() public virtual onlyOwner {... */\n      jump\t// out\n        /* \"contracts/KipuBank.sol\":3394:3543  function setLockPeriod(uint256 _lockPeriod) external onlyOwner {... */\n    tag_49:\n        /* \"@openzeppelin/contracts/access/Ownable.sol\":1531:1544  _checkOwner() */\n      tag_158\n        /* \"@openzeppelin/contracts/access/Ownable.sol\":1531:1542  _checkOwner */\n      tag_81\n        /* \"@openzeppelin/contracts/access/Ownable.sol\":1531:1544  _checkOwner() */\n      jump\t// in\n    tag_158:\n        /* \"contracts/KipuBank.sol\":3480:3491  _lockPeriod */\n      dup1\n        /* \"contracts/KipuBank.sol\":3467:3477  lockPeriod */\n      0x06\n        /* \"contracts/KipuBank.sol\":3467:3491  lockPeriod = _lockPeriod */\n      dup2\n      swap1\n      sstore\n      pop\n        /* \"contracts/KipuBank.sol\":3506:3536  LockPeriodUpdated(_lockPeriod) */\n      0x8249ec545e68f6f1e1230133ca48c704d831a7f8e635ded80f3dd9e99b09bb2f\n        /* \"contracts/KipuBank.sol\":3524:3535  _lockPeriod */\n      dup2\n        /* \"contracts/KipuBank.sol\":3506:3536  LockPeriodUpdated(_lockPeriod) */\n      mload(0x40)\n      tag_160\n      swap2\n      swap1\n      tag_34\n      jump\t// in\n    tag_160:\n      mload(0x40)\n      dup1\n      swap2\n      sub\n      swap1\n      log1\n        /* \"contracts/KipuBank.sol\":3394:3543  function setLockPeriod(uint256 _lockPeriod) external onlyOwner {... */\n      pop\n      jump\t// out\n        /* \"contracts/KipuBank.sol\":532:564  uint256 public withdrawalFee = 5 */\n    tag_51:\n      sload(0x05)\n      dup2\n      jump\t// out\n        /* \"@openzeppelin/contracts/access/Ownable.sol\":1638:1723  function owner() public view virtual returns (address) {... */\n    tag_54:\n        /* \"@openzeppelin/contracts/access/Ownable.sol\":1684:1691  address */\n      0x00\n        /* \"@openzeppelin/contracts/access/Ownable.sol\":1710:1716  _owner */\n      0x00\n      0x00\n      swap1\n      sload\n      swap1\n      0x0100\n      exp\n      swap1\n      div\n      0xffffffffffffffffffffffffffffffffffffffff\n      and\n        /* \"@openzeppelin/contracts/access/Ownable.sol\":1703:1716  return _owner */\n      swap1\n      pop\n        /* \"@openzeppelin/contracts/access/Ownable.sol\":1638:1723  function owner() public view virtual returns (address) {... */\n      swap1\n      jump\t// out\n        /* \"contracts/KipuBank.sol\":2735:2972  function getAccountBalance(address accountOwner)... */\n    tag_59:\n        /* \"contracts/KipuBank.sol\":2831:2838  uint256 */\n      0x00\n        /* \"contracts/KipuBank.sol\":2862:2870  accounts */\n      0x03\n        /* \"contracts/KipuBank.sol\":2862:2884  accounts[accountOwner] */\n      0x00\n        /* \"contracts/KipuBank.sol\":2871:2883  accountOwner */\n      dup4\n        /* \"contracts/KipuBank.sol\":2862:2884  accounts[accountOwner] */\n      0xffffffffffffffffffffffffffffffffffffffff\n      and\n      0xffffffffffffffffffffffffffffffffffffffff\n      and\n      dup2\n      mstore\n      0x20\n      add\n      swap1\n      dup2\n      mstore\n      0x20\n      add\n      0x00\n      keccak256\n        /* \"contracts/KipuBank.sol\":2862:2891  accounts[accountOwner].exists */\n      0x02\n      add\n      0x00\n      swap1\n      sload\n      swap1\n      0x0100\n      exp\n      swap1\n      div\n      0xff\n      and\n        /* \"contracts/KipuBank.sol\":2854:2918  require(accounts[accountOwner].exists, \"Account does not exist\") */\n      tag_163\n      jumpi\n      mload(0x40)\n      0x08c379a000000000000000000000000000000000000000000000000000000000\n      dup2\n      mstore\n      0x04\n      add\n      tag_164\n      swap1\n      tag_93\n      jump\t// in\n    tag_164:\n      mload(0x40)\n      dup1\n      swap2\n      sub\n      swap1\n      revert\n    tag_163:\n        /* \"contracts/KipuBank.sol\":2935:2943  accounts */\n      0x03\n        /* \"contracts/KipuBank.sol\":2935:2957  accounts[accountOwner] */\n      0x00\n        /* \"contracts/KipuBank.sol\":2944:2956  accountOwner */\n      dup4\n        /* \"contracts/KipuBank.sol\":2935:2957  accounts[accountOwner] */\n      0xffffffffffffffffffffffffffffffffffffffff\n      and\n      0xffffffffffffffffffffffffffffffffffffffff\n      and\n      dup2\n      mstore\n      0x20\n      add\n      swap1\n      dup2\n      mstore\n      0x20\n      add\n      0x00\n      keccak256\n        /* \"contracts/KipuBank.sol\":2935:2965  accounts[accountOwner].balance */\n      0x00\n      add\n      sload\n        /* \"contracts/KipuBank.sol\":2928:2965  return accounts[accountOwner].balance */\n      swap1\n      pop\n        /* \"contracts/KipuBank.sol\":2735:2972  function getAccountBalance(address accountOwner)... */\n      swap2\n      swap1\n      pop\n      jump\t// out\n        /* \"contracts/KipuBank.sol\":1215:1511  function createAccount() external {... */\n    tag_62:\n        /* \"contracts/KipuBank.sol\":1268:1276  accounts */\n      0x03\n        /* \"contracts/KipuBank.sol\":1268:1288  accounts[msg.sender] */\n      0x00\n        /* \"contracts/KipuBank.sol\":1277:1287  msg.sender */\n      caller\n        /* \"contracts/KipuBank.sol\":1268:1288  accounts[msg.sender] */\n      0xffffffffffffffffffffffffffffffffffffffff\n      and\n      0xffffffffffffffffffffffffffffffffffffffff\n      and\n      dup2\n      mstore\n      0x20\n      add\n      swap1\n      dup2\n      mstore\n      0x20\n      add\n      0x00\n      keccak256\n        /* \"contracts/KipuBank.sol\":1268:1295  accounts[msg.sender].exists */\n      0x02\n      add\n      0x00\n      swap1\n      sload\n      swap1\n      0x0100\n      exp\n      swap1\n      div\n      0xff\n      and\n        /* \"contracts/KipuBank.sol\":1267:1295  !accounts[msg.sender].exists */\n      iszero\n        /* \"contracts/KipuBank.sol\":1259:1322  require(!accounts[msg.sender].exists, \"Account already exists\") */\n      tag_166\n      jumpi\n      mload(0x40)\n      0x08c379a000000000000000000000000000000000000000000000000000000000\n      dup2\n      mstore\n      0x04\n      add\n      tag_167\n      swap1\n      tag_168\n      jump\t// in\n    tag_167:\n      mload(0x40)\n      dup1\n      swap2\n      sub\n      swap1\n      revert\n    tag_166:\n        /* \"contracts/KipuBank.sol\":1356:1462  Account({... */\n      mload(0x40)\n      dup1\n      0x60\n      add\n      0x40\n      mstore\n      dup1\n        /* \"contracts/KipuBank.sol\":1387:1388  0 */\n      0x00\n        /* \"contracts/KipuBank.sol\":1356:1462  Account({... */\n      dup2\n      mstore\n      0x20\n      add\n        /* \"contracts/KipuBank.sol\":1424:1425  0 */\n      0x00\n        /* \"contracts/KipuBank.sol\":1356:1462  Account({... */\n      dup2\n      mstore\n      0x20\n      add\n        /* \"contracts/KipuBank.sol\":1447:1451  true */\n      0x01\n        /* \"contracts/KipuBank.sol\":1356:1462  Account({... */\n      iszero\n      iszero\n      dup2\n      mstore\n      pop\n        /* \"contracts/KipuBank.sol\":1333:1341  accounts */\n      0x03\n        /* \"contracts/KipuBank.sol\":1333:1353  accounts[msg.sender] */\n      0x00\n        /* \"contracts/KipuBank.sol\":1342:1352  msg.sender */\n      caller\n        /* \"contracts/KipuBank.sol\":1333:1353  accounts[msg.sender] */\n      0xffffffffffffffffffffffffffffffffffffffff\n      and\n      0xffffffffffffffffffffffffffffffffffffffff\n      and\n      dup2\n      mstore\n      0x20\n      add\n      swap1\n      dup2\n      mstore\n      0x20\n      add\n      0x00\n      keccak256\n        /* \"contracts/KipuBank.sol\":1333:1462  accounts[msg.sender] = Account({... */\n      0x00\n      dup3\n      add\n      mload\n      dup2\n      0x00\n      add\n      sstore\n      0x20\n      dup3\n      add\n      mload\n      dup2\n      0x01\n      add\n      sstore\n      0x40\n      dup3\n      add\n      mload\n      dup2\n      0x02\n      add\n      exp(0x0100, 0x00)\n      dup2\n      sload\n      dup2\n      0xff\n      mul\n      not\n      and\n      swap1\n      dup4\n      iszero\n      iszero\n      mul\n      or\n      swap1\n      sstore\n      pop\n      swap1\n      pop\n      pop\n        /* \"contracts/KipuBank.sol\":1493:1503  msg.sender */\n      caller\n        /* \"contracts/KipuBank.sol\":1478:1504  AccountCreated(msg.sender) */\n      0xffffffffffffffffffffffffffffffffffffffff\n      and\n      0x805996f252884581e2f74cf3d2b03564d5ec26ccc90850ae12653dc1b72d1fa2\n      mload(0x40)\n      mload(0x40)\n      dup1\n      swap2\n      sub\n      swap1\n      log2\n        /* \"contracts/KipuBank.sol\":1215:1511  function createAccount() external {... */\n      jump\t// out\n        /* \"contracts/KipuBank.sol\":3157:3388  function setWithdrawalFee(uint256 _withdrawalFee) external onlyOwner {... */\n    tag_65:\n        /* \"@openzeppelin/contracts/access/Ownable.sol\":1531:1544  _checkOwner() */\n      tag_170\n        /* \"@openzeppelin/contracts/access/Ownable.sol\":1531:1542  _checkOwner */\n      tag_81\n        /* \"@openzeppelin/contracts/access/Ownable.sol\":1531:1544  _checkOwner() */\n      jump\t// in\n    tag_170:\n        /* \"contracts/KipuBank.sol\":3262:3264  10 */\n      0x0a\n        /* \"contracts/KipuBank.sol\":3244:3258  _withdrawalFee */\n      dup2\n        /* \"contracts/KipuBank.sol\":3244:3264  _withdrawalFee <= 10 */\n      gt\n      iszero\n        /* \"contracts/KipuBank.sol\":3236:3290  require(_withdrawalFee <= 10, \"Fee cannot exceed 10%\") */\n      tag_172\n      jumpi\n      mload(0x40)\n      0x08c379a000000000000000000000000000000000000000000000000000000000\n      dup2\n      mstore\n      0x04\n      add\n      tag_173\n      swap1\n      tag_174\n      jump\t// in\n    tag_173:\n      mload(0x40)\n      dup1\n      swap2\n      sub\n      swap1\n      revert\n    tag_172:\n        /* \"contracts/KipuBank.sol\":3316:3330  _withdrawalFee */\n      dup1\n        /* \"contracts/KipuBank.sol\":3300:3313  withdrawalFee */\n      0x05\n        /* \"contracts/KipuBank.sol\":3300:3330  withdrawalFee = _withdrawalFee */\n      dup2\n      swap1\n      sstore\n      pop\n        /* \"contracts/KipuBank.sol\":3345:3381  WithdrawalFeeUpdated(_withdrawalFee) */\n      0xe94edcc114da5287ecb30ee8aacf12e6c16b11b8583d7f9e477ab1616e33d53d\n        /* \"contracts/KipuBank.sol\":3366:3380  _withdrawalFee */\n      dup2\n        /* \"contracts/KipuBank.sol\":3345:3381  WithdrawalFeeUpdated(_withdrawalFee) */\n      mload(0x40)\n      tag_175\n      swap2\n      swap1\n      tag_34\n      jump\t// in\n    tag_175:\n      mload(0x40)\n      dup1\n      swap2\n      sub\n      swap1\n      log1\n        /* \"contracts/KipuBank.sol\":3157:3388  function setWithdrawalFee(uint256 _withdrawalFee) external onlyOwner {... */\n      pop\n      jump\t// out\n        /* \"contracts/KipuBank.sol\":1517:2019  function deposit(uint256 amount) external nonReentrant {... */\n    tag_68:\n        /* \"@openzeppelin/contracts/utils/ReentrancyGuard.sol\":2500:2521  _nonReentrantBefore() */\n      tag_177\n        /* \"@openzeppelin/contracts/utils/ReentrancyGuard.sol\":2500:2519  _nonReentrantBefore */\n      tag_89\n        /* \"@openzeppelin/contracts/utils/ReentrancyGuard.sol\":2500:2521  _nonReentrantBefore() */\n      jump\t// in\n    tag_177:\n        /* \"contracts/KipuBank.sol\":1590:1598  accounts */\n      0x03\n        /* \"contracts/KipuBank.sol\":1590:1610  accounts[msg.sender] */\n      0x00\n        /* \"contracts/KipuBank.sol\":1599:1609  msg.sender */\n      caller\n        /* \"contracts/KipuBank.sol\":1590:1610  accounts[msg.sender] */\n      0xffffffffffffffffffffffffffffffffffffffff\n      and\n      0xffffffffffffffffffffffffffffffffffffffff\n      and\n      dup2\n      mstore\n      0x20\n      add\n      swap1\n      dup2\n      mstore\n      0x20\n      add\n      0x00\n      keccak256\n        /* \"contracts/KipuBank.sol\":1590:1617  accounts[msg.sender].exists */\n      0x02\n      add\n      0x00\n      swap1\n      sload\n      swap1\n      0x0100\n      exp\n      swap1\n      div\n      0xff\n      and\n        /* \"contracts/KipuBank.sol\":1582:1644  require(accounts[msg.sender].exists, \"Account does not exist\") */\n      tag_179\n      jumpi\n      mload(0x40)\n      0x08c379a000000000000000000000000000000000000000000000000000000000\n      dup2\n      mstore\n      0x04\n      add\n      tag_180\n      swap1\n      tag_93\n      jump\t// in\n    tag_180:\n      mload(0x40)\n      dup1\n      swap2\n      sub\n      swap1\n      revert\n    tag_179:\n        /* \"contracts/KipuBank.sol\":1672:1686  minimumDeposit */\n      sload(0x04)\n        /* \"contracts/KipuBank.sol\":1662:1668  amount */\n      dup2\n        /* \"contracts/KipuBank.sol\":1662:1686  amount >= minimumDeposit */\n      lt\n      iszero\n        /* \"contracts/KipuBank.sol\":1654:1719  require(amount >= minimumDeposit, \"Amount below minimum deposit\") */\n      tag_181\n      jumpi\n      mload(0x40)\n      0x08c379a000000000000000000000000000000000000000000000000000000000\n      dup2\n      mstore\n      0x04\n      add\n      tag_182\n      swap1\n      tag_183\n      jump\t// in\n    tag_182:\n      mload(0x40)\n      dup1\n      swap2\n      sub\n      swap1\n      revert\n    tag_181:\n        /* \"contracts/KipuBank.sol\":1730:1742  bool success */\n      0x00\n        /* \"contracts/KipuBank.sol\":1745:1750  token */\n      0x02\n      0x00\n      swap1\n      sload\n      swap1\n      0x0100\n      exp\n      swap1\n      div\n      0xffffffffffffffffffffffffffffffffffffffff\n      and\n        /* \"contracts/KipuBank.sol\":1745:1763  token.transferFrom */\n      0xffffffffffffffffffffffffffffffffffffffff\n      and\n      0x23b872dd\n        /* \"contracts/KipuBank.sol\":1764:1774  msg.sender */\n      caller\n        /* \"contracts/KipuBank.sol\":1784:1788  this */\n      address\n        /* \"contracts/KipuBank.sol\":1791:1797  amount */\n      dup6\n        /* \"contracts/KipuBank.sol\":1745:1798  token.transferFrom(msg.sender, address(this), amount) */\n      mload(0x40)\n      dup5\n      0xffffffff\n      and\n      0xe0\n      shl\n      dup2\n      mstore\n      0x04\n      add\n      tag_184\n      swap4\n      swap3\n      swap2\n      swap1\n      tag_185\n      jump\t// in\n    tag_184:\n      0x20\n      mload(0x40)\n      dup1\n      dup4\n      sub\n      dup2\n      0x00\n      dup8\n      gas\n      call\n      iszero\n      dup1\n      iszero\n      tag_187\n      jumpi\n      returndatacopy(0x00, 0x00, returndatasize)\n      revert(0x00, returndatasize)\n    tag_187:\n      pop\n      pop\n      pop\n      pop\n      mload(0x40)\n      returndatasize\n      not(0x1f)\n      0x1f\n      dup3\n      add\n      and\n      dup3\n      add\n      dup1\n      0x40\n      mstore\n      pop\n      dup2\n      add\n      swap1\n      tag_188\n      swap2\n      swap1\n      tag_114\n      jump\t// in\n    tag_188:\n        /* \"contracts/KipuBank.sol\":1730:1798  bool success = token.transferFrom(msg.sender, address(this), amount) */\n      swap1\n      pop\n        /* \"contracts/KipuBank.sol\":1816:1823  success */\n      dup1\n        /* \"contracts/KipuBank.sol\":1808:1849  require(success, \"Token transfer failed\") */\n      tag_189\n      jumpi\n      mload(0x40)\n      0x08c379a000000000000000000000000000000000000000000000000000000000\n      dup2\n      mstore\n      0x04\n      add\n      tag_190\n      swap1\n      tag_117\n      jump\t// in\n    tag_190:\n      mload(0x40)\n      dup1\n      swap2\n      sub\n      swap1\n      revert\n    tag_189:\n        /* \"contracts/KipuBank.sol\":1892:1898  amount */\n      dup2\n        /* \"contracts/KipuBank.sol\":1860:1868  accounts */\n      0x03\n        /* \"contracts/KipuBank.sol\":1860:1880  accounts[msg.sender] */\n      0x00\n        /* \"contracts/KipuBank.sol\":1869:1879  msg.sender */\n      caller\n        /* \"contracts/KipuBank.sol\":1860:1880  accounts[msg.sender] */\n      0xffffffffffffffffffffffffffffffffffffffff\n      and\n      0xffffffffffffffffffffffffffffffffffffffff\n      and\n      dup2\n      mstore\n      0x20\n      add\n      swap1\n      dup2\n      mstore\n      0x20\n      add\n      0x00\n      keccak256\n        /* \"contracts/KipuBank.sol\":1860:1888  accounts[msg.sender].balance */\n      0x00\n      add\n      0x00\n        /* \"contracts/KipuBank.sol\":1860:1898  accounts[msg.sender].balance += amount */\n      dup3\n      dup3\n      sload\n      tag_191\n      swap2\n      swap1\n      tag_98\n      jump\t// in\n    tag_191:\n      swap3\n      pop\n      pop\n      dup2\n      swap1\n      sstore\n      pop\n        /* \"contracts/KipuBank.sol\":1952:1967  block.timestamp */\n      timestamp\n        /* \"contracts/KipuBank.sol\":1908:1916  accounts */\n      0x03\n        /* \"contracts/KipuBank.sol\":1908:1928  accounts[msg.sender] */\n      0x00\n        /* \"contracts/KipuBank.sol\":1917:1927  msg.sender */\n      caller\n        /* \"contracts/KipuBank.sol\":1908:1928  accounts[msg.sender] */\n      0xffffffffffffffffffffffffffffffffffffffff\n      and\n      0xffffffffffffffffffffffffffffffffffffffff\n      and\n      dup2\n      mstore\n      0x20\n      add\n      swap1\n      dup2\n      mstore\n      0x20\n      add\n      0x00\n      keccak256\n        /* \"contracts/KipuBank.sol\":1908:1949  accounts[msg.sender].lastDepositTimestamp */\n      0x01\n      add\n        /* \"contracts/KipuBank.sol\":1908:1967  accounts[msg.sender].lastDepositTimestamp = block.timestamp */\n      dup2\n      swap1\n      sstore\n      pop\n        /* \"contracts/KipuBank.sol\":1993:2003  msg.sender */\n      caller\n        /* \"contracts/KipuBank.sol\":1983:2012  Deposited(msg.sender, amount) */\n      0xffffffffffffffffffffffffffffffffffffffff\n      and\n      0x2da466a7b24304f47e87fa2e1e5a81b9831ce54fec19055ce277ca2f39ba42c4\n        /* \"contracts/KipuBank.sol\":2005:2011  amount */\n      dup4\n        /* \"contracts/KipuBank.sol\":1983:2012  Deposited(msg.sender, amount) */\n      mload(0x40)\n      tag_192\n      swap2\n      swap1\n      tag_34\n      jump\t// in\n    tag_192:\n      mload(0x40)\n      dup1\n      swap2\n      sub\n      swap1\n      log2\n        /* \"contracts/KipuBank.sol\":1572:2019  {... */\n      pop\n        /* \"@openzeppelin/contracts/utils/ReentrancyGuard.sol\":2542:2562  _nonReentrantAfter() */\n      tag_193\n        /* \"@openzeppelin/contracts/utils/ReentrancyGuard.sol\":2542:2560  _nonReentrantAfter */\n      tag_121\n        /* \"@openzeppelin/contracts/utils/ReentrancyGuard.sol\":2542:2562  _nonReentrantAfter() */\n      jump\t// in\n    tag_193:\n        /* \"contracts/KipuBank.sol\":1517:2019  function deposit(uint256 amount) external nonReentrant {... */\n      pop\n      jump\t// out\n        /* \"contracts/KipuBank.sol\":2978:3151  function setMinimumDeposit(uint256 _minimumDeposit) external onlyOwner {... */\n    tag_71:\n        /* \"@openzeppelin/contracts/access/Ownable.sol\":1531:1544  _checkOwner() */\n      tag_195\n        /* \"@openzeppelin/contracts/access/Ownable.sol\":1531:1542  _checkOwner */\n      tag_81\n        /* \"@openzeppelin/contracts/access/Ownable.sol\":1531:1544  _checkOwner() */\n      jump\t// in\n    tag_195:\n        /* \"contracts/KipuBank.sol\":3076:3091  _minimumDeposit */\n      dup1\n        /* \"contracts/KipuBank.sol\":3059:3073  minimumDeposit */\n      0x04\n        /* \"contracts/KipuBank.sol\":3059:3091  minimumDeposit = _minimumDeposit */\n      dup2\n      swap1\n      sstore\n      pop\n        /* \"contracts/KipuBank.sol\":3106:3144  MinimumDepositUpdated(_minimumDeposit) */\n      0xd939191be6b640bc40ef7c6a17554ac82dfea02602fcacfad13dcd71d0abe6d0\n        /* \"contracts/KipuBank.sol\":3128:3143  _minimumDeposit */\n      dup2\n        /* \"contracts/KipuBank.sol\":3106:3144  MinimumDepositUpdated(_minimumDeposit) */\n      mload(0x40)\n      tag_197\n      swap2\n      swap1\n      tag_34\n      jump\t// in\n    tag_197:\n      mload(0x40)\n      dup1\n      swap2\n      sub\n      swap1\n      log1\n        /* \"contracts/KipuBank.sol\":2978:3151  function setMinimumDeposit(uint256 _minimumDeposit) external onlyOwner {... */\n      pop\n      jump\t// out\n        /* \"@openzeppelin/contracts/access/Ownable.sol\":2543:2758  function transferOwnership(address newOwner) public virtual onlyOwner {... */\n    tag_74:\n        /* \"@openzeppelin/contracts/access/Ownable.sol\":1531:1544  _checkOwner() */\n      tag_199\n        /* \"@openzeppelin/contracts/access/Ownable.sol\":1531:1542  _checkOwner */\n      tag_81\n        /* \"@openzeppelin/contracts/access/Ownable.sol\":1531:1544  _checkOwner() */\n      jump\t// in\n    tag_199:\n        /* \"@openzeppelin/contracts/access/Ownable.sol\":2647:2648  0 */\n      0x00\n        /* \"@openzeppelin/contracts/access/Ownable.sol\":2627:2649  newOwner == address(0) */\n      0xffffffffffffffffffffffffffffffffffffffff\n      and\n        /* \"@openzeppelin/contracts/access/Ownable.sol\":2627:2635  newOwner */\n      dup2\n        /* \"@openzeppelin/contracts/access/Ownable.sol\":2627:2649  newOwner == address(0) */\n      0xffffffffffffffffffffffffffffffffffffffff\n      and\n      sub\n        /* \"@openzeppelin/contracts/access/Ownable.sol\":2623:2714  if (newOwner == address(0)) {... */\n      tag_201\n      jumpi\n        /* \"@openzeppelin/contracts/access/Ownable.sol\":2700:2701  0 */\n      0x00\n        /* \"@openzeppelin/contracts/access/Ownable.sol\":2672:2703  OwnableInvalidOwner(address(0)) */\n      mload(0x40)\n      0x1e4fbdf700000000000000000000000000000000000000000000000000000000\n      dup2\n      mstore\n      0x04\n      add\n      tag_202\n      swap2\n      swap1\n      tag_56\n      jump\t// in\n    tag_202:\n      mload(0x40)\n      dup1\n      swap2\n      sub\n      swap1\n      revert\n        /* \"@openzeppelin/contracts/access/Ownable.sol\":2623:2714  if (newOwner == address(0)) {... */\n    tag_201:\n        /* \"@openzeppelin/contracts/access/Ownable.sol\":2723:2751  _transferOwnership(newOwner) */\n      tag_203\n        /* \"@openzeppelin/contracts/access/Ownable.sol\":2742:2750  newOwner */\n      dup2\n        /* \"@openzeppelin/contracts/access/Ownable.sol\":2723:2741  _transferOwnership */\n      tag_156\n        /* \"@openzeppelin/contracts/access/Ownable.sol\":2723:2751  _transferOwnership(newOwner) */\n      jump\t// in\n    tag_203:\n        /* \"@openzeppelin/contracts/access/Ownable.sol\":2543:2758  function transferOwnership(address newOwner) public virtual onlyOwner {... */\n      pop\n      jump\t// out\n        /* \"contracts/KipuBank.sol\":281:300  IERC20 public token */\n    tag_76:\n      0x02\n      0x00\n      swap1\n      sload\n      swap1\n      0x0100\n      exp\n      swap1\n      div\n      0xffffffffffffffffffffffffffffffffffffffff\n      and\n      dup2\n      jump\t// out\n        /* \"@openzeppelin/contracts/access/Ownable.sol\":1796:1958  function _checkOwner() internal view virtual {... */\n    tag_81:\n        /* \"@openzeppelin/contracts/access/Ownable.sol\":1866:1878  _msgSender() */\n      tag_205\n        /* \"@openzeppelin/contracts/access/Ownable.sol\":1866:1876  _msgSender */\n      tag_206\n        /* \"@openzeppelin/contracts/access/Ownable.sol\":1866:1878  _msgSender() */\n      jump\t// in\n    tag_205:\n        /* \"@openzeppelin/contracts/access/Ownable.sol\":1855:1878  owner() != _msgSender() */\n      0xffffffffffffffffffffffffffffffffffffffff\n      and\n        /* \"@openzeppelin/contracts/access/Ownable.sol\":1855:1862  owner() */\n      tag_207\n        /* \"@openzeppelin/contracts/access/Ownable.sol\":1855:1860  owner */\n      tag_54\n        /* \"@openzeppelin/contracts/access/Ownable.sol\":1855:1862  owner() */\n      jump\t// in\n    tag_207:\n        /* \"@openzeppelin/contracts/access/Ownable.sol\":1855:1878  owner() != _msgSender() */\n      0xffffffffffffffffffffffffffffffffffffffff\n      and\n      eq\n        /* \"@openzeppelin/contracts/access/Ownable.sol\":1851:1952  if (owner() != _msgSender()) {... */\n      tag_208\n      jumpi\n        /* \"@openzeppelin/contracts/access/Ownable.sol\":1928:1940  _msgSender() */\n      tag_209\n        /* \"@openzeppelin/contracts/access/Ownable.sol\":1928:1938  _msgSender */\n      tag_206\n        /* \"@openzeppelin/contracts/access/Ownable.sol\":1928:1940  _msgSender() */\n      jump\t// in\n    tag_209:\n        /* \"@openzeppelin/contracts/access/Ownable.sol\":1901:1941  OwnableUnauthorizedAccount(_msgSender()) */\n      mload(0x40)\n      0x118cdaa700000000000000000000000000000000000000000000000000000000\n      dup2\n      mstore\n      0x04\n      add\n      tag_210\n      swap2\n      swap1\n      tag_56\n      jump\t// in\n    tag_210:\n      mload(0x40)\n      dup1\n      swap2\n      sub\n      swap1\n      revert\n        /* \"@openzeppelin/contracts/access/Ownable.sol\":1851:1952  if (owner() != _msgSender()) {... */\n    tag_208:\n        /* \"@openzeppelin/contracts/access/Ownable.sol\":1796:1958  function _checkOwner() internal view virtual {... */\n      jump\t// out\n        /* \"@openzeppelin/contracts/utils/ReentrancyGuard.sol\":2575:2882  function _nonReentrantBefore() private {... */\n    tag_89:\n        /* \"@openzeppelin/contracts/utils/ReentrancyGuard.sol\":1899:1900  2 */\n      0x02\n        /* \"@openzeppelin/contracts/utils/ReentrancyGuard.sol\":2702:2709  _status */\n      sload(0x01)\n        /* \"@openzeppelin/contracts/utils/ReentrancyGuard.sol\":2702:2720  _status == ENTERED */\n      sub\n        /* \"@openzeppelin/contracts/utils/ReentrancyGuard.sol\":2698:2784  if (_status == ENTERED) {... */\n      tag_212\n      jumpi\n        /* \"@openzeppelin/contracts/utils/ReentrancyGuard.sol\":2743:2773  ReentrancyGuardReentrantCall() */\n      mload(0x40)\n      0x3ee5aeb500000000000000000000000000000000000000000000000000000000\n      dup2\n      mstore\n      0x04\n      add\n      mload(0x40)\n      dup1\n      swap2\n      sub\n      swap1\n      revert\n        /* \"@openzeppelin/contracts/utils/ReentrancyGuard.sol\":2698:2784  if (_status == ENTERED) {... */\n    tag_212:\n        /* \"@openzeppelin/contracts/utils/ReentrancyGuard.sol\":1899:1900  2 */\n      0x02\n        /* \"@openzeppelin/contracts/utils/ReentrancyGuard.sol\":2858:2865  _status */\n      0x01\n        /* \"@openzeppelin/contracts/utils/ReentrancyGuard.sol\":2858:2875  _status = ENTERED */\n      dup2\n      swap1\n      sstore\n      pop\n        /* \"@openzeppelin/contracts/utils/ReentrancyGuard.sol\":2575:2882  function _nonReentrantBefore() private {... */\n      jump\t// out\n        /* \"@openzeppelin/contracts/utils/ReentrancyGuard.sol\":2888:3096  function _nonReentrantAfter() private {... */\n    tag_121:\n        /* \"@openzeppelin/contracts/utils/ReentrancyGuard.sol\":1857:1858  1 */\n      0x01\n        /* \"@openzeppelin/contracts/utils/ReentrancyGuard.sol\":3068:3075  _status */\n      dup1\n        /* \"@openzeppelin/contracts/utils/ReentrancyGuard.sol\":3068:3089  _status = NOT_ENTERED */\n      dup2\n      swap1\n      sstore\n      pop\n        /* \"@openzeppelin/contracts/utils/ReentrancyGuard.sol\":2888:3096  function _nonReentrantAfter() private {... */\n      jump\t// out\n        /* \"@openzeppelin/contracts/access/Ownable.sol\":2912:3099  function _transferOwnership(address newOwner) internal virtual {... */\n    tag_156:\n        /* \"@openzeppelin/contracts/access/Ownable.sol\":2985:3001  address oldOwner */\n      0x00\n        /* \"@openzeppelin/contracts/access/Ownable.sol\":3004:3010  _owner */\n      0x00\n      0x00\n      swap1\n      sload\n      swap1\n      0x0100\n      exp\n      swap1\n      div\n      0xffffffffffffffffffffffffffffffffffffffff\n      and\n        /* \"@openzeppelin/contracts/access/Ownable.sol\":2985:3010  address oldOwner = _owner */\n      swap1\n      pop\n        /* \"@openzeppelin/contracts/access/Ownable.sol\":3029:3037  newOwner */\n      dup2\n        /* \"@openzeppelin/contracts/access/Ownable.sol\":3020:3026  _owner */\n      0x00\n      0x00\n        /* \"@openzeppelin/contracts/access/Ownable.sol\":3020:3037  _owner = newOwner */\n      0x0100\n      exp\n      dup2\n      sload\n      dup2\n      0xffffffffffffffffffffffffffffffffffffffff\n      mul\n      not\n      and\n      swap1\n      dup4\n      0xffffffffffffffffffffffffffffffffffffffff\n      and\n      mul\n      or\n      swap1\n      sstore\n      pop\n        /* \"@openzeppelin/contracts/access/Ownable.sol\":3083:3091  newOwner */\n      dup2\n        /* \"@openzeppelin/contracts/access/Ownable.sol\":3052:3092  OwnershipTransferred(oldOwner, newOwner) */\n      0xffffffffffffffffffffffffffffffffffffffff\n      and\n        /* \"@openzeppelin/contracts/access/Ownable.sol\":3073:3081  oldOwner */\n      dup2\n        /* \"@openzeppelin/contracts/access/Ownable.sol\":3052:3092  OwnershipTransferred(oldOwner, newOwner) */\n      0xffffffffffffffffffffffffffffffffffffffff\n      and\n      0x8be0079c531659141344cd1fd0a4f28419497f9722a3daafe3b4186f6b6457e0\n      mload(0x40)\n      mload(0x40)\n      dup1\n      swap2\n      sub\n      swap1\n      log3\n        /* \"@openzeppelin/contracts/access/Ownable.sol\":2975:3099  {... */\n      pop\n        /* \"@openzeppelin/contracts/access/Ownable.sol\":2912:3099  function _transferOwnership(address newOwner) internal virtual {... */\n      pop\n      jump\t// out\n        /* \"@openzeppelin/contracts/utils/Context.sol\":656:752  function _msgSender() internal view virtual returns (address) {... */\n    tag_206:\n        /* \"@openzeppelin/contracts/utils/Context.sol\":709:716  address */\n      0x00\n        /* \"@openzeppelin/contracts/utils/Context.sol\":735:745  msg.sender */\n      caller\n        /* \"@openzeppelin/contracts/utils/Context.sol\":728:745  return msg.sender */\n      swap1\n      pop\n        /* \"@openzeppelin/contracts/utils/Context.sol\":656:752  function _msgSender() internal view virtual returns (address) {... */\n      swap1\n      jump\t// out\n        /* \"#utility.yul\":88:205   */\n    tag_217:\n        /* \"#utility.yul\":197:198   */\n      0x00\n        /* \"#utility.yul\":194:195   */\n      0x00\n        /* \"#utility.yul\":187:199   */\n      revert\n        /* \"#utility.yul\":334:460   */\n    tag_219:\n        /* \"#utility.yul\":371:378   */\n      0x00\n        /* \"#utility.yul\":411:453   */\n      0xffffffffffffffffffffffffffffffffffffffff\n        /* \"#utility.yul\":404:409   */\n      dup3\n        /* \"#utility.yul\":400:454   */\n      and\n        /* \"#utility.yul\":389:454   */\n      swap1\n      pop\n        /* \"#utility.yul\":334:460   */\n      swap2\n      swap1\n      pop\n      jump\t// out\n        /* \"#utility.yul\":466:562   */\n    tag_220:\n        /* \"#utility.yul\":503:510   */\n      0x00\n        /* \"#utility.yul\":532:556   */\n      tag_265\n        /* \"#utility.yul\":550:555   */\n      dup3\n        /* \"#utility.yul\":532:556   */\n      tag_219\n      jump\t// in\n    tag_265:\n        /* \"#utility.yul\":521:556   */\n      swap1\n      pop\n        /* \"#utility.yul\":466:562   */\n      swap2\n      swap1\n      pop\n      jump\t// out\n        /* \"#utility.yul\":568:690   */\n    tag_221:\n        /* \"#utility.yul\":641:665   */\n      tag_267\n        /* \"#utility.yul\":659:664   */\n      dup2\n        /* \"#utility.yul\":641:665   */\n      tag_220\n      jump\t// in\n    tag_267:\n        /* \"#utility.yul\":634:639   */\n      dup2\n        /* \"#utility.yul\":631:666   */\n      eq\n        /* \"#utility.yul\":621:684   */\n      tag_268\n      jumpi\n        /* \"#utility.yul\":680:681   */\n      0x00\n        /* \"#utility.yul\":677:678   */\n      0x00\n        /* \"#utility.yul\":670:682   */\n      revert\n        /* \"#utility.yul\":621:684   */\n    tag_268:\n        /* \"#utility.yul\":568:690   */\n      pop\n      jump\t// out\n        /* \"#utility.yul\":696:835   */\n    tag_222:\n        /* \"#utility.yul\":742:747   */\n      0x00\n        /* \"#utility.yul\":780:786   */\n      dup2\n        /* \"#utility.yul\":767:787   */\n      calldataload\n        /* \"#utility.yul\":758:787   */\n      swap1\n      pop\n        /* \"#utility.yul\":796:829   */\n      tag_270\n        /* \"#utility.yul\":823:828   */\n      dup2\n        /* \"#utility.yul\":796:829   */\n      tag_221\n      jump\t// in\n    tag_270:\n        /* \"#utility.yul\":696:835   */\n      swap3\n      swap2\n      pop\n      pop\n      jump\t// out\n        /* \"#utility.yul\":841:1170   */\n    tag_25:\n        /* \"#utility.yul\":900:906   */\n      0x00\n        /* \"#utility.yul\":949:951   */\n      0x20\n        /* \"#utility.yul\":937:946   */\n      dup3\n        /* \"#utility.yul\":928:935   */\n      dup5\n        /* \"#utility.yul\":924:947   */\n      sub\n        /* \"#utility.yul\":920:952   */\n      slt\n        /* \"#utility.yul\":917:1036   */\n      iszero\n      tag_272\n      jumpi\n        /* \"#utility.yul\":955:1034   */\n      tag_273\n      tag_217\n      jump\t// in\n    tag_273:\n        /* \"#utility.yul\":917:1036   */\n    tag_272:\n        /* \"#utility.yul\":1075:1076   */\n      0x00\n        /* \"#utility.yul\":1100:1153   */\n      tag_274\n        /* \"#utility.yul\":1145:1152   */\n      dup5\n        /* \"#utility.yul\":1136:1142   */\n      dup3\n        /* \"#utility.yul\":1125:1134   */\n      dup6\n        /* \"#utility.yul\":1121:1143   */\n      add\n        /* \"#utility.yul\":1100:1153   */\n      tag_222\n      jump\t// in\n    tag_274:\n        /* \"#utility.yul\":1090:1153   */\n      swap2\n      pop\n        /* \"#utility.yul\":1046:1163   */\n      pop\n        /* \"#utility.yul\":841:1170   */\n      swap3\n      swap2\n      pop\n      pop\n      jump\t// out\n        /* \"#utility.yul\":1176:1253   */\n    tag_223:\n        /* \"#utility.yul\":1213:1220   */\n      0x00\n        /* \"#utility.yul\":1242:1247   */\n      dup2\n        /* \"#utility.yul\":1231:1247   */\n      swap1\n      pop\n        /* \"#utility.yul\":1176:1253   */\n      swap2\n      swap1\n      pop\n      jump\t// out\n        /* \"#utility.yul\":1259:1381   */\n    tag_224:\n        /* \"#utility.yul\":1332:1356   */\n      tag_277\n        /* \"#utility.yul\":1350:1355   */\n      dup2\n        /* \"#utility.yul\":1332:1356   */\n      tag_223\n      jump\t// in\n    tag_277:\n        /* \"#utility.yul\":1325:1330   */\n      dup2\n        /* \"#utility.yul\":1322:1357   */\n      eq\n        /* \"#utility.yul\":1312:1375   */\n      tag_278\n      jumpi\n        /* \"#utility.yul\":1371:1372   */\n      0x00\n        /* \"#utility.yul\":1368:1369   */\n      0x00\n        /* \"#utility.yul\":1361:1373   */\n      revert\n        /* \"#utility.yul\":1312:1375   */\n    tag_278:\n        /* \"#utility.yul\":1259:1381   */\n      pop\n      jump\t// out\n        /* \"#utility.yul\":1387:1526   */\n    tag_225:\n        /* \"#utility.yul\":1433:1438   */\n      0x00\n        /* \"#utility.yul\":1471:1477   */\n      dup2\n        /* \"#utility.yul\":1458:1478   */\n      calldataload\n        /* \"#utility.yul\":1449:1478   */\n      swap1\n      pop\n        /* \"#utility.yul\":1487:1520   */\n      tag_280\n        /* \"#utility.yul\":1514:1519   */\n      dup2\n        /* \"#utility.yul\":1487:1520   */\n      tag_224\n      jump\t// in\n    tag_280:\n        /* \"#utility.yul\":1387:1526   */\n      swap3\n      swap2\n      pop\n      pop\n      jump\t// out\n        /* \"#utility.yul\":1532:1861   */\n    tag_29:\n        /* \"#utility.yul\":1591:1597   */\n      0x00\n        /* \"#utility.yul\":1640:1642   */\n      0x20\n        /* \"#utility.yul\":1628:1637   */\n      dup3\n        /* \"#utility.yul\":1619:1626   */\n      dup5\n        /* \"#utility.yul\":1615:1638   */\n      sub\n        /* \"#utility.yul\":1611:1643   */\n      slt\n        /* \"#utility.yul\":1608:1727   */\n      iszero\n      tag_282\n      jumpi\n        /* \"#utility.yul\":1646:1725   */\n      tag_283\n      tag_217\n      jump\t// in\n    tag_283:\n        /* \"#utility.yul\":1608:1727   */\n    tag_282:\n        /* \"#utility.yul\":1766:1767   */\n      0x00\n        /* \"#utility.yul\":1791:1844   */\n      tag_284\n        /* \"#utility.yul\":1836:1843   */\n      dup5\n        /* \"#utility.yul\":1827:1833   */\n      dup3\n        /* \"#utility.yul\":1816:1825   */\n      dup6\n        /* \"#utility.yul\":1812:1834   */\n      add\n        /* \"#utility.yul\":1791:1844   */\n      tag_225\n      jump\t// in\n    tag_284:\n        /* \"#utility.yul\":1781:1844   */\n      swap2\n      pop\n        /* \"#utility.yul\":1737:1854   */\n      pop\n        /* \"#utility.yul\":1532:1861   */\n      swap3\n      swap2\n      pop\n      pop\n      jump\t// out\n        /* \"#utility.yul\":1867:1985   */\n    tag_226:\n        /* \"#utility.yul\":1954:1978   */\n      tag_286\n        /* \"#utility.yul\":1972:1977   */\n      dup2\n        /* \"#utility.yul\":1954:1978   */\n      tag_223\n      jump\t// in\n    tag_286:\n        /* \"#utility.yul\":1949:1952   */\n      dup3\n        /* \"#utility.yul\":1942:1979   */\n      mstore\n        /* \"#utility.yul\":1867:1985   */\n      pop\n      pop\n      jump\t// out\n        /* \"#utility.yul\":1991:2213   */\n    tag_34:\n        /* \"#utility.yul\":2084:2088   */\n      0x00\n        /* \"#utility.yul\":2122:2124   */\n      0x20\n        /* \"#utility.yul\":2111:2120   */\n      dup3\n        /* \"#utility.yul\":2107:2125   */\n      add\n        /* \"#utility.yul\":2099:2125   */\n      swap1\n      pop\n        /* \"#utility.yul\":2135:2206   */\n      tag_288\n        /* \"#utility.yul\":2203:2204   */\n      0x00\n        /* \"#utility.yul\":2192:2201   */\n      dup4\n        /* \"#utility.yul\":2188:2205   */\n      add\n        /* \"#utility.yul\":2179:2185   */\n      dup5\n        /* \"#utility.yul\":2135:2206   */\n      tag_226\n      jump\t// in\n    tag_288:\n        /* \"#utility.yul\":1991:2213   */\n      swap3\n      swap2\n      pop\n      pop\n      jump\t// out\n        /* \"#utility.yul\":2219:2309   */\n    tag_227:\n        /* \"#utility.yul\":2253:2260   */\n      0x00\n        /* \"#utility.yul\":2296:2301   */\n      dup2\n        /* \"#utility.yul\":2289:2302   */\n      iszero\n        /* \"#utility.yul\":2282:2303   */\n      iszero\n        /* \"#utility.yul\":2271:2303   */\n      swap1\n      pop\n        /* \"#utility.yul\":2219:2309   */\n      swap2\n      swap1\n      pop\n      jump\t// out\n        /* \"#utility.yul\":2315:2424   */\n    tag_228:\n        /* \"#utility.yul\":2396:2417   */\n      tag_291\n        /* \"#utility.yul\":2411:2416   */\n      dup2\n        /* \"#utility.yul\":2396:2417   */\n      tag_227\n      jump\t// in\n    tag_291:\n        /* \"#utility.yul\":2391:2394   */\n      dup3\n        /* \"#utility.yul\":2384:2418   */\n      mstore\n        /* \"#utility.yul\":2315:2424   */\n      pop\n      pop\n      jump\t// out\n        /* \"#utility.yul\":2430:2860   */\n    tag_41:\n        /* \"#utility.yul\":2573:2577   */\n      0x00\n        /* \"#utility.yul\":2611:2613   */\n      0x60\n        /* \"#utility.yul\":2600:2609   */\n      dup3\n        /* \"#utility.yul\":2596:2614   */\n      add\n        /* \"#utility.yul\":2588:2614   */\n      swap1\n      pop\n        /* \"#utility.yul\":2624:2695   */\n      tag_293\n        /* \"#utility.yul\":2692:2693   */\n      0x00\n        /* \"#utility.yul\":2681:2690   */\n      dup4\n        /* \"#utility.yul\":2677:2694   */\n      add\n        /* \"#utility.yul\":2668:2674   */\n      dup7\n        /* \"#utility.yul\":2624:2695   */\n      tag_226\n      jump\t// in\n    tag_293:\n        /* \"#utility.yul\":2705:2777   */\n      tag_294\n        /* \"#utility.yul\":2773:2775   */\n      0x20\n        /* \"#utility.yul\":2762:2771   */\n      dup4\n        /* \"#utility.yul\":2758:2776   */\n      add\n        /* \"#utility.yul\":2749:2755   */\n      dup6\n        /* \"#utility.yul\":2705:2777   */\n      tag_226\n      jump\t// in\n    tag_294:\n        /* \"#utility.yul\":2787:2853   */\n      tag_295\n        /* \"#utility.yul\":2849:2851   */\n      0x40\n        /* \"#utility.yul\":2838:2847   */\n      dup4\n        /* \"#utility.yul\":2834:2852   */\n      add\n        /* \"#utility.yul\":2825:2831   */\n      dup5\n        /* \"#utility.yul\":2787:2853   */\n      tag_228\n      jump\t// in\n    tag_295:\n        /* \"#utility.yul\":2430:2860   */\n      swap5\n      swap4\n      pop\n      pop\n      pop\n      pop\n      jump\t// out\n        /* \"#utility.yul\":2866:2984   */\n    tag_229:\n        /* \"#utility.yul\":2953:2977   */\n      tag_297\n        /* \"#utility.yul\":2971:2976   */\n      dup2\n        /* \"#utility.yul\":2953:2977   */\n      tag_220\n      jump\t// in\n    tag_297:\n        /* \"#utility.yul\":2948:2951   */\n      dup3\n        /* \"#utility.yul\":2941:2978   */\n      mstore\n        /* \"#utility.yul\":2866:2984   */\n      pop\n      pop\n      jump\t// out\n        /* \"#utility.yul\":2990:3212   */\n    tag_56:\n        /* \"#utility.yul\":3083:3087   */\n      0x00\n        /* \"#utility.yul\":3121:3123   */\n      0x20\n        /* \"#utility.yul\":3110:3119   */\n      dup3\n        /* \"#utility.yul\":3106:3124   */\n      add\n        /* \"#utility.yul\":3098:3124   */\n      swap1\n      pop\n        /* \"#utility.yul\":3134:3205   */\n      tag_299\n        /* \"#utility.yul\":3202:3203   */\n      0x00\n        /* \"#utility.yul\":3191:3200   */\n      dup4\n        /* \"#utility.yul\":3187:3204   */\n      add\n        /* \"#utility.yul\":3178:3184   */\n      dup5\n        /* \"#utility.yul\":3134:3205   */\n      tag_229\n      jump\t// in\n    tag_299:\n        /* \"#utility.yul\":2990:3212   */\n      swap3\n      swap2\n      pop\n      pop\n      jump\t// out\n        /* \"#utility.yul\":3218:3278   */\n    tag_230:\n        /* \"#utility.yul\":3246:3249   */\n      0x00\n        /* \"#utility.yul\":3267:3272   */\n      dup2\n        /* \"#utility.yul\":3260:3272   */\n      swap1\n      pop\n        /* \"#utility.yul\":3218:3278   */\n      swap2\n      swap1\n      pop\n      jump\t// out\n        /* \"#utility.yul\":3284:3426   */\n    tag_231:\n        /* \"#utility.yul\":3334:3343   */\n      0x00\n        /* \"#utility.yul\":3367:3420   */\n      tag_302\n        /* \"#utility.yul\":3385:3419   */\n      tag_303\n        /* \"#utility.yul\":3394:3418   */\n      tag_304\n        /* \"#utility.yul\":3412:3417   */\n      dup5\n        /* \"#utility.yul\":3394:3418   */\n      tag_219\n      jump\t// in\n    tag_304:\n        /* \"#utility.yul\":3385:3419   */\n      tag_230\n      jump\t// in\n    tag_303:\n        /* \"#utility.yul\":3367:3420   */\n      tag_219\n      jump\t// in\n    tag_302:\n        /* \"#utility.yul\":3354:3420   */\n      swap1\n      pop\n        /* \"#utility.yul\":3284:3426   */\n      swap2\n      swap1\n      pop\n      jump\t// out\n        /* \"#utility.yul\":3432:3558   */\n    tag_232:\n        /* \"#utility.yul\":3482:3491   */\n      0x00\n        /* \"#utility.yul\":3515:3552   */\n      tag_306\n        /* \"#utility.yul\":3546:3551   */\n      dup3\n        /* \"#utility.yul\":3515:3552   */\n      tag_231\n      jump\t// in\n    tag_306:\n        /* \"#utility.yul\":3502:3552   */\n      swap1\n      pop\n        /* \"#utility.yul\":3432:3558   */\n      swap2\n      swap1\n      pop\n      jump\t// out\n        /* \"#utility.yul\":3564:3704   */\n    tag_233:\n        /* \"#utility.yul\":3628:3637   */\n      0x00\n        /* \"#utility.yul\":3661:3698   */\n      tag_308\n        /* \"#utility.yul\":3692:3697   */\n      dup3\n        /* \"#utility.yul\":3661:3698   */\n      tag_232\n      jump\t// in\n    tag_308:\n        /* \"#utility.yul\":3648:3698   */\n      swap1\n      pop\n        /* \"#utility.yul\":3564:3704   */\n      swap2\n      swap1\n      pop\n      jump\t// out\n        /* \"#utility.yul\":3710:3869   */\n    tag_234:\n        /* \"#utility.yul\":3811:3862   */\n      tag_310\n        /* \"#utility.yul\":3856:3861   */\n      dup2\n        /* \"#utility.yul\":3811:3862   */\n      tag_233\n      jump\t// in\n    tag_310:\n        /* \"#utility.yul\":3806:3809   */\n      dup3\n        /* \"#utility.yul\":3799:3863   */\n      mstore\n        /* \"#utility.yul\":3710:3869   */\n      pop\n      pop\n      jump\t// out\n        /* \"#utility.yul\":3875:4125   */\n    tag_78:\n        /* \"#utility.yul\":3982:3986   */\n      0x00\n        /* \"#utility.yul\":4020:4022   */\n      0x20\n        /* \"#utility.yul\":4009:4018   */\n      dup3\n        /* \"#utility.yul\":4005:4023   */\n      add\n        /* \"#utility.yul\":3997:4023   */\n      swap1\n      pop\n        /* \"#utility.yul\":4033:4118   */\n      tag_312\n        /* \"#utility.yul\":4115:4116   */\n      0x00\n        /* \"#utility.yul\":4104:4113   */\n      dup4\n        /* \"#utility.yul\":4100:4117   */\n      add\n        /* \"#utility.yul\":4091:4097   */\n      dup5\n        /* \"#utility.yul\":4033:4118   */\n      tag_234\n      jump\t// in\n    tag_312:\n        /* \"#utility.yul\":3875:4125   */\n      swap3\n      swap2\n      pop\n      pop\n      jump\t// out\n        /* \"#utility.yul\":4131:4300   */\n    tag_235:\n        /* \"#utility.yul\":4215:4226   */\n      0x00\n        /* \"#utility.yul\":4249:4255   */\n      dup3\n        /* \"#utility.yul\":4244:4247   */\n      dup3\n        /* \"#utility.yul\":4237:4256   */\n      mstore\n        /* \"#utility.yul\":4289:4293   */\n      0x20\n        /* \"#utility.yul\":4284:4287   */\n      dup3\n        /* \"#utility.yul\":4280:4294   */\n      add\n        /* \"#utility.yul\":4265:4294   */\n      swap1\n      pop\n        /* \"#utility.yul\":4131:4300   */\n      swap3\n      swap2\n      pop\n      pop\n      jump\t// out\n        /* \"#utility.yul\":4306:4484   */\n    tag_236:\n        /* \"#utility.yul\":4446:4476   */\n      0x546f6b656e20616464726573732063616e6e6f74206265207a65726f00000000\n        /* \"#utility.yul\":4442:4443   */\n      0x00\n        /* \"#utility.yul\":4434:4440   */\n      dup3\n        /* \"#utility.yul\":4430:4444   */\n      add\n        /* \"#utility.yul\":4423:4477   */\n      mstore\n        /* \"#utility.yul\":4306:4484   */\n      pop\n      jump\t// out\n        /* \"#utility.yul\":4490:4856   */\n    tag_237:\n        /* \"#utility.yul\":4632:4635   */\n      0x00\n        /* \"#utility.yul\":4653:4720   */\n      tag_316\n        /* \"#utility.yul\":4717:4719   */\n      0x1c\n        /* \"#utility.yul\":4712:4715   */\n      dup4\n        /* \"#utility.yul\":4653:4720   */\n      tag_235\n      jump\t// in\n    tag_316:\n        /* \"#utility.yul\":4646:4720   */\n      swap2\n      pop\n        /* \"#utility.yul\":4729:4822   */\n      tag_317\n        /* \"#utility.yul\":4818:4821   */\n      dup3\n        /* \"#utility.yul\":4729:4822   */\n      tag_236\n      jump\t// in\n    tag_317:\n        /* \"#utility.yul\":4847:4849   */\n      0x20\n        /* \"#utility.yul\":4842:4845   */\n      dup3\n        /* \"#utility.yul\":4838:4850   */\n      add\n        /* \"#utility.yul\":4831:4850   */\n      swap1\n      pop\n        /* \"#utility.yul\":4490:4856   */\n      swap2\n      swap1\n      pop\n      jump\t// out\n        /* \"#utility.yul\":4862:5281   */\n    tag_85:\n        /* \"#utility.yul\":5028:5032   */\n      0x00\n        /* \"#utility.yul\":5066:5068   */\n      0x20\n        /* \"#utility.yul\":5055:5064   */\n      dup3\n        /* \"#utility.yul\":5051:5069   */\n      add\n        /* \"#utility.yul\":5043:5069   */\n      swap1\n      pop\n        /* \"#utility.yul\":5115:5124   */\n      dup2\n        /* \"#utility.yul\":5109:5113   */\n      dup2\n        /* \"#utility.yul\":5105:5125   */\n      sub\n        /* \"#utility.yul\":5101:5102   */\n      0x00\n        /* \"#utility.yul\":5090:5099   */\n      dup4\n        /* \"#utility.yul\":5086:5103   */\n      add\n        /* \"#utility.yul\":5079:5126   */\n      mstore\n        /* \"#utility.yul\":5143:5274   */\n      tag_319\n        /* \"#utility.yul\":5269:5273   */\n      dup2\n        /* \"#utility.yul\":5143:5274   */\n      tag_237\n      jump\t// in\n    tag_319:\n        /* \"#utility.yul\":5135:5274   */\n      swap1\n      pop\n        /* \"#utility.yul\":4862:5281   */\n      swap2\n      swap1\n      pop\n      jump\t// out\n        /* \"#utility.yul\":5287:5459   */\n    tag_238:\n        /* \"#utility.yul\":5427:5451   */\n      0x4163636f756e7420646f6573206e6f7420657869737400000000000000000000\n        /* \"#utility.yul\":5423:5424   */\n      0x00\n        /* \"#utility.yul\":5415:5421   */\n      dup3\n        /* \"#utility.yul\":5411:5425   */\n      add\n        /* \"#utility.yul\":5404:5452   */\n      mstore\n        /* \"#utility.yul\":5287:5459   */\n      pop\n      jump\t// out\n        /* \"#utility.yul\":5465:5831   */\n    tag_239:\n        /* \"#utility.yul\":5607:5610   */\n      0x00\n        /* \"#utility.yul\":5628:5695   */\n      tag_322\n        /* \"#utility.yul\":5692:5694   */\n      0x16\n        /* \"#utility.yul\":5687:5690   */\n      dup4\n        /* \"#utility.yul\":5628:5695   */\n      tag_235\n      jump\t// in\n    tag_322:\n        /* \"#utility.yul\":5621:5695   */\n      swap2\n      pop\n        /* \"#utility.yul\":5704:5797   */\n      tag_323\n        /* \"#utility.yul\":5793:5796   */\n      dup3\n        /* \"#utility.yul\":5704:5797   */\n      tag_238\n      jump\t// in\n    tag_323:\n        /* \"#utility.yul\":5822:5824   */\n      0x20\n        /* \"#utility.yul\":5817:5820   */\n      dup3\n        /* \"#utility.yul\":5813:5825   */\n      add\n        /* \"#utility.yul\":5806:5825   */\n      swap1\n      pop\n        /* \"#utility.yul\":5465:5831   */\n      swap2\n      swap1\n      pop\n      jump\t// out\n        /* \"#utility.yul\":5837:6256   */\n    tag_93:\n        /* \"#utility.yul\":6003:6007   */\n      0x00\n        /* \"#utility.yul\":6041:6043   */\n      0x20\n        /* \"#utility.yul\":6030:6039   */\n      dup3\n        /* \"#utility.yul\":6026:6044   */\n      add\n        /* \"#utility.yul\":6018:6044   */\n      swap1\n      pop\n        /* \"#utility.yul\":6090:6099   */\n      dup2\n        /* \"#utility.yul\":6084:6088   */\n      dup2\n        /* \"#utility.yul\":6080:6100   */\n      sub\n        /* \"#utility.yul\":6076:6077   */\n      0x00\n        /* \"#utility.yul\":6065:6074   */\n      dup4\n        /* \"#utility.yul\":6061:6078   */\n      add\n        /* \"#utility.yul\":6054:6101   */\n      mstore\n        /* \"#utility.yul\":6118:6249   */\n      tag_325\n        /* \"#utility.yul\":6244:6248   */\n      dup2\n        /* \"#utility.yul\":6118:6249   */\n      tag_239\n      jump\t// in\n    tag_325:\n        /* \"#utility.yul\":6110:6249   */\n      swap1\n      pop\n        /* \"#utility.yul\":5837:6256   */\n      swap2\n      swap1\n      pop\n      jump\t// out\n        /* \"#utility.yul\":6262:6432   */\n    tag_240:\n        /* \"#utility.yul\":6402:6424   */\n      0x496e73756666696369656e742062616c616e6365000000000000000000000000\n        /* \"#utility.yul\":6398:6399   */\n      0x00\n        /* \"#utility.yul\":6390:6396   */\n      dup3\n        /* \"#utility.yul\":6386:6400   */\n      add\n        /* \"#utility.yul\":6379:6425   */\n      mstore\n        /* \"#utility.yul\":6262:6432   */\n      pop\n      jump\t// out\n        /* \"#utility.yul\":6438:6804   */\n    tag_241:\n        /* \"#utility.yul\":6580:6583   */\n      0x00\n        /* \"#utility.yul\":6601:6668   */\n      tag_328\n        /* \"#utility.yul\":6665:6667   */\n      0x14\n        /* \"#utility.yul\":6660:6663   */\n      dup4\n        /* \"#utility.yul\":6601:6668   */\n      tag_235\n      jump\t// in\n    tag_328:\n        /* \"#utility.yul\":6594:6668   */\n      swap2\n      pop\n        /* \"#utility.yul\":6677:6770   */\n      tag_329\n        /* \"#utility.yul\":6766:6769   */\n      dup3\n        /* \"#utility.yul\":6677:6770   */\n      tag_240\n      jump\t// in\n    tag_329:\n        /* \"#utility.yul\":6795:6797   */\n      0x20\n        /* \"#utility.yul\":6790:6793   */\n      dup3\n        /* \"#utility.yul\":6786:6798   */\n      add\n        /* \"#utility.yul\":6779:6798   */\n      swap1\n      pop\n        /* \"#utility.yul\":6438:6804   */\n      swap2\n      swap1\n      pop\n      jump\t// out\n        /* \"#utility.yul\":6810:7229   */\n    tag_96:\n        /* \"#utility.yul\":6976:6980   */\n      0x00\n        /* \"#utility.yul\":7014:7016   */\n      0x20\n        /* \"#utility.yul\":7003:7012   */\n      dup3\n        /* \"#utility.yul\":6999:7017   */\n      add\n        /* \"#utility.yul\":6991:7017   */\n      swap1\n      pop\n        /* \"#utility.yul\":7063:7072   */\n      dup2\n        /* \"#utility.yul\":7057:7061   */\n      dup2\n        /* \"#utility.yul\":7053:7073   */\n      sub\n        /* \"#utility.yul\":7049:7050   */\n      0x00\n        /* \"#utility.yul\":7038:7047   */\n      dup4\n        /* \"#utility.yul\":7034:7051   */\n      add\n        /* \"#utility.yul\":7027:7074   */\n      mstore\n        /* \"#utility.yul\":7091:7222   */\n      tag_331\n        /* \"#utility.yul\":7217:7221   */\n      dup2\n        /* \"#utility.yul\":7091:7222   */\n      tag_241\n      jump\t// in\n    tag_331:\n        /* \"#utility.yul\":7083:7222   */\n      swap1\n      pop\n        /* \"#utility.yul\":6810:7229   */\n      swap2\n      swap1\n      pop\n      jump\t// out\n        /* \"#utility.yul\":7235:7415   */\n    tag_242:\n        /* \"#utility.yul\":7283:7360   */\n      0x4e487b7100000000000000000000000000000000000000000000000000000000\n        /* \"#utility.yul\":7280:7281   */\n      0x00\n        /* \"#utility.yul\":7273:7361   */\n      mstore\n        /* \"#utility.yul\":7380:7384   */\n      0x11\n        /* \"#utility.yul\":7377:7378   */\n      0x04\n        /* \"#utility.yul\":7370:7385   */\n      mstore\n        /* \"#utility.yul\":7404:7408   */\n      0x24\n        /* \"#utility.yul\":7401:7402   */\n      0x00\n        /* \"#utility.yul\":7394:7409   */\n      revert\n        /* \"#utility.yul\":7421:7612   */\n    tag_98:\n        /* \"#utility.yul\":7461:7464   */\n      0x00\n        /* \"#utility.yul\":7480:7500   */\n      tag_334\n        /* \"#utility.yul\":7498:7499   */\n      dup3\n        /* \"#utility.yul\":7480:7500   */\n      tag_223\n      jump\t// in\n    tag_334:\n        /* \"#utility.yul\":7475:7500   */\n      swap2\n      pop\n        /* \"#utility.yul\":7514:7534   */\n      tag_335\n        /* \"#utility.yul\":7532:7533   */\n      dup4\n        /* \"#utility.yul\":7514:7534   */\n      tag_223\n      jump\t// in\n    tag_335:\n        /* \"#utility.yul\":7509:7534   */\n      swap3\n      pop\n        /* \"#utility.yul\":7557:7558   */\n      dup3\n        /* \"#utility.yul\":7554:7555   */\n      dup3\n        /* \"#utility.yul\":7550:7559   */\n      add\n        /* \"#utility.yul\":7543:7559   */\n      swap1\n      pop\n        /* \"#utility.yul\":7578:7581   */\n      dup1\n        /* \"#utility.yul\":7575:7576   */\n      dup3\n        /* \"#utility.yul\":7572:7582   */\n      gt\n        /* \"#utility.yul\":7569:7605   */\n      iszero\n      tag_336\n      jumpi\n        /* \"#utility.yul\":7585:7603   */\n      tag_337\n      tag_242\n      jump\t// in\n    tag_337:\n        /* \"#utility.yul\":7569:7605   */\n    tag_336:\n        /* \"#utility.yul\":7421:7612   */\n      swap3\n      swap2\n      pop\n      pop\n      jump\t// out\n        /* \"#utility.yul\":7618:7784   */\n    tag_243:\n        /* \"#utility.yul\":7758:7776   */\n      0x46756e647320617265206c6f636b656400000000000000000000000000000000\n        /* \"#utility.yul\":7754:7755   */\n      0x00\n        /* \"#utility.yul\":7746:7752   */\n      dup3\n        /* \"#utility.yul\":7742:7756   */\n      add\n        /* \"#utility.yul\":7735:7777   */\n      mstore\n        /* \"#utility.yul\":7618:7784   */\n      pop\n      jump\t// out\n        /* \"#utility.yul\":7790:8156   */\n    tag_244:\n        /* \"#utility.yul\":7932:7935   */\n      0x00\n        /* \"#utility.yul\":7953:8020   */\n      tag_340\n        /* \"#utility.yul\":8017:8019   */\n      0x10\n        /* \"#utility.yul\":8012:8015   */\n      dup4\n        /* \"#utility.yul\":7953:8020   */\n      tag_235\n      jump\t// in\n    tag_340:\n        /* \"#utility.yul\":7946:8020   */\n      swap2\n      pop\n        /* \"#utility.yul\":8029:8122   */\n      tag_341\n        /* \"#utility.yul\":8118:8121   */\n      dup3\n        /* \"#utility.yul\":8029:8122   */\n      tag_243\n      jump\t// in\n    tag_341:\n        /* \"#utility.yul\":8147:8149   */\n      0x20\n        /* \"#utility.yul\":8142:8145   */\n      dup3\n        /* \"#utility.yul\":8138:8150   */\n      add\n        /* \"#utility.yul\":8131:8150   */\n      swap1\n      pop\n        /* \"#utility.yul\":7790:8156   */\n      swap2\n      swap1\n      pop\n      jump\t// out\n        /* \"#utility.yul\":8162:8581   */\n    tag_101:\n        /* \"#utility.yul\":8328:8332   */\n      0x00\n        /* \"#utility.yul\":8366:8368   */\n      0x20\n        /* \"#utility.yul\":8355:8364   */\n      dup3\n        /* \"#utility.yul\":8351:8369   */\n      add\n        /* \"#utility.yul\":8343:8369   */\n      swap1\n      pop\n        /* \"#utility.yul\":8415:8424   */\n      dup2\n        /* \"#utility.yul\":8409:8413   */\n      dup2\n        /* \"#utility.yul\":8405:8425   */\n      sub\n        /* \"#utility.yul\":8401:8402   */\n      0x00\n        /* \"#utility.yul\":8390:8399   */\n      dup4\n        /* \"#utility.yul\":8386:8403   */\n      add\n        /* \"#utility.yul\":8379:8426   */\n      mstore\n        /* \"#utility.yul\":8443:8574   */\n      tag_343\n        /* \"#utility.yul\":8569:8573   */\n      dup2\n        /* \"#utility.yul\":8443:8574   */\n      tag_244\n      jump\t// in\n    tag_343:\n        /* \"#utility.yul\":8435:8574   */\n      swap1\n      pop\n        /* \"#utility.yul\":8162:8581   */\n      swap2\n      swap1\n      pop\n      jump\t// out\n        /* \"#utility.yul\":8587:8997   */\n    tag_103:\n        /* \"#utility.yul\":8627:8634   */\n      0x00\n        /* \"#utility.yul\":8650:8670   */\n      tag_345\n        /* \"#utility.yul\":8668:8669   */\n      dup3\n        /* \"#utility.yul\":8650:8670   */\n      tag_223\n      jump\t// in\n    tag_345:\n        /* \"#utility.yul\":8645:8670   */\n      swap2\n      pop\n        /* \"#utility.yul\":8684:8704   */\n      tag_346\n        /* \"#utility.yul\":8702:8703   */\n      dup4\n        /* \"#utility.yul\":8684:8704   */\n      tag_223\n      jump\t// in\n    tag_346:\n        /* \"#utility.yul\":8679:8704   */\n      swap3\n      pop\n        /* \"#utility.yul\":8739:8740   */\n      dup3\n        /* \"#utility.yul\":8736:8737   */\n      dup3\n        /* \"#utility.yul\":8732:8741   */\n      mul\n        /* \"#utility.yul\":8761:8791   */\n      tag_347\n        /* \"#utility.yul\":8779:8790   */\n      dup2\n        /* \"#utility.yul\":8761:8791   */\n      tag_223\n      jump\t// in\n    tag_347:\n        /* \"#utility.yul\":8750:8791   */\n      swap2\n      pop\n        /* \"#utility.yul\":8940:8941   */\n      dup3\n        /* \"#utility.yul\":8931:8938   */\n      dup3\n        /* \"#utility.yul\":8927:8942   */\n      div\n        /* \"#utility.yul\":8924:8925   */\n      dup5\n        /* \"#utility.yul\":8921:8943   */\n      eq\n        /* \"#utility.yul\":8901:8902   */\n      dup4\n        /* \"#utility.yul\":8894:8903   */\n      iszero\n        /* \"#utility.yul\":8874:8957   */\n      or\n        /* \"#utility.yul\":8851:8990   */\n      tag_348\n      jumpi\n        /* \"#utility.yul\":8970:8988   */\n      tag_349\n      tag_242\n      jump\t// in\n    tag_349:\n        /* \"#utility.yul\":8851:8990   */\n    tag_348:\n        /* \"#utility.yul\":8635:8997   */\n      pop\n        /* \"#utility.yul\":8587:8997   */\n      swap3\n      swap2\n      pop\n      pop\n      jump\t// out\n        /* \"#utility.yul\":9003:9183   */\n    tag_245:\n        /* \"#utility.yul\":9051:9128   */\n      0x4e487b7100000000000000000000000000000000000000000000000000000000\n        /* \"#utility.yul\":9048:9049   */\n      0x00\n        /* \"#utility.yul\":9041:9129   */\n      mstore\n        /* \"#utility.yul\":9148:9152   */\n      0x12\n        /* \"#utility.yul\":9145:9146   */\n      0x04\n        /* \"#utility.yul\":9138:9153   */\n      mstore\n        /* \"#utility.yul\":9172:9176   */\n      0x24\n        /* \"#utility.yul\":9169:9170   */\n      0x00\n        /* \"#utility.yul\":9162:9177   */\n      revert\n        /* \"#utility.yul\":9189:9374   */\n    tag_105:\n        /* \"#utility.yul\":9229:9230   */\n      0x00\n        /* \"#utility.yul\":9246:9266   */\n      tag_352\n        /* \"#utility.yul\":9264:9265   */\n      dup3\n        /* \"#utility.yul\":9246:9266   */\n      tag_223\n      jump\t// in\n    tag_352:\n        /* \"#utility.yul\":9241:9266   */\n      swap2\n      pop\n        /* \"#utility.yul\":9280:9300   */\n      tag_353\n        /* \"#utility.yul\":9298:9299   */\n      dup4\n        /* \"#utility.yul\":9280:9300   */\n      tag_223\n      jump\t// in\n    tag_353:\n        /* \"#utility.yul\":9275:9300   */\n      swap3\n      pop\n        /* \"#utility.yul\":9319:9320   */\n      dup3\n        /* \"#utility.yul\":9309:9344   */\n      tag_354\n      jumpi\n        /* \"#utility.yul\":9324:9342   */\n      tag_355\n      tag_245\n      jump\t// in\n    tag_355:\n        /* \"#utility.yul\":9309:9344   */\n    tag_354:\n        /* \"#utility.yul\":9366:9367   */\n      dup3\n        /* \"#utility.yul\":9363:9364   */\n      dup3\n        /* \"#utility.yul\":9359:9368   */\n      div\n        /* \"#utility.yul\":9354:9368   */\n      swap1\n      pop\n        /* \"#utility.yul\":9189:9374   */\n      swap3\n      swap2\n      pop\n      pop\n      jump\t// out\n        /* \"#utility.yul\":9380:9574   */\n    tag_107:\n        /* \"#utility.yul\":9420:9424   */\n      0x00\n        /* \"#utility.yul\":9440:9460   */\n      tag_357\n        /* \"#utility.yul\":9458:9459   */\n      dup3\n        /* \"#utility.yul\":9440:9460   */\n      tag_223\n      jump\t// in\n    tag_357:\n        /* \"#utility.yul\":9435:9460   */\n      swap2\n      pop\n        /* \"#utility.yul\":9474:9494   */\n      tag_358\n        /* \"#utility.yul\":9492:9493   */\n      dup4\n        /* \"#utility.yul\":9474:9494   */\n      tag_223\n      jump\t// in\n    tag_358:\n        /* \"#utility.yul\":9469:9494   */\n      swap3\n      pop\n        /* \"#utility.yul\":9518:9519   */\n      dup3\n        /* \"#utility.yul\":9515:9516   */\n      dup3\n        /* \"#utility.yul\":9511:9520   */\n      sub\n        /* \"#utility.yul\":9503:9520   */\n      swap1\n      pop\n        /* \"#utility.yul\":9542:9543   */\n      dup2\n        /* \"#utility.yul\":9536:9540   */\n      dup2\n        /* \"#utility.yul\":9533:9544   */\n      gt\n        /* \"#utility.yul\":9530:9567   */\n      iszero\n      tag_359\n      jumpi\n        /* \"#utility.yul\":9547:9565   */\n      tag_360\n      tag_242\n      jump\t// in\n    tag_360:\n        /* \"#utility.yul\":9530:9567   */\n    tag_359:\n        /* \"#utility.yul\":9380:9574   */\n      swap3\n      swap2\n      pop\n      pop\n      jump\t// out\n        /* \"#utility.yul\":9580:9912   */\n    tag_110:\n        /* \"#utility.yul\":9701:9705   */\n      0x00\n        /* \"#utility.yul\":9739:9741   */\n      0x40\n        /* \"#utility.yul\":9728:9737   */\n      dup3\n        /* \"#utility.yul\":9724:9742   */\n      add\n        /* \"#utility.yul\":9716:9742   */\n      swap1\n      pop\n        /* \"#utility.yul\":9752:9823   */\n      tag_362\n        /* \"#utility.yul\":9820:9821   */\n      0x00\n        /* \"#utility.yul\":9809:9818   */\n      dup4\n        /* \"#utility.yul\":9805:9822   */\n      add\n        /* \"#utility.yul\":9796:9802   */\n      dup6\n        /* \"#utility.yul\":9752:9823   */\n      tag_229\n      jump\t// in\n    tag_362:\n        /* \"#utility.yul\":9833:9905   */\n      tag_363\n        /* \"#utility.yul\":9901:9903   */\n      0x20\n        /* \"#utility.yul\":9890:9899   */\n      dup4\n        /* \"#utility.yul\":9886:9904   */\n      add\n        /* \"#utility.yul\":9877:9883   */\n      dup5\n        /* \"#utility.yul\":9833:9905   */\n      tag_226\n      jump\t// in\n    tag_363:\n        /* \"#utility.yul\":9580:9912   */\n      swap4\n      swap3\n      pop\n      pop\n      pop\n      jump\t// out\n        /* \"#utility.yul\":9918:10034   */\n    tag_246:\n        /* \"#utility.yul\":9988:10009   */\n      tag_365\n        /* \"#utility.yul\":10003:10008   */\n      dup2\n        /* \"#utility.yul\":9988:10009   */\n      tag_227\n      jump\t// in\n    tag_365:\n        /* \"#utility.yul\":9981:9986   */\n      dup2\n        /* \"#utility.yul\":9978:10010   */\n      eq\n        /* \"#utility.yul\":9968:10028   */\n      tag_366\n      jumpi\n        /* \"#utility.yul\":10024:10025   */\n      0x00\n        /* \"#utility.yul\":10021:10022   */\n      0x00\n        /* \"#utility.yul\":10014:10026   */\n      revert\n        /* \"#utility.yul\":9968:10028   */\n    tag_366:\n        /* \"#utility.yul\":9918:10034   */\n      pop\n      jump\t// out\n        /* \"#utility.yul\":10040:10177   */\n    tag_247:\n        /* \"#utility.yul\":10094:10099   */\n      0x00\n        /* \"#utility.yul\":10125:10131   */\n      dup2\n        /* \"#utility.yul\":10119:10132   */\n      mload\n        /* \"#utility.yul\":10110:10132   */\n      swap1\n      pop\n        /* \"#utility.yul\":10141:10171   */\n      tag_368\n        /* \"#utility.yul\":10165:10170   */\n      dup2\n        /* \"#utility.yul\":10141:10171   */\n      tag_246\n      jump\t// in\n    tag_368:\n        /* \"#utility.yul\":10040:10177   */\n      swap3\n      swap2\n      pop\n      pop\n      jump\t// out\n        /* \"#utility.yul\":10183:10528   */\n    tag_114:\n        /* \"#utility.yul\":10250:10256   */\n      0x00\n        /* \"#utility.yul\":10299:10301   */\n      0x20\n        /* \"#utility.yul\":10287:10296   */\n      dup3\n        /* \"#utility.yul\":10278:10285   */\n      dup5\n        /* \"#utility.yul\":10274:10297   */\n      sub\n        /* \"#utility.yul\":10270:10302   */\n      slt\n        /* \"#utility.yul\":10267:10386   */\n      iszero\n      tag_370\n      jumpi\n        /* \"#utility.yul\":10305:10384   */\n      tag_371\n      tag_217\n      jump\t// in\n    tag_371:\n        /* \"#utility.yul\":10267:10386   */\n    tag_370:\n        /* \"#utility.yul\":10425:10426   */\n      0x00\n        /* \"#utility.yul\":10450:10511   */\n      tag_372\n        /* \"#utility.yul\":10503:10510   */\n      dup5\n        /* \"#utility.yul\":10494:10500   */\n      dup3\n        /* \"#utility.yul\":10483:10492   */\n      dup6\n        /* \"#utility.yul\":10479:10501   */\n      add\n        /* \"#utility.yul\":10450:10511   */\n      tag_247\n      jump\t// in\n    tag_372:\n        /* \"#utility.yul\":10440:10511   */\n      swap2\n      pop\n        /* \"#utility.yul\":10396:10521   */\n      pop\n        /* \"#utility.yul\":10183:10528   */\n      swap3\n      swap2\n      pop\n      pop\n      jump\t// out\n        /* \"#utility.yul\":10534:10705   */\n    tag_248:\n        /* \"#utility.yul\":10674:10697   */\n      0x546f6b656e207472616e73666572206661696c65640000000000000000000000\n        /* \"#utility.yul\":10670:10671   */\n      0x00\n        /* \"#utility.yul\":10662:10668   */\n      dup3\n        /* \"#utility.yul\":10658:10672   */\n      add\n        /* \"#utility.yul\":10651:10698   */\n      mstore\n        /* \"#utility.yul\":10534:10705   */\n      pop\n      jump\t// out\n        /* \"#utility.yul\":10711:11077   */\n    tag_249:\n        /* \"#utility.yul\":10853:10856   */\n      0x00\n        /* \"#utility.yul\":10874:10941   */\n      tag_375\n        /* \"#utility.yul\":10938:10940   */\n      0x15\n        /* \"#utility.yul\":10933:10936   */\n      dup4\n        /* \"#utility.yul\":10874:10941   */\n      tag_235\n      jump\t// in\n    tag_375:\n        /* \"#utility.yul\":10867:10941   */\n      swap2\n      pop\n        /* \"#utility.yul\":10950:11043   */\n      tag_376\n        /* \"#utility.yul\":11039:11042   */\n      dup3\n        /* \"#utility.yul\":10950:11043   */\n      tag_248\n      jump\t// in\n    tag_376:\n        /* \"#utility.yul\":11068:11070   */\n      0x20\n        /* \"#utility.yul\":11063:11066   */\n      dup3\n        /* \"#utility.yul\":11059:11071   */\n      add\n        /* \"#utility.yul\":11052:11071   */\n      swap1\n      pop\n        /* \"#utility.yul\":10711:11077   */\n      swap2\n      swap1\n      pop\n      jump\t// out\n        /* \"#utility.yul\":11083:11502   */\n    tag_117:\n        /* \"#utility.yul\":11249:11253   */\n      0x00\n        /* \"#utility.yul\":11287:11289   */\n      0x20\n        /* \"#utility.yul\":11276:11285   */\n      dup3\n        /* \"#utility.yul\":11272:11290   */\n      add\n        /* \"#utility.yul\":11264:11290   */\n      swap1\n      pop\n        /* \"#utility.yul\":11336:11345   */\n      dup2\n        /* \"#utility.yul\":11330:11334   */\n      dup2\n        /* \"#utility.yul\":11326:11346   */\n      sub\n        /* \"#utility.yul\":11322:11323   */\n      0x00\n        /* \"#utility.yul\":11311:11320   */\n      dup4\n        /* \"#utility.yul\":11307:11324   */\n      add\n        /* \"#utility.yul\":11300:11347   */\n      mstore\n        /* \"#utility.yul\":11364:11495   */\n      tag_378\n        /* \"#utility.yul\":11490:11494   */\n      dup2\n        /* \"#utility.yul\":11364:11495   */\n      tag_249\n      jump\t// in\n    tag_378:\n        /* \"#utility.yul\":11356:11495   */\n      swap1\n      pop\n        /* \"#utility.yul\":11083:11502   */\n      swap2\n      swap1\n      pop\n      jump\t// out\n        /* \"#utility.yul\":11508:11840   */\n    tag_119:\n        /* \"#utility.yul\":11629:11633   */\n      0x00\n        /* \"#utility.yul\":11667:11669   */\n      0x40\n        /* \"#utility.yul\":11656:11665   */\n      dup3\n        /* \"#utility.yul\":11652:11670   */\n      add\n        /* \"#utility.yul\":11644:11670   */\n      swap1\n      pop\n        /* \"#utility.yul\":11680:11751   */\n      tag_380\n        /* \"#utility.yul\":11748:11749   */\n      0x00\n        /* \"#utility.yul\":11737:11746   */\n      dup4\n        /* \"#utility.yul\":11733:11750   */\n      add\n        /* \"#utility.yul\":11724:11730   */\n      dup6\n        /* \"#utility.yul\":11680:11751   */\n      tag_226\n      jump\t// in\n    tag_380:\n        /* \"#utility.yul\":11761:11833   */\n      tag_381\n        /* \"#utility.yul\":11829:11831   */\n      0x20\n        /* \"#utility.yul\":11818:11827   */\n      dup4\n        /* \"#utility.yul\":11814:11832   */\n      add\n        /* \"#utility.yul\":11805:11811   */\n      dup5\n        /* \"#utility.yul\":11761:11833   */\n      tag_226\n      jump\t// in\n    tag_381:\n        /* \"#utility.yul\":11508:11840   */\n      swap4\n      swap3\n      pop\n      pop\n      pop\n      jump\t// out\n        /* \"#utility.yul\":11846:11989   */\n    tag_250:\n        /* \"#utility.yul\":11903:11908   */\n      0x00\n        /* \"#utility.yul\":11934:11940   */\n      dup2\n        /* \"#utility.yul\":11928:11941   */\n      mload\n        /* \"#utility.yul\":11919:11941   */\n      swap1\n      pop\n        /* \"#utility.yul\":11950:11983   */\n      tag_383\n        /* \"#utility.yul\":11977:11982   */\n      dup2\n        /* \"#utility.yul\":11950:11983   */\n      tag_224\n      jump\t// in\n    tag_383:\n        /* \"#utility.yul\":11846:11989   */\n      swap3\n      swap2\n      pop\n      pop\n      jump\t// out\n        /* \"#utility.yul\":11995:12346   */\n    tag_129:\n        /* \"#utility.yul\":12065:12071   */\n      0x00\n        /* \"#utility.yul\":12114:12116   */\n      0x20\n        /* \"#utility.yul\":12102:12111   */\n      dup3\n        /* \"#utility.yul\":12093:12100   */\n      dup5\n        /* \"#utility.yul\":12089:12112   */\n      sub\n        /* \"#utility.yul\":12085:12117   */\n      slt\n        /* \"#utility.yul\":12082:12201   */\n      iszero\n      tag_385\n      jumpi\n        /* \"#utility.yul\":12120:12199   */\n      tag_386\n      tag_217\n      jump\t// in\n    tag_386:\n        /* \"#utility.yul\":12082:12201   */\n    tag_385:\n        /* \"#utility.yul\":12240:12241   */\n      0x00\n        /* \"#utility.yul\":12265:12329   */\n      tag_387\n        /* \"#utility.yul\":12321:12328   */\n      dup5\n        /* \"#utility.yul\":12312:12318   */\n      dup3\n        /* \"#utility.yul\":12301:12310   */\n      dup6\n        /* \"#utility.yul\":12297:12319   */\n      add\n        /* \"#utility.yul\":12265:12329   */\n      tag_250\n      jump\t// in\n    tag_387:\n        /* \"#utility.yul\":12255:12329   */\n      swap2\n      pop\n        /* \"#utility.yul\":12211:12339   */\n      pop\n        /* \"#utility.yul\":11995:12346   */\n      swap3\n      swap2\n      pop\n      pop\n      jump\t// out\n        /* \"#utility.yul\":12352:12532   */\n    tag_132:\n        /* \"#utility.yul\":12400:12477   */\n      0x4e487b7100000000000000000000000000000000000000000000000000000000\n        /* \"#utility.yul\":12397:12398   */\n      0x00\n        /* \"#utility.yul\":12390:12478   */\n      mstore\n        /* \"#utility.yul\":12497:12501   */\n      0x41\n        /* \"#utility.yul\":12494:12495   */\n      0x04\n        /* \"#utility.yul\":12487:12502   */\n      mstore\n        /* \"#utility.yul\":12521:12525   */\n      0x24\n        /* \"#utility.yul\":12518:12519   */\n      0x00\n        /* \"#utility.yul\":12511:12526   */\n      revert\n        /* \"#utility.yul\":12538:12718   */\n    tag_139:\n        /* \"#utility.yul\":12586:12663   */\n      0x4e487b7100000000000000000000000000000000000000000000000000000000\n        /* \"#utility.yul\":12583:12584   */\n      0x00\n        /* \"#utility.yul\":12576:12664   */\n      mstore\n        /* \"#utility.yul\":12683:12687   */\n      0x32\n        /* \"#utility.yul\":12680:12681   */\n      0x04\n        /* \"#utility.yul\":12673:12688   */\n      mstore\n        /* \"#utility.yul\":12707:12711   */\n      0x24\n        /* \"#utility.yul\":12704:12705   */\n      0x00\n        /* \"#utility.yul\":12697:12712   */\n      revert\n        /* \"#utility.yul\":12724:12893   */\n    tag_251:\n        /* \"#utility.yul\":12864:12885   */\n      0x4e6f206665657320746f20776974686472617700000000000000000000000000\n        /* \"#utility.yul\":12860:12861   */\n      0x00\n        /* \"#utility.yul\":12852:12858   */\n      dup3\n        /* \"#utility.yul\":12848:12862   */\n      add\n        /* \"#utility.yul\":12841:12886   */\n      mstore\n        /* \"#utility.yul\":12724:12893   */\n      pop\n      jump\t// out\n        /* \"#utility.yul\":12899:13265   */\n    tag_252:\n        /* \"#utility.yul\":13041:13044   */\n      0x00\n        /* \"#utility.yul\":13062:13129   */\n      tag_392\n        /* \"#utility.yul\":13126:13128   */\n      0x13\n        /* \"#utility.yul\":13121:13124   */\n      dup4\n        /* \"#utility.yul\":13062:13129   */\n      tag_235\n      jump\t// in\n    tag_392:\n        /* \"#utility.yul\":13055:13129   */\n      swap2\n      pop\n        /* \"#utility.yul\":13138:13231   */\n      tag_393\n        /* \"#utility.yul\":13227:13230   */\n      dup3\n        /* \"#utility.yul\":13138:13231   */\n      tag_251\n      jump\t// in\n    tag_393:\n        /* \"#utility.yul\":13256:13258   */\n      0x20\n        /* \"#utility.yul\":13251:13254   */\n      dup3\n        /* \"#utility.yul\":13247:13259   */\n      add\n        /* \"#utility.yul\":13240:13259   */\n      swap1\n      pop\n        /* \"#utility.yul\":12899:13265   */\n      swap2\n      swap1\n      pop\n      jump\t// out\n        /* \"#utility.yul\":13271:13690   */\n    tag_144:\n        /* \"#utility.yul\":13437:13441   */\n      0x00\n        /* \"#utility.yul\":13475:13477   */\n      0x20\n        /* \"#utility.yul\":13464:13473   */\n      dup3\n        /* \"#utility.yul\":13460:13478   */\n      add\n        /* \"#utility.yul\":13452:13478   */\n      swap1\n      pop\n        /* \"#utility.yul\":13524:13533   */\n      dup2\n        /* \"#utility.yul\":13518:13522   */\n      dup2\n        /* \"#utility.yul\":13514:13534   */\n      sub\n        /* \"#utility.yul\":13510:13511   */\n      0x00\n        /* \"#utility.yul\":13499:13508   */\n      dup4\n        /* \"#utility.yul\":13495:13512   */\n      add\n        /* \"#utility.yul\":13488:13535   */\n      mstore\n        /* \"#utility.yul\":13552:13683   */\n      tag_395\n        /* \"#utility.yul\":13678:13682   */\n      dup2\n        /* \"#utility.yul\":13552:13683   */\n      tag_252\n      jump\t// in\n    tag_395:\n        /* \"#utility.yul\":13544:13683   */\n      swap1\n      pop\n        /* \"#utility.yul\":13271:13690   */\n      swap2\n      swap1\n      pop\n      jump\t// out\n        /* \"#utility.yul\":13696:13868   */\n    tag_253:\n        /* \"#utility.yul\":13836:13860   */\n      0x4163636f756e7420616c72656164792065786973747300000000000000000000\n        /* \"#utility.yul\":13832:13833   */\n      0x00\n        /* \"#utility.yul\":13824:13830   */\n      dup3\n        /* \"#utility.yul\":13820:13834   */\n      add\n        /* \"#utility.yul\":13813:13861   */\n      mstore\n        /* \"#utility.yul\":13696:13868   */\n      pop\n      jump\t// out\n        /* \"#utility.yul\":13874:14240   */\n    tag_254:\n        /* \"#utility.yul\":14016:14019   */\n      0x00\n        /* \"#utility.yul\":14037:14104   */\n      tag_398\n        /* \"#utility.yul\":14101:14103   */\n      0x16\n        /* \"#utility.yul\":14096:14099   */\n      dup4\n        /* \"#utility.yul\":14037:14104   */\n      tag_235\n      jump\t// in\n    tag_398:\n        /* \"#utility.yul\":14030:14104   */\n      swap2\n      pop\n        /* \"#utility.yul\":14113:14206   */\n      tag_399\n        /* \"#utility.yul\":14202:14205   */\n      dup3\n        /* \"#utility.yul\":14113:14206   */\n      tag_253\n      jump\t// in\n    tag_399:\n        /* \"#utility.yul\":14231:14233   */\n      0x20\n        /* \"#utility.yul\":14226:14229   */\n      dup3\n        /* \"#utility.yul\":14222:14234   */\n      add\n        /* \"#utility.yul\":14215:14234   */\n      swap1\n      pop\n        /* \"#utility.yul\":13874:14240   */\n      swap2\n      swap1\n      pop\n      jump\t// out\n        /* \"#utility.yul\":14246:14665   */\n    tag_168:\n        /* \"#utility.yul\":14412:14416   */\n      0x00\n        /* \"#utility.yul\":14450:14452   */\n      0x20\n        /* \"#utility.yul\":14439:14448   */\n      dup3\n        /* \"#utility.yul\":14435:14453   */\n      add\n        /* \"#utility.yul\":14427:14453   */\n      swap1\n      pop\n        /* \"#utility.yul\":14499:14508   */\n      dup2\n        /* \"#utility.yul\":14493:14497   */\n      dup2\n        /* \"#utility.yul\":14489:14509   */\n      sub\n        /* \"#utility.yul\":14485:14486   */\n      0x00\n        /* \"#utility.yul\":14474:14483   */\n      dup4\n        /* \"#utility.yul\":14470:14487   */\n      add\n        /* \"#utility.yul\":14463:14510   */\n      mstore\n        /* \"#utility.yul\":14527:14658   */\n      tag_401\n        /* \"#utility.yul\":14653:14657   */\n      dup2\n        /* \"#utility.yul\":14527:14658   */\n      tag_254\n      jump\t// in\n    tag_401:\n        /* \"#utility.yul\":14519:14658   */\n      swap1\n      pop\n        /* \"#utility.yul\":14246:14665   */\n      swap2\n      swap1\n      pop\n      jump\t// out\n        /* \"#utility.yul\":14671:14842   */\n    tag_255:\n        /* \"#utility.yul\":14811:14834   */\n      0x4665652063616e6e6f7420657863656564203130250000000000000000000000\n        /* \"#utility.yul\":14807:14808   */\n      0x00\n        /* \"#utility.yul\":14799:14805   */\n      dup3\n        /* \"#utility.yul\":14795:14809   */\n      add\n        /* \"#utility.yul\":14788:14835   */\n      mstore\n        /* \"#utility.yul\":14671:14842   */\n      pop\n      jump\t// out\n        /* \"#utility.yul\":14848:15214   */\n    tag_256:\n        /* \"#utility.yul\":14990:14993   */\n      0x00\n        /* \"#utility.yul\":15011:15078   */\n      tag_404\n        /* \"#utility.yul\":15075:15077   */\n      0x15\n        /* \"#utility.yul\":15070:15073   */\n      dup4\n        /* \"#utility.yul\":15011:15078   */\n      tag_235\n      jump\t// in\n    tag_404:\n        /* \"#utility.yul\":15004:15078   */\n      swap2\n      pop\n        /* \"#utility.yul\":15087:15180   */\n      tag_405\n        /* \"#utility.yul\":15176:15179   */\n      dup3\n        /* \"#utility.yul\":15087:15180   */\n      tag_255\n      jump\t// in\n    tag_405:\n        /* \"#utility.yul\":15205:15207   */\n      0x20\n        /* \"#utility.yul\":15200:15203   */\n      dup3\n        /* \"#utility.yul\":15196:15208   */\n      add\n        /* \"#utility.yul\":15189:15208   */\n      swap1\n      pop\n        /* \"#utility.yul\":14848:15214   */\n      swap2\n      swap1\n      pop\n      jump\t// out\n        /* \"#utility.yul\":15220:15639   */\n    tag_174:\n        /* \"#utility.yul\":15386:15390   */\n      0x00\n        /* \"#utility.yul\":15424:15426   */\n      0x20\n        /* \"#utility.yul\":15413:15422   */\n      dup3\n        /* \"#utility.yul\":15409:15427   */\n      add\n        /* \"#utility.yul\":15401:15427   */\n      swap1\n      pop\n        /* \"#utility.yul\":15473:15482   */\n      dup2\n        /* \"#utility.yul\":15467:15471   */\n      dup2\n        /* \"#utility.yul\":15463:15483   */\n      sub\n        /* \"#utility.yul\":15459:15460   */\n      0x00\n        /* \"#utility.yul\":15448:15457   */\n      dup4\n        /* \"#utility.yul\":15444:15461   */\n      add\n        /* \"#utility.yul\":15437:15484   */\n      mstore\n        /* \"#utility.yul\":15501:15632   */\n      tag_407\n        /* \"#utility.yul\":15627:15631   */\n      dup2\n        /* \"#utility.yul\":15501:15632   */\n      tag_256\n      jump\t// in\n    tag_407:\n        /* \"#utility.yul\":15493:15632   */\n      swap1\n      pop\n        /* \"#utility.yul\":15220:15639   */\n      swap2\n      swap1\n      pop\n      jump\t// out\n        /* \"#utility.yul\":15645:15823   */\n    tag_257:\n        /* \"#utility.yul\":15785:15815   */\n      0x416d6f756e742062656c6f77206d696e696d756d206465706f73697400000000\n        /* \"#utility.yul\":15781:15782   */\n      0x00\n        /* \"#utility.yul\":15773:15779   */\n      dup3\n        /* \"#utility.yul\":15769:15783   */\n      add\n        /* \"#utility.yul\":15762:15816   */\n      mstore\n        /* \"#utility.yul\":15645:15823   */\n      pop\n      jump\t// out\n        /* \"#utility.yul\":15829:16195   */\n    tag_258:\n        /* \"#utility.yul\":15971:15974   */\n      0x00\n        /* \"#utility.yul\":15992:16059   */\n      tag_410\n        /* \"#utility.yul\":16056:16058   */\n      0x1c\n        /* \"#utility.yul\":16051:16054   */\n      dup4\n        /* \"#utility.yul\":15992:16059   */\n      tag_235\n      jump\t// in\n    tag_410:\n        /* \"#utility.yul\":15985:16059   */\n      swap2\n      pop\n        /* \"#utility.yul\":16068:16161   */\n      tag_411\n        /* \"#utility.yul\":16157:16160   */\n      dup3\n        /* \"#utility.yul\":16068:16161   */\n      tag_257\n      jump\t// in\n    tag_411:\n        /* \"#utility.yul\":16186:16188   */\n      0x20\n        /* \"#utility.yul\":16181:16184   */\n      dup3\n        /* \"#utility.yul\":16177:16189   */\n      add\n        /* \"#utility.yul\":16170:16189   */\n      swap1\n      pop\n        /* \"#utility.yul\":15829:16195   */\n      swap2\n      swap1\n      pop\n      jump\t// out\n        /* \"#utility.yul\":16201:16620   */\n    tag_183:\n        /* \"#utility.yul\":16367:16371   */\n      0x00\n        /* \"#utility.yul\":16405:16407   */\n      0x20\n        /* \"#utility.yul\":16394:16403   */\n      dup3\n        /* \"#utility.yul\":16390:16408   */\n      add\n        /* \"#utility.yul\":16382:16408   */\n      swap1\n      pop\n        /* \"#utility.yul\":16454:16463   */\n      dup2\n        /* \"#utility.yul\":16448:16452   */\n      dup2\n        /* \"#utility.yul\":16444:16464   */\n      sub\n        /* \"#utility.yul\":16440:16441   */\n      0x00\n        /* \"#utility.yul\":16429:16438   */\n      dup4\n        /* \"#utility.yul\":16425:16442   */\n      add\n        /* \"#utility.yul\":16418:16465   */\n      mstore\n        /* \"#utility.yul\":16482:16613   */\n      tag_413\n        /* \"#utility.yul\":16608:16612   */\n      dup2\n        /* \"#utility.yul\":16482:16613   */\n      tag_258\n      jump\t// in\n    tag_413:\n        /* \"#utility.yul\":16474:16613   */\n      swap1\n      pop\n        /* \"#utility.yul\":16201:16620   */\n      swap2\n      swap1\n      pop\n      jump\t// out\n        /* \"#utility.yul\":16626:17068   */\n    tag_185:\n        /* \"#utility.yul\":16775:16779   */\n      0x00\n        /* \"#utility.yul\":16813:16815   */\n      0x60\n        /* \"#utility.yul\":16802:16811   */\n      dup3\n        /* \"#utility.yul\":16798:16816   */\n      add\n        /* \"#utility.yul\":16790:16816   */\n      swap1\n      pop\n        /* \"#utility.yul\":16826:16897   */\n      tag_415\n        /* \"#utility.yul\":16894:16895   */\n      0x00\n        /* \"#utility.yul\":16883:16892   */\n      dup4\n        /* \"#utility.yul\":16879:16896   */\n      add\n        /* \"#utility.yul\":16870:16876   */\n      dup7\n        /* \"#utility.yul\":16826:16897   */\n      tag_229\n      jump\t// in\n    tag_415:\n        /* \"#utility.yul\":16907:16979   */\n      tag_416\n        /* \"#utility.yul\":16975:16977   */\n      0x20\n        /* \"#utility.yul\":16964:16973   */\n      dup4\n        /* \"#utility.yul\":16960:16978   */\n      add\n        /* \"#utility.yul\":16951:16957   */\n      dup6\n        /* \"#utility.yul\":16907:16979   */\n      tag_229\n      jump\t// in\n    tag_416:\n        /* \"#utility.yul\":16989:17061   */\n      tag_417\n        /* \"#utility.yul\":17057:17059   */\n      0x40\n        /* \"#utility.yul\":17046:17055   */\n      dup4\n        /* \"#utility.yul\":17042:17060   */\n      add\n        /* \"#utility.yul\":17033:17039   */\n      dup5\n        /* \"#utility.yul\":16989:17061   */\n      tag_226\n      jump\t// in\n    tag_417:\n        /* \"#utility.yul\":16626:17068   */\n      swap5\n      swap4\n      pop\n      pop\n      pop\n      pop\n      jump\t// out\n\n    auxdata: 0xa26469706673582212207bcd4881691a3522ef59ceb9dc3ececdcf59c29ce32719f4659b6698e9af01b464736f6c634300081e0033\n}\n",
				"bytecode": {
					"linkReferences": {},
					"object": "608060405268056bc75e2d631000006004556005805562015180600655348015610027575f5ffd5b50604051611e0e380380611e0e833981810160405281019061004991906102a4565b335f73ffffffffffffffffffffffffffffffffffffffff168173ffffffffffffffffffffffffffffffffffffffff16036100ba575f6040517f1e4fbdf70000000000000000000000000000000000000000000000000000000081526004016100b191906102de565b60405180910390fd5b6100c98161018560201b60201c565b50600180819055505f73ffffffffffffffffffffffffffffffffffffffff168173ffffffffffffffffffffffffffffffffffffffff160361013f576040517f08c379a000000000000000000000000000000000000000000000000000000000815260040161013690610351565b60405180910390fd5b8060025f6101000a81548173ffffffffffffffffffffffffffffffffffffffff021916908373ffffffffffffffffffffffffffffffffffffffff1602179055505061036f565b5f5f5f9054906101000a900473ffffffffffffffffffffffffffffffffffffffff169050815f5f6101000a81548173ffffffffffffffffffffffffffffffffffffffff021916908373ffffffffffffffffffffffffffffffffffffffff1602179055508173ffffffffffffffffffffffffffffffffffffffff168173ffffffffffffffffffffffffffffffffffffffff167f8be0079c531659141344cd1fd0a4f28419497f9722a3daafe3b4186f6b6457e060405160405180910390a35050565b5f5ffd5b5f73ffffffffffffffffffffffffffffffffffffffff82169050919050565b5f6102738261024a565b9050919050565b61028381610269565b811461028d575f5ffd5b50565b5f8151905061029e8161027a565b92915050565b5f602082840312156102b9576102b8610246565b5b5f6102c684828501610290565b91505092915050565b6102d881610269565b82525050565b5f6020820190506102f15f8301846102cf565b92915050565b5f82825260208201905092915050565b7f546f6b656e20616464726573732063616e6e6f74206265207a65726f000000005f82015250565b5f61033b601c836102f7565b915061034682610307565b602082019050919050565b5f6020820190508181035f8301526103688161032f565b9050919050565b611a928061037c5f395ff3fe608060405234801561000f575f5ffd5b5060043610610109575f3560e01c80638bc7e8c4116100a0578063ac1e50251161006f578063ac1e502514610259578063b6b55f2514610275578063e78ec42e14610291578063f2fde38b146102ad578063fc0c546a146102c957610109565b80638bc7e8c4146101e35780638da5cb5b1461020157806393423e9c1461021f5780639dca362f1461024f57610109565b80635e5c06e2116100dc5780635e5c06e21461016d578063636bfbab1461019f578063715018a6146101bd578063779972da146101c757610109565b806326a4e8d21461010d5780632e1a7d4d146101295780633fd8b02f14610145578063476343ee14610163575b5f5ffd5b61012760048036038101906101229190611266565b6102e7565b005b610143600480360381019061013e91906112c4565b6103d7565b005b61014d61068c565b60405161015a91906112fe565b60405180910390f35b61016b610692565b005b61018760048036038101906101829190611266565b610947565b60405161019693929190611331565b60405180910390f35b6101a7610979565b6040516101b491906112fe565b60405180910390f35b6101c561097f565b005b6101e160048036038101906101dc91906112c4565b610992565b005b6101eb6109db565b6040516101f891906112fe565b60405180910390f35b6102096109e1565b6040516102169190611375565b60405180910390f35b61023960048036038101906102349190611266565b610a08565b60405161024691906112fe565b60405180910390f35b610257610adc565b005b610273600480360381019061026e91906112c4565b610c3d565b005b61028f600480360381019061028a91906112c4565b610cca565b005b6102ab60048036038101906102a691906112c4565b610f78565b005b6102c760048036038101906102c29190611266565b610fc1565b005b6102d1611045565b6040516102de91906113e9565b60405180910390f35b6102ef61106a565b5f73ffffffffffffffffffffffffffffffffffffffff168173ffffffffffffffffffffffffffffffffffffffff160361035d576040517f08c379a00000000000000000000000000000000000000000000000000000000081526004016103549061145c565b60405180910390fd5b8060025f6101000a81548173ffffffffffffffffffffffffffffffffffffffff021916908373ffffffffffffffffffffffffffffffffffffffff1602179055507f2f0c7f17be551d1f4566672cd67adbe50173e96632f56ff80d80acc4ac00f328816040516103cc9190611375565b60405180910390a150565b6103df6110f1565b5f60035f3373ffffffffffffffffffffffffffffffffffffffff1673ffffffffffffffffffffffffffffffffffffffff1681526020019081526020015f209050806002015f9054906101000a900460ff1661046f576040517f08c379a0000000000000000000000000000000000000000000000000000000008152600401610466906114c4565b60405180910390fd5b81815f015410156104b5576040517f08c379a00000000000000000000000000000000000000000000000000000000081526004016104ac9061152c565b60405180910390fd5b60065481600101546104c79190611577565b421015610509576040517f08c379a0000000000000000000000000000000000000000000000000000000008152600401610500906115f4565b60405180910390fd5b5f60646005548461051a9190611612565b6105249190611680565b90505f818461053391906116b0565b905083835f015f82825461054791906116b0565b925050819055505f60025f9054906101000a900473ffffffffffffffffffffffffffffffffffffffff1673ffffffffffffffffffffffffffffffffffffffff1663a9059cbb33846040518363ffffffff1660e01b81526004016105ab9291906116e3565b6020604051808303815f875af11580156105c7573d5f5f3e3d5ffd5b505050506040513d601f19601f820116820180604052508101906105eb9190611734565b90508061062d576040517f08c379a0000000000000000000000000000000000000000000000000000000008152600401610624906117a9565b60405180910390fd5b3373ffffffffffffffffffffffffffffffffffffffff167f92ccf450a286a957af52509bc1c9939d1a6a481783e142e41e2499f0bb66ebc686856040516106759291906117c7565b60405180910390a250505050610689611137565b50565b60065481565b61069a61106a565b5f60025f9054906101000a900473ffffffffffffffffffffffffffffffffffffffff1673ffffffffffffffffffffffffffffffffffffffff166370a08231306040518263ffffffff1660e01b81526004016106f59190611375565b602060405180830381865afa158015610710573d5f5f3e3d5ffd5b505050506040513d601f19601f820116820180604052508101906107349190611802565b90505f5f90505f5f67ffffffffffffffff8111156107555761075461182d565b5b6040519080825280602002602001820160405280156107835781602001602082028036833780820191505090505b5090505f5f90505b81518110156108085760035f8383815181106107aa576107a961185a565b5b602002602001015173ffffffffffffffffffffffffffffffffffffffff1673ffffffffffffffffffffffffffffffffffffffff1681526020019081526020015f205f0154836107f99190611577565b9250808060010191505061078b565b505f828461081691906116b0565b90505f811161085a576040517f08c379a0000000000000000000000000000000000000000000000000000000008152600401610851906118d1565b60405180910390fd5b5f60025f9054906101000a900473ffffffffffffffffffffffffffffffffffffffff1673ffffffffffffffffffffffffffffffffffffffff1663a9059cbb6108a06109e1565b846040518363ffffffff1660e01b81526004016108be9291906116e3565b6020604051808303815f875af11580156108da573d5f5f3e3d5ffd5b505050506040513d601f19601f820116820180604052508101906108fe9190611734565b905080610940576040517f08c379a0000000000000000000000000000000000000000000000000000000008152600401610937906117a9565b60405180910390fd5b5050505050565b6003602052805f5260405f205f91509050805f015490806001015490806002015f9054906101000a900460ff16905083565b60045481565b61098761106a565b6109905f611140565b565b61099a61106a565b806006819055507f8249ec545e68f6f1e1230133ca48c704d831a7f8e635ded80f3dd9e99b09bb2f816040516109d091906112fe565b60405180910390a150565b60055481565b5f5f5f9054906101000a900473ffffffffffffffffffffffffffffffffffffffff16905090565b5f60035f8373ffffffffffffffffffffffffffffffffffffffff1673ffffffffffffffffffffffffffffffffffffffff1681526020019081526020015f206002015f9054906101000a900460ff16610a95576040517f08c379a0000000000000000000000000000000000000000000000000000000008152600401610a8c906114c4565b60405180910390fd5b60035f8373ffffffffffffffffffffffffffffffffffffffff1673ffffffffffffffffffffffffffffffffffffffff1681526020019081526020015f205f01549050919050565b60035f3373ffffffffffffffffffffffffffffffffffffffff1673ffffffffffffffffffffffffffffffffffffffff1681526020019081526020015f206002015f9054906101000a900460ff1615610b69576040517f08c379a0000000000000000000000000000000000000000000000000000000008152600401610b6090611939565b60405180910390fd5b60405180606001604052805f81526020015f81526020016001151581525060035f3373ffffffffffffffffffffffffffffffffffffffff1673ffffffffffffffffffffffffffffffffffffffff1681526020019081526020015f205f820151815f0155602082015181600101556040820151816002015f6101000a81548160ff0219169083151502179055509050503373ffffffffffffffffffffffffffffffffffffffff167f805996f252884581e2f74cf3d2b03564d5ec26ccc90850ae12653dc1b72d1fa260405160405180910390a2565b610c4561106a565b600a811115610c89576040517f08c379a0000000000000000000000000000000000000000000000000000000008152600401610c80906119a1565b60405180910390fd5b806005819055507fe94edcc114da5287ecb30ee8aacf12e6c16b11b8583d7f9e477ab1616e33d53d81604051610cbf91906112fe565b60405180910390a150565b610cd26110f1565b60035f3373ffffffffffffffffffffffffffffffffffffffff1673ffffffffffffffffffffffffffffffffffffffff1681526020019081526020015f206002015f9054906101000a900460ff16610d5e576040517f08c379a0000000000000000000000000000000000000000000000000000000008152600401610d55906114c4565b60405180910390fd5b600454811015610da3576040517f08c379a0000000000000000000000000000000000000000000000000000000008152600401610d9a90611a09565b60405180910390fd5b5f60025f9054906101000a900473ffffffffffffffffffffffffffffffffffffffff1673ffffffffffffffffffffffffffffffffffffffff166323b872dd3330856040518463ffffffff1660e01b8152600401610e0293929190611a27565b6020604051808303815f875af1158015610e1e573d5f5f3e3d5ffd5b505050506040513d601f19601f82011682018060405250810190610e429190611734565b905080610e84576040517f08c379a0000000000000000000000000000000000000000000000000000000008152600401610e7b906117a9565b60405180910390fd5b8160035f3373ffffffffffffffffffffffffffffffffffffffff1673ffffffffffffffffffffffffffffffffffffffff1681526020019081526020015f205f015f828254610ed29190611577565b925050819055504260035f3373ffffffffffffffffffffffffffffffffffffffff1673ffffffffffffffffffffffffffffffffffffffff1681526020019081526020015f20600101819055503373ffffffffffffffffffffffffffffffffffffffff167f2da466a7b24304f47e87fa2e1e5a81b9831ce54fec19055ce277ca2f39ba42c483604051610f6491906112fe565b60405180910390a250610f75611137565b50565b610f8061106a565b806004819055507fd939191be6b640bc40ef7c6a17554ac82dfea02602fcacfad13dcd71d0abe6d081604051610fb691906112fe565b60405180910390a150565b610fc961106a565b5f73ffffffffffffffffffffffffffffffffffffffff168173ffffffffffffffffffffffffffffffffffffffff1603611039575f6040517f1e4fbdf70000000000000000000000000000000000000000000000000000000081526004016110309190611375565b60405180910390fd5b61104281611140565b50565b60025f9054906101000a900473ffffffffffffffffffffffffffffffffffffffff1681565b611072611201565b73ffffffffffffffffffffffffffffffffffffffff166110906109e1565b73ffffffffffffffffffffffffffffffffffffffff16146110ef576110b3611201565b6040517f118cdaa70000000000000000000000000000000000000000000000000000000081526004016110e69190611375565b60405180910390fd5b565b60026001540361112d576040517f3ee5aeb500000000000000000000000000000000000000000000000000000000815260040160405180910390fd5b6002600181905550565b60018081905550565b5f5f5f9054906101000a900473ffffffffffffffffffffffffffffffffffffffff169050815f5f6101000a81548173ffffffffffffffffffffffffffffffffffffffff021916908373ffffffffffffffffffffffffffffffffffffffff1602179055508173ffffffffffffffffffffffffffffffffffffffff168173ffffffffffffffffffffffffffffffffffffffff167f8be0079c531659141344cd1fd0a4f28419497f9722a3daafe3b4186f6b6457e060405160405180910390a35050565b5f33905090565b5f5ffd5b5f73ffffffffffffffffffffffffffffffffffffffff82169050919050565b5f6112358261120c565b9050919050565b6112458161122b565b811461124f575f5ffd5b50565b5f813590506112608161123c565b92915050565b5f6020828403121561127b5761127a611208565b5b5f61128884828501611252565b91505092915050565b5f819050919050565b6112a381611291565b81146112ad575f5ffd5b50565b5f813590506112be8161129a565b92915050565b5f602082840312156112d9576112d8611208565b5b5f6112e6848285016112b0565b91505092915050565b6112f881611291565b82525050565b5f6020820190506113115f8301846112ef565b92915050565b5f8115159050919050565b61132b81611317565b82525050565b5f6060820190506113445f8301866112ef565b61135160208301856112ef565b61135e6040830184611322565b949350505050565b61136f8161122b565b82525050565b5f6020820190506113885f830184611366565b92915050565b5f819050919050565b5f6113b16113ac6113a78461120c565b61138e565b61120c565b9050919050565b5f6113c282611397565b9050919050565b5f6113d3826113b8565b9050919050565b6113e3816113c9565b82525050565b5f6020820190506113fc5f8301846113da565b92915050565b5f82825260208201905092915050565b7f546f6b656e20616464726573732063616e6e6f74206265207a65726f000000005f82015250565b5f611446601c83611402565b915061145182611412565b602082019050919050565b5f6020820190508181035f8301526114738161143a565b9050919050565b7f4163636f756e7420646f6573206e6f74206578697374000000000000000000005f82015250565b5f6114ae601683611402565b91506114b98261147a565b602082019050919050565b5f6020820190508181035f8301526114db816114a2565b9050919050565b7f496e73756666696369656e742062616c616e63650000000000000000000000005f82015250565b5f611516601483611402565b9150611521826114e2565b602082019050919050565b5f6020820190508181035f8301526115438161150a565b9050919050565b7f4e487b71000000000000000000000000000000000000000000000000000000005f52601160045260245ffd5b5f61158182611291565b915061158c83611291565b92508282019050808211156115a4576115a361154a565b5b92915050565b7f46756e647320617265206c6f636b6564000000000000000000000000000000005f82015250565b5f6115de601083611402565b91506115e9826115aa565b602082019050919050565b5f6020820190508181035f83015261160b816115d2565b9050919050565b5f61161c82611291565b915061162783611291565b925082820261163581611291565b9150828204841483151761164c5761164b61154a565b5b5092915050565b7f4e487b71000000000000000000000000000000000000000000000000000000005f52601260045260245ffd5b5f61168a82611291565b915061169583611291565b9250826116a5576116a4611653565b5b828204905092915050565b5f6116ba82611291565b91506116c583611291565b92508282039050818111156116dd576116dc61154a565b5b92915050565b5f6040820190506116f65f830185611366565b61170360208301846112ef565b9392505050565b61171381611317565b811461171d575f5ffd5b50565b5f8151905061172e8161170a565b92915050565b5f6020828403121561174957611748611208565b5b5f61175684828501611720565b91505092915050565b7f546f6b656e207472616e73666572206661696c656400000000000000000000005f82015250565b5f611793601583611402565b915061179e8261175f565b602082019050919050565b5f6020820190508181035f8301526117c081611787565b9050919050565b5f6040820190506117da5f8301856112ef565b6117e760208301846112ef565b9392505050565b5f815190506117fc8161129a565b92915050565b5f6020828403121561181757611816611208565b5b5f611824848285016117ee565b91505092915050565b7f4e487b71000000000000000000000000000000000000000000000000000000005f52604160045260245ffd5b7f4e487b71000000000000000000000000000000000000000000000000000000005f52603260045260245ffd5b7f4e6f206665657320746f207769746864726177000000000000000000000000005f82015250565b5f6118bb601383611402565b91506118c682611887565b602082019050919050565b5f6020820190508181035f8301526118e8816118af565b9050919050565b7f4163636f756e7420616c726561647920657869737473000000000000000000005f82015250565b5f611923601683611402565b915061192e826118ef565b602082019050919050565b5f6020820190508181035f83015261195081611917565b9050919050565b7f4665652063616e6e6f74206578636565642031302500000000000000000000005f82015250565b5f61198b601583611402565b915061199682611957565b602082019050919050565b5f6020820190508181035f8301526119b88161197f565b9050919050565b7f416d6f756e742062656c6f77206d696e696d756d206465706f736974000000005f82015250565b5f6119f3601c83611402565b91506119fe826119bf565b602082019050919050565b5f6020820190508181035f830152611a20816119e7565b9050919050565b5f606082019050611a3a5f830186611366565b611a476020830185611366565b611a5460408301846112ef565b94935050505056fea26469706673582212207bcd4881691a3522ef59ceb9dc3ececdcf59c29ce32719f4659b6698e9af01b464736f6c634300081e0033",
					"opcodes": "PUSH1 0x80 PUSH1 0x40 MSTORE PUSH9 0x56BC75E2D63100000 PUSH1 0x4 SSTORE PUSH1 0x5 DUP1 SSTORE PUSH3 0x15180 PUSH1 0x6 SSTORE CALLVALUE DUP1 ISZERO PUSH2 0x27 JUMPI PUSH0 PUSH0 REVERT JUMPDEST POP PUSH1 0x40 MLOAD PUSH2 0x1E0E CODESIZE SUB DUP1 PUSH2 0x1E0E DUP4 CODECOPY DUP2 DUP2 ADD PUSH1 0x40 MSTORE DUP2 ADD SWAP1 PUSH2 0x49 SWAP2 SWAP1 PUSH2 0x2A4 JUMP JUMPDEST CALLER PUSH0 PUSH20 0xFFFFFFFFFFFFFFFFFFFFFFFFFFFFFFFFFFFFFFFF AND DUP2 PUSH20 0xFFFFFFFFFFFFFFFFFFFFFFFFFFFFFFFFFFFFFFFF AND SUB PUSH2 0xBA JUMPI PUSH0 PUSH1 0x40 MLOAD PUSH32 0x1E4FBDF700000000000000000000000000000000000000000000000000000000 DUP2 MSTORE PUSH1 0x4 ADD PUSH2 0xB1 SWAP2 SWAP1 PUSH2 0x2DE JUMP JUMPDEST PUSH1 0x40 MLOAD DUP1 SWAP2 SUB SWAP1 REVERT JUMPDEST PUSH2 0xC9 DUP2 PUSH2 0x185 PUSH1 0x20 SHL PUSH1 0x20 SHR JUMP JUMPDEST POP PUSH1 0x1 DUP1 DUP2 SWAP1 SSTORE POP PUSH0 PUSH20 0xFFFFFFFFFFFFFFFFFFFFFFFFFFFFFFFFFFFFFFFF AND DUP2 PUSH20 0xFFFFFFFFFFFFFFFFFFFFFFFFFFFFFFFFFFFFFFFF AND SUB PUSH2 0x13F JUMPI PUSH1 0x40 MLOAD PUSH32 0x8C379A000000000000000000000000000000000000000000000000000000000 DUP2 MSTORE PUSH1 0x4 ADD PUSH2 0x136 SWAP1 PUSH2 0x351 JUMP JUMPDEST PUSH1 0x40 MLOAD DUP1 SWAP2 SUB SWAP1 REVERT JUMPDEST DUP1 PUSH1 0x2 PUSH0 PUSH2 0x100 EXP DUP2 SLOAD DUP2 PUSH20 0xFFFFFFFFFFFFFFFFFFFFFFFFFFFFFFFFFFFFFFFF MUL NOT AND SWAP1 DUP4 PUSH20 0xFFFFFFFFFFFFFFFFFFFFFFFFFFFFFFFFFFFFFFFF AND MUL OR SWAP1 SSTORE POP POP PUSH2 0x36F JUMP JUMPDEST PUSH0 PUSH0 PUSH0 SWAP1 SLOAD SWAP1 PUSH2 0x100 EXP SWAP1 DIV PUSH20 0xFFFFFFFFFFFFFFFFFFFFFFFFFFFFFFFFFFFFFFFF AND SWAP1 POP DUP2 PUSH0 PUSH0 PUSH2 0x100 EXP DUP2 SLOAD DUP2 PUSH20 0xFFFFFFFFFFFFFFFFFFFFFFFFFFFFFFFFFFFFFFFF MUL NOT AND SWAP1 DUP4 PUSH20 0xFFFFFFFFFFFFFFFFFFFFFFFFFFFFFFFFFFFFFFFF AND MUL OR SWAP1 SSTORE POP DUP2 PUSH20 0xFFFFFFFFFFFFFFFFFFFFFFFFFFFFFFFFFFFFFFFF AND DUP2 PUSH20 0xFFFFFFFFFFFFFFFFFFFFFFFFFFFFFFFFFFFFFFFF AND PUSH32 0x8BE0079C531659141344CD1FD0A4F28419497F9722A3DAAFE3B4186F6B6457E0 PUSH1 0x40 MLOAD PUSH1 0x40 MLOAD DUP1 SWAP2 SUB SWAP1 LOG3 POP POP JUMP JUMPDEST PUSH0 PUSH0 REVERT JUMPDEST PUSH0 PUSH20 0xFFFFFFFFFFFFFFFFFFFFFFFFFFFFFFFFFFFFFFFF DUP3 AND SWAP1 POP SWAP2 SWAP1 POP JUMP JUMPDEST PUSH0 PUSH2 0x273 DUP3 PUSH2 0x24A JUMP JUMPDEST SWAP1 POP SWAP2 SWAP1 POP JUMP JUMPDEST PUSH2 0x283 DUP2 PUSH2 0x269 JUMP JUMPDEST DUP2 EQ PUSH2 0x28D JUMPI PUSH0 PUSH0 REVERT JUMPDEST POP JUMP JUMPDEST PUSH0 DUP2 MLOAD SWAP1 POP PUSH2 0x29E DUP2 PUSH2 0x27A JUMP JUMPDEST SWAP3 SWAP2 POP POP JUMP JUMPDEST PUSH0 PUSH1 0x20 DUP3 DUP5 SUB SLT ISZERO PUSH2 0x2B9 JUMPI PUSH2 0x2B8 PUSH2 0x246 JUMP JUMPDEST JUMPDEST PUSH0 PUSH2 0x2C6 DUP5 DUP3 DUP6 ADD PUSH2 0x290 JUMP JUMPDEST SWAP2 POP POP SWAP3 SWAP2 POP POP JUMP JUMPDEST PUSH2 0x2D8 DUP2 PUSH2 0x269 JUMP JUMPDEST DUP3 MSTORE POP POP JUMP JUMPDEST PUSH0 PUSH1 0x20 DUP3 ADD SWAP1 POP PUSH2 0x2F1 PUSH0 DUP4 ADD DUP5 PUSH2 0x2CF JUMP JUMPDEST SWAP3 SWAP2 POP POP JUMP JUMPDEST PUSH0 DUP3 DUP3 MSTORE PUSH1 0x20 DUP3 ADD SWAP1 POP SWAP3 SWAP2 POP POP JUMP JUMPDEST PUSH32 0x546F6B656E20616464726573732063616E6E6F74206265207A65726F00000000 PUSH0 DUP3 ADD MSTORE POP JUMP JUMPDEST PUSH0 PUSH2 0x33B PUSH1 0x1C DUP4 PUSH2 0x2F7 JUMP JUMPDEST SWAP2 POP PUSH2 0x346 DUP3 PUSH2 0x307 JUMP JUMPDEST PUSH1 0x20 DUP3 ADD SWAP1 POP SWAP2 SWAP1 POP JUMP JUMPDEST PUSH0 PUSH1 0x20 DUP3 ADD SWAP1 POP DUP2 DUP2 SUB PUSH0 DUP4 ADD MSTORE PUSH2 0x368 DUP2 PUSH2 0x32F JUMP JUMPDEST SWAP1 POP SWAP2 SWAP1 POP JUMP JUMPDEST PUSH2 0x1A92 DUP1 PUSH2 0x37C PUSH0 CODECOPY PUSH0 RETURN INVALID PUSH1 0x80 PUSH1 0x40 MSTORE CALLVALUE DUP1 ISZERO PUSH2 0xF JUMPI PUSH0 PUSH0 REVERT JUMPDEST POP PUSH1 0x4 CALLDATASIZE LT PUSH2 0x109 JUMPI PUSH0 CALLDATALOAD PUSH1 0xE0 SHR DUP1 PUSH4 0x8BC7E8C4 GT PUSH2 0xA0 JUMPI DUP1 PUSH4 0xAC1E5025 GT PUSH2 0x6F JUMPI DUP1 PUSH4 0xAC1E5025 EQ PUSH2 0x259 JUMPI DUP1 PUSH4 0xB6B55F25 EQ PUSH2 0x275 JUMPI DUP1 PUSH4 0xE78EC42E EQ PUSH2 0x291 JUMPI DUP1 PUSH4 0xF2FDE38B EQ PUSH2 0x2AD JUMPI DUP1 PUSH4 0xFC0C546A EQ PUSH2 0x2C9 JUMPI PUSH2 0x109 JUMP JUMPDEST DUP1 PUSH4 0x8BC7E8C4 EQ PUSH2 0x1E3 JUMPI DUP1 PUSH4 0x8DA5CB5B EQ PUSH2 0x201 JUMPI DUP1 PUSH4 0x93423E9C EQ PUSH2 0x21F JUMPI DUP1 PUSH4 0x9DCA362F EQ PUSH2 0x24F JUMPI PUSH2 0x109 JUMP JUMPDEST DUP1 PUSH4 0x5E5C06E2 GT PUSH2 0xDC JUMPI DUP1 PUSH4 0x5E5C06E2 EQ PUSH2 0x16D JUMPI DUP1 PUSH4 0x636BFBAB EQ PUSH2 0x19F JUMPI DUP1 PUSH4 0x715018A6 EQ PUSH2 0x1BD JUMPI DUP1 PUSH4 0x779972DA EQ PUSH2 0x1C7 JUMPI PUSH2 0x109 JUMP JUMPDEST DUP1 PUSH4 0x26A4E8D2 EQ PUSH2 0x10D JUMPI DUP1 PUSH4 0x2E1A7D4D EQ PUSH2 0x129 JUMPI DUP1 PUSH4 0x3FD8B02F EQ PUSH2 0x145 JUMPI DUP1 PUSH4 0x476343EE EQ PUSH2 0x163 JUMPI JUMPDEST PUSH0 PUSH0 REVERT JUMPDEST PUSH2 0x127 PUSH1 0x4 DUP1 CALLDATASIZE SUB DUP2 ADD SWAP1 PUSH2 0x122 SWAP2 SWAP1 PUSH2 0x1266 JUMP JUMPDEST PUSH2 0x2E7 JUMP JUMPDEST STOP JUMPDEST PUSH2 0x143 PUSH1 0x4 DUP1 CALLDATASIZE SUB DUP2 ADD SWAP1 PUSH2 0x13E SWAP2 SWAP1 PUSH2 0x12C4 JUMP JUMPDEST PUSH2 0x3D7 JUMP JUMPDEST STOP JUMPDEST PUSH2 0x14D PUSH2 0x68C JUMP JUMPDEST PUSH1 0x40 MLOAD PUSH2 0x15A SWAP2 SWAP1 PUSH2 0x12FE JUMP JUMPDEST PUSH1 0x40 MLOAD DUP1 SWAP2 SUB SWAP1 RETURN JUMPDEST PUSH2 0x16B PUSH2 0x692 JUMP JUMPDEST STOP JUMPDEST PUSH2 0x187 PUSH1 0x4 DUP1 CALLDATASIZE SUB DUP2 ADD SWAP1 PUSH2 0x182 SWAP2 SWAP1 PUSH2 0x1266 JUMP JUMPDEST PUSH2 0x947 JUMP JUMPDEST PUSH1 0x40 MLOAD PUSH2 0x196 SWAP4 SWAP3 SWAP2 SWAP1 PUSH2 0x1331 JUMP JUMPDEST PUSH1 0x40 MLOAD DUP1 SWAP2 SUB SWAP1 RETURN JUMPDEST PUSH2 0x1A7 PUSH2 0x979 JUMP JUMPDEST PUSH1 0x40 MLOAD PUSH2 0x1B4 SWAP2 SWAP1 PUSH2 0x12FE JUMP JUMPDEST PUSH1 0x40 MLOAD DUP1 SWAP2 SUB SWAP1 RETURN JUMPDEST PUSH2 0x1C5 PUSH2 0x97F JUMP JUMPDEST STOP JUMPDEST PUSH2 0x1E1 PUSH1 0x4 DUP1 CALLDATASIZE SUB DUP2 ADD SWAP1 PUSH2 0x1DC SWAP2 SWAP1 PUSH2 0x12C4 JUMP JUMPDEST PUSH2 0x992 JUMP JUMPDEST STOP JUMPDEST PUSH2 0x1EB PUSH2 0x9DB JUMP JUMPDEST PUSH1 0x40 MLOAD PUSH2 0x1F8 SWAP2 SWAP1 PUSH2 0x12FE JUMP JUMPDEST PUSH1 0x40 MLOAD DUP1 SWAP2 SUB SWAP1 RETURN JUMPDEST PUSH2 0x209 PUSH2 0x9E1 JUMP JUMPDEST PUSH1 0x40 MLOAD PUSH2 0x216 SWAP2 SWAP1 PUSH2 0x1375 JUMP JUMPDEST PUSH1 0x40 MLOAD DUP1 SWAP2 SUB SWAP1 RETURN JUMPDEST PUSH2 0x239 PUSH1 0x4 DUP1 CALLDATASIZE SUB DUP2 ADD SWAP1 PUSH2 0x234 SWAP2 SWAP1 PUSH2 0x1266 JUMP JUMPDEST PUSH2 0xA08 JUMP JUMPDEST PUSH1 0x40 MLOAD PUSH2 0x246 SWAP2 SWAP1 PUSH2 0x12FE JUMP JUMPDEST PUSH1 0x40 MLOAD DUP1 SWAP2 SUB SWAP1 RETURN JUMPDEST PUSH2 0x257 PUSH2 0xADC JUMP JUMPDEST STOP JUMPDEST PUSH2 0x273 PUSH1 0x4 DUP1 CALLDATASIZE SUB DUP2 ADD SWAP1 PUSH2 0x26E SWAP2 SWAP1 PUSH2 0x12C4 JUMP JUMPDEST PUSH2 0xC3D JUMP JUMPDEST STOP JUMPDEST PUSH2 0x28F PUSH1 0x4 DUP1 CALLDATASIZE SUB DUP2 ADD SWAP1 PUSH2 0x28A SWAP2 SWAP1 PUSH2 0x12C4 JUMP JUMPDEST PUSH2 0xCCA JUMP JUMPDEST STOP JUMPDEST PUSH2 0x2AB PUSH1 0x4 DUP1 CALLDATASIZE SUB DUP2 ADD SWAP1 PUSH2 0x2A6 SWAP2 SWAP1 PUSH2 0x12C4 JUMP JUMPDEST PUSH2 0xF78 JUMP JUMPDEST STOP JUMPDEST PUSH2 0x2C7 PUSH1 0x4 DUP1 CALLDATASIZE SUB DUP2 ADD SWAP1 PUSH2 0x2C2 SWAP2 SWAP1 PUSH2 0x1266 JUMP JUMPDEST PUSH2 0xFC1 JUMP JUMPDEST STOP JUMPDEST PUSH2 0x2D1 PUSH2 0x1045 JUMP JUMPDEST PUSH1 0x40 MLOAD PUSH2 0x2DE SWAP2 SWAP1 PUSH2 0x13E9 JUMP JUMPDEST PUSH1 0x40 MLOAD DUP1 SWAP2 SUB SWAP1 RETURN JUMPDEST PUSH2 0x2EF PUSH2 0x106A JUMP JUMPDEST PUSH0 PUSH20 0xFFFFFFFFFFFFFFFFFFFFFFFFFFFFFFFFFFFFFFFF AND DUP2 PUSH20 0xFFFFFFFFFFFFFFFFFFFFFFFFFFFFFFFFFFFFFFFF AND SUB PUSH2 0x35D JUMPI PUSH1 0x40 MLOAD PUSH32 0x8C379A000000000000000000000000000000000000000000000000000000000 DUP2 MSTORE PUSH1 0x4 ADD PUSH2 0x354 SWAP1 PUSH2 0x145C JUMP JUMPDEST PUSH1 0x40 MLOAD DUP1 SWAP2 SUB SWAP1 REVERT JUMPDEST DUP1 PUSH1 0x2 PUSH0 PUSH2 0x100 EXP DUP2 SLOAD DUP2 PUSH20 0xFFFFFFFFFFFFFFFFFFFFFFFFFFFFFFFFFFFFFFFF MUL NOT AND SWAP1 DUP4 PUSH20 0xFFFFFFFFFFFFFFFFFFFFFFFFFFFFFFFFFFFFFFFF AND MUL OR SWAP1 SSTORE POP PUSH32 0x2F0C7F17BE551D1F4566672CD67ADBE50173E96632F56FF80D80ACC4AC00F328 DUP2 PUSH1 0x40 MLOAD PUSH2 0x3CC SWAP2 SWAP1 PUSH2 0x1375 JUMP JUMPDEST PUSH1 0x40 MLOAD DUP1 SWAP2 SUB SWAP1 LOG1 POP JUMP JUMPDEST PUSH2 0x3DF PUSH2 0x10F1 JUMP JUMPDEST PUSH0 PUSH1 0x3 PUSH0 CALLER PUSH20 0xFFFFFFFFFFFFFFFFFFFFFFFFFFFFFFFFFFFFFFFF AND PUSH20 0xFFFFFFFFFFFFFFFFFFFFFFFFFFFFFFFFFFFFFFFF AND DUP2 MSTORE PUSH1 0x20 ADD SWAP1 DUP2 MSTORE PUSH1 0x20 ADD PUSH0 KECCAK256 SWAP1 POP DUP1 PUSH1 0x2 ADD PUSH0 SWAP1 SLOAD SWAP1 PUSH2 0x100 EXP SWAP1 DIV PUSH1 0xFF AND PUSH2 0x46F JUMPI PUSH1 0x40 MLOAD PUSH32 0x8C379A000000000000000000000000000000000000000000000000000000000 DUP2 MSTORE PUSH1 0x4 ADD PUSH2 0x466 SWAP1 PUSH2 0x14C4 JUMP JUMPDEST PUSH1 0x40 MLOAD DUP1 SWAP2 SUB SWAP1 REVERT JUMPDEST DUP2 DUP2 PUSH0 ADD SLOAD LT ISZERO PUSH2 0x4B5 JUMPI PUSH1 0x40 MLOAD PUSH32 0x8C379A000000000000000000000000000000000000000000000000000000000 DUP2 MSTORE PUSH1 0x4 ADD PUSH2 0x4AC SWAP1 PUSH2 0x152C JUMP JUMPDEST PUSH1 0x40 MLOAD DUP1 SWAP2 SUB SWAP1 REVERT JUMPDEST PUSH1 0x6 SLOAD DUP2 PUSH1 0x1 ADD SLOAD PUSH2 0x4C7 SWAP2 SWAP1 PUSH2 0x1577 JUMP JUMPDEST TIMESTAMP LT ISZERO PUSH2 0x509 JUMPI PUSH1 0x40 MLOAD PUSH32 0x8C379A000000000000000000000000000000000000000000000000000000000 DUP2 MSTORE PUSH1 0x4 ADD PUSH2 0x500 SWAP1 PUSH2 0x15F4 JUMP JUMPDEST PUSH1 0x40 MLOAD DUP1 SWAP2 SUB SWAP1 REVERT JUMPDEST PUSH0 PUSH1 0x64 PUSH1 0x5 SLOAD DUP5 PUSH2 0x51A SWAP2 SWAP1 PUSH2 0x1612 JUMP JUMPDEST PUSH2 0x524 SWAP2 SWAP1 PUSH2 0x1680 JUMP JUMPDEST SWAP1 POP PUSH0 DUP2 DUP5 PUSH2 0x533 SWAP2 SWAP1 PUSH2 0x16B0 JUMP JUMPDEST SWAP1 POP DUP4 DUP4 PUSH0 ADD PUSH0 DUP3 DUP3 SLOAD PUSH2 0x547 SWAP2 SWAP1 PUSH2 0x16B0 JUMP JUMPDEST SWAP3 POP POP DUP2 SWAP1 SSTORE POP PUSH0 PUSH1 0x2 PUSH0 SWAP1 SLOAD SWAP1 PUSH2 0x100 EXP SWAP1 DIV PUSH20 0xFFFFFFFFFFFFFFFFFFFFFFFFFFFFFFFFFFFFFFFF AND PUSH20 0xFFFFFFFFFFFFFFFFFFFFFFFFFFFFFFFFFFFFFFFF AND PUSH4 0xA9059CBB CALLER DUP5 PUSH1 0x40 MLOAD DUP4 PUSH4 0xFFFFFFFF AND PUSH1 0xE0 SHL DUP2 MSTORE PUSH1 0x4 ADD PUSH2 0x5AB SWAP3 SWAP2 SWAP1 PUSH2 0x16E3 JUMP JUMPDEST PUSH1 0x20 PUSH1 0x40 MLOAD DUP1 DUP4 SUB DUP2 PUSH0 DUP8 GAS CALL ISZERO DUP1 ISZERO PUSH2 0x5C7 JUMPI RETURNDATASIZE PUSH0 PUSH0 RETURNDATACOPY RETURNDATASIZE PUSH0 REVERT JUMPDEST POP POP POP POP PUSH1 0x40 MLOAD RETURNDATASIZE PUSH1 0x1F NOT PUSH1 0x1F DUP3 ADD AND DUP3 ADD DUP1 PUSH1 0x40 MSTORE POP DUP2 ADD SWAP1 PUSH2 0x5EB SWAP2 SWAP1 PUSH2 0x1734 JUMP JUMPDEST SWAP1 POP DUP1 PUSH2 0x62D JUMPI PUSH1 0x40 MLOAD PUSH32 0x8C379A000000000000000000000000000000000000000000000000000000000 DUP2 MSTORE PUSH1 0x4 ADD PUSH2 0x624 SWAP1 PUSH2 0x17A9 JUMP JUMPDEST PUSH1 0x40 MLOAD DUP1 SWAP2 SUB SWAP1 REVERT JUMPDEST CALLER PUSH20 0xFFFFFFFFFFFFFFFFFFFFFFFFFFFFFFFFFFFFFFFF AND PUSH32 0x92CCF450A286A957AF52509BC1C9939D1A6A481783E142E41E2499F0BB66EBC6 DUP7 DUP6 PUSH1 0x40 MLOAD PUSH2 0x675 SWAP3 SWAP2 SWAP1 PUSH2 0x17C7 JUMP JUMPDEST PUSH1 0x40 MLOAD DUP1 SWAP2 SUB SWAP1 LOG2 POP POP POP POP PUSH2 0x689 PUSH2 0x1137 JUMP JUMPDEST POP JUMP JUMPDEST PUSH1 0x6 SLOAD DUP2 JUMP JUMPDEST PUSH2 0x69A PUSH2 0x106A JUMP JUMPDEST PUSH0 PUSH1 0x2 PUSH0 SWAP1 SLOAD SWAP1 PUSH2 0x100 EXP SWAP1 DIV PUSH20 0xFFFFFFFFFFFFFFFFFFFFFFFFFFFFFFFFFFFFFFFF AND PUSH20 0xFFFFFFFFFFFFFFFFFFFFFFFFFFFFFFFFFFFFFFFF AND PUSH4 0x70A08231 ADDRESS PUSH1 0x40 MLOAD DUP3 PUSH4 0xFFFFFFFF AND PUSH1 0xE0 SHL DUP2 MSTORE PUSH1 0x4 ADD PUSH2 0x6F5 SWAP2 SWAP1 PUSH2 0x1375 JUMP JUMPDEST PUSH1 0x20 PUSH1 0x40 MLOAD DUP1 DUP4 SUB DUP2 DUP7 GAS STATICCALL ISZERO DUP1 ISZERO PUSH2 0x710 JUMPI RETURNDATASIZE PUSH0 PUSH0 RETURNDATACOPY RETURNDATASIZE PUSH0 REVERT JUMPDEST POP POP POP POP PUSH1 0x40 MLOAD RETURNDATASIZE PUSH1 0x1F NOT PUSH1 0x1F DUP3 ADD AND DUP3 ADD DUP1 PUSH1 0x40 MSTORE POP DUP2 ADD SWAP1 PUSH2 0x734 SWAP2 SWAP1 PUSH2 0x1802 JUMP JUMPDEST SWAP1 POP PUSH0 PUSH0 SWAP1 POP PUSH0 PUSH0 PUSH8 0xFFFFFFFFFFFFFFFF DUP2 GT ISZERO PUSH2 0x755 JUMPI PUSH2 0x754 PUSH2 0x182D JUMP JUMPDEST JUMPDEST PUSH1 0x40 MLOAD SWAP1 DUP1 DUP3 MSTORE DUP1 PUSH1 0x20 MUL PUSH1 0x20 ADD DUP3 ADD PUSH1 0x40 MSTORE DUP1 ISZERO PUSH2 0x783 JUMPI DUP2 PUSH1 0x20 ADD PUSH1 0x20 DUP3 MUL DUP1 CALLDATASIZE DUP4 CALLDATACOPY DUP1 DUP3 ADD SWAP2 POP POP SWAP1 POP JUMPDEST POP SWAP1 POP PUSH0 PUSH0 SWAP1 POP JUMPDEST DUP2 MLOAD DUP2 LT ISZERO PUSH2 0x808 JUMPI PUSH1 0x3 PUSH0 DUP4 DUP4 DUP2 MLOAD DUP2 LT PUSH2 0x7AA JUMPI PUSH2 0x7A9 PUSH2 0x185A JUMP JUMPDEST JUMPDEST PUSH1 0x20 MUL PUSH1 0x20 ADD ADD MLOAD PUSH20 0xFFFFFFFFFFFFFFFFFFFFFFFFFFFFFFFFFFFFFFFF AND PUSH20 0xFFFFFFFFFFFFFFFFFFFFFFFFFFFFFFFFFFFFFFFF AND DUP2 MSTORE PUSH1 0x20 ADD SWAP1 DUP2 MSTORE PUSH1 0x20 ADD PUSH0 KECCAK256 PUSH0 ADD SLOAD DUP4 PUSH2 0x7F9 SWAP2 SWAP1 PUSH2 0x1577 JUMP JUMPDEST SWAP3 POP DUP1 DUP1 PUSH1 0x1 ADD SWAP2 POP POP PUSH2 0x78B JUMP JUMPDEST POP PUSH0 DUP3 DUP5 PUSH2 0x816 SWAP2 SWAP1 PUSH2 0x16B0 JUMP JUMPDEST SWAP1 POP PUSH0 DUP2 GT PUSH2 0x85A JUMPI PUSH1 0x40 MLOAD PUSH32 0x8C379A000000000000000000000000000000000000000000000000000000000 DUP2 MSTORE PUSH1 0x4 ADD PUSH2 0x851 SWAP1 PUSH2 0x18D1 JUMP JUMPDEST PUSH1 0x40 MLOAD DUP1 SWAP2 SUB SWAP1 REVERT JUMPDEST PUSH0 PUSH1 0x2 PUSH0 SWAP1 SLOAD SWAP1 PUSH2 0x100 EXP SWAP1 DIV PUSH20 0xFFFFFFFFFFFFFFFFFFFFFFFFFFFFFFFFFFFFFFFF AND PUSH20 0xFFFFFFFFFFFFFFFFFFFFFFFFFFFFFFFFFFFFFFFF AND PUSH4 0xA9059CBB PUSH2 0x8A0 PUSH2 0x9E1 JUMP JUMPDEST DUP5 PUSH1 0x40 MLOAD DUP4 PUSH4 0xFFFFFFFF AND PUSH1 0xE0 SHL DUP2 MSTORE PUSH1 0x4 ADD PUSH2 0x8BE SWAP3 SWAP2 SWAP1 PUSH2 0x16E3 JUMP JUMPDEST PUSH1 0x20 PUSH1 0x40 MLOAD DUP1 DUP4 SUB DUP2 PUSH0 DUP8 GAS CALL ISZERO DUP1 ISZERO PUSH2 0x8DA JUMPI RETURNDATASIZE PUSH0 PUSH0 RETURNDATACOPY RETURNDATASIZE PUSH0 REVERT JUMPDEST POP POP POP POP PUSH1 0x40 MLOAD RETURNDATASIZE PUSH1 0x1F NOT PUSH1 0x1F DUP3 ADD AND DUP3 ADD DUP1 PUSH1 0x40 MSTORE POP DUP2 ADD SWAP1 PUSH2 0x8FE SWAP2 SWAP1 PUSH2 0x1734 JUMP JUMPDEST SWAP1 POP DUP1 PUSH2 0x940 JUMPI PUSH1 0x40 MLOAD PUSH32 0x8C379A000000000000000000000000000000000000000000000000000000000 DUP2 MSTORE PUSH1 0x4 ADD PUSH2 0x937 SWAP1 PUSH2 0x17A9 JUMP JUMPDEST PUSH1 0x40 MLOAD DUP1 SWAP2 SUB SWAP1 REVERT JUMPDEST POP POP POP POP POP JUMP JUMPDEST PUSH1 0x3 PUSH1 0x20 MSTORE DUP1 PUSH0 MSTORE PUSH1 0x40 PUSH0 KECCAK256 PUSH0 SWAP2 POP SWAP1 POP DUP1 PUSH0 ADD SLOAD SWAP1 DUP1 PUSH1 0x1 ADD SLOAD SWAP1 DUP1 PUSH1 0x2 ADD PUSH0 SWAP1 SLOAD SWAP1 PUSH2 0x100 EXP SWAP1 DIV PUSH1 0xFF AND SWAP1 POP DUP4 JUMP JUMPDEST PUSH1 0x4 SLOAD DUP2 JUMP JUMPDEST PUSH2 0x987 PUSH2 0x106A JUMP JUMPDEST PUSH2 0x990 PUSH0 PUSH2 0x1140 JUMP JUMPDEST JUMP JUMPDEST PUSH2 0x99A PUSH2 0x106A JUMP JUMPDEST DUP1 PUSH1 0x6 DUP2 SWAP1 SSTORE POP PUSH32 0x8249EC545E68F6F1E1230133CA48C704D831A7F8E635DED80F3DD9E99B09BB2F DUP2 PUSH1 0x40 MLOAD PUSH2 0x9D0 SWAP2 SWAP1 PUSH2 0x12FE JUMP JUMPDEST PUSH1 0x40 MLOAD DUP1 SWAP2 SUB SWAP1 LOG1 POP JUMP JUMPDEST PUSH1 0x5 SLOAD DUP2 JUMP JUMPDEST PUSH0 PUSH0 PUSH0 SWAP1 SLOAD SWAP1 PUSH2 0x100 EXP SWAP1 DIV PUSH20 0xFFFFFFFFFFFFFFFFFFFFFFFFFFFFFFFFFFFFFFFF AND SWAP1 POP SWAP1 JUMP JUMPDEST PUSH0 PUSH1 0x3 PUSH0 DUP4 PUSH20 0xFFFFFFFFFFFFFFFFFFFFFFFFFFFFFFFFFFFFFFFF AND PUSH20 0xFFFFFFFFFFFFFFFFFFFFFFFFFFFFFFFFFFFFFFFF AND DUP2 MSTORE PUSH1 0x20 ADD SWAP1 DUP2 MSTORE PUSH1 0x20 ADD PUSH0 KECCAK256 PUSH1 0x2 ADD PUSH0 SWAP1 SLOAD SWAP1 PUSH2 0x100 EXP SWAP1 DIV PUSH1 0xFF AND PUSH2 0xA95 JUMPI PUSH1 0x40 MLOAD PUSH32 0x8C379A000000000000000000000000000000000000000000000000000000000 DUP2 MSTORE PUSH1 0x4 ADD PUSH2 0xA8C SWAP1 PUSH2 0x14C4 JUMP JUMPDEST PUSH1 0x40 MLOAD DUP1 SWAP2 SUB SWAP1 REVERT JUMPDEST PUSH1 0x3 PUSH0 DUP4 PUSH20 0xFFFFFFFFFFFFFFFFFFFFFFFFFFFFFFFFFFFFFFFF AND PUSH20 0xFFFFFFFFFFFFFFFFFFFFFFFFFFFFFFFFFFFFFFFF AND DUP2 MSTORE PUSH1 0x20 ADD SWAP1 DUP2 MSTORE PUSH1 0x20 ADD PUSH0 KECCAK256 PUSH0 ADD SLOAD SWAP1 POP SWAP2 SWAP1 POP JUMP JUMPDEST PUSH1 0x3 PUSH0 CALLER PUSH20 0xFFFFFFFFFFFFFFFFFFFFFFFFFFFFFFFFFFFFFFFF AND PUSH20 0xFFFFFFFFFFFFFFFFFFFFFFFFFFFFFFFFFFFFFFFF AND DUP2 MSTORE PUSH1 0x20 ADD SWAP1 DUP2 MSTORE PUSH1 0x20 ADD PUSH0 KECCAK256 PUSH1 0x2 ADD PUSH0 SWAP1 SLOAD SWAP1 PUSH2 0x100 EXP SWAP1 DIV PUSH1 0xFF AND ISZERO PUSH2 0xB69 JUMPI PUSH1 0x40 MLOAD PUSH32 0x8C379A000000000000000000000000000000000000000000000000000000000 DUP2 MSTORE PUSH1 0x4 ADD PUSH2 0xB60 SWAP1 PUSH2 0x1939 JUMP JUMPDEST PUSH1 0x40 MLOAD DUP1 SWAP2 SUB SWAP1 REVERT JUMPDEST PUSH1 0x40 MLOAD DUP1 PUSH1 0x60 ADD PUSH1 0x40 MSTORE DUP1 PUSH0 DUP2 MSTORE PUSH1 0x20 ADD PUSH0 DUP2 MSTORE PUSH1 0x20 ADD PUSH1 0x1 ISZERO ISZERO DUP2 MSTORE POP PUSH1 0x3 PUSH0 CALLER PUSH20 0xFFFFFFFFFFFFFFFFFFFFFFFFFFFFFFFFFFFFFFFF AND PUSH20 0xFFFFFFFFFFFFFFFFFFFFFFFFFFFFFFFFFFFFFFFF AND DUP2 MSTORE PUSH1 0x20 ADD SWAP1 DUP2 MSTORE PUSH1 0x20 ADD PUSH0 KECCAK256 PUSH0 DUP3 ADD MLOAD DUP2 PUSH0 ADD SSTORE PUSH1 0x20 DUP3 ADD MLOAD DUP2 PUSH1 0x1 ADD SSTORE PUSH1 0x40 DUP3 ADD MLOAD DUP2 PUSH1 0x2 ADD PUSH0 PUSH2 0x100 EXP DUP2 SLOAD DUP2 PUSH1 0xFF MUL NOT AND SWAP1 DUP4 ISZERO ISZERO MUL OR SWAP1 SSTORE POP SWAP1 POP POP CALLER PUSH20 0xFFFFFFFFFFFFFFFFFFFFFFFFFFFFFFFFFFFFFFFF AND PUSH32 0x805996F252884581E2F74CF3D2B03564D5EC26CCC90850AE12653DC1B72D1FA2 PUSH1 0x40 MLOAD PUSH1 0x40 MLOAD DUP1 SWAP2 SUB SWAP1 LOG2 JUMP JUMPDEST PUSH2 0xC45 PUSH2 0x106A JUMP JUMPDEST PUSH1 0xA DUP2 GT ISZERO PUSH2 0xC89 JUMPI PUSH1 0x40 MLOAD PUSH32 0x8C379A000000000000000000000000000000000000000000000000000000000 DUP2 MSTORE PUSH1 0x4 ADD PUSH2 0xC80 SWAP1 PUSH2 0x19A1 JUMP JUMPDEST PUSH1 0x40 MLOAD DUP1 SWAP2 SUB SWAP1 REVERT JUMPDEST DUP1 PUSH1 0x5 DUP2 SWAP1 SSTORE POP PUSH32 0xE94EDCC114DA5287ECB30EE8AACF12E6C16B11B8583D7F9E477AB1616E33D53D DUP2 PUSH1 0x40 MLOAD PUSH2 0xCBF SWAP2 SWAP1 PUSH2 0x12FE JUMP JUMPDEST PUSH1 0x40 MLOAD DUP1 SWAP2 SUB SWAP1 LOG1 POP JUMP JUMPDEST PUSH2 0xCD2 PUSH2 0x10F1 JUMP JUMPDEST PUSH1 0x3 PUSH0 CALLER PUSH20 0xFFFFFFFFFFFFFFFFFFFFFFFFFFFFFFFFFFFFFFFF AND PUSH20 0xFFFFFFFFFFFFFFFFFFFFFFFFFFFFFFFFFFFFFFFF AND DUP2 MSTORE PUSH1 0x20 ADD SWAP1 DUP2 MSTORE PUSH1 0x20 ADD PUSH0 KECCAK256 PUSH1 0x2 ADD PUSH0 SWAP1 SLOAD SWAP1 PUSH2 0x100 EXP SWAP1 DIV PUSH1 0xFF AND PUSH2 0xD5E JUMPI PUSH1 0x40 MLOAD PUSH32 0x8C379A000000000000000000000000000000000000000000000000000000000 DUP2 MSTORE PUSH1 0x4 ADD PUSH2 0xD55 SWAP1 PUSH2 0x14C4 JUMP JUMPDEST PUSH1 0x40 MLOAD DUP1 SWAP2 SUB SWAP1 REVERT JUMPDEST PUSH1 0x4 SLOAD DUP2 LT ISZERO PUSH2 0xDA3 JUMPI PUSH1 0x40 MLOAD PUSH32 0x8C379A000000000000000000000000000000000000000000000000000000000 DUP2 MSTORE PUSH1 0x4 ADD PUSH2 0xD9A SWAP1 PUSH2 0x1A09 JUMP JUMPDEST PUSH1 0x40 MLOAD DUP1 SWAP2 SUB SWAP1 REVERT JUMPDEST PUSH0 PUSH1 0x2 PUSH0 SWAP1 SLOAD SWAP1 PUSH2 0x100 EXP SWAP1 DIV PUSH20 0xFFFFFFFFFFFFFFFFFFFFFFFFFFFFFFFFFFFFFFFF AND PUSH20 0xFFFFFFFFFFFFFFFFFFFFFFFFFFFFFFFFFFFFFFFF AND PUSH4 0x23B872DD CALLER ADDRESS DUP6 PUSH1 0x40 MLOAD DUP5 PUSH4 0xFFFFFFFF AND PUSH1 0xE0 SHL DUP2 MSTORE PUSH1 0x4 ADD PUSH2 0xE02 SWAP4 SWAP3 SWAP2 SWAP1 PUSH2 0x1A27 JUMP JUMPDEST PUSH1 0x20 PUSH1 0x40 MLOAD DUP1 DUP4 SUB DUP2 PUSH0 DUP8 GAS CALL ISZERO DUP1 ISZERO PUSH2 0xE1E JUMPI RETURNDATASIZE PUSH0 PUSH0 RETURNDATACOPY RETURNDATASIZE PUSH0 REVERT JUMPDEST POP POP POP POP PUSH1 0x40 MLOAD RETURNDATASIZE PUSH1 0x1F NOT PUSH1 0x1F DUP3 ADD AND DUP3 ADD DUP1 PUSH1 0x40 MSTORE POP DUP2 ADD SWAP1 PUSH2 0xE42 SWAP2 SWAP1 PUSH2 0x1734 JUMP JUMPDEST SWAP1 POP DUP1 PUSH2 0xE84 JUMPI PUSH1 0x40 MLOAD PUSH32 0x8C379A000000000000000000000000000000000000000000000000000000000 DUP2 MSTORE PUSH1 0x4 ADD PUSH2 0xE7B SWAP1 PUSH2 0x17A9 JUMP JUMPDEST PUSH1 0x40 MLOAD DUP1 SWAP2 SUB SWAP1 REVERT JUMPDEST DUP2 PUSH1 0x3 PUSH0 CALLER PUSH20 0xFFFFFFFFFFFFFFFFFFFFFFFFFFFFFFFFFFFFFFFF AND PUSH20 0xFFFFFFFFFFFFFFFFFFFFFFFFFFFFFFFFFFFFFFFF AND DUP2 MSTORE PUSH1 0x20 ADD SWAP1 DUP2 MSTORE PUSH1 0x20 ADD PUSH0 KECCAK256 PUSH0 ADD PUSH0 DUP3 DUP3 SLOAD PUSH2 0xED2 SWAP2 SWAP1 PUSH2 0x1577 JUMP JUMPDEST SWAP3 POP POP DUP2 SWAP1 SSTORE POP TIMESTAMP PUSH1 0x3 PUSH0 CALLER PUSH20 0xFFFFFFFFFFFFFFFFFFFFFFFFFFFFFFFFFFFFFFFF AND PUSH20 0xFFFFFFFFFFFFFFFFFFFFFFFFFFFFFFFFFFFFFFFF AND DUP2 MSTORE PUSH1 0x20 ADD SWAP1 DUP2 MSTORE PUSH1 0x20 ADD PUSH0 KECCAK256 PUSH1 0x1 ADD DUP2 SWAP1 SSTORE POP CALLER PUSH20 0xFFFFFFFFFFFFFFFFFFFFFFFFFFFFFFFFFFFFFFFF AND PUSH32 0x2DA466A7B24304F47E87FA2E1E5A81B9831CE54FEC19055CE277CA2F39BA42C4 DUP4 PUSH1 0x40 MLOAD PUSH2 0xF64 SWAP2 SWAP1 PUSH2 0x12FE JUMP JUMPDEST PUSH1 0x40 MLOAD DUP1 SWAP2 SUB SWAP1 LOG2 POP PUSH2 0xF75 PUSH2 0x1137 JUMP JUMPDEST POP JUMP JUMPDEST PUSH2 0xF80 PUSH2 0x106A JUMP JUMPDEST DUP1 PUSH1 0x4 DUP2 SWAP1 SSTORE POP PUSH32 0xD939191BE6B640BC40EF7C6A17554AC82DFEA02602FCACFAD13DCD71D0ABE6D0 DUP2 PUSH1 0x40 MLOAD PUSH2 0xFB6 SWAP2 SWAP1 PUSH2 0x12FE JUMP JUMPDEST PUSH1 0x40 MLOAD DUP1 SWAP2 SUB SWAP1 LOG1 POP JUMP JUMPDEST PUSH2 0xFC9 PUSH2 0x106A JUMP JUMPDEST PUSH0 PUSH20 0xFFFFFFFFFFFFFFFFFFFFFFFFFFFFFFFFFFFFFFFF AND DUP2 PUSH20 0xFFFFFFFFFFFFFFFFFFFFFFFFFFFFFFFFFFFFFFFF AND SUB PUSH2 0x1039 JUMPI PUSH0 PUSH1 0x40 MLOAD PUSH32 0x1E4FBDF700000000000000000000000000000000000000000000000000000000 DUP2 MSTORE PUSH1 0x4 ADD PUSH2 0x1030 SWAP2 SWAP1 PUSH2 0x1375 JUMP JUMPDEST PUSH1 0x40 MLOAD DUP1 SWAP2 SUB SWAP1 REVERT JUMPDEST PUSH2 0x1042 DUP2 PUSH2 0x1140 JUMP JUMPDEST POP JUMP JUMPDEST PUSH1 0x2 PUSH0 SWAP1 SLOAD SWAP1 PUSH2 0x100 EXP SWAP1 DIV PUSH20 0xFFFFFFFFFFFFFFFFFFFFFFFFFFFFFFFFFFFFFFFF AND DUP2 JUMP JUMPDEST PUSH2 0x1072 PUSH2 0x1201 JUMP JUMPDEST PUSH20 0xFFFFFFFFFFFFFFFFFFFFFFFFFFFFFFFFFFFFFFFF AND PUSH2 0x1090 PUSH2 0x9E1 JUMP JUMPDEST PUSH20 0xFFFFFFFFFFFFFFFFFFFFFFFFFFFFFFFFFFFFFFFF AND EQ PUSH2 0x10EF JUMPI PUSH2 0x10B3 PUSH2 0x1201 JUMP JUMPDEST PUSH1 0x40 MLOAD PUSH32 0x118CDAA700000000000000000000000000000000000000000000000000000000 DUP2 MSTORE PUSH1 0x4 ADD PUSH2 0x10E6 SWAP2 SWAP1 PUSH2 0x1375 JUMP JUMPDEST PUSH1 0x40 MLOAD DUP1 SWAP2 SUB SWAP1 REVERT JUMPDEST JUMP JUMPDEST PUSH1 0x2 PUSH1 0x1 SLOAD SUB PUSH2 0x112D JUMPI PUSH1 0x40 MLOAD PUSH32 0x3EE5AEB500000000000000000000000000000000000000000000000000000000 DUP2 MSTORE PUSH1 0x4 ADD PUSH1 0x40 MLOAD DUP1 SWAP2 SUB SWAP1 REVERT JUMPDEST PUSH1 0x2 PUSH1 0x1 DUP2 SWAP1 SSTORE POP JUMP JUMPDEST PUSH1 0x1 DUP1 DUP2 SWAP1 SSTORE POP JUMP JUMPDEST PUSH0 PUSH0 PUSH0 SWAP1 SLOAD SWAP1 PUSH2 0x100 EXP SWAP1 DIV PUSH20 0xFFFFFFFFFFFFFFFFFFFFFFFFFFFFFFFFFFFFFFFF AND SWAP1 POP DUP2 PUSH0 PUSH0 PUSH2 0x100 EXP DUP2 SLOAD DUP2 PUSH20 0xFFFFFFFFFFFFFFFFFFFFFFFFFFFFFFFFFFFFFFFF MUL NOT AND SWAP1 DUP4 PUSH20 0xFFFFFFFFFFFFFFFFFFFFFFFFFFFFFFFFFFFFFFFF AND MUL OR SWAP1 SSTORE POP DUP2 PUSH20 0xFFFFFFFFFFFFFFFFFFFFFFFFFFFFFFFFFFFFFFFF AND DUP2 PUSH20 0xFFFFFFFFFFFFFFFFFFFFFFFFFFFFFFFFFFFFFFFF AND PUSH32 0x8BE0079C531659141344CD1FD0A4F28419497F9722A3DAAFE3B4186F6B6457E0 PUSH1 0x40 MLOAD PUSH1 0x40 MLOAD DUP1 SWAP2 SUB SWAP1 LOG3 POP POP JUMP JUMPDEST PUSH0 CALLER SWAP1 POP SWAP1 JUMP JUMPDEST PUSH0 PUSH0 REVERT JUMPDEST PUSH0 PUSH20 0xFFFFFFFFFFFFFFFFFFFFFFFFFFFFFFFFFFFFFFFF DUP3 AND SWAP1 POP SWAP2 SWAP1 POP JUMP JUMPDEST PUSH0 PUSH2 0x1235 DUP3 PUSH2 0x120C JUMP JUMPDEST SWAP1 POP SWAP2 SWAP1 POP JUMP JUMPDEST PUSH2 0x1245 DUP2 PUSH2 0x122B JUMP JUMPDEST DUP2 EQ PUSH2 0x124F JUMPI PUSH0 PUSH0 REVERT JUMPDEST POP JUMP JUMPDEST PUSH0 DUP2 CALLDATALOAD SWAP1 POP PUSH2 0x1260 DUP2 PUSH2 0x123C JUMP JUMPDEST SWAP3 SWAP2 POP POP JUMP JUMPDEST PUSH0 PUSH1 0x20 DUP3 DUP5 SUB SLT ISZERO PUSH2 0x127B JUMPI PUSH2 0x127A PUSH2 0x1208 JUMP JUMPDEST JUMPDEST PUSH0 PUSH2 0x1288 DUP5 DUP3 DUP6 ADD PUSH2 0x1252 JUMP JUMPDEST SWAP2 POP POP SWAP3 SWAP2 POP POP JUMP JUMPDEST PUSH0 DUP2 SWAP1 POP SWAP2 SWAP1 POP JUMP JUMPDEST PUSH2 0x12A3 DUP2 PUSH2 0x1291 JUMP JUMPDEST DUP2 EQ PUSH2 0x12AD JUMPI PUSH0 PUSH0 REVERT JUMPDEST POP JUMP JUMPDEST PUSH0 DUP2 CALLDATALOAD SWAP1 POP PUSH2 0x12BE DUP2 PUSH2 0x129A JUMP JUMPDEST SWAP3 SWAP2 POP POP JUMP JUMPDEST PUSH0 PUSH1 0x20 DUP3 DUP5 SUB SLT ISZERO PUSH2 0x12D9 JUMPI PUSH2 0x12D8 PUSH2 0x1208 JUMP JUMPDEST JUMPDEST PUSH0 PUSH2 0x12E6 DUP5 DUP3 DUP6 ADD PUSH2 0x12B0 JUMP JUMPDEST SWAP2 POP POP SWAP3 SWAP2 POP POP JUMP JUMPDEST PUSH2 0x12F8 DUP2 PUSH2 0x1291 JUMP JUMPDEST DUP3 MSTORE POP POP JUMP JUMPDEST PUSH0 PUSH1 0x20 DUP3 ADD SWAP1 POP PUSH2 0x1311 PUSH0 DUP4 ADD DUP5 PUSH2 0x12EF JUMP JUMPDEST SWAP3 SWAP2 POP POP JUMP JUMPDEST PUSH0 DUP2 ISZERO ISZERO SWAP1 POP SWAP2 SWAP1 POP JUMP JUMPDEST PUSH2 0x132B DUP2 PUSH2 0x1317 JUMP JUMPDEST DUP3 MSTORE POP POP JUMP JUMPDEST PUSH0 PUSH1 0x60 DUP3 ADD SWAP1 POP PUSH2 0x1344 PUSH0 DUP4 ADD DUP7 PUSH2 0x12EF JUMP JUMPDEST PUSH2 0x1351 PUSH1 0x20 DUP4 ADD DUP6 PUSH2 0x12EF JUMP JUMPDEST PUSH2 0x135E PUSH1 0x40 DUP4 ADD DUP5 PUSH2 0x1322 JUMP JUMPDEST SWAP5 SWAP4 POP POP POP POP JUMP JUMPDEST PUSH2 0x136F DUP2 PUSH2 0x122B JUMP JUMPDEST DUP3 MSTORE POP POP JUMP JUMPDEST PUSH0 PUSH1 0x20 DUP3 ADD SWAP1 POP PUSH2 0x1388 PUSH0 DUP4 ADD DUP5 PUSH2 0x1366 JUMP JUMPDEST SWAP3 SWAP2 POP POP JUMP JUMPDEST PUSH0 DUP2 SWAP1 POP SWAP2 SWAP1 POP JUMP JUMPDEST PUSH0 PUSH2 0x13B1 PUSH2 0x13AC PUSH2 0x13A7 DUP5 PUSH2 0x120C JUMP JUMPDEST PUSH2 0x138E JUMP JUMPDEST PUSH2 0x120C JUMP JUMPDEST SWAP1 POP SWAP2 SWAP1 POP JUMP JUMPDEST PUSH0 PUSH2 0x13C2 DUP3 PUSH2 0x1397 JUMP JUMPDEST SWAP1 POP SWAP2 SWAP1 POP JUMP JUMPDEST PUSH0 PUSH2 0x13D3 DUP3 PUSH2 0x13B8 JUMP JUMPDEST SWAP1 POP SWAP2 SWAP1 POP JUMP JUMPDEST PUSH2 0x13E3 DUP2 PUSH2 0x13C9 JUMP JUMPDEST DUP3 MSTORE POP POP JUMP JUMPDEST PUSH0 PUSH1 0x20 DUP3 ADD SWAP1 POP PUSH2 0x13FC PUSH0 DUP4 ADD DUP5 PUSH2 0x13DA JUMP JUMPDEST SWAP3 SWAP2 POP POP JUMP JUMPDEST PUSH0 DUP3 DUP3 MSTORE PUSH1 0x20 DUP3 ADD SWAP1 POP SWAP3 SWAP2 POP POP JUMP JUMPDEST PUSH32 0x546F6B656E20616464726573732063616E6E6F74206265207A65726F00000000 PUSH0 DUP3 ADD MSTORE POP JUMP JUMPDEST PUSH0 PUSH2 0x1446 PUSH1 0x1C DUP4 PUSH2 0x1402 JUMP JUMPDEST SWAP2 POP PUSH2 0x1451 DUP3 PUSH2 0x1412 JUMP JUMPDEST PUSH1 0x20 DUP3 ADD SWAP1 POP SWAP2 SWAP1 POP JUMP JUMPDEST PUSH0 PUSH1 0x20 DUP3 ADD SWAP1 POP DUP2 DUP2 SUB PUSH0 DUP4 ADD MSTORE PUSH2 0x1473 DUP2 PUSH2 0x143A JUMP JUMPDEST SWAP1 POP SWAP2 SWAP1 POP JUMP JUMPDEST PUSH32 0x4163636F756E7420646F6573206E6F7420657869737400000000000000000000 PUSH0 DUP3 ADD MSTORE POP JUMP JUMPDEST PUSH0 PUSH2 0x14AE PUSH1 0x16 DUP4 PUSH2 0x1402 JUMP JUMPDEST SWAP2 POP PUSH2 0x14B9 DUP3 PUSH2 0x147A JUMP JUMPDEST PUSH1 0x20 DUP3 ADD SWAP1 POP SWAP2 SWAP1 POP JUMP JUMPDEST PUSH0 PUSH1 0x20 DUP3 ADD SWAP1 POP DUP2 DUP2 SUB PUSH0 DUP4 ADD MSTORE PUSH2 0x14DB DUP2 PUSH2 0x14A2 JUMP JUMPDEST SWAP1 POP SWAP2 SWAP1 POP JUMP JUMPDEST PUSH32 0x496E73756666696369656E742062616C616E6365000000000000000000000000 PUSH0 DUP3 ADD MSTORE POP JUMP JUMPDEST PUSH0 PUSH2 0x1516 PUSH1 0x14 DUP4 PUSH2 0x1402 JUMP JUMPDEST SWAP2 POP PUSH2 0x1521 DUP3 PUSH2 0x14E2 JUMP JUMPDEST PUSH1 0x20 DUP3 ADD SWAP1 POP SWAP2 SWAP1 POP JUMP JUMPDEST PUSH0 PUSH1 0x20 DUP3 ADD SWAP1 POP DUP2 DUP2 SUB PUSH0 DUP4 ADD MSTORE PUSH2 0x1543 DUP2 PUSH2 0x150A JUMP JUMPDEST SWAP1 POP SWAP2 SWAP1 POP JUMP JUMPDEST PUSH32 0x4E487B7100000000000000000000000000000000000000000000000000000000 PUSH0 MSTORE PUSH1 0x11 PUSH1 0x4 MSTORE PUSH1 0x24 PUSH0 REVERT JUMPDEST PUSH0 PUSH2 0x1581 DUP3 PUSH2 0x1291 JUMP JUMPDEST SWAP2 POP PUSH2 0x158C DUP4 PUSH2 0x1291 JUMP JUMPDEST SWAP3 POP DUP3 DUP3 ADD SWAP1 POP DUP1 DUP3 GT ISZERO PUSH2 0x15A4 JUMPI PUSH2 0x15A3 PUSH2 0x154A JUMP JUMPDEST JUMPDEST SWAP3 SWAP2 POP POP JUMP JUMPDEST PUSH32 0x46756E647320617265206C6F636B656400000000000000000000000000000000 PUSH0 DUP3 ADD MSTORE POP JUMP JUMPDEST PUSH0 PUSH2 0x15DE PUSH1 0x10 DUP4 PUSH2 0x1402 JUMP JUMPDEST SWAP2 POP PUSH2 0x15E9 DUP3 PUSH2 0x15AA JUMP JUMPDEST PUSH1 0x20 DUP3 ADD SWAP1 POP SWAP2 SWAP1 POP JUMP JUMPDEST PUSH0 PUSH1 0x20 DUP3 ADD SWAP1 POP DUP2 DUP2 SUB PUSH0 DUP4 ADD MSTORE PUSH2 0x160B DUP2 PUSH2 0x15D2 JUMP JUMPDEST SWAP1 POP SWAP2 SWAP1 POP JUMP JUMPDEST PUSH0 PUSH2 0x161C DUP3 PUSH2 0x1291 JUMP JUMPDEST SWAP2 POP PUSH2 0x1627 DUP4 PUSH2 0x1291 JUMP JUMPDEST SWAP3 POP DUP3 DUP3 MUL PUSH2 0x1635 DUP2 PUSH2 0x1291 JUMP JUMPDEST SWAP2 POP DUP3 DUP3 DIV DUP5 EQ DUP4 ISZERO OR PUSH2 0x164C JUMPI PUSH2 0x164B PUSH2 0x154A JUMP JUMPDEST JUMPDEST POP SWAP3 SWAP2 POP POP JUMP JUMPDEST PUSH32 0x4E487B7100000000000000000000000000000000000000000000000000000000 PUSH0 MSTORE PUSH1 0x12 PUSH1 0x4 MSTORE PUSH1 0x24 PUSH0 REVERT JUMPDEST PUSH0 PUSH2 0x168A DUP3 PUSH2 0x1291 JUMP JUMPDEST SWAP2 POP PUSH2 0x1695 DUP4 PUSH2 0x1291 JUMP JUMPDEST SWAP3 POP DUP3 PUSH2 0x16A5 JUMPI PUSH2 0x16A4 PUSH2 0x1653 JUMP JUMPDEST JUMPDEST DUP3 DUP3 DIV SWAP1 POP SWAP3 SWAP2 POP POP JUMP JUMPDEST PUSH0 PUSH2 0x16BA DUP3 PUSH2 0x1291 JUMP JUMPDEST SWAP2 POP PUSH2 0x16C5 DUP4 PUSH2 0x1291 JUMP JUMPDEST SWAP3 POP DUP3 DUP3 SUB SWAP1 POP DUP2 DUP2 GT ISZERO PUSH2 0x16DD JUMPI PUSH2 0x16DC PUSH2 0x154A JUMP JUMPDEST JUMPDEST SWAP3 SWAP2 POP POP JUMP JUMPDEST PUSH0 PUSH1 0x40 DUP3 ADD SWAP1 POP PUSH2 0x16F6 PUSH0 DUP4 ADD DUP6 PUSH2 0x1366 JUMP JUMPDEST PUSH2 0x1703 PUSH1 0x20 DUP4 ADD DUP5 PUSH2 0x12EF JUMP JUMPDEST SWAP4 SWAP3 POP POP POP JUMP JUMPDEST PUSH2 0x1713 DUP2 PUSH2 0x1317 JUMP JUMPDEST DUP2 EQ PUSH2 0x171D JUMPI PUSH0 PUSH0 REVERT JUMPDEST POP JUMP JUMPDEST PUSH0 DUP2 MLOAD SWAP1 POP PUSH2 0x172E DUP2 PUSH2 0x170A JUMP JUMPDEST SWAP3 SWAP2 POP POP JUMP JUMPDEST PUSH0 PUSH1 0x20 DUP3 DUP5 SUB SLT ISZERO PUSH2 0x1749 JUMPI PUSH2 0x1748 PUSH2 0x1208 JUMP JUMPDEST JUMPDEST PUSH0 PUSH2 0x1756 DUP5 DUP3 DUP6 ADD PUSH2 0x1720 JUMP JUMPDEST SWAP2 POP POP SWAP3 SWAP2 POP POP JUMP JUMPDEST PUSH32 0x546F6B656E207472616E73666572206661696C65640000000000000000000000 PUSH0 DUP3 ADD MSTORE POP JUMP JUMPDEST PUSH0 PUSH2 0x1793 PUSH1 0x15 DUP4 PUSH2 0x1402 JUMP JUMPDEST SWAP2 POP PUSH2 0x179E DUP3 PUSH2 0x175F JUMP JUMPDEST PUSH1 0x20 DUP3 ADD SWAP1 POP SWAP2 SWAP1 POP JUMP JUMPDEST PUSH0 PUSH1 0x20 DUP3 ADD SWAP1 POP DUP2 DUP2 SUB PUSH0 DUP4 ADD MSTORE PUSH2 0x17C0 DUP2 PUSH2 0x1787 JUMP JUMPDEST SWAP1 POP SWAP2 SWAP1 POP JUMP JUMPDEST PUSH0 PUSH1 0x40 DUP3 ADD SWAP1 POP PUSH2 0x17DA PUSH0 DUP4 ADD DUP6 PUSH2 0x12EF JUMP JUMPDEST PUSH2 0x17E7 PUSH1 0x20 DUP4 ADD DUP5 PUSH2 0x12EF JUMP JUMPDEST SWAP4 SWAP3 POP POP POP JUMP JUMPDEST PUSH0 DUP2 MLOAD SWAP1 POP PUSH2 0x17FC DUP2 PUSH2 0x129A JUMP JUMPDEST SWAP3 SWAP2 POP POP JUMP JUMPDEST PUSH0 PUSH1 0x20 DUP3 DUP5 SUB SLT ISZERO PUSH2 0x1817 JUMPI PUSH2 0x1816 PUSH2 0x1208 JUMP JUMPDEST JUMPDEST PUSH0 PUSH2 0x1824 DUP5 DUP3 DUP6 ADD PUSH2 0x17EE JUMP JUMPDEST SWAP2 POP POP SWAP3 SWAP2 POP POP JUMP JUMPDEST PUSH32 0x4E487B7100000000000000000000000000000000000000000000000000000000 PUSH0 MSTORE PUSH1 0x41 PUSH1 0x4 MSTORE PUSH1 0x24 PUSH0 REVERT JUMPDEST PUSH32 0x4E487B7100000000000000000000000000000000000000000000000000000000 PUSH0 MSTORE PUSH1 0x32 PUSH1 0x4 MSTORE PUSH1 0x24 PUSH0 REVERT JUMPDEST PUSH32 0x4E6F206665657320746F20776974686472617700000000000000000000000000 PUSH0 DUP3 ADD MSTORE POP JUMP JUMPDEST PUSH0 PUSH2 0x18BB PUSH1 0x13 DUP4 PUSH2 0x1402 JUMP JUMPDEST SWAP2 POP PUSH2 0x18C6 DUP3 PUSH2 0x1887 JUMP JUMPDEST PUSH1 0x20 DUP3 ADD SWAP1 POP SWAP2 SWAP1 POP JUMP JUMPDEST PUSH0 PUSH1 0x20 DUP3 ADD SWAP1 POP DUP2 DUP2 SUB PUSH0 DUP4 ADD MSTORE PUSH2 0x18E8 DUP2 PUSH2 0x18AF JUMP JUMPDEST SWAP1 POP SWAP2 SWAP1 POP JUMP JUMPDEST PUSH32 0x4163636F756E7420616C72656164792065786973747300000000000000000000 PUSH0 DUP3 ADD MSTORE POP JUMP JUMPDEST PUSH0 PUSH2 0x1923 PUSH1 0x16 DUP4 PUSH2 0x1402 JUMP JUMPDEST SWAP2 POP PUSH2 0x192E DUP3 PUSH2 0x18EF JUMP JUMPDEST PUSH1 0x20 DUP3 ADD SWAP1 POP SWAP2 SWAP1 POP JUMP JUMPDEST PUSH0 PUSH1 0x20 DUP3 ADD SWAP1 POP DUP2 DUP2 SUB PUSH0 DUP4 ADD MSTORE PUSH2 0x1950 DUP2 PUSH2 0x1917 JUMP JUMPDEST SWAP1 POP SWAP2 SWAP1 POP JUMP JUMPDEST PUSH32 0x4665652063616E6E6F7420657863656564203130250000000000000000000000 PUSH0 DUP3 ADD MSTORE POP JUMP JUMPDEST PUSH0 PUSH2 0x198B PUSH1 0x15 DUP4 PUSH2 0x1402 JUMP JUMPDEST SWAP2 POP PUSH2 0x1996 DUP3 PUSH2 0x1957 JUMP JUMPDEST PUSH1 0x20 DUP3 ADD SWAP1 POP SWAP2 SWAP1 POP JUMP JUMPDEST PUSH0 PUSH1 0x20 DUP3 ADD SWAP1 POP DUP2 DUP2 SUB PUSH0 DUP4 ADD MSTORE PUSH2 0x19B8 DUP2 PUSH2 0x197F JUMP JUMPDEST SWAP1 POP SWAP2 SWAP1 POP JUMP JUMPDEST PUSH32 0x416D6F756E742062656C6F77206D696E696D756D206465706F73697400000000 PUSH0 DUP3 ADD MSTORE POP JUMP JUMPDEST PUSH0 PUSH2 0x19F3 PUSH1 0x1C DUP4 PUSH2 0x1402 JUMP JUMPDEST SWAP2 POP PUSH2 0x19FE DUP3 PUSH2 0x19BF JUMP JUMPDEST PUSH1 0x20 DUP3 ADD SWAP1 POP SWAP2 SWAP1 POP JUMP JUMPDEST PUSH0 PUSH1 0x20 DUP3 ADD SWAP1 POP DUP2 DUP2 SUB PUSH0 DUP4 ADD MSTORE PUSH2 0x1A20 DUP2 PUSH2 0x19E7 JUMP JUMPDEST SWAP1 POP SWAP2 SWAP1 POP JUMP JUMPDEST PUSH0 PUSH1 0x60 DUP3 ADD SWAP1 POP PUSH2 0x1A3A PUSH0 DUP4 ADD DUP7 PUSH2 0x1366 JUMP JUMPDEST PUSH2 0x1A47 PUSH1 0x20 DUP4 ADD DUP6 PUSH2 0x1366 JUMP JUMPDEST PUSH2 0x1A54 PUSH1 0x40 DUP4 ADD DUP5 PUSH2 0x12EF JUMP JUMPDEST SWAP5 SWAP4 POP POP POP POP JUMP INVALID LOG2 PUSH5 0x6970667358 0x22 SLT KECCAK256 PUSH28 0xCD4881691A3522EF59CEB9DC3ECECDCF59C29CE32719F4659B6698E9 0xAF ADD 0xB4 PUSH5 0x736F6C6343 STOP ADDMOD 0x1E STOP CALLER "
				},
				"gasEstimates": {
					"creation": {
						"codeDepositCost": "1360400",
						"executionCost": "infinite",
						"totalCost": "infinite"
					},
					"external": {
						"accounts(address)": "infinite",
						"createAccount()": "38139",
						"deposit(uint256)": "infinite",
						"getAccountBalance(address)": "5147",
						"lockPeriod()": "2493",
						"minimumDeposit()": "2470",
						"owner()": "2559",
						"renounceOwnership()": "infinite",
						"setLockPeriod(uint256)": "infinite",
						"setMinimumDeposit(uint256)": "infinite",
						"setTokenAddress(address)": "infinite",
						"setWithdrawalFee(uint256)": "infinite",
						"token()": "infinite",
						"transferOwnership(address)": "infinite",
						"withdraw(uint256)": "infinite",
						"withdrawFees()": "infinite",
						"withdrawalFee()": "2448"
					}
				},
				"methodIdentifiers": {
					"accounts(address)": "5e5c06e2",
					"createAccount()": "9dca362f",
					"deposit(uint256)": "b6b55f25",
					"getAccountBalance(address)": "93423e9c",
					"lockPeriod()": "3fd8b02f",
					"minimumDeposit()": "636bfbab",
					"owner()": "8da5cb5b",
					"renounceOwnership()": "715018a6",
					"setLockPeriod(uint256)": "779972da",
					"setMinimumDeposit(uint256)": "e78ec42e",
					"setTokenAddress(address)": "26a4e8d2",
					"setWithdrawalFee(uint256)": "ac1e5025",
					"token()": "fc0c546a",
					"transferOwnership(address)": "f2fde38b",
					"withdraw(uint256)": "2e1a7d4d",
					"withdrawFees()": "476343ee",
					"withdrawalFee()": "8bc7e8c4"
				}
			},
			"storageLayout": {
				"storage": [
					{
						"astId": 8,
						"contract": "contracts/KipuBank.sol:KipuBank",
						"label": "_owner",
						"offset": 0,
						"slot": "0",
						"type": "t_address"
					},
					{
						"astId": 266,
						"contract": "contracts/KipuBank.sol:KipuBank",
						"label": "_status",
						"offset": 0,
						"slot": "1",
						"type": "t_uint256"
					},
					{
						"astId": 336,
						"contract": "contracts/KipuBank.sol:KipuBank",
						"label": "token",
						"offset": 0,
						"slot": "2",
						"type": "t_contract(IERC20)225"
					},
					{
						"astId": 348,
						"contract": "contracts/KipuBank.sol:KipuBank",
						"label": "accounts",
						"offset": 0,
						"slot": "3",
						"type": "t_mapping(t_address,t_struct(Account)343_storage)"
					},
					{
						"astId": 355,
						"contract": "contracts/KipuBank.sol:KipuBank",
						"label": "minimumDeposit",
						"offset": 0,
						"slot": "4",
						"type": "t_uint256"
					},
					{
						"astId": 358,
						"contract": "contracts/KipuBank.sol:KipuBank",
						"label": "withdrawalFee",
						"offset": 0,
						"slot": "5",
						"type": "t_uint256"
					},
					{
						"astId": 361,
						"contract": "contracts/KipuBank.sol:KipuBank",
						"label": "lockPeriod",
						"offset": 0,
						"slot": "6",
						"type": "t_uint256"
					}
				],
				"types": {
					"t_address": {
						"encoding": "inplace",
						"label": "address",
						"numberOfBytes": "20"
					},
					"t_bool": {
						"encoding": "inplace",
						"label": "bool",
						"numberOfBytes": "1"
					},
					"t_contract(IERC20)225": {
						"encoding": "inplace",
						"label": "contract IERC20",
						"numberOfBytes": "20"
					},
					"t_mapping(t_address,t_struct(Account)343_storage)": {
						"encoding": "mapping",
						"key": "t_address",
						"label": "mapping(address => struct KipuBank.Account)",
						"numberOfBytes": "32",
						"value": "t_struct(Account)343_storage"
					},
					"t_struct(Account)343_storage": {
						"encoding": "inplace",
						"label": "struct KipuBank.Account",
						"members": [
							{
								"astId": 338,
								"contract": "contracts/KipuBank.sol:KipuBank",
								"label": "balance",
								"offset": 0,
								"slot": "0",
								"type": "t_uint256"
							},
							{
								"astId": 340,
								"contract": "contracts/KipuBank.sol:KipuBank",
								"label": "lastDepositTimestamp",
								"offset": 0,
								"slot": "1",
								"type": "t_uint256"
							},
							{
								"astId": 342,
								"contract": "contracts/KipuBank.sol:KipuBank",
								"label": "exists",
								"offset": 0,
								"slot": "2",
								"type": "t_bool"
							}
						],
						"numberOfBytes": "96"
					},
					"t_uint256": {
						"encoding": "inplace",
						"label": "uint256",
						"numberOfBytes": "32"
					}
				}
			},
			"userdoc": {
				"kind": "user",
				"methods": {},
				"version": 1
			}
		}
	}
}