{
	"contracts/KipuBank.sol": {
		"KipuBank": {
			"abi": [
				{
					"inputs": [
						{
							"internalType": "address",
							"name": "_tokenAddress",
							"type": "address"
						},
						{
							"internalType": "uint256",
							"name": "_bankCap",
							"type": "uint256"
						}
					],
					"stateMutability": "nonpayable",
					"type": "constructor"
				},
				{
					"inputs": [
						{
							"internalType": "uint256",
							"name": "bankCap",
							"type": "uint256"
						}
					],
					"name": "BankCapInitError",
					"type": "error"
				},
				{
					"inputs": [
						{
							"internalType": "address",
							"name": "user",
							"type": "address"
						},
						{
							"internalType": "uint256",
							"name": "balance",
							"type": "uint256"
						}
					],
					"name": "NoBalanceError",
					"type": "error"
				},
				{
					"inputs": [
						{
							"internalType": "address",
							"name": "owner",
							"type": "address"
						}
					],
					"name": "OwnableInvalidOwner",
					"type": "error"
				},
				{
					"inputs": [
						{
							"internalType": "address",
							"name": "account",
							"type": "address"
						}
					],
					"name": "OwnableUnauthorizedAccount",
					"type": "error"
				},
				{
					"inputs": [],
					"name": "ReentrancyGuardReentrantCall",
					"type": "error"
				},
				{
					"inputs": [
						{
							"internalType": "address",
							"name": "tokenAddress",
							"type": "address"
						}
					],
					"name": "TokenInitError",
					"type": "error"
				},
				{
					"anonymous": false,
					"inputs": [
						{
							"indexed": true,
							"internalType": "address",
							"name": "owner",
							"type": "address"
						}
					],
					"name": "AccountCreated",
					"type": "event"
				},
				{
					"anonymous": false,
					"inputs": [
						{
							"indexed": false,
							"internalType": "uint256",
							"name": "cap",
							"type": "uint256"
						}
					],
					"name": "BankCapSet",
					"type": "event"
				},
				{
					"anonymous": false,
					"inputs": [
						{
							"indexed": true,
							"internalType": "address",
							"name": "owner",
							"type": "address"
						},
						{
							"indexed": false,
							"internalType": "uint256",
							"name": "amount",
							"type": "uint256"
						},
						{
							"indexed": false,
							"internalType": "uint256",
							"name": "userDepositCount",
							"type": "uint256"
						},
						{
							"indexed": false,
							"internalType": "uint256",
							"name": "totalDepositsCount",
							"type": "uint256"
						}
					],
					"name": "Deposited",
					"type": "event"
				},
				{
					"anonymous": false,
					"inputs": [
						{
							"indexed": false,
							"internalType": "uint256",
							"name": "newLockPeriod",
							"type": "uint256"
						}
					],
					"name": "LockPeriodUpdated",
					"type": "event"
				},
				{
					"anonymous": false,
					"inputs": [
						{
							"indexed": false,
							"internalType": "uint256",
							"name": "newMinimumDeposit",
							"type": "uint256"
						}
					],
					"name": "MinimumDepositUpdated",
					"type": "event"
				},
				{
					"anonymous": false,
					"inputs": [
						{
							"indexed": true,
							"internalType": "address",
							"name": "previousOwner",
							"type": "address"
						},
						{
							"indexed": true,
							"internalType": "address",
							"name": "newOwner",
							"type": "address"
						}
					],
					"name": "OwnershipTransferred",
					"type": "event"
				},
				{
					"anonymous": false,
					"inputs": [
						{
							"indexed": false,
							"internalType": "address",
							"name": "newTokenAddress",
							"type": "address"
						}
					],
					"name": "TokenAddressUpdated",
					"type": "event"
				},
				{
					"anonymous": false,
					"inputs": [
						{
							"indexed": false,
							"internalType": "uint256",
							"name": "newWithdrawalFee",
							"type": "uint256"
						}
					],
					"name": "WithdrawalFeeUpdated",
					"type": "event"
				},
				{
					"anonymous": false,
					"inputs": [
						{
							"indexed": true,
							"internalType": "address",
							"name": "owner",
							"type": "address"
						},
						{
							"indexed": false,
							"internalType": "uint256",
							"name": "amount",
							"type": "uint256"
						},
						{
							"indexed": false,
							"internalType": "uint256",
							"name": "fee",
							"type": "uint256"
						},
						{
							"indexed": false,
							"internalType": "uint256",
							"name": "userWithdrawalCount",
							"type": "uint256"
						},
						{
							"indexed": false,
							"internalType": "uint256",
							"name": "totalWithdrawalsCount",
							"type": "uint256"
						}
					],
					"name": "Withdrawn",
					"type": "event"
				},
				{
					"inputs": [
						{
							"internalType": "address",
							"name": "",
							"type": "address"
						}
					],
					"name": "accounts",
					"outputs": [
						{
							"internalType": "uint256",
							"name": "balance",
							"type": "uint256"
						},
						{
							"internalType": "uint256",
							"name": "lastDepositTimestamp",
							"type": "uint256"
						},
						{
							"internalType": "bool",
							"name": "exists",
							"type": "bool"
						},
						{
							"internalType": "uint256",
							"name": "depositCount",
							"type": "uint256"
						},
						{
							"internalType": "uint256",
							"name": "withdrawalCount",
							"type": "uint256"
						}
					],
					"stateMutability": "view",
					"type": "function"
				},
				{
					"inputs": [],
					"name": "bankCap",
					"outputs": [
						{
							"internalType": "uint256",
							"name": "",
							"type": "uint256"
						}
					],
					"stateMutability": "view",
					"type": "function"
				},
				{
					"inputs": [],
					"name": "createAccount",
					"outputs": [],
					"stateMutability": "nonpayable",
					"type": "function"
				},
				{
					"inputs": [
						{
							"internalType": "uint256",
							"name": "amount",
							"type": "uint256"
						}
					],
					"name": "deposit",
					"outputs": [],
					"stateMutability": "payable",
					"type": "function"
				},
				{
					"inputs": [
						{
							"internalType": "address",
							"name": "accountOwner",
							"type": "address"
						}
					],
					"name": "getAccountBalance",
					"outputs": [
						{
							"internalType": "uint256",
							"name": "",
							"type": "uint256"
						}
					],
					"stateMutability": "view",
					"type": "function"
				},
				{
					"inputs": [],
					"name": "getTotalDepositsCount",
					"outputs": [
						{
							"internalType": "uint256",
							"name": "",
							"type": "uint256"
						}
					],
					"stateMutability": "view",
					"type": "function"
				},
				{
					"inputs": [],
					"name": "getTotalWithdrawalsCount",
					"outputs": [
						{
							"internalType": "uint256",
							"name": "",
							"type": "uint256"
						}
					],
					"stateMutability": "view",
					"type": "function"
				},
				{
					"inputs": [
						{
							"internalType": "address",
							"name": "user",
							"type": "address"
						}
					],
					"name": "getUserDepositCount",
					"outputs": [
						{
							"internalType": "uint256",
							"name": "",
							"type": "uint256"
						}
					],
					"stateMutability": "view",
					"type": "function"
				},
				{
					"inputs": [
						{
							"internalType": "address",
							"name": "user",
							"type": "address"
						}
					],
					"name": "getUserWithdrawalCount",
					"outputs": [
						{
							"internalType": "uint256",
							"name": "",
							"type": "uint256"
						}
					],
					"stateMutability": "view",
					"type": "function"
				},
				{
					"inputs": [],
					"name": "lockPeriod",
					"outputs": [
						{
							"internalType": "uint256",
							"name": "",
							"type": "uint256"
						}
					],
					"stateMutability": "view",
					"type": "function"
				},
				{
					"inputs": [],
					"name": "minimumDeposit",
					"outputs": [
						{
							"internalType": "uint256",
							"name": "",
							"type": "uint256"
						}
					],
					"stateMutability": "view",
					"type": "function"
				},
				{
					"inputs": [],
					"name": "owner",
					"outputs": [
						{
							"internalType": "address",
							"name": "",
							"type": "address"
						}
					],
					"stateMutability": "view",
					"type": "function"
				},
				{
					"inputs": [],
					"name": "renounceOwnership",
					"outputs": [],
					"stateMutability": "nonpayable",
					"type": "function"
				},
				{
					"inputs": [
						{
							"internalType": "uint256",
							"name": "_lockPeriod",
							"type": "uint256"
						}
					],
					"name": "setLockPeriod",
					"outputs": [],
					"stateMutability": "nonpayable",
					"type": "function"
				},
				{
					"inputs": [
						{
							"internalType": "uint256",
							"name": "_minimumDeposit",
							"type": "uint256"
						}
					],
					"name": "setMinimumDeposit",
					"outputs": [],
					"stateMutability": "nonpayable",
					"type": "function"
				},
				{
					"inputs": [
						{
							"internalType": "address",
							"name": "_tokenAddress",
							"type": "address"
						}
					],
					"name": "setTokenAddress",
					"outputs": [],
					"stateMutability": "nonpayable",
					"type": "function"
				},
				{
					"inputs": [
						{
							"internalType": "uint256",
							"name": "_withdrawalFee",
							"type": "uint256"
						}
					],
					"name": "setWithdrawalFee",
					"outputs": [],
					"stateMutability": "nonpayable",
					"type": "function"
				},
				{
					"inputs": [],
					"name": "token",
					"outputs": [
						{
							"internalType": "contract IERC20",
							"name": "",
							"type": "address"
						}
					],
					"stateMutability": "view",
					"type": "function"
				},
				{
					"inputs": [],
					"name": "totalDeposits",
					"outputs": [
						{
							"internalType": "uint256",
							"name": "",
							"type": "uint256"
						}
					],
					"stateMutability": "view",
					"type": "function"
				},
				{
					"inputs": [],
					"name": "totalDepositsCount",
					"outputs": [
						{
							"internalType": "uint256",
							"name": "",
							"type": "uint256"
						}
					],
					"stateMutability": "view",
					"type": "function"
				},
				{
					"inputs": [],
					"name": "totalWithdrawalsCount",
					"outputs": [
						{
							"internalType": "uint256",
							"name": "",
							"type": "uint256"
						}
					],
					"stateMutability": "view",
					"type": "function"
				},
				{
					"inputs": [
						{
							"internalType": "address",
							"name": "newOwner",
							"type": "address"
						}
					],
					"name": "transferOwnership",
					"outputs": [],
					"stateMutability": "nonpayable",
					"type": "function"
				},
				{
					"inputs": [
						{
							"internalType": "uint256",
							"name": "amount",
							"type": "uint256"
						}
					],
					"name": "withdraw",
					"outputs": [],
					"stateMutability": "nonpayable",
					"type": "function"
				},
				{
					"inputs": [],
					"name": "withdrawFees",
					"outputs": [],
					"stateMutability": "nonpayable",
					"type": "function"
				},
				{
					"inputs": [],
					"name": "withdrawalFee",
					"outputs": [
						{
							"internalType": "uint256",
							"name": "",
							"type": "uint256"
						}
					],
					"stateMutability": "view",
					"type": "function"
				}
			],
			"devdoc": {
				"errors": {
					"OwnableInvalidOwner(address)": [
						{
							"details": "The owner is not a valid owner account. (eg. `address(0)`)"
						}
					],
					"OwnableUnauthorizedAccount(address)": [
						{
							"details": "The caller account is not authorized to perform an operation."
						}
					],
					"ReentrancyGuardReentrantCall()": [
						{
							"details": "Unauthorized reentrant call."
						}
					]
				},
				"kind": "dev",
				"methods": {
					"owner()": {
						"details": "Returns the address of the current owner."
					},
					"renounceOwnership()": {
						"details": "Leaves the contract without owner. It will not be possible to call `onlyOwner` functions. Can only be called by the current owner. NOTE: Renouncing ownership will leave the contract without an owner, thereby disabling any functionality that is only available to the owner."
					},
					"transferOwnership(address)": {
						"details": "Transfers ownership of the contract to a new account (`newOwner`). Can only be called by the current owner."
					}
				},
				"version": 1
			},
			"evm": {
				"assembly": "    /* \"contracts/KipuBank.sol\":229:7283  contract KipuBank is Ownable, ReentrancyGuard {... */\n  mstore(0x40, 0xc0)\n    /* \"contracts/KipuBank.sol\":1001:1013  100 * 10**18 */\n  0x056bc75e2d63100000\n    /* \"contracts/KipuBank.sol\":969:1013  uint256 public minimumDeposit = 100 * 10**18 */\n  0x07\n  sstore\n    /* \"contracts/KipuBank.sol\":1064:1065  5 */\n  0x05\n    /* \"contracts/KipuBank.sol\":1033:1065  uint256 public withdrawalFee = 5 */\n  0x08\n  sstore\n    /* \"contracts/KipuBank.sol\":1109:1115  1 days */\n  0x015180\n    /* \"contracts/KipuBank.sol\":1081:1115  uint256 public lockPeriod = 1 days */\n  0x09\n  sstore\n    /* \"contracts/KipuBank.sol\":1173:1176  200 */\n  0xc8\n    /* \"contracts/KipuBank.sol\":1121:1176  uint256 immutable private MAX_WITHDRAWL_PER_TRANS = 200 */\n  0xa0\n  swap1\n  dup2\n  mstore\n  pop\n    /* \"contracts/KipuBank.sol\":2025:2347  constructor(address _tokenAddress, uint256 _bankCap) Ownable(msg.sender) {... */\n  callvalue\n  dup1\n  iszero\n  tag_1\n  jumpi\n  revert(0x00, 0x00)\ntag_1:\n  pop\n  mload(0x40)\n  sub(codesize, bytecodeSize)\n  dup1\n  bytecodeSize\n  dup4\n  codecopy\n  dup2\n  dup2\n  add\n  0x40\n  mstore\n  dup2\n  add\n  swap1\n  tag_2\n  swap2\n  swap1\n  tag_3\n  jump\t// in\ntag_2:\n    /* \"contracts/KipuBank.sol\":2086:2096  msg.sender */\n  caller\n    /* \"@openzeppelin/contracts/access/Ownable.sol\":1297:1298  0 */\n  0x00\n    /* \"@openzeppelin/contracts/access/Ownable.sol\":1273:1299  initialOwner == address(0) */\n  0xffffffffffffffffffffffffffffffffffffffff\n  and\n    /* \"@openzeppelin/contracts/access/Ownable.sol\":1273:1285  initialOwner */\n  dup2\n    /* \"@openzeppelin/contracts/access/Ownable.sol\":1273:1299  initialOwner == address(0) */\n  0xffffffffffffffffffffffffffffffffffffffff\n  and\n  sub\n    /* \"@openzeppelin/contracts/access/Ownable.sol\":1269:1364  if (initialOwner == address(0)) {... */\n  tag_8\n  jumpi\n    /* \"@openzeppelin/contracts/access/Ownable.sol\":1350:1351  0 */\n  0x00\n    /* \"@openzeppelin/contracts/access/Ownable.sol\":1322:1353  OwnableInvalidOwner(address(0)) */\n  mload(0x40)\n  0x1e4fbdf700000000000000000000000000000000000000000000000000000000\n  dup2\n  mstore\n  0x04\n  add\n  tag_9\n  swap2\n  swap1\n  tag_10\n  jump\t// in\ntag_9:\n  mload(0x40)\n  dup1\n  swap2\n  sub\n  swap1\n  revert\n    /* \"@openzeppelin/contracts/access/Ownable.sol\":1269:1364  if (initialOwner == address(0)) {... */\ntag_8:\n    /* \"@openzeppelin/contracts/access/Ownable.sol\":1373:1405  _transferOwnership(initialOwner) */\n  tag_11\n    /* \"@openzeppelin/contracts/access/Ownable.sol\":1392:1404  initialOwner */\n  dup2\n    /* \"@openzeppelin/contracts/access/Ownable.sol\":1373:1391  _transferOwnership */\n  shl(0x20, tag_12)\n    /* \"@openzeppelin/contracts/access/Ownable.sol\":1373:1405  _transferOwnership(initialOwner) */\n  0x20\n  shr\n  jump\t// in\ntag_11:\n    /* \"@openzeppelin/contracts/access/Ownable.sol\":1225:1412  constructor(address initialOwner) {... */\n  pop\n    /* \"@openzeppelin/contracts/utils/ReentrancyGuard.sol\":1857:1858  1 */\n  0x01\n    /* \"@openzeppelin/contracts/utils/ReentrancyGuard.sol\":2061:2068  _status */\n  dup1\n    /* \"@openzeppelin/contracts/utils/ReentrancyGuard.sol\":2061:2082  _status = NOT_ENTERED */\n  dup2\n  swap1\n  sstore\n  pop\n    /* \"contracts/KipuBank.sol\":2137:2138  0 */\n  0x00\n    /* \"contracts/KipuBank.sol\":2112:2139  _tokenAddress == address(0) */\n  0xffffffffffffffffffffffffffffffffffffffff\n  and\n    /* \"contracts/KipuBank.sol\":2112:2125  _tokenAddress */\n  dup3\n    /* \"contracts/KipuBank.sol\":2112:2139  _tokenAddress == address(0) */\n  0xffffffffffffffffffffffffffffffffffffffff\n  and\n  sub\n    /* \"contracts/KipuBank.sol\":2108:2177  if (_tokenAddress == address(0)) revert TokenInitError(_tokenAddress) */\n  tag_15\n  jumpi\n    /* \"contracts/KipuBank.sol\":2163:2176  _tokenAddress */\n  dup2\n    /* \"contracts/KipuBank.sol\":2148:2177  TokenInitError(_tokenAddress) */\n  mload(0x40)\n  0x9771e7a300000000000000000000000000000000000000000000000000000000\n  dup2\n  mstore\n  0x04\n  add\n  tag_16\n  swap2\n  swap1\n  tag_10\n  jump\t// in\ntag_16:\n  mload(0x40)\n  dup1\n  swap2\n  sub\n  swap1\n  revert\n    /* \"contracts/KipuBank.sol\":2108:2177  if (_tokenAddress == address(0)) revert TokenInitError(_tokenAddress) */\ntag_15:\n    /* \"contracts/KipuBank.sol\":2202:2203  0 */\n  0x00\n    /* \"contracts/KipuBank.sol\":2191:2199  _bankCap */\n  dup2\n    /* \"contracts/KipuBank.sol\":2191:2203  _bankCap < 0 */\n  lt\n    /* \"contracts/KipuBank.sol\":2187:2238  if (_bankCap < 0) revert BankCapInitError(_bankCap) */\n  iszero\n  tag_17\n  jumpi\n    /* \"contracts/KipuBank.sol\":2229:2237  _bankCap */\n  dup1\n    /* \"contracts/KipuBank.sol\":2212:2238  BankCapInitError(_bankCap) */\n  mload(0x40)\n  0x7eeee0e100000000000000000000000000000000000000000000000000000000\n  dup2\n  mstore\n  0x04\n  add\n  tag_18\n  swap2\n  swap1\n  tag_19\n  jump\t// in\ntag_18:\n  mload(0x40)\n  dup1\n  swap2\n  sub\n  swap1\n  revert\n    /* \"contracts/KipuBank.sol\":2187:2238  if (_bankCap < 0) revert BankCapInitError(_bankCap) */\ntag_17:\n    /* \"contracts/KipuBank.sol\":2263:2276  _tokenAddress */\n  dup2\n    /* \"contracts/KipuBank.sol\":2248:2253  token */\n  0x02\n  0x00\n    /* \"contracts/KipuBank.sol\":2248:2277  token = IERC20(_tokenAddress) */\n  0x0100\n  exp\n  dup2\n  sload\n  dup2\n  0xffffffffffffffffffffffffffffffffffffffff\n  mul\n  not\n  and\n  swap1\n  dup4\n  0xffffffffffffffffffffffffffffffffffffffff\n  and\n  mul\n  or\n  swap1\n  sstore\n  pop\n    /* \"contracts/KipuBank.sol\":2297:2305  _bankCap */\n  dup1\n    /* \"contracts/KipuBank.sol\":2287:2305  bankCap = _bankCap */\n  0x80\n  dup2\n  dup2\n  mstore\n  pop\n  pop\n    /* \"contracts/KipuBank.sol\":2320:2340  BankCapSet(_bankCap) */\n  0xd8224a2376272b81083832b8284e6cd2d1c3fd0c1951cbe8a9c1d20c534e8b53\n    /* \"contracts/KipuBank.sol\":2331:2339  _bankCap */\n  dup2\n    /* \"contracts/KipuBank.sol\":2320:2340  BankCapSet(_bankCap) */\n  mload(0x40)\n  tag_20\n  swap2\n  swap1\n  tag_19\n  jump\t// in\ntag_20:\n  mload(0x40)\n  dup1\n  swap2\n  sub\n  swap1\n  log1\n    /* \"contracts/KipuBank.sol\":2025:2347  constructor(address _tokenAddress, uint256 _bankCap) Ownable(msg.sender) {... */\n  pop\n  pop\n    /* \"contracts/KipuBank.sol\":229:7283  contract KipuBank is Ownable, ReentrancyGuard {... */\n  jump(tag_21)\n    /* \"@openzeppelin/contracts/access/Ownable.sol\":2912:3099  function _transferOwnership(address newOwner) internal virtual {... */\ntag_12:\n    /* \"@openzeppelin/contracts/access/Ownable.sol\":2985:3001  address oldOwner */\n  0x00\n    /* \"@openzeppelin/contracts/access/Ownable.sol\":3004:3010  _owner */\n  0x00\n  0x00\n  swap1\n  sload\n  swap1\n  0x0100\n  exp\n  swap1\n  div\n  0xffffffffffffffffffffffffffffffffffffffff\n  and\n    /* \"@openzeppelin/contracts/access/Ownable.sol\":2985:3010  address oldOwner = _owner */\n  swap1\n  pop\n    /* \"@openzeppelin/contracts/access/Ownable.sol\":3029:3037  newOwner */\n  dup2\n    /* \"@openzeppelin/contracts/access/Ownable.sol\":3020:3026  _owner */\n  0x00\n  0x00\n    /* \"@openzeppelin/contracts/access/Ownable.sol\":3020:3037  _owner = newOwner */\n  0x0100\n  exp\n  dup2\n  sload\n  dup2\n  0xffffffffffffffffffffffffffffffffffffffff\n  mul\n  not\n  and\n  swap1\n  dup4\n  0xffffffffffffffffffffffffffffffffffffffff\n  and\n  mul\n  or\n  swap1\n  sstore\n  pop\n    /* \"@openzeppelin/contracts/access/Ownable.sol\":3083:3091  newOwner */\n  dup2\n    /* \"@openzeppelin/contracts/access/Ownable.sol\":3052:3092  OwnershipTransferred(oldOwner, newOwner) */\n  0xffffffffffffffffffffffffffffffffffffffff\n  and\n    /* \"@openzeppelin/contracts/access/Ownable.sol\":3073:3081  oldOwner */\n  dup2\n    /* \"@openzeppelin/contracts/access/Ownable.sol\":3052:3092  OwnershipTransferred(oldOwner, newOwner) */\n  0xffffffffffffffffffffffffffffffffffffffff\n  and\n  0x8be0079c531659141344cd1fd0a4f28419497f9722a3daafe3b4186f6b6457e0\n  mload(0x40)\n  mload(0x40)\n  dup1\n  swap2\n  sub\n  swap1\n  log3\n    /* \"@openzeppelin/contracts/access/Ownable.sol\":2975:3099  {... */\n  pop\n    /* \"@openzeppelin/contracts/access/Ownable.sol\":2912:3099  function _transferOwnership(address newOwner) internal virtual {... */\n  pop\n  jump\t// out\n    /* \"#utility.yul\":88:205   */\ntag_24:\n    /* \"#utility.yul\":197:198   */\n  0x00\n    /* \"#utility.yul\":194:195   */\n  0x00\n    /* \"#utility.yul\":187:199   */\n  revert\n    /* \"#utility.yul\":334:460   */\ntag_26:\n    /* \"#utility.yul\":371:378   */\n  0x00\n    /* \"#utility.yul\":411:453   */\n  0xffffffffffffffffffffffffffffffffffffffff\n    /* \"#utility.yul\":404:409   */\n  dup3\n    /* \"#utility.yul\":400:454   */\n  and\n    /* \"#utility.yul\":389:454   */\n  swap1\n  pop\n    /* \"#utility.yul\":334:460   */\n  swap2\n  swap1\n  pop\n  jump\t// out\n    /* \"#utility.yul\":466:562   */\ntag_27:\n    /* \"#utility.yul\":503:510   */\n  0x00\n    /* \"#utility.yul\":532:556   */\n  tag_41\n    /* \"#utility.yul\":550:555   */\n  dup3\n    /* \"#utility.yul\":532:556   */\n  tag_26\n  jump\t// in\ntag_41:\n    /* \"#utility.yul\":521:556   */\n  swap1\n  pop\n    /* \"#utility.yul\":466:562   */\n  swap2\n  swap1\n  pop\n  jump\t// out\n    /* \"#utility.yul\":568:690   */\ntag_28:\n    /* \"#utility.yul\":641:665   */\n  tag_43\n    /* \"#utility.yul\":659:664   */\n  dup2\n    /* \"#utility.yul\":641:665   */\n  tag_27\n  jump\t// in\ntag_43:\n    /* \"#utility.yul\":634:639   */\n  dup2\n    /* \"#utility.yul\":631:666   */\n  eq\n    /* \"#utility.yul\":621:684   */\n  tag_44\n  jumpi\n    /* \"#utility.yul\":680:681   */\n  0x00\n    /* \"#utility.yul\":677:678   */\n  0x00\n    /* \"#utility.yul\":670:682   */\n  revert\n    /* \"#utility.yul\":621:684   */\ntag_44:\n    /* \"#utility.yul\":568:690   */\n  pop\n  jump\t// out\n    /* \"#utility.yul\":696:839   */\ntag_29:\n    /* \"#utility.yul\":753:758   */\n  0x00\n    /* \"#utility.yul\":784:790   */\n  dup2\n    /* \"#utility.yul\":778:791   */\n  mload\n    /* \"#utility.yul\":769:791   */\n  swap1\n  pop\n    /* \"#utility.yul\":800:833   */\n  tag_46\n    /* \"#utility.yul\":827:832   */\n  dup2\n    /* \"#utility.yul\":800:833   */\n  tag_28\n  jump\t// in\ntag_46:\n    /* \"#utility.yul\":696:839   */\n  swap3\n  swap2\n  pop\n  pop\n  jump\t// out\n    /* \"#utility.yul\":845:922   */\ntag_30:\n    /* \"#utility.yul\":882:889   */\n  0x00\n    /* \"#utility.yul\":911:916   */\n  dup2\n    /* \"#utility.yul\":900:916   */\n  swap1\n  pop\n    /* \"#utility.yul\":845:922   */\n  swap2\n  swap1\n  pop\n  jump\t// out\n    /* \"#utility.yul\":928:1050   */\ntag_31:\n    /* \"#utility.yul\":1001:1025   */\n  tag_49\n    /* \"#utility.yul\":1019:1024   */\n  dup2\n    /* \"#utility.yul\":1001:1025   */\n  tag_30\n  jump\t// in\ntag_49:\n    /* \"#utility.yul\":994:999   */\n  dup2\n    /* \"#utility.yul\":991:1026   */\n  eq\n    /* \"#utility.yul\":981:1044   */\n  tag_50\n  jumpi\n    /* \"#utility.yul\":1040:1041   */\n  0x00\n    /* \"#utility.yul\":1037:1038   */\n  0x00\n    /* \"#utility.yul\":1030:1042   */\n  revert\n    /* \"#utility.yul\":981:1044   */\ntag_50:\n    /* \"#utility.yul\":928:1050   */\n  pop\n  jump\t// out\n    /* \"#utility.yul\":1056:1199   */\ntag_32:\n    /* \"#utility.yul\":1113:1118   */\n  0x00\n    /* \"#utility.yul\":1144:1150   */\n  dup2\n    /* \"#utility.yul\":1138:1151   */\n  mload\n    /* \"#utility.yul\":1129:1151   */\n  swap1\n  pop\n    /* \"#utility.yul\":1160:1193   */\n  tag_52\n    /* \"#utility.yul\":1187:1192   */\n  dup2\n    /* \"#utility.yul\":1160:1193   */\n  tag_31\n  jump\t// in\ntag_52:\n    /* \"#utility.yul\":1056:1199   */\n  swap3\n  swap2\n  pop\n  pop\n  jump\t// out\n    /* \"#utility.yul\":1205:1712   */\ntag_3:\n    /* \"#utility.yul\":1284:1290   */\n  0x00\n    /* \"#utility.yul\":1292:1298   */\n  0x00\n    /* \"#utility.yul\":1341:1343   */\n  0x40\n    /* \"#utility.yul\":1329:1338   */\n  dup4\n    /* \"#utility.yul\":1320:1327   */\n  dup6\n    /* \"#utility.yul\":1316:1339   */\n  sub\n    /* \"#utility.yul\":1312:1344   */\n  slt\n    /* \"#utility.yul\":1309:1428   */\n  iszero\n  tag_54\n  jumpi\n    /* \"#utility.yul\":1347:1426   */\n  tag_55\n  tag_24\n  jump\t// in\ntag_55:\n    /* \"#utility.yul\":1309:1428   */\ntag_54:\n    /* \"#utility.yul\":1467:1468   */\n  0x00\n    /* \"#utility.yul\":1492:1556   */\n  tag_56\n    /* \"#utility.yul\":1548:1555   */\n  dup6\n    /* \"#utility.yul\":1539:1545   */\n  dup3\n    /* \"#utility.yul\":1528:1537   */\n  dup7\n    /* \"#utility.yul\":1524:1546   */\n  add\n    /* \"#utility.yul\":1492:1556   */\n  tag_29\n  jump\t// in\ntag_56:\n    /* \"#utility.yul\":1482:1556   */\n  swap3\n  pop\n    /* \"#utility.yul\":1438:1566   */\n  pop\n    /* \"#utility.yul\":1605:1607   */\n  0x20\n    /* \"#utility.yul\":1631:1695   */\n  tag_57\n    /* \"#utility.yul\":1687:1694   */\n  dup6\n    /* \"#utility.yul\":1678:1684   */\n  dup3\n    /* \"#utility.yul\":1667:1676   */\n  dup7\n    /* \"#utility.yul\":1663:1685   */\n  add\n    /* \"#utility.yul\":1631:1695   */\n  tag_32\n  jump\t// in\ntag_57:\n    /* \"#utility.yul\":1621:1695   */\n  swap2\n  pop\n    /* \"#utility.yul\":1576:1705   */\n  pop\n    /* \"#utility.yul\":1205:1712   */\n  swap3\n  pop\n  swap3\n  swap1\n  pop\n  jump\t// out\n    /* \"#utility.yul\":1718:1836   */\ntag_33:\n    /* \"#utility.yul\":1805:1829   */\n  tag_59\n    /* \"#utility.yul\":1823:1828   */\n  dup2\n    /* \"#utility.yul\":1805:1829   */\n  tag_27\n  jump\t// in\ntag_59:\n    /* \"#utility.yul\":1800:1803   */\n  dup3\n    /* \"#utility.yul\":1793:1830   */\n  mstore\n    /* \"#utility.yul\":1718:1836   */\n  pop\n  pop\n  jump\t// out\n    /* \"#utility.yul\":1842:2064   */\ntag_10:\n    /* \"#utility.yul\":1935:1939   */\n  0x00\n    /* \"#utility.yul\":1973:1975   */\n  0x20\n    /* \"#utility.yul\":1962:1971   */\n  dup3\n    /* \"#utility.yul\":1958:1976   */\n  add\n    /* \"#utility.yul\":1950:1976   */\n  swap1\n  pop\n    /* \"#utility.yul\":1986:2057   */\n  tag_61\n    /* \"#utility.yul\":2054:2055   */\n  0x00\n    /* \"#utility.yul\":2043:2052   */\n  dup4\n    /* \"#utility.yul\":2039:2056   */\n  add\n    /* \"#utility.yul\":2030:2036   */\n  dup5\n    /* \"#utility.yul\":1986:2057   */\n  tag_33\n  jump\t// in\ntag_61:\n    /* \"#utility.yul\":1842:2064   */\n  swap3\n  swap2\n  pop\n  pop\n  jump\t// out\n    /* \"#utility.yul\":2070:2188   */\ntag_34:\n    /* \"#utility.yul\":2157:2181   */\n  tag_63\n    /* \"#utility.yul\":2175:2180   */\n  dup2\n    /* \"#utility.yul\":2157:2181   */\n  tag_30\n  jump\t// in\ntag_63:\n    /* \"#utility.yul\":2152:2155   */\n  dup3\n    /* \"#utility.yul\":2145:2182   */\n  mstore\n    /* \"#utility.yul\":2070:2188   */\n  pop\n  pop\n  jump\t// out\n    /* \"#utility.yul\":2194:2416   */\ntag_19:\n    /* \"#utility.yul\":2287:2291   */\n  0x00\n    /* \"#utility.yul\":2325:2327   */\n  0x20\n    /* \"#utility.yul\":2314:2323   */\n  dup3\n    /* \"#utility.yul\":2310:2328   */\n  add\n    /* \"#utility.yul\":2302:2328   */\n  swap1\n  pop\n    /* \"#utility.yul\":2338:2409   */\n  tag_65\n    /* \"#utility.yul\":2406:2407   */\n  0x00\n    /* \"#utility.yul\":2395:2404   */\n  dup4\n    /* \"#utility.yul\":2391:2408   */\n  add\n    /* \"#utility.yul\":2382:2388   */\n  dup5\n    /* \"#utility.yul\":2338:2409   */\n  tag_34\n  jump\t// in\ntag_65:\n    /* \"#utility.yul\":2194:2416   */\n  swap3\n  swap2\n  pop\n  pop\n  jump\t// out\n    /* \"contracts/KipuBank.sol\":229:7283  contract KipuBank is Ownable, ReentrancyGuard {... */\ntag_21:\n  mload(0x80)\n  mload(0xa0)\n  codecopy(0x00, dataOffset(sub_0), dataSize(sub_0))\n  0x00\n  assignImmutable(\"0x38985005b3886382adf349011d67a82b9ae02641442e41e1921bb637b1dc329d\")\n  0x00\n  assignImmutable(\"0xeaeba2e6d5db55ec0e36d29579da585b3cbc07168dc9c1795186a4d126c8f86b\")\n  return(0x00, dataSize(sub_0))\nstop\n\nsub_0: assembly {\n        /* \"contracts/KipuBank.sol\":229:7283  contract KipuBank is Ownable, ReentrancyGuard {... */\n      mstore(0x40, 0x80)\n      jumpi(tag_1, lt(calldatasize, 0x04))\n      shr(0xe0, calldataload(0x00))\n      dup1\n      0x8da5cb5b\n      gt\n      tag_27\n      jumpi\n      dup1\n      0xb6e7d830\n      gt\n      tag_28\n      jumpi\n      dup1\n      0xe78ec42e\n      gt\n      tag_29\n      jumpi\n      dup1\n      0xe78ec42e\n      eq\n      tag_23\n      jumpi\n      dup1\n      0xecbea24d\n      eq\n      tag_24\n      jumpi\n      dup1\n      0xf2fde38b\n      eq\n      tag_25\n      jumpi\n      dup1\n      0xfc0c546a\n      eq\n      tag_26\n      jumpi\n      jump(tag_1)\n    tag_29:\n      dup1\n      0xb6e7d830\n      eq\n      tag_20\n      jumpi\n      dup1\n      0xc847119d\n      eq\n      tag_21\n      jumpi\n      dup1\n      0xd3b5f520\n      eq\n      tag_22\n      jumpi\n      jump(tag_1)\n    tag_28:\n      dup1\n      0x8da5cb5b\n      eq\n      tag_14\n      jumpi\n      dup1\n      0x93423e9c\n      eq\n      tag_15\n      jumpi\n      dup1\n      0x9dca362f\n      eq\n      tag_16\n      jumpi\n      dup1\n      0xac1e5025\n      eq\n      tag_17\n      jumpi\n      dup1\n      0xb30d5815\n      eq\n      tag_18\n      jumpi\n      dup1\n      0xb6b55f25\n      eq\n      tag_19\n      jumpi\n      jump(tag_1)\n    tag_27:\n      dup1\n      0x5e5c06e2\n      gt\n      tag_30\n      jumpi\n      dup1\n      0x5e5c06e2\n      eq\n      tag_8\n      jumpi\n      dup1\n      0x636bfbab\n      eq\n      tag_9\n      jumpi\n      dup1\n      0x715018a6\n      eq\n      tag_10\n      jumpi\n      dup1\n      0x779972da\n      eq\n      tag_11\n      jumpi\n      dup1\n      0x7d882097\n      eq\n      tag_12\n      jumpi\n      dup1\n      0x8bc7e8c4\n      eq\n      tag_13\n      jumpi\n      jump(tag_1)\n    tag_30:\n      dup1\n      0x0770e571\n      eq\n      tag_2\n      jumpi\n      dup1\n      0x1bae91a4\n      eq\n      tag_3\n      jumpi\n      dup1\n      0x26a4e8d2\n      eq\n      tag_4\n      jumpi\n      dup1\n      0x2e1a7d4d\n      eq\n      tag_5\n      jumpi\n      dup1\n      0x3fd8b02f\n      eq\n      tag_6\n      jumpi\n      dup1\n      0x476343ee\n      eq\n      tag_7\n      jumpi\n    tag_1:\n      revert(0x00, 0x00)\n        /* \"contracts/KipuBank.sol\":593:629  uint256 public totalWithdrawalsCount */\n    tag_2:\n      callvalue\n      dup1\n      iszero\n      tag_31\n      jumpi\n      revert(0x00, 0x00)\n    tag_31:\n      pop\n      tag_32\n      tag_33\n      jump\t// in\n    tag_32:\n      mload(0x40)\n      tag_34\n      swap2\n      swap1\n      tag_35\n      jump\t// in\n    tag_34:\n      mload(0x40)\n      dup1\n      swap2\n      sub\n      swap1\n      return\n        /* \"contracts/KipuBank.sol\":4841:5033  function getUserDepositCount(address user) external view returns (uint256) {... */\n    tag_3:\n      callvalue\n      dup1\n      iszero\n      tag_36\n      jumpi\n      revert(0x00, 0x00)\n    tag_36:\n      pop\n      tag_37\n      0x04\n      dup1\n      calldatasize\n      sub\n      dup2\n      add\n      swap1\n      tag_38\n      swap2\n      swap1\n      tag_39\n      jump\t// in\n    tag_38:\n      tag_40\n      jump\t// in\n    tag_37:\n      mload(0x40)\n      tag_41\n      swap2\n      swap1\n      tag_35\n      jump\t// in\n    tag_41:\n      mload(0x40)\n      dup1\n      swap2\n      sub\n      swap1\n      return\n        /* \"contracts/KipuBank.sol\":6289:6529  function setTokenAddress(address _tokenAddress) external onlyOwner {... */\n    tag_4:\n      callvalue\n      dup1\n      iszero\n      tag_42\n      jumpi\n      revert(0x00, 0x00)\n    tag_42:\n      pop\n      tag_43\n      0x04\n      dup1\n      calldatasize\n      sub\n      dup2\n      add\n      swap1\n      tag_44\n      swap2\n      swap1\n      tag_39\n      jump\t// in\n    tag_44:\n      tag_45\n      jump\t// in\n    tag_43:\n      stop\n        /* \"contracts/KipuBank.sol\":3702:4665  function withdraw(uint256 amount) external nonReentrant withBalance {... */\n    tag_5:\n      callvalue\n      dup1\n      iszero\n      tag_46\n      jumpi\n      revert(0x00, 0x00)\n    tag_46:\n      pop\n      tag_47\n      0x04\n      dup1\n      calldatasize\n      sub\n      dup2\n      add\n      swap1\n      tag_48\n      swap2\n      swap1\n      tag_49\n      jump\t// in\n    tag_48:\n      tag_50\n      jump\t// in\n    tag_47:\n      stop\n        /* \"contracts/KipuBank.sol\":1081:1115  uint256 public lockPeriod = 1 days */\n    tag_6:\n      callvalue\n      dup1\n      iszero\n      tag_51\n      jumpi\n      revert(0x00, 0x00)\n    tag_51:\n      pop\n      tag_52\n      tag_53\n      jump\t// in\n    tag_52:\n      mload(0x40)\n      tag_54\n      swap2\n      swap1\n      tag_35\n      jump\t// in\n    tag_54:\n      mload(0x40)\n      dup1\n      swap2\n      sub\n      swap1\n      return\n        /* \"contracts/KipuBank.sol\":6535:7281  function withdrawFees() external onlyOwner {... */\n    tag_7:\n      callvalue\n      dup1\n      iszero\n      tag_55\n      jumpi\n      revert(0x00, 0x00)\n    tag_55:\n      pop\n      tag_56\n      tag_57\n      jump\t// in\n    tag_56:\n      stop\n        /* \"contracts/KipuBank.sol\":920:963  mapping(address => Account) public accounts */\n    tag_8:\n      callvalue\n      dup1\n      iszero\n      tag_58\n      jumpi\n      revert(0x00, 0x00)\n    tag_58:\n      pop\n      tag_59\n      0x04\n      dup1\n      calldatasize\n      sub\n      dup2\n      add\n      swap1\n      tag_60\n      swap2\n      swap1\n      tag_39\n      jump\t// in\n    tag_60:\n      tag_61\n      jump\t// in\n    tag_59:\n      mload(0x40)\n      tag_62\n      swap6\n      swap5\n      swap4\n      swap3\n      swap2\n      swap1\n      tag_63\n      jump\t// in\n    tag_62:\n      mload(0x40)\n      dup1\n      swap2\n      sub\n      swap1\n      return\n        /* \"contracts/KipuBank.sol\":969:1013  uint256 public minimumDeposit = 100 * 10**18 */\n    tag_9:\n      callvalue\n      dup1\n      iszero\n      tag_64\n      jumpi\n      revert(0x00, 0x00)\n    tag_64:\n      pop\n      tag_65\n      tag_66\n      jump\t// in\n    tag_65:\n      mload(0x40)\n      tag_67\n      swap2\n      swap1\n      tag_35\n      jump\t// in\n    tag_67:\n      mload(0x40)\n      dup1\n      swap2\n      sub\n      swap1\n      return\n        /* \"@openzeppelin/contracts/access/Ownable.sol\":2293:2394  function renounceOwnership() public virtual onlyOwner {... */\n    tag_10:\n      callvalue\n      dup1\n      iszero\n      tag_68\n      jumpi\n      revert(0x00, 0x00)\n    tag_68:\n      pop\n      tag_69\n      tag_70\n      jump\t// in\n    tag_69:\n      stop\n        /* \"contracts/KipuBank.sol\":6134:6283  function setLockPeriod(uint256 _lockPeriod) external onlyOwner {... */\n    tag_11:\n      callvalue\n      dup1\n      iszero\n      tag_71\n      jumpi\n      revert(0x00, 0x00)\n    tag_71:\n      pop\n      tag_72\n      0x04\n      dup1\n      calldatasize\n      sub\n      dup2\n      add\n      swap1\n      tag_73\n      swap2\n      swap1\n      tag_49\n      jump\t// in\n    tag_73:\n      tag_74\n      jump\t// in\n    tag_72:\n      stop\n        /* \"contracts/KipuBank.sol\":392:420  uint256 public totalDeposits */\n    tag_12:\n      callvalue\n      dup1\n      iszero\n      tag_75\n      jumpi\n      revert(0x00, 0x00)\n    tag_75:\n      pop\n      tag_76\n      tag_77\n      jump\t// in\n    tag_76:\n      mload(0x40)\n      tag_78\n      swap2\n      swap1\n      tag_35\n      jump\t// in\n    tag_78:\n      mload(0x40)\n      dup1\n      swap2\n      sub\n      swap1\n      return\n        /* \"contracts/KipuBank.sol\":1033:1065  uint256 public withdrawalFee = 5 */\n    tag_13:\n      callvalue\n      dup1\n      iszero\n      tag_79\n      jumpi\n      revert(0x00, 0x00)\n    tag_79:\n      pop\n      tag_80\n      tag_81\n      jump\t// in\n    tag_80:\n      mload(0x40)\n      tag_82\n      swap2\n      swap1\n      tag_35\n      jump\t// in\n    tag_82:\n      mload(0x40)\n      dup1\n      swap2\n      sub\n      swap1\n      return\n        /* \"@openzeppelin/contracts/access/Ownable.sol\":1638:1723  function owner() public view virtual returns (address) {... */\n    tag_14:\n      callvalue\n      dup1\n      iszero\n      tag_83\n      jumpi\n      revert(0x00, 0x00)\n    tag_83:\n      pop\n      tag_84\n      tag_85\n      jump\t// in\n    tag_84:\n      mload(0x40)\n      tag_86\n      swap2\n      swap1\n      tag_87\n      jump\t// in\n    tag_86:\n      mload(0x40)\n      dup1\n      swap2\n      sub\n      swap1\n      return\n        /* \"contracts/KipuBank.sol\":5475:5712  function getAccountBalance(address accountOwner)... */\n    tag_15:\n      callvalue\n      dup1\n      iszero\n      tag_88\n      jumpi\n      revert(0x00, 0x00)\n    tag_88:\n      pop\n      tag_89\n      0x04\n      dup1\n      calldatasize\n      sub\n      dup2\n      add\n      swap1\n      tag_90\n      swap2\n      swap1\n      tag_39\n      jump\t// in\n    tag_90:\n      tag_91\n      jump\t// in\n    tag_89:\n      mload(0x40)\n      tag_92\n      swap2\n      swap1\n      tag_35\n      jump\t// in\n    tag_92:\n      mload(0x40)\n      dup1\n      swap2\n      sub\n      swap1\n      return\n        /* \"contracts/KipuBank.sol\":2353:2715  function createAccount() external {... */\n    tag_16:\n      callvalue\n      dup1\n      iszero\n      tag_93\n      jumpi\n      revert(0x00, 0x00)\n    tag_93:\n      pop\n      tag_94\n      tag_95\n      jump\t// in\n    tag_94:\n      stop\n        /* \"contracts/KipuBank.sol\":5897:6128  function setWithdrawalFee(uint256 _withdrawalFee) external onlyOwner {... */\n    tag_17:\n      callvalue\n      dup1\n      iszero\n      tag_96\n      jumpi\n      revert(0x00, 0x00)\n    tag_96:\n      pop\n      tag_97\n      0x04\n      dup1\n      calldatasize\n      sub\n      dup2\n      add\n      swap1\n      tag_98\n      swap2\n      swap1\n      tag_49\n      jump\t// in\n    tag_98:\n      tag_99\n      jump\t// in\n    tag_97:\n      stop\n        /* \"contracts/KipuBank.sol\":5243:5350  function getTotalDepositsCount() external view returns (uint256) {... */\n    tag_18:\n      callvalue\n      dup1\n      iszero\n      tag_100\n      jumpi\n      revert(0x00, 0x00)\n    tag_100:\n      pop\n      tag_101\n      tag_102\n      jump\t// in\n    tag_101:\n      mload(0x40)\n      tag_103\n      swap2\n      swap1\n      tag_35\n      jump\t// in\n    tag_103:\n      mload(0x40)\n      dup1\n      swap2\n      sub\n      swap1\n      return\n        /* \"contracts/KipuBank.sol\":2721:3531  function deposit(uint256 amount) external nonReentrant payable {... */\n    tag_19:\n      tag_104\n      0x04\n      dup1\n      calldatasize\n      sub\n      dup2\n      add\n      swap1\n      tag_105\n      swap2\n      swap1\n      tag_49\n      jump\t// in\n    tag_105:\n      tag_106\n      jump\t// in\n    tag_104:\n      stop\n        /* \"contracts/KipuBank.sol\":5356:5469  function getTotalWithdrawalsCount() external view returns (uint256) {... */\n    tag_20:\n      callvalue\n      dup1\n      iszero\n      tag_107\n      jumpi\n      revert(0x00, 0x00)\n    tag_107:\n      pop\n      tag_108\n      tag_109\n      jump\t// in\n    tag_108:\n      mload(0x40)\n      tag_110\n      swap2\n      swap1\n      tag_35\n      jump\t// in\n    tag_110:\n      mload(0x40)\n      dup1\n      swap2\n      sub\n      swap1\n      return\n        /* \"contracts/KipuBank.sol\":515:548  uint256 public totalDepositsCount */\n    tag_21:\n      callvalue\n      dup1\n      iszero\n      tag_111\n      jumpi\n      revert(0x00, 0x00)\n    tag_111:\n      pop\n      tag_112\n      tag_113\n      jump\t// in\n    tag_112:\n      mload(0x40)\n      tag_114\n      swap2\n      swap1\n      tag_35\n      jump\t// in\n    tag_114:\n      mload(0x40)\n      dup1\n      swap2\n      sub\n      swap1\n      return\n        /* \"contracts/KipuBank.sol\":5039:5237  function getUserWithdrawalCount(address user) external view returns (uint256) {... */\n    tag_22:\n      callvalue\n      dup1\n      iszero\n      tag_115\n      jumpi\n      revert(0x00, 0x00)\n    tag_115:\n      pop\n      tag_116\n      0x04\n      dup1\n      calldatasize\n      sub\n      dup2\n      add\n      swap1\n      tag_117\n      swap2\n      swap1\n      tag_39\n      jump\t// in\n    tag_117:\n      tag_118\n      jump\t// in\n    tag_116:\n      mload(0x40)\n      tag_119\n      swap2\n      swap1\n      tag_35\n      jump\t// in\n    tag_119:\n      mload(0x40)\n      dup1\n      swap2\n      sub\n      swap1\n      return\n        /* \"contracts/KipuBank.sol\":5718:5891  function setMinimumDeposit(uint256 _minimumDeposit) external onlyOwner {... */\n    tag_23:\n      callvalue\n      dup1\n      iszero\n      tag_120\n      jumpi\n      revert(0x00, 0x00)\n    tag_120:\n      pop\n      tag_121\n      0x04\n      dup1\n      calldatasize\n      sub\n      dup2\n      add\n      swap1\n      tag_122\n      swap2\n      swap1\n      tag_49\n      jump\t// in\n    tag_122:\n      tag_123\n      jump\t// in\n    tag_121:\n      stop\n        /* \"contracts/KipuBank.sol\":306:338  uint256 public immutable bankCap */\n    tag_24:\n      callvalue\n      dup1\n      iszero\n      tag_124\n      jumpi\n      revert(0x00, 0x00)\n    tag_124:\n      pop\n      tag_125\n      tag_126\n      jump\t// in\n    tag_125:\n      mload(0x40)\n      tag_127\n      swap2\n      swap1\n      tag_35\n      jump\t// in\n    tag_127:\n      mload(0x40)\n      dup1\n      swap2\n      sub\n      swap1\n      return\n        /* \"@openzeppelin/contracts/access/Ownable.sol\":2543:2758  function transferOwnership(address newOwner) public virtual onlyOwner {... */\n    tag_25:\n      callvalue\n      dup1\n      iszero\n      tag_128\n      jumpi\n      revert(0x00, 0x00)\n    tag_128:\n      pop\n      tag_129\n      0x04\n      dup1\n      calldatasize\n      sub\n      dup2\n      add\n      swap1\n      tag_130\n      swap2\n      swap1\n      tag_39\n      jump\t// in\n    tag_130:\n      tag_131\n      jump\t// in\n    tag_129:\n      stop\n        /* \"contracts/KipuBank.sol\":281:300  IERC20 public token */\n    tag_26:\n      callvalue\n      dup1\n      iszero\n      tag_132\n      jumpi\n      revert(0x00, 0x00)\n    tag_132:\n      pop\n      tag_133\n      tag_134\n      jump\t// in\n    tag_133:\n      mload(0x40)\n      tag_135\n      swap2\n      swap1\n      tag_136\n      jump\t// in\n    tag_135:\n      mload(0x40)\n      dup1\n      swap2\n      sub\n      swap1\n      return\n        /* \"contracts/KipuBank.sol\":593:629  uint256 public totalWithdrawalsCount */\n    tag_33:\n      sload(0x05)\n      dup2\n      jump\t// out\n        /* \"contracts/KipuBank.sol\":4841:5033  function getUserDepositCount(address user) external view returns (uint256) {... */\n    tag_40:\n        /* \"contracts/KipuBank.sol\":4907:4914  uint256 */\n      0x00\n        /* \"contracts/KipuBank.sol\":4934:4942  accounts */\n      0x06\n        /* \"contracts/KipuBank.sol\":4934:4948  accounts[user] */\n      0x00\n        /* \"contracts/KipuBank.sol\":4943:4947  user */\n      dup4\n        /* \"contracts/KipuBank.sol\":4934:4948  accounts[user] */\n      0xffffffffffffffffffffffffffffffffffffffff\n      and\n      0xffffffffffffffffffffffffffffffffffffffff\n      and\n      dup2\n      mstore\n      0x20\n      add\n      swap1\n      dup2\n      mstore\n      0x20\n      add\n      0x00\n      keccak256\n        /* \"contracts/KipuBank.sol\":4934:4955  accounts[user].exists */\n      0x02\n      add\n      0x00\n      swap1\n      sload\n      swap1\n      0x0100\n      exp\n      swap1\n      div\n      0xff\n      and\n        /* \"contracts/KipuBank.sol\":4926:4982  require(accounts[user].exists, \"Account does not exist\") */\n      tag_138\n      jumpi\n      mload(0x40)\n      0x08c379a000000000000000000000000000000000000000000000000000000000\n      dup2\n      mstore\n      0x04\n      add\n      tag_139\n      swap1\n      tag_140\n      jump\t// in\n    tag_139:\n      mload(0x40)\n      dup1\n      swap2\n      sub\n      swap1\n      revert\n    tag_138:\n        /* \"contracts/KipuBank.sol\":4999:5007  accounts */\n      0x06\n        /* \"contracts/KipuBank.sol\":4999:5013  accounts[user] */\n      0x00\n        /* \"contracts/KipuBank.sol\":5008:5012  user */\n      dup4\n        /* \"contracts/KipuBank.sol\":4999:5013  accounts[user] */\n      0xffffffffffffffffffffffffffffffffffffffff\n      and\n      0xffffffffffffffffffffffffffffffffffffffff\n      and\n      dup2\n      mstore\n      0x20\n      add\n      swap1\n      dup2\n      mstore\n      0x20\n      add\n      0x00\n      keccak256\n        /* \"contracts/KipuBank.sol\":4999:5026  accounts[user].depositCount */\n      0x03\n      add\n      sload\n        /* \"contracts/KipuBank.sol\":4992:5026  return accounts[user].depositCount */\n      swap1\n      pop\n        /* \"contracts/KipuBank.sol\":4841:5033  function getUserDepositCount(address user) external view returns (uint256) {... */\n      swap2\n      swap1\n      pop\n      jump\t// out\n        /* \"contracts/KipuBank.sol\":6289:6529  function setTokenAddress(address _tokenAddress) external onlyOwner {... */\n    tag_45:\n        /* \"@openzeppelin/contracts/access/Ownable.sol\":1531:1544  _checkOwner() */\n      tag_142\n        /* \"@openzeppelin/contracts/access/Ownable.sol\":1531:1542  _checkOwner */\n      tag_143\n        /* \"@openzeppelin/contracts/access/Ownable.sol\":1531:1544  _checkOwner() */\n      jump\t// in\n    tag_142:\n        /* \"contracts/KipuBank.sol\":6399:6400  0 */\n      0x00\n        /* \"contracts/KipuBank.sol\":6374:6401  _tokenAddress != address(0) */\n      0xffffffffffffffffffffffffffffffffffffffff\n      and\n        /* \"contracts/KipuBank.sol\":6374:6387  _tokenAddress */\n      dup2\n        /* \"contracts/KipuBank.sol\":6374:6401  _tokenAddress != address(0) */\n      0xffffffffffffffffffffffffffffffffffffffff\n      and\n      sub\n        /* \"contracts/KipuBank.sol\":6366:6434  require(_tokenAddress != address(0), \"Token address cannot be zero\") */\n      tag_145\n      jumpi\n      mload(0x40)\n      0x08c379a000000000000000000000000000000000000000000000000000000000\n      dup2\n      mstore\n      0x04\n      add\n      tag_146\n      swap1\n      tag_147\n      jump\t// in\n    tag_146:\n      mload(0x40)\n      dup1\n      swap2\n      sub\n      swap1\n      revert\n    tag_145:\n        /* \"contracts/KipuBank.sol\":6459:6472  _tokenAddress */\n      dup1\n        /* \"contracts/KipuBank.sol\":6444:6449  token */\n      0x02\n      0x00\n        /* \"contracts/KipuBank.sol\":6444:6473  token = IERC20(_tokenAddress) */\n      0x0100\n      exp\n      dup2\n      sload\n      dup2\n      0xffffffffffffffffffffffffffffffffffffffff\n      mul\n      not\n      and\n      swap1\n      dup4\n      0xffffffffffffffffffffffffffffffffffffffff\n      and\n      mul\n      or\n      swap1\n      sstore\n      pop\n        /* \"contracts/KipuBank.sol\":6488:6522  TokenAddressUpdated(_tokenAddress) */\n      0x2f0c7f17be551d1f4566672cd67adbe50173e96632f56ff80d80acc4ac00f328\n        /* \"contracts/KipuBank.sol\":6508:6521  _tokenAddress */\n      dup2\n        /* \"contracts/KipuBank.sol\":6488:6522  TokenAddressUpdated(_tokenAddress) */\n      mload(0x40)\n      tag_148\n      swap2\n      swap1\n      tag_87\n      jump\t// in\n    tag_148:\n      mload(0x40)\n      dup1\n      swap2\n      sub\n      swap1\n      log1\n        /* \"contracts/KipuBank.sol\":6289:6529  function setTokenAddress(address _tokenAddress) external onlyOwner {... */\n      pop\n      jump\t// out\n        /* \"contracts/KipuBank.sol\":3702:4665  function withdraw(uint256 amount) external nonReentrant withBalance {... */\n    tag_50:\n        /* \"@openzeppelin/contracts/utils/ReentrancyGuard.sol\":2500:2521  _nonReentrantBefore() */\n      tag_150\n        /* \"@openzeppelin/contracts/utils/ReentrancyGuard.sol\":2500:2519  _nonReentrantBefore */\n      tag_151\n        /* \"@openzeppelin/contracts/utils/ReentrancyGuard.sol\":2500:2521  _nonReentrantBefore() */\n      jump\t// in\n    tag_150:\n        /* \"contracts/KipuBank.sol\":1961:1962  0 */\n      0x00\n        /* \"contracts/KipuBank.sol\":1929:1937  accounts */\n      0x06\n        /* \"contracts/KipuBank.sol\":1929:1949  accounts[msg.sender] */\n      0x00\n        /* \"contracts/KipuBank.sol\":1938:1948  msg.sender */\n      caller\n        /* \"contracts/KipuBank.sol\":1929:1949  accounts[msg.sender] */\n      0xffffffffffffffffffffffffffffffffffffffff\n      and\n      0xffffffffffffffffffffffffffffffffffffffff\n      and\n      dup2\n      mstore\n      0x20\n      add\n      swap1\n      dup2\n      mstore\n      0x20\n      add\n      0x00\n      keccak256\n        /* \"contracts/KipuBank.sol\":1929:1957  accounts[msg.sender].balance */\n      0x00\n      add\n      sload\n        /* \"contracts/KipuBank.sol\":1929:1962  accounts[msg.sender].balance <= 0 */\n      gt\n        /* \"contracts/KipuBank.sol\":1925:2000  if (accounts[msg.sender].balance <= 0) revert NoBalanceError(msg.sender, 0) */\n      tag_153\n      jumpi\n        /* \"contracts/KipuBank.sol\":1986:1996  msg.sender */\n      caller\n        /* \"contracts/KipuBank.sol\":1998:1999  0 */\n      0x00\n        /* \"contracts/KipuBank.sol\":1971:2000  NoBalanceError(msg.sender, 0) */\n      mload(0x40)\n      0x4747842600000000000000000000000000000000000000000000000000000000\n      dup2\n      mstore\n      0x04\n      add\n      tag_154\n      swap3\n      swap2\n      swap1\n      tag_155\n      jump\t// in\n    tag_154:\n      mload(0x40)\n      dup1\n      swap2\n      sub\n      swap1\n      revert\n        /* \"contracts/KipuBank.sol\":1925:2000  if (accounts[msg.sender].balance <= 0) revert NoBalanceError(msg.sender, 0) */\n    tag_153:\n        /* \"contracts/KipuBank.sol\":3780:3803  Account storage account */\n      0x00\n        /* \"contracts/KipuBank.sol\":3806:3814  accounts */\n      0x06\n        /* \"contracts/KipuBank.sol\":3806:3826  accounts[msg.sender] */\n      0x00\n        /* \"contracts/KipuBank.sol\":3815:3825  msg.sender */\n      caller\n        /* \"contracts/KipuBank.sol\":3806:3826  accounts[msg.sender] */\n      0xffffffffffffffffffffffffffffffffffffffff\n      and\n      0xffffffffffffffffffffffffffffffffffffffff\n      and\n      dup2\n      mstore\n      0x20\n      add\n      swap1\n      dup2\n      mstore\n      0x20\n      add\n      0x00\n      keccak256\n        /* \"contracts/KipuBank.sol\":3780:3826  Account storage account = accounts[msg.sender] */\n      swap1\n      pop\n        /* \"contracts/KipuBank.sol\":3844:3851  account */\n      dup1\n        /* \"contracts/KipuBank.sol\":3844:3858  account.exists */\n      0x02\n      add\n      0x00\n      swap1\n      sload\n      swap1\n      0x0100\n      exp\n      swap1\n      div\n      0xff\n      and\n        /* \"contracts/KipuBank.sol\":3836:3885  require(account.exists, \"Account does not exist\") */\n      tag_157\n      jumpi\n      mload(0x40)\n      0x08c379a000000000000000000000000000000000000000000000000000000000\n      dup2\n      mstore\n      0x04\n      add\n      tag_158\n      swap1\n      tag_140\n      jump\t// in\n    tag_158:\n      mload(0x40)\n      dup1\n      swap2\n      sub\n      swap1\n      revert\n    tag_157:\n        /* \"contracts/KipuBank.sol\":3922:3928  amount */\n      dup2\n        /* \"contracts/KipuBank.sol\":3903:3910  account */\n      dup2\n        /* \"contracts/KipuBank.sol\":3903:3918  account.balance */\n      0x00\n      add\n      sload\n        /* \"contracts/KipuBank.sol\":3903:3928  account.balance >= amount */\n      lt\n      iszero\n        /* \"contracts/KipuBank.sol\":3895:3953  require(account.balance >= amount, \"Insufficient balance\") */\n      tag_159\n      jumpi\n      mload(0x40)\n      0x08c379a000000000000000000000000000000000000000000000000000000000\n      dup2\n      mstore\n      0x04\n      add\n      tag_160\n      swap1\n      tag_161\n      jump\t// in\n    tag_160:\n      mload(0x40)\n      dup1\n      swap2\n      sub\n      swap1\n      revert\n    tag_159:\n        /* \"contracts/KipuBank.sol\":3981:4004  MAX_WITHDRAWL_PER_TRANS */\n      immutable(\"0x38985005b3886382adf349011d67a82b9ae02641442e41e1921bb637b1dc329d\")\n        /* \"contracts/KipuBank.sol\":3971:3977  amount */\n      dup3\n        /* \"contracts/KipuBank.sol\":3971:4004  amount <= MAX_WITHDRAWL_PER_TRANS */\n      gt\n      iszero\n        /* \"contracts/KipuBank.sol\":3963:4039  require(amount <= MAX_WITHDRAWL_PER_TRANS, \"Cannot exceed withdrawal limit\") */\n      tag_162\n      jumpi\n      mload(0x40)\n      0x08c379a000000000000000000000000000000000000000000000000000000000\n      dup2\n      mstore\n      0x04\n      add\n      tag_163\n      swap1\n      tag_164\n      jump\t// in\n    tag_163:\n      mload(0x40)\n      dup1\n      swap2\n      sub\n      swap1\n      revert\n    tag_162:\n        /* \"contracts/KipuBank.sol\":4120:4130  lockPeriod */\n      sload(0x09)\n        /* \"contracts/KipuBank.sol\":4089:4096  account */\n      dup2\n        /* \"contracts/KipuBank.sol\":4089:4117  account.lastDepositTimestamp */\n      0x01\n      add\n      sload\n        /* \"contracts/KipuBank.sol\":4089:4130  account.lastDepositTimestamp + lockPeriod */\n      tag_165\n      swap2\n      swap1\n      tag_166\n      jump\t// in\n    tag_165:\n        /* \"contracts/KipuBank.sol\":4070:4085  block.timestamp */\n      timestamp\n        /* \"contracts/KipuBank.sol\":4070:4130  block.timestamp >= account.lastDepositTimestamp + lockPeriod */\n      lt\n      iszero\n        /* \"contracts/KipuBank.sol\":4049:4172  require(... */\n      tag_167\n      jumpi\n      mload(0x40)\n      0x08c379a000000000000000000000000000000000000000000000000000000000\n      dup2\n      mstore\n      0x04\n      add\n      tag_168\n      swap1\n      tag_169\n      jump\t// in\n    tag_168:\n      mload(0x40)\n      dup1\n      swap2\n      sub\n      swap1\n      revert\n    tag_167:\n        /* \"contracts/KipuBank.sol\":4183:4200  uint256 feeAmount */\n      0x00\n        /* \"contracts/KipuBank.sol\":4230:4233  100 */\n      0x64\n        /* \"contracts/KipuBank.sol\":4213:4226  withdrawalFee */\n      sload(0x08)\n        /* \"contracts/KipuBank.sol\":4204:4210  amount */\n      dup5\n        /* \"contracts/KipuBank.sol\":4204:4226  amount * withdrawalFee */\n      tag_170\n      swap2\n      swap1\n      tag_171\n      jump\t// in\n    tag_170:\n        /* \"contracts/KipuBank.sol\":4203:4233  (amount * withdrawalFee) / 100 */\n      tag_172\n      swap2\n      swap1\n      tag_173\n      jump\t// in\n    tag_172:\n        /* \"contracts/KipuBank.sol\":4183:4233  uint256 feeAmount = (amount * withdrawalFee) / 100 */\n      swap1\n      pop\n        /* \"contracts/KipuBank.sol\":4243:4265  uint256 amountAfterFee */\n      0x00\n        /* \"contracts/KipuBank.sol\":4277:4286  feeAmount */\n      dup2\n        /* \"contracts/KipuBank.sol\":4268:4274  amount */\n      dup5\n        /* \"contracts/KipuBank.sol\":4268:4286  amount - feeAmount */\n      tag_174\n      swap2\n      swap1\n      tag_175\n      jump\t// in\n    tag_174:\n        /* \"contracts/KipuBank.sol\":4243:4286  uint256 amountAfterFee = amount - feeAmount */\n      swap1\n      pop\n        /* \"contracts/KipuBank.sol\":4316:4322  amount */\n      dup4\n        /* \"contracts/KipuBank.sol\":4297:4304  account */\n      dup4\n        /* \"contracts/KipuBank.sol\":4297:4312  account.balance */\n      0x00\n      add\n      0x00\n        /* \"contracts/KipuBank.sol\":4297:4322  account.balance -= amount */\n      dup3\n      dup3\n      sload\n      tag_176\n      swap2\n      swap1\n      tag_175\n      jump\t// in\n    tag_176:\n      swap3\n      pop\n      pop\n      dup2\n      swap1\n      sstore\n      pop\n        /* \"contracts/KipuBank.sol\":4359:4360  1 */\n      0x01\n        /* \"contracts/KipuBank.sol\":4332:4339  account */\n      dup4\n        /* \"contracts/KipuBank.sol\":4332:4355  account.withdrawalCount */\n      0x04\n      add\n      0x00\n        /* \"contracts/KipuBank.sol\":4332:4360  account.withdrawalCount += 1 */\n      dup3\n      dup3\n      sload\n      tag_177\n      swap2\n      swap1\n      tag_166\n      jump\t// in\n    tag_177:\n      swap3\n      pop\n      pop\n      dup2\n      swap1\n      sstore\n      pop\n        /* \"contracts/KipuBank.sol\":4387:4393  amount */\n      dup4\n        /* \"contracts/KipuBank.sol\":4370:4383  totalDeposits */\n      0x03\n      0x00\n        /* \"contracts/KipuBank.sol\":4370:4393  totalDeposits -= amount */\n      dup3\n      dup3\n      sload\n      tag_178\n      swap2\n      swap1\n      tag_175\n      jump\t// in\n    tag_178:\n      swap3\n      pop\n      pop\n      dup2\n      swap1\n      sstore\n      pop\n        /* \"contracts/KipuBank.sol\":4403:4435  _incrementTotalWithdrawlsCount() */\n      tag_179\n        /* \"contracts/KipuBank.sol\":4403:4433  _incrementTotalWithdrawlsCount */\n      tag_180\n        /* \"contracts/KipuBank.sol\":4403:4435  _incrementTotalWithdrawlsCount() */\n      jump\t// in\n    tag_179:\n        /* \"contracts/KipuBank.sol\":4446:4458  bool success */\n      0x00\n        /* \"contracts/KipuBank.sol\":4461:4466  token */\n      0x02\n      0x00\n      swap1\n      sload\n      swap1\n      0x0100\n      exp\n      swap1\n      div\n      0xffffffffffffffffffffffffffffffffffffffff\n      and\n        /* \"contracts/KipuBank.sol\":4461:4475  token.transfer */\n      0xffffffffffffffffffffffffffffffffffffffff\n      and\n      0xa9059cbb\n        /* \"contracts/KipuBank.sol\":4476:4486  msg.sender */\n      caller\n        /* \"contracts/KipuBank.sol\":4488:4502  amountAfterFee */\n      dup5\n        /* \"contracts/KipuBank.sol\":4461:4503  token.transfer(msg.sender, amountAfterFee) */\n      mload(0x40)\n      dup4\n      0xffffffff\n      and\n      0xe0\n      shl\n      dup2\n      mstore\n      0x04\n      add\n      tag_181\n      swap3\n      swap2\n      swap1\n      tag_182\n      jump\t// in\n    tag_181:\n      0x20\n      mload(0x40)\n      dup1\n      dup4\n      sub\n      dup2\n      0x00\n      dup8\n      gas\n      call\n      iszero\n      dup1\n      iszero\n      tag_184\n      jumpi\n      returndatacopy(0x00, 0x00, returndatasize)\n      revert(0x00, returndatasize)\n    tag_184:\n      pop\n      pop\n      pop\n      pop\n      mload(0x40)\n      returndatasize\n      not(0x1f)\n      0x1f\n      dup3\n      add\n      and\n      dup3\n      add\n      dup1\n      0x40\n      mstore\n      pop\n      dup2\n      add\n      swap1\n      tag_185\n      swap2\n      swap1\n      tag_186\n      jump\t// in\n    tag_185:\n        /* \"contracts/KipuBank.sol\":4446:4503  bool success = token.transfer(msg.sender, amountAfterFee) */\n      swap1\n      pop\n        /* \"contracts/KipuBank.sol\":4521:4528  success */\n      dup1\n        /* \"contracts/KipuBank.sol\":4513:4554  require(success, \"Token transfer failed\") */\n      tag_187\n      jumpi\n      mload(0x40)\n      0x08c379a000000000000000000000000000000000000000000000000000000000\n      dup2\n      mstore\n      0x04\n      add\n      tag_188\n      swap1\n      tag_189\n      jump\t// in\n    tag_188:\n      mload(0x40)\n      dup1\n      swap2\n      sub\n      swap1\n      revert\n    tag_187:\n        /* \"contracts/KipuBank.sol\":4580:4590  msg.sender */\n      caller\n        /* \"contracts/KipuBank.sol\":4570:4658  Withdrawn(msg.sender, amount, feeAmount, account.withdrawalCount, totalWithdrawalsCount) */\n      0xffffffffffffffffffffffffffffffffffffffff\n      and\n      0x94ffd6b85c71b847775c89ef6496b93cee961bdc6ff827fd117f174f06f745ae\n        /* \"contracts/KipuBank.sol\":4592:4598  amount */\n      dup7\n        /* \"contracts/KipuBank.sol\":4600:4609  feeAmount */\n      dup6\n        /* \"contracts/KipuBank.sol\":4611:4618  account */\n      dup8\n        /* \"contracts/KipuBank.sol\":4611:4634  account.withdrawalCount */\n      0x04\n      add\n      sload\n        /* \"contracts/KipuBank.sol\":4636:4657  totalWithdrawalsCount */\n      sload(0x05)\n        /* \"contracts/KipuBank.sol\":4570:4658  Withdrawn(msg.sender, amount, feeAmount, account.withdrawalCount, totalWithdrawalsCount) */\n      mload(0x40)\n      tag_190\n      swap5\n      swap4\n      swap3\n      swap2\n      swap1\n      tag_191\n      jump\t// in\n    tag_190:\n      mload(0x40)\n      dup1\n      swap2\n      sub\n      swap1\n      log2\n        /* \"contracts/KipuBank.sol\":3770:4665  {... */\n      pop\n      pop\n      pop\n      pop\n        /* \"@openzeppelin/contracts/utils/ReentrancyGuard.sol\":2542:2562  _nonReentrantAfter() */\n      tag_192\n        /* \"@openzeppelin/contracts/utils/ReentrancyGuard.sol\":2542:2560  _nonReentrantAfter */\n      tag_193\n        /* \"@openzeppelin/contracts/utils/ReentrancyGuard.sol\":2542:2562  _nonReentrantAfter() */\n      jump\t// in\n    tag_192:\n        /* \"contracts/KipuBank.sol\":3702:4665  function withdraw(uint256 amount) external nonReentrant withBalance {... */\n      pop\n      jump\t// out\n        /* \"contracts/KipuBank.sol\":1081:1115  uint256 public lockPeriod = 1 days */\n    tag_53:\n      sload(0x09)\n      dup2\n      jump\t// out\n        /* \"contracts/KipuBank.sol\":6535:7281  function withdrawFees() external onlyOwner {... */\n    tag_57:\n        /* \"@openzeppelin/contracts/access/Ownable.sol\":1531:1544  _checkOwner() */\n      tag_195\n        /* \"@openzeppelin/contracts/access/Ownable.sol\":1531:1542  _checkOwner */\n      tag_143\n        /* \"@openzeppelin/contracts/access/Ownable.sol\":1531:1544  _checkOwner() */\n      jump\t// in\n    tag_195:\n        /* \"contracts/KipuBank.sol\":6588:6611  uint256 contractBalance */\n      0x00\n        /* \"contracts/KipuBank.sol\":6614:6619  token */\n      0x02\n      0x00\n      swap1\n      sload\n      swap1\n      0x0100\n      exp\n      swap1\n      div\n      0xffffffffffffffffffffffffffffffffffffffff\n      and\n        /* \"contracts/KipuBank.sol\":6614:6629  token.balanceOf */\n      0xffffffffffffffffffffffffffffffffffffffff\n      and\n      0x70a08231\n        /* \"contracts/KipuBank.sol\":6638:6642  this */\n      address\n        /* \"contracts/KipuBank.sol\":6614:6644  token.balanceOf(address(this)) */\n      mload(0x40)\n      dup3\n      0xffffffff\n      and\n      0xe0\n      shl\n      dup2\n      mstore\n      0x04\n      add\n      tag_197\n      swap2\n      swap1\n      tag_87\n      jump\t// in\n    tag_197:\n      0x20\n      mload(0x40)\n      dup1\n      dup4\n      sub\n      dup2\n      dup7\n      gas\n      staticcall\n      iszero\n      dup1\n      iszero\n      tag_199\n      jumpi\n      returndatacopy(0x00, 0x00, returndatasize)\n      revert(0x00, returndatasize)\n    tag_199:\n      pop\n      pop\n      pop\n      pop\n      mload(0x40)\n      returndatasize\n      not(0x1f)\n      0x1f\n      dup3\n      add\n      and\n      dup3\n      add\n      dup1\n      0x40\n      mstore\n      pop\n      dup2\n      add\n      swap1\n      tag_200\n      swap2\n      swap1\n      tag_201\n      jump\t// in\n    tag_200:\n        /* \"contracts/KipuBank.sol\":6588:6644  uint256 contractBalance = token.balanceOf(address(this)) */\n      swap1\n      pop\n        /* \"contracts/KipuBank.sol\":6654:6679  uint256 totalUserBalances */\n      0x00\n        /* \"contracts/KipuBank.sol\":6682:6683  0 */\n      0x00\n        /* \"contracts/KipuBank.sol\":6654:6683  uint256 totalUserBalances = 0 */\n      swap1\n      pop\n        /* \"contracts/KipuBank.sol\":6852:6874  address[] memory users */\n      0x00\n        /* \"contracts/KipuBank.sol\":6891:6892  0 */\n      0x00\n        /* \"contracts/KipuBank.sol\":6877:6893  new address[](0) */\n      0xffffffffffffffff\n      dup2\n      gt\n      iszero\n      tag_202\n      jumpi\n      tag_203\n      tag_204\n      jump\t// in\n    tag_203:\n    tag_202:\n      mload(0x40)\n      swap1\n      dup1\n      dup3\n      mstore\n      dup1\n      0x20\n      mul\n      0x20\n      add\n      dup3\n      add\n      0x40\n      mstore\n      dup1\n      iszero\n      tag_205\n      jumpi\n      dup2\n      0x20\n      add\n      0x20\n      dup3\n      mul\n      dup1\n      calldatasize\n      dup4\n      calldatacopy\n      dup1\n      dup3\n      add\n      swap2\n      pop\n      pop\n      swap1\n      pop\n    tag_205:\n      pop\n        /* \"contracts/KipuBank.sol\":6852:6893  address[] memory users = new address[](0) */\n      swap1\n      pop\n        /* \"contracts/KipuBank.sol\":6948:6957  uint256 i */\n      0x00\n        /* \"contracts/KipuBank.sol\":6960:6961  0 */\n      0x00\n        /* \"contracts/KipuBank.sol\":6948:6961  uint256 i = 0 */\n      swap1\n      pop\n        /* \"contracts/KipuBank.sol\":6943:7058  for (uint256 i = 0; i < users.length; i++) {... */\n    tag_206:\n        /* \"contracts/KipuBank.sol\":6967:6972  users */\n      dup2\n        /* \"contracts/KipuBank.sol\":6967:6979  users.length */\n      mload\n        /* \"contracts/KipuBank.sol\":6963:6964  i */\n      dup2\n        /* \"contracts/KipuBank.sol\":6963:6979  i < users.length */\n      lt\n        /* \"contracts/KipuBank.sol\":6943:7058  for (uint256 i = 0; i < users.length; i++) {... */\n      iszero\n      tag_207\n      jumpi\n        /* \"contracts/KipuBank.sol\":7021:7029  accounts */\n      0x06\n        /* \"contracts/KipuBank.sol\":7021:7039  accounts[users[i]] */\n      0x00\n        /* \"contracts/KipuBank.sol\":7030:7035  users */\n      dup4\n        /* \"contracts/KipuBank.sol\":7036:7037  i */\n      dup4\n        /* \"contracts/KipuBank.sol\":7030:7038  users[i] */\n      dup2\n      mload\n      dup2\n      lt\n      tag_209\n      jumpi\n      tag_210\n      tag_211\n      jump\t// in\n    tag_210:\n    tag_209:\n      0x20\n      mul\n      0x20\n      add\n      add\n      mload\n        /* \"contracts/KipuBank.sol\":7021:7039  accounts[users[i]] */\n      0xffffffffffffffffffffffffffffffffffffffff\n      and\n      0xffffffffffffffffffffffffffffffffffffffff\n      and\n      dup2\n      mstore\n      0x20\n      add\n      swap1\n      dup2\n      mstore\n      0x20\n      add\n      0x00\n      keccak256\n        /* \"contracts/KipuBank.sol\":7021:7047  accounts[users[i]].balance */\n      0x00\n      add\n      sload\n        /* \"contracts/KipuBank.sol\":7000:7047  totalUserBalances += accounts[users[i]].balance */\n      dup4\n      tag_212\n      swap2\n      swap1\n      tag_166\n      jump\t// in\n    tag_212:\n      swap3\n      pop\n        /* \"contracts/KipuBank.sol\":6981:6984  i++ */\n      dup1\n      dup1\n      0x01\n      add\n      swap2\n      pop\n      pop\n        /* \"contracts/KipuBank.sol\":6943:7058  for (uint256 i = 0; i < users.length; i++) {... */\n      jump(tag_206)\n    tag_207:\n      pop\n        /* \"contracts/KipuBank.sol\":7068:7080  uint256 fees */\n      0x00\n        /* \"contracts/KipuBank.sol\":7101:7118  totalUserBalances */\n      dup3\n        /* \"contracts/KipuBank.sol\":7083:7098  contractBalance */\n      dup5\n        /* \"contracts/KipuBank.sol\":7083:7118  contractBalance - totalUserBalances */\n      tag_213\n      swap2\n      swap1\n      tag_175\n      jump\t// in\n    tag_213:\n        /* \"contracts/KipuBank.sol\":7068:7118  uint256 fees = contractBalance - totalUserBalances */\n      swap1\n      pop\n        /* \"contracts/KipuBank.sol\":7143:7144  0 */\n      0x00\n        /* \"contracts/KipuBank.sol\":7136:7140  fees */\n      dup2\n        /* \"contracts/KipuBank.sol\":7136:7144  fees > 0 */\n      gt\n        /* \"contracts/KipuBank.sol\":7128:7168  require(fees > 0, \"No fees to withdraw\") */\n      tag_214\n      jumpi\n      mload(0x40)\n      0x08c379a000000000000000000000000000000000000000000000000000000000\n      dup2\n      mstore\n      0x04\n      add\n      tag_215\n      swap1\n      tag_216\n      jump\t// in\n    tag_215:\n      mload(0x40)\n      dup1\n      swap2\n      sub\n      swap1\n      revert\n    tag_214:\n        /* \"contracts/KipuBank.sol\":7179:7191  bool success */\n      0x00\n        /* \"contracts/KipuBank.sol\":7194:7199  token */\n      0x02\n      0x00\n      swap1\n      sload\n      swap1\n      0x0100\n      exp\n      swap1\n      div\n      0xffffffffffffffffffffffffffffffffffffffff\n      and\n        /* \"contracts/KipuBank.sol\":7194:7208  token.transfer */\n      0xffffffffffffffffffffffffffffffffffffffff\n      and\n      0xa9059cbb\n        /* \"contracts/KipuBank.sol\":7209:7216  owner() */\n      tag_217\n        /* \"contracts/KipuBank.sol\":7209:7214  owner */\n      tag_85\n        /* \"contracts/KipuBank.sol\":7209:7216  owner() */\n      jump\t// in\n    tag_217:\n        /* \"contracts/KipuBank.sol\":7218:7222  fees */\n      dup5\n        /* \"contracts/KipuBank.sol\":7194:7223  token.transfer(owner(), fees) */\n      mload(0x40)\n      dup4\n      0xffffffff\n      and\n      0xe0\n      shl\n      dup2\n      mstore\n      0x04\n      add\n      tag_218\n      swap3\n      swap2\n      swap1\n      tag_182\n      jump\t// in\n    tag_218:\n      0x20\n      mload(0x40)\n      dup1\n      dup4\n      sub\n      dup2\n      0x00\n      dup8\n      gas\n      call\n      iszero\n      dup1\n      iszero\n      tag_220\n      jumpi\n      returndatacopy(0x00, 0x00, returndatasize)\n      revert(0x00, returndatasize)\n    tag_220:\n      pop\n      pop\n      pop\n      pop\n      mload(0x40)\n      returndatasize\n      not(0x1f)\n      0x1f\n      dup3\n      add\n      and\n      dup3\n      add\n      dup1\n      0x40\n      mstore\n      pop\n      dup2\n      add\n      swap1\n      tag_221\n      swap2\n      swap1\n      tag_186\n      jump\t// in\n    tag_221:\n        /* \"contracts/KipuBank.sol\":7179:7223  bool success = token.transfer(owner(), fees) */\n      swap1\n      pop\n        /* \"contracts/KipuBank.sol\":7241:7248  success */\n      dup1\n        /* \"contracts/KipuBank.sol\":7233:7274  require(success, \"Token transfer failed\") */\n      tag_222\n      jumpi\n      mload(0x40)\n      0x08c379a000000000000000000000000000000000000000000000000000000000\n      dup2\n      mstore\n      0x04\n      add\n      tag_223\n      swap1\n      tag_189\n      jump\t// in\n    tag_223:\n      mload(0x40)\n      dup1\n      swap2\n      sub\n      swap1\n      revert\n    tag_222:\n        /* \"contracts/KipuBank.sol\":6578:7281  {... */\n      pop\n      pop\n      pop\n      pop\n      pop\n        /* \"contracts/KipuBank.sol\":6535:7281  function withdrawFees() external onlyOwner {... */\n      jump\t// out\n        /* \"contracts/KipuBank.sol\":920:963  mapping(address => Account) public accounts */\n    tag_61:\n      mstore(0x20, 0x06)\n      dup1\n      0x00\n      mstore\n      keccak256(0x00, 0x40)\n      0x00\n      swap2\n      pop\n      swap1\n      pop\n      dup1\n      0x00\n      add\n      sload\n      swap1\n      dup1\n      0x01\n      add\n      sload\n      swap1\n      dup1\n      0x02\n      add\n      0x00\n      swap1\n      sload\n      swap1\n      0x0100\n      exp\n      swap1\n      div\n      0xff\n      and\n      swap1\n      dup1\n      0x03\n      add\n      sload\n      swap1\n      dup1\n      0x04\n      add\n      sload\n      swap1\n      pop\n      dup6\n      jump\t// out\n        /* \"contracts/KipuBank.sol\":969:1013  uint256 public minimumDeposit = 100 * 10**18 */\n    tag_66:\n      sload(0x07)\n      dup2\n      jump\t// out\n        /* \"@openzeppelin/contracts/access/Ownable.sol\":2293:2394  function renounceOwnership() public virtual onlyOwner {... */\n    tag_70:\n        /* \"@openzeppelin/contracts/access/Ownable.sol\":1531:1544  _checkOwner() */\n      tag_225\n        /* \"@openzeppelin/contracts/access/Ownable.sol\":1531:1542  _checkOwner */\n      tag_143\n        /* \"@openzeppelin/contracts/access/Ownable.sol\":1531:1544  _checkOwner() */\n      jump\t// in\n    tag_225:\n        /* \"@openzeppelin/contracts/access/Ownable.sol\":2357:2387  _transferOwnership(address(0)) */\n      tag_227\n        /* \"@openzeppelin/contracts/access/Ownable.sol\":2384:2385  0 */\n      0x00\n        /* \"@openzeppelin/contracts/access/Ownable.sol\":2357:2375  _transferOwnership */\n      tag_228\n        /* \"@openzeppelin/contracts/access/Ownable.sol\":2357:2387  _transferOwnership(address(0)) */\n      jump\t// in\n    tag_227:\n        /* \"@openzeppelin/contracts/access/Ownable.sol\":2293:2394  function renounceOwnership() public virtual onlyOwner {... */\n      jump\t// out\n        /* \"contracts/KipuBank.sol\":6134:6283  function setLockPeriod(uint256 _lockPeriod) external onlyOwner {... */\n    tag_74:\n        /* \"@openzeppelin/contracts/access/Ownable.sol\":1531:1544  _checkOwner() */\n      tag_230\n        /* \"@openzeppelin/contracts/access/Ownable.sol\":1531:1542  _checkOwner */\n      tag_143\n        /* \"@openzeppelin/contracts/access/Ownable.sol\":1531:1544  _checkOwner() */\n      jump\t// in\n    tag_230:\n        /* \"contracts/KipuBank.sol\":6220:6231  _lockPeriod */\n      dup1\n        /* \"contracts/KipuBank.sol\":6207:6217  lockPeriod */\n      0x09\n        /* \"contracts/KipuBank.sol\":6207:6231  lockPeriod = _lockPeriod */\n      dup2\n      swap1\n      sstore\n      pop\n        /* \"contracts/KipuBank.sol\":6246:6276  LockPeriodUpdated(_lockPeriod) */\n      0x8249ec545e68f6f1e1230133ca48c704d831a7f8e635ded80f3dd9e99b09bb2f\n        /* \"contracts/KipuBank.sol\":6264:6275  _lockPeriod */\n      dup2\n        /* \"contracts/KipuBank.sol\":6246:6276  LockPeriodUpdated(_lockPeriod) */\n      mload(0x40)\n      tag_232\n      swap2\n      swap1\n      tag_35\n      jump\t// in\n    tag_232:\n      mload(0x40)\n      dup1\n      swap2\n      sub\n      swap1\n      log1\n        /* \"contracts/KipuBank.sol\":6134:6283  function setLockPeriod(uint256 _lockPeriod) external onlyOwner {... */\n      pop\n      jump\t// out\n        /* \"contracts/KipuBank.sol\":392:420  uint256 public totalDeposits */\n    tag_77:\n      sload(0x03)\n      dup2\n      jump\t// out\n        /* \"contracts/KipuBank.sol\":1033:1065  uint256 public withdrawalFee = 5 */\n    tag_81:\n      sload(0x08)\n      dup2\n      jump\t// out\n        /* \"@openzeppelin/contracts/access/Ownable.sol\":1638:1723  function owner() public view virtual returns (address) {... */\n    tag_85:\n        /* \"@openzeppelin/contracts/access/Ownable.sol\":1684:1691  address */\n      0x00\n        /* \"@openzeppelin/contracts/access/Ownable.sol\":1710:1716  _owner */\n      0x00\n      0x00\n      swap1\n      sload\n      swap1\n      0x0100\n      exp\n      swap1\n      div\n      0xffffffffffffffffffffffffffffffffffffffff\n      and\n        /* \"@openzeppelin/contracts/access/Ownable.sol\":1703:1716  return _owner */\n      swap1\n      pop\n        /* \"@openzeppelin/contracts/access/Ownable.sol\":1638:1723  function owner() public view virtual returns (address) {... */\n      swap1\n      jump\t// out\n        /* \"contracts/KipuBank.sol\":5475:5712  function getAccountBalance(address accountOwner)... */\n    tag_91:\n        /* \"contracts/KipuBank.sol\":5571:5578  uint256 */\n      0x00\n        /* \"contracts/KipuBank.sol\":5602:5610  accounts */\n      0x06\n        /* \"contracts/KipuBank.sol\":5602:5624  accounts[accountOwner] */\n      0x00\n        /* \"contracts/KipuBank.sol\":5611:5623  accountOwner */\n      dup4\n        /* \"contracts/KipuBank.sol\":5602:5624  accounts[accountOwner] */\n      0xffffffffffffffffffffffffffffffffffffffff\n      and\n      0xffffffffffffffffffffffffffffffffffffffff\n      and\n      dup2\n      mstore\n      0x20\n      add\n      swap1\n      dup2\n      mstore\n      0x20\n      add\n      0x00\n      keccak256\n        /* \"contracts/KipuBank.sol\":5602:5631  accounts[accountOwner].exists */\n      0x02\n      add\n      0x00\n      swap1\n      sload\n      swap1\n      0x0100\n      exp\n      swap1\n      div\n      0xff\n      and\n        /* \"contracts/KipuBank.sol\":5594:5658  require(accounts[accountOwner].exists, \"Account does not exist\") */\n      tag_235\n      jumpi\n      mload(0x40)\n      0x08c379a000000000000000000000000000000000000000000000000000000000\n      dup2\n      mstore\n      0x04\n      add\n      tag_236\n      swap1\n      tag_140\n      jump\t// in\n    tag_236:\n      mload(0x40)\n      dup1\n      swap2\n      sub\n      swap1\n      revert\n    tag_235:\n        /* \"contracts/KipuBank.sol\":5675:5683  accounts */\n      0x06\n        /* \"contracts/KipuBank.sol\":5675:5697  accounts[accountOwner] */\n      0x00\n        /* \"contracts/KipuBank.sol\":5684:5696  accountOwner */\n      dup4\n        /* \"contracts/KipuBank.sol\":5675:5697  accounts[accountOwner] */\n      0xffffffffffffffffffffffffffffffffffffffff\n      and\n      0xffffffffffffffffffffffffffffffffffffffff\n      and\n      dup2\n      mstore\n      0x20\n      add\n      swap1\n      dup2\n      mstore\n      0x20\n      add\n      0x00\n      keccak256\n        /* \"contracts/KipuBank.sol\":5675:5705  accounts[accountOwner].balance */\n      0x00\n      add\n      sload\n        /* \"contracts/KipuBank.sol\":5668:5705  return accounts[accountOwner].balance */\n      swap1\n      pop\n        /* \"contracts/KipuBank.sol\":5475:5712  function getAccountBalance(address accountOwner)... */\n      swap2\n      swap1\n      pop\n      jump\t// out\n        /* \"contracts/KipuBank.sol\":2353:2715  function createAccount() external {... */\n    tag_95:\n        /* \"contracts/KipuBank.sol\":2406:2414  accounts */\n      0x06\n        /* \"contracts/KipuBank.sol\":2406:2426  accounts[msg.sender] */\n      0x00\n        /* \"contracts/KipuBank.sol\":2415:2425  msg.sender */\n      caller\n        /* \"contracts/KipuBank.sol\":2406:2426  accounts[msg.sender] */\n      0xffffffffffffffffffffffffffffffffffffffff\n      and\n      0xffffffffffffffffffffffffffffffffffffffff\n      and\n      dup2\n      mstore\n      0x20\n      add\n      swap1\n      dup2\n      mstore\n      0x20\n      add\n      0x00\n      keccak256\n        /* \"contracts/KipuBank.sol\":2406:2433  accounts[msg.sender].exists */\n      0x02\n      add\n      0x00\n      swap1\n      sload\n      swap1\n      0x0100\n      exp\n      swap1\n      div\n      0xff\n      and\n        /* \"contracts/KipuBank.sol\":2405:2433  !accounts[msg.sender].exists */\n      iszero\n        /* \"contracts/KipuBank.sol\":2397:2460  require(!accounts[msg.sender].exists, \"Account already exists\") */\n      tag_238\n      jumpi\n      mload(0x40)\n      0x08c379a000000000000000000000000000000000000000000000000000000000\n      dup2\n      mstore\n      0x04\n      add\n      tag_239\n      swap1\n      tag_240\n      jump\t// in\n    tag_239:\n      mload(0x40)\n      dup1\n      swap2\n      sub\n      swap1\n      revert\n    tag_238:\n        /* \"contracts/KipuBank.sol\":2494:2666  Account({... */\n      mload(0x40)\n      dup1\n      0xa0\n      add\n      0x40\n      mstore\n      dup1\n        /* \"contracts/KipuBank.sol\":2525:2526  0 */\n      0x00\n        /* \"contracts/KipuBank.sol\":2494:2666  Account({... */\n      dup2\n      mstore\n      0x20\n      add\n        /* \"contracts/KipuBank.sol\":2562:2563  0 */\n      0x00\n        /* \"contracts/KipuBank.sol\":2494:2666  Account({... */\n      dup2\n      mstore\n      0x20\n      add\n        /* \"contracts/KipuBank.sol\":2585:2589  true */\n      0x01\n        /* \"contracts/KipuBank.sol\":2494:2666  Account({... */\n      iszero\n      iszero\n      dup2\n      mstore\n      0x20\n      add\n        /* \"contracts/KipuBank.sol\":2617:2618  0 */\n      0x00\n        /* \"contracts/KipuBank.sol\":2494:2666  Account({... */\n      dup2\n      mstore\n      0x20\n      add\n        /* \"contracts/KipuBank.sol\":2651:2652  0 */\n      0x00\n        /* \"contracts/KipuBank.sol\":2494:2666  Account({... */\n      dup2\n      mstore\n      pop\n        /* \"contracts/KipuBank.sol\":2471:2479  accounts */\n      0x06\n        /* \"contracts/KipuBank.sol\":2471:2491  accounts[msg.sender] */\n      0x00\n        /* \"contracts/KipuBank.sol\":2480:2490  msg.sender */\n      caller\n        /* \"contracts/KipuBank.sol\":2471:2491  accounts[msg.sender] */\n      0xffffffffffffffffffffffffffffffffffffffff\n      and\n      0xffffffffffffffffffffffffffffffffffffffff\n      and\n      dup2\n      mstore\n      0x20\n      add\n      swap1\n      dup2\n      mstore\n      0x20\n      add\n      0x00\n      keccak256\n        /* \"contracts/KipuBank.sol\":2471:2666  accounts[msg.sender] = Account({... */\n      0x00\n      dup3\n      add\n      mload\n      dup2\n      0x00\n      add\n      sstore\n      0x20\n      dup3\n      add\n      mload\n      dup2\n      0x01\n      add\n      sstore\n      0x40\n      dup3\n      add\n      mload\n      dup2\n      0x02\n      add\n      exp(0x0100, 0x00)\n      dup2\n      sload\n      dup2\n      0xff\n      mul\n      not\n      and\n      swap1\n      dup4\n      iszero\n      iszero\n      mul\n      or\n      swap1\n      sstore\n      pop\n      0x60\n      dup3\n      add\n      mload\n      dup2\n      0x03\n      add\n      sstore\n      0x80\n      dup3\n      add\n      mload\n      dup2\n      0x04\n      add\n      sstore\n      swap1\n      pop\n      pop\n        /* \"contracts/KipuBank.sol\":2697:2707  msg.sender */\n      caller\n        /* \"contracts/KipuBank.sol\":2682:2708  AccountCreated(msg.sender) */\n      0xffffffffffffffffffffffffffffffffffffffff\n      and\n      0x805996f252884581e2f74cf3d2b03564d5ec26ccc90850ae12653dc1b72d1fa2\n      mload(0x40)\n      mload(0x40)\n      dup1\n      swap2\n      sub\n      swap1\n      log2\n        /* \"contracts/KipuBank.sol\":2353:2715  function createAccount() external {... */\n      jump\t// out\n        /* \"contracts/KipuBank.sol\":5897:6128  function setWithdrawalFee(uint256 _withdrawalFee) external onlyOwner {... */\n    tag_99:\n        /* \"@openzeppelin/contracts/access/Ownable.sol\":1531:1544  _checkOwner() */\n      tag_242\n        /* \"@openzeppelin/contracts/access/Ownable.sol\":1531:1542  _checkOwner */\n      tag_143\n        /* \"@openzeppelin/contracts/access/Ownable.sol\":1531:1544  _checkOwner() */\n      jump\t// in\n    tag_242:\n        /* \"contracts/KipuBank.sol\":6002:6004  10 */\n      0x0a\n        /* \"contracts/KipuBank.sol\":5984:5998  _withdrawalFee */\n      dup2\n        /* \"contracts/KipuBank.sol\":5984:6004  _withdrawalFee <= 10 */\n      gt\n      iszero\n        /* \"contracts/KipuBank.sol\":5976:6030  require(_withdrawalFee <= 10, \"Fee cannot exceed 10%\") */\n      tag_244\n      jumpi\n      mload(0x40)\n      0x08c379a000000000000000000000000000000000000000000000000000000000\n      dup2\n      mstore\n      0x04\n      add\n      tag_245\n      swap1\n      tag_246\n      jump\t// in\n    tag_245:\n      mload(0x40)\n      dup1\n      swap2\n      sub\n      swap1\n      revert\n    tag_244:\n        /* \"contracts/KipuBank.sol\":6056:6070  _withdrawalFee */\n      dup1\n        /* \"contracts/KipuBank.sol\":6040:6053  withdrawalFee */\n      0x08\n        /* \"contracts/KipuBank.sol\":6040:6070  withdrawalFee = _withdrawalFee */\n      dup2\n      swap1\n      sstore\n      pop\n        /* \"contracts/KipuBank.sol\":6085:6121  WithdrawalFeeUpdated(_withdrawalFee) */\n      0xe94edcc114da5287ecb30ee8aacf12e6c16b11b8583d7f9e477ab1616e33d53d\n        /* \"contracts/KipuBank.sol\":6106:6120  _withdrawalFee */\n      dup2\n        /* \"contracts/KipuBank.sol\":6085:6121  WithdrawalFeeUpdated(_withdrawalFee) */\n      mload(0x40)\n      tag_247\n      swap2\n      swap1\n      tag_35\n      jump\t// in\n    tag_247:\n      mload(0x40)\n      dup1\n      swap2\n      sub\n      swap1\n      log1\n        /* \"contracts/KipuBank.sol\":5897:6128  function setWithdrawalFee(uint256 _withdrawalFee) external onlyOwner {... */\n      pop\n      jump\t// out\n        /* \"contracts/KipuBank.sol\":5243:5350  function getTotalDepositsCount() external view returns (uint256) {... */\n    tag_102:\n        /* \"contracts/KipuBank.sol\":5299:5306  uint256 */\n      0x00\n        /* \"contracts/KipuBank.sol\":5325:5343  totalDepositsCount */\n      sload(0x04)\n        /* \"contracts/KipuBank.sol\":5318:5343  return totalDepositsCount */\n      swap1\n      pop\n        /* \"contracts/KipuBank.sol\":5243:5350  function getTotalDepositsCount() external view returns (uint256) {... */\n      swap1\n      jump\t// out\n        /* \"contracts/KipuBank.sol\":2721:3531  function deposit(uint256 amount) external nonReentrant payable {... */\n    tag_106:\n        /* \"@openzeppelin/contracts/utils/ReentrancyGuard.sol\":2500:2521  _nonReentrantBefore() */\n      tag_250\n        /* \"@openzeppelin/contracts/utils/ReentrancyGuard.sol\":2500:2519  _nonReentrantBefore */\n      tag_151\n        /* \"@openzeppelin/contracts/utils/ReentrancyGuard.sol\":2500:2521  _nonReentrantBefore() */\n      jump\t// in\n    tag_250:\n        /* \"contracts/KipuBank.sol\":2802:2810  accounts */\n      0x06\n        /* \"contracts/KipuBank.sol\":2802:2822  accounts[msg.sender] */\n      0x00\n        /* \"contracts/KipuBank.sol\":2811:2821  msg.sender */\n      caller\n        /* \"contracts/KipuBank.sol\":2802:2822  accounts[msg.sender] */\n      0xffffffffffffffffffffffffffffffffffffffff\n      and\n      0xffffffffffffffffffffffffffffffffffffffff\n      and\n      dup2\n      mstore\n      0x20\n      add\n      swap1\n      dup2\n      mstore\n      0x20\n      add\n      0x00\n      keccak256\n        /* \"contracts/KipuBank.sol\":2802:2829  accounts[msg.sender].exists */\n      0x02\n      add\n      0x00\n      swap1\n      sload\n      swap1\n      0x0100\n      exp\n      swap1\n      div\n      0xff\n      and\n        /* \"contracts/KipuBank.sol\":2794:2856  require(accounts[msg.sender].exists, \"Account does not exist\") */\n      tag_252\n      jumpi\n      mload(0x40)\n      0x08c379a000000000000000000000000000000000000000000000000000000000\n      dup2\n      mstore\n      0x04\n      add\n      tag_253\n      swap1\n      tag_140\n      jump\t// in\n    tag_253:\n      mload(0x40)\n      dup1\n      swap2\n      sub\n      swap1\n      revert\n    tag_252:\n        /* \"contracts/KipuBank.sol\":2884:2898  minimumDeposit */\n      sload(0x07)\n        /* \"contracts/KipuBank.sol\":2874:2880  amount */\n      dup2\n        /* \"contracts/KipuBank.sol\":2874:2898  amount >= minimumDeposit */\n      lt\n      iszero\n        /* \"contracts/KipuBank.sol\":2866:2931  require(amount >= minimumDeposit, \"Amount below minimum deposit\") */\n      tag_254\n      jumpi\n      mload(0x40)\n      0x08c379a000000000000000000000000000000000000000000000000000000000\n      dup2\n      mstore\n      0x04\n      add\n      tag_255\n      swap1\n      tag_256\n      jump\t// in\n    tag_255:\n      mload(0x40)\n      dup1\n      swap2\n      sub\n      swap1\n      revert\n    tag_254:\n        /* \"contracts/KipuBank.sol\":2988:2995  bankCap */\n      immutable(\"0xeaeba2e6d5db55ec0e36d29579da585b3cbc07168dc9c1795186a4d126c8f86b\")\n        /* \"contracts/KipuBank.sol\":2978:2984  amount */\n      dup2\n        /* \"contracts/KipuBank.sol\":2962:2975  totalDeposits */\n      sload(0x03)\n        /* \"contracts/KipuBank.sol\":2962:2984  totalDeposits + amount */\n      tag_257\n      swap2\n      swap1\n      tag_166\n      jump\t// in\n    tag_257:\n        /* \"contracts/KipuBank.sol\":2962:2995  totalDeposits + amount <= bankCap */\n      gt\n      iszero\n        /* \"contracts/KipuBank.sol\":2941:3055  require(... */\n      tag_258\n      jumpi\n      mload(0x40)\n      0x08c379a000000000000000000000000000000000000000000000000000000000\n      dup2\n      mstore\n      0x04\n      add\n      tag_259\n      swap1\n      tag_260\n      jump\t// in\n    tag_259:\n      mload(0x40)\n      dup1\n      swap2\n      sub\n      swap1\n      revert\n    tag_258:\n        /* \"contracts/KipuBank.sol\":3066:3078  bool success */\n      0x00\n        /* \"contracts/KipuBank.sol\":3081:3086  token */\n      0x02\n      0x00\n      swap1\n      sload\n      swap1\n      0x0100\n      exp\n      swap1\n      div\n      0xffffffffffffffffffffffffffffffffffffffff\n      and\n        /* \"contracts/KipuBank.sol\":3081:3099  token.transferFrom */\n      0xffffffffffffffffffffffffffffffffffffffff\n      and\n      0x23b872dd\n        /* \"contracts/KipuBank.sol\":3100:3110  msg.sender */\n      caller\n        /* \"contracts/KipuBank.sol\":3120:3124  this */\n      address\n        /* \"contracts/KipuBank.sol\":3127:3133  amount */\n      dup6\n        /* \"contracts/KipuBank.sol\":3081:3134  token.transferFrom(msg.sender, address(this), amount) */\n      mload(0x40)\n      dup5\n      0xffffffff\n      and\n      0xe0\n      shl\n      dup2\n      mstore\n      0x04\n      add\n      tag_261\n      swap4\n      swap3\n      swap2\n      swap1\n      tag_262\n      jump\t// in\n    tag_261:\n      0x20\n      mload(0x40)\n      dup1\n      dup4\n      sub\n      dup2\n      0x00\n      dup8\n      gas\n      call\n      iszero\n      dup1\n      iszero\n      tag_264\n      jumpi\n      returndatacopy(0x00, 0x00, returndatasize)\n      revert(0x00, returndatasize)\n    tag_264:\n      pop\n      pop\n      pop\n      pop\n      mload(0x40)\n      returndatasize\n      not(0x1f)\n      0x1f\n      dup3\n      add\n      and\n      dup3\n      add\n      dup1\n      0x40\n      mstore\n      pop\n      dup2\n      add\n      swap1\n      tag_265\n      swap2\n      swap1\n      tag_186\n      jump\t// in\n    tag_265:\n        /* \"contracts/KipuBank.sol\":3066:3134  bool success = token.transferFrom(msg.sender, address(this), amount) */\n      swap1\n      pop\n        /* \"contracts/KipuBank.sol\":3152:3159  success */\n      dup1\n        /* \"contracts/KipuBank.sol\":3144:3185  require(success, \"Token transfer failed\") */\n      tag_266\n      jumpi\n      mload(0x40)\n      0x08c379a000000000000000000000000000000000000000000000000000000000\n      dup2\n      mstore\n      0x04\n      add\n      tag_267\n      swap1\n      tag_189\n      jump\t// in\n    tag_267:\n      mload(0x40)\n      dup1\n      swap2\n      sub\n      swap1\n      revert\n    tag_266:\n        /* \"contracts/KipuBank.sol\":3228:3234  amount */\n      dup2\n        /* \"contracts/KipuBank.sol\":3196:3204  accounts */\n      0x06\n        /* \"contracts/KipuBank.sol\":3196:3216  accounts[msg.sender] */\n      0x00\n        /* \"contracts/KipuBank.sol\":3205:3215  msg.sender */\n      caller\n        /* \"contracts/KipuBank.sol\":3196:3216  accounts[msg.sender] */\n      0xffffffffffffffffffffffffffffffffffffffff\n      and\n      0xffffffffffffffffffffffffffffffffffffffff\n      and\n      dup2\n      mstore\n      0x20\n      add\n      swap1\n      dup2\n      mstore\n      0x20\n      add\n      0x00\n      keccak256\n        /* \"contracts/KipuBank.sol\":3196:3224  accounts[msg.sender].balance */\n      0x00\n      add\n      0x00\n        /* \"contracts/KipuBank.sol\":3196:3234  accounts[msg.sender].balance += amount */\n      dup3\n      dup3\n      sload\n      tag_268\n      swap2\n      swap1\n      tag_166\n      jump\t// in\n    tag_268:\n      swap3\n      pop\n      pop\n      dup2\n      swap1\n      sstore\n      pop\n        /* \"contracts/KipuBank.sol\":3288:3303  block.timestamp */\n      timestamp\n        /* \"contracts/KipuBank.sol\":3244:3252  accounts */\n      0x06\n        /* \"contracts/KipuBank.sol\":3244:3264  accounts[msg.sender] */\n      0x00\n        /* \"contracts/KipuBank.sol\":3253:3263  msg.sender */\n      caller\n        /* \"contracts/KipuBank.sol\":3244:3264  accounts[msg.sender] */\n      0xffffffffffffffffffffffffffffffffffffffff\n      and\n      0xffffffffffffffffffffffffffffffffffffffff\n      and\n      dup2\n      mstore\n      0x20\n      add\n      swap1\n      dup2\n      mstore\n      0x20\n      add\n      0x00\n      keccak256\n        /* \"contracts/KipuBank.sol\":3244:3285  accounts[msg.sender].lastDepositTimestamp */\n      0x01\n      add\n        /* \"contracts/KipuBank.sol\":3244:3303  accounts[msg.sender].lastDepositTimestamp = block.timestamp */\n      dup2\n      swap1\n      sstore\n      pop\n        /* \"contracts/KipuBank.sol\":3350:3351  1 */\n      0x01\n        /* \"contracts/KipuBank.sol\":3313:3321  accounts */\n      0x06\n        /* \"contracts/KipuBank.sol\":3313:3333  accounts[msg.sender] */\n      0x00\n        /* \"contracts/KipuBank.sol\":3322:3332  msg.sender */\n      caller\n        /* \"contracts/KipuBank.sol\":3313:3333  accounts[msg.sender] */\n      0xffffffffffffffffffffffffffffffffffffffff\n      and\n      0xffffffffffffffffffffffffffffffffffffffff\n      and\n      dup2\n      mstore\n      0x20\n      add\n      swap1\n      dup2\n      mstore\n      0x20\n      add\n      0x00\n      keccak256\n        /* \"contracts/KipuBank.sol\":3313:3346  accounts[msg.sender].depositCount */\n      0x03\n      add\n      0x00\n        /* \"contracts/KipuBank.sol\":3313:3351  accounts[msg.sender].depositCount += 1 */\n      dup3\n      dup3\n      sload\n      tag_269\n      swap2\n      swap1\n      tag_166\n      jump\t// in\n    tag_269:\n      swap3\n      pop\n      pop\n      dup2\n      swap1\n      sstore\n      pop\n        /* \"contracts/KipuBank.sol\":3378:3384  amount */\n      dup2\n        /* \"contracts/KipuBank.sol\":3361:3374  totalDeposits */\n      0x03\n      0x00\n        /* \"contracts/KipuBank.sol\":3361:3384  totalDeposits += amount */\n      dup3\n      dup3\n      sload\n      tag_270\n      swap2\n      swap1\n      tag_166\n      jump\t// in\n    tag_270:\n      swap3\n      pop\n      pop\n      dup2\n      swap1\n      sstore\n      pop\n        /* \"contracts/KipuBank.sol\":3394:3424  _incrementTotalDepositsCount() */\n      tag_271\n        /* \"contracts/KipuBank.sol\":3394:3422  _incrementTotalDepositsCount */\n      tag_272\n        /* \"contracts/KipuBank.sol\":3394:3424  _incrementTotalDepositsCount() */\n      jump\t// in\n    tag_271:\n        /* \"contracts/KipuBank.sol\":3450:3460  msg.sender */\n      caller\n        /* \"contracts/KipuBank.sol\":3440:3524  Deposited(msg.sender, amount, accounts[msg.sender].depositCount, totalDepositsCount) */\n      0xffffffffffffffffffffffffffffffffffffffff\n      and\n      0x91ede45f04a37a7c170f5c1207df3b6bc748dc1e04ad5e917a241d0f52feada3\n        /* \"contracts/KipuBank.sol\":3462:3468  amount */\n      dup4\n        /* \"contracts/KipuBank.sol\":3470:3478  accounts */\n      0x06\n        /* \"contracts/KipuBank.sol\":3470:3490  accounts[msg.sender] */\n      0x00\n        /* \"contracts/KipuBank.sol\":3479:3489  msg.sender */\n      caller\n        /* \"contracts/KipuBank.sol\":3470:3490  accounts[msg.sender] */\n      0xffffffffffffffffffffffffffffffffffffffff\n      and\n      0xffffffffffffffffffffffffffffffffffffffff\n      and\n      dup2\n      mstore\n      0x20\n      add\n      swap1\n      dup2\n      mstore\n      0x20\n      add\n      0x00\n      keccak256\n        /* \"contracts/KipuBank.sol\":3470:3503  accounts[msg.sender].depositCount */\n      0x03\n      add\n      sload\n        /* \"contracts/KipuBank.sol\":3505:3523  totalDepositsCount */\n      sload(0x04)\n        /* \"contracts/KipuBank.sol\":3440:3524  Deposited(msg.sender, amount, accounts[msg.sender].depositCount, totalDepositsCount) */\n      mload(0x40)\n      tag_273\n      swap4\n      swap3\n      swap2\n      swap1\n      tag_274\n      jump\t// in\n    tag_273:\n      mload(0x40)\n      dup1\n      swap2\n      sub\n      swap1\n      log2\n        /* \"contracts/KipuBank.sol\":2784:3531  {... */\n      pop\n        /* \"@openzeppelin/contracts/utils/ReentrancyGuard.sol\":2542:2562  _nonReentrantAfter() */\n      tag_275\n        /* \"@openzeppelin/contracts/utils/ReentrancyGuard.sol\":2542:2560  _nonReentrantAfter */\n      tag_193\n        /* \"@openzeppelin/contracts/utils/ReentrancyGuard.sol\":2542:2562  _nonReentrantAfter() */\n      jump\t// in\n    tag_275:\n        /* \"contracts/KipuBank.sol\":2721:3531  function deposit(uint256 amount) external nonReentrant payable {... */\n      pop\n      jump\t// out\n        /* \"contracts/KipuBank.sol\":5356:5469  function getTotalWithdrawalsCount() external view returns (uint256) {... */\n    tag_109:\n        /* \"contracts/KipuBank.sol\":5415:5422  uint256 */\n      0x00\n        /* \"contracts/KipuBank.sol\":5441:5462  totalWithdrawalsCount */\n      sload(0x05)\n        /* \"contracts/KipuBank.sol\":5434:5462  return totalWithdrawalsCount */\n      swap1\n      pop\n        /* \"contracts/KipuBank.sol\":5356:5469  function getTotalWithdrawalsCount() external view returns (uint256) {... */\n      swap1\n      jump\t// out\n        /* \"contracts/KipuBank.sol\":515:548  uint256 public totalDepositsCount */\n    tag_113:\n      sload(0x04)\n      dup2\n      jump\t// out\n        /* \"contracts/KipuBank.sol\":5039:5237  function getUserWithdrawalCount(address user) external view returns (uint256) {... */\n    tag_118:\n        /* \"contracts/KipuBank.sol\":5108:5115  uint256 */\n      0x00\n        /* \"contracts/KipuBank.sol\":5135:5143  accounts */\n      0x06\n        /* \"contracts/KipuBank.sol\":5135:5149  accounts[user] */\n      0x00\n        /* \"contracts/KipuBank.sol\":5144:5148  user */\n      dup4\n        /* \"contracts/KipuBank.sol\":5135:5149  accounts[user] */\n      0xffffffffffffffffffffffffffffffffffffffff\n      and\n      0xffffffffffffffffffffffffffffffffffffffff\n      and\n      dup2\n      mstore\n      0x20\n      add\n      swap1\n      dup2\n      mstore\n      0x20\n      add\n      0x00\n      keccak256\n        /* \"contracts/KipuBank.sol\":5135:5156  accounts[user].exists */\n      0x02\n      add\n      0x00\n      swap1\n      sload\n      swap1\n      0x0100\n      exp\n      swap1\n      div\n      0xff\n      and\n        /* \"contracts/KipuBank.sol\":5127:5183  require(accounts[user].exists, \"Account does not exist\") */\n      tag_278\n      jumpi\n      mload(0x40)\n      0x08c379a000000000000000000000000000000000000000000000000000000000\n      dup2\n      mstore\n      0x04\n      add\n      tag_279\n      swap1\n      tag_140\n      jump\t// in\n    tag_279:\n      mload(0x40)\n      dup1\n      swap2\n      sub\n      swap1\n      revert\n    tag_278:\n        /* \"contracts/KipuBank.sol\":5200:5208  accounts */\n      0x06\n        /* \"contracts/KipuBank.sol\":5200:5214  accounts[user] */\n      0x00\n        /* \"contracts/KipuBank.sol\":5209:5213  user */\n      dup4\n        /* \"contracts/KipuBank.sol\":5200:5214  accounts[user] */\n      0xffffffffffffffffffffffffffffffffffffffff\n      and\n      0xffffffffffffffffffffffffffffffffffffffff\n      and\n      dup2\n      mstore\n      0x20\n      add\n      swap1\n      dup2\n      mstore\n      0x20\n      add\n      0x00\n      keccak256\n        /* \"contracts/KipuBank.sol\":5200:5230  accounts[user].withdrawalCount */\n      0x04\n      add\n      sload\n        /* \"contracts/KipuBank.sol\":5193:5230  return accounts[user].withdrawalCount */\n      swap1\n      pop\n        /* \"contracts/KipuBank.sol\":5039:5237  function getUserWithdrawalCount(address user) external view returns (uint256) {... */\n      swap2\n      swap1\n      pop\n      jump\t// out\n        /* \"contracts/KipuBank.sol\":5718:5891  function setMinimumDeposit(uint256 _minimumDeposit) external onlyOwner {... */\n    tag_123:\n        /* \"@openzeppelin/contracts/access/Ownable.sol\":1531:1544  _checkOwner() */\n      tag_281\n        /* \"@openzeppelin/contracts/access/Ownable.sol\":1531:1542  _checkOwner */\n      tag_143\n        /* \"@openzeppelin/contracts/access/Ownable.sol\":1531:1544  _checkOwner() */\n      jump\t// in\n    tag_281:\n        /* \"contracts/KipuBank.sol\":5816:5831  _minimumDeposit */\n      dup1\n        /* \"contracts/KipuBank.sol\":5799:5813  minimumDeposit */\n      0x07\n        /* \"contracts/KipuBank.sol\":5799:5831  minimumDeposit = _minimumDeposit */\n      dup2\n      swap1\n      sstore\n      pop\n        /* \"contracts/KipuBank.sol\":5846:5884  MinimumDepositUpdated(_minimumDeposit) */\n      0xd939191be6b640bc40ef7c6a17554ac82dfea02602fcacfad13dcd71d0abe6d0\n        /* \"contracts/KipuBank.sol\":5868:5883  _minimumDeposit */\n      dup2\n        /* \"contracts/KipuBank.sol\":5846:5884  MinimumDepositUpdated(_minimumDeposit) */\n      mload(0x40)\n      tag_283\n      swap2\n      swap1\n      tag_35\n      jump\t// in\n    tag_283:\n      mload(0x40)\n      dup1\n      swap2\n      sub\n      swap1\n      log1\n        /* \"contracts/KipuBank.sol\":5718:5891  function setMinimumDeposit(uint256 _minimumDeposit) external onlyOwner {... */\n      pop\n      jump\t// out\n        /* \"contracts/KipuBank.sol\":306:338  uint256 public immutable bankCap */\n    tag_126:\n      immutable(\"0xeaeba2e6d5db55ec0e36d29579da585b3cbc07168dc9c1795186a4d126c8f86b\")\n      dup2\n      jump\t// out\n        /* \"@openzeppelin/contracts/access/Ownable.sol\":2543:2758  function transferOwnership(address newOwner) public virtual onlyOwner {... */\n    tag_131:\n        /* \"@openzeppelin/contracts/access/Ownable.sol\":1531:1544  _checkOwner() */\n      tag_285\n        /* \"@openzeppelin/contracts/access/Ownable.sol\":1531:1542  _checkOwner */\n      tag_143\n        /* \"@openzeppelin/contracts/access/Ownable.sol\":1531:1544  _checkOwner() */\n      jump\t// in\n    tag_285:\n        /* \"@openzeppelin/contracts/access/Ownable.sol\":2647:2648  0 */\n      0x00\n        /* \"@openzeppelin/contracts/access/Ownable.sol\":2627:2649  newOwner == address(0) */\n      0xffffffffffffffffffffffffffffffffffffffff\n      and\n        /* \"@openzeppelin/contracts/access/Ownable.sol\":2627:2635  newOwner */\n      dup2\n        /* \"@openzeppelin/contracts/access/Ownable.sol\":2627:2649  newOwner == address(0) */\n      0xffffffffffffffffffffffffffffffffffffffff\n      and\n      sub\n        /* \"@openzeppelin/contracts/access/Ownable.sol\":2623:2714  if (newOwner == address(0)) {... */\n      tag_287\n      jumpi\n        /* \"@openzeppelin/contracts/access/Ownable.sol\":2700:2701  0 */\n      0x00\n        /* \"@openzeppelin/contracts/access/Ownable.sol\":2672:2703  OwnableInvalidOwner(address(0)) */\n      mload(0x40)\n      0x1e4fbdf700000000000000000000000000000000000000000000000000000000\n      dup2\n      mstore\n      0x04\n      add\n      tag_288\n      swap2\n      swap1\n      tag_87\n      jump\t// in\n    tag_288:\n      mload(0x40)\n      dup1\n      swap2\n      sub\n      swap1\n      revert\n        /* \"@openzeppelin/contracts/access/Ownable.sol\":2623:2714  if (newOwner == address(0)) {... */\n    tag_287:\n        /* \"@openzeppelin/contracts/access/Ownable.sol\":2723:2751  _transferOwnership(newOwner) */\n      tag_289\n        /* \"@openzeppelin/contracts/access/Ownable.sol\":2742:2750  newOwner */\n      dup2\n        /* \"@openzeppelin/contracts/access/Ownable.sol\":2723:2741  _transferOwnership */\n      tag_228\n        /* \"@openzeppelin/contracts/access/Ownable.sol\":2723:2751  _transferOwnership(newOwner) */\n      jump\t// in\n    tag_289:\n        /* \"@openzeppelin/contracts/access/Ownable.sol\":2543:2758  function transferOwnership(address newOwner) public virtual onlyOwner {... */\n      pop\n      jump\t// out\n        /* \"contracts/KipuBank.sol\":281:300  IERC20 public token */\n    tag_134:\n      0x02\n      0x00\n      swap1\n      sload\n      swap1\n      0x0100\n      exp\n      swap1\n      div\n      0xffffffffffffffffffffffffffffffffffffffff\n      and\n      dup2\n      jump\t// out\n        /* \"@openzeppelin/contracts/access/Ownable.sol\":1796:1958  function _checkOwner() internal view virtual {... */\n    tag_143:\n        /* \"@openzeppelin/contracts/access/Ownable.sol\":1866:1878  _msgSender() */\n      tag_291\n        /* \"@openzeppelin/contracts/access/Ownable.sol\":1866:1876  _msgSender */\n      tag_292\n        /* \"@openzeppelin/contracts/access/Ownable.sol\":1866:1878  _msgSender() */\n      jump\t// in\n    tag_291:\n        /* \"@openzeppelin/contracts/access/Ownable.sol\":1855:1878  owner() != _msgSender() */\n      0xffffffffffffffffffffffffffffffffffffffff\n      and\n        /* \"@openzeppelin/contracts/access/Ownable.sol\":1855:1862  owner() */\n      tag_293\n        /* \"@openzeppelin/contracts/access/Ownable.sol\":1855:1860  owner */\n      tag_85\n        /* \"@openzeppelin/contracts/access/Ownable.sol\":1855:1862  owner() */\n      jump\t// in\n    tag_293:\n        /* \"@openzeppelin/contracts/access/Ownable.sol\":1855:1878  owner() != _msgSender() */\n      0xffffffffffffffffffffffffffffffffffffffff\n      and\n      eq\n        /* \"@openzeppelin/contracts/access/Ownable.sol\":1851:1952  if (owner() != _msgSender()) {... */\n      tag_294\n      jumpi\n        /* \"@openzeppelin/contracts/access/Ownable.sol\":1928:1940  _msgSender() */\n      tag_295\n        /* \"@openzeppelin/contracts/access/Ownable.sol\":1928:1938  _msgSender */\n      tag_292\n        /* \"@openzeppelin/contracts/access/Ownable.sol\":1928:1940  _msgSender() */\n      jump\t// in\n    tag_295:\n        /* \"@openzeppelin/contracts/access/Ownable.sol\":1901:1941  OwnableUnauthorizedAccount(_msgSender()) */\n      mload(0x40)\n      0x118cdaa700000000000000000000000000000000000000000000000000000000\n      dup2\n      mstore\n      0x04\n      add\n      tag_296\n      swap2\n      swap1\n      tag_87\n      jump\t// in\n    tag_296:\n      mload(0x40)\n      dup1\n      swap2\n      sub\n      swap1\n      revert\n        /* \"@openzeppelin/contracts/access/Ownable.sol\":1851:1952  if (owner() != _msgSender()) {... */\n    tag_294:\n        /* \"@openzeppelin/contracts/access/Ownable.sol\":1796:1958  function _checkOwner() internal view virtual {... */\n      jump\t// out\n        /* \"@openzeppelin/contracts/utils/ReentrancyGuard.sol\":2575:2882  function _nonReentrantBefore() private {... */\n    tag_151:\n        /* \"@openzeppelin/contracts/utils/ReentrancyGuard.sol\":1899:1900  2 */\n      0x02\n        /* \"@openzeppelin/contracts/utils/ReentrancyGuard.sol\":2702:2709  _status */\n      sload(0x01)\n        /* \"@openzeppelin/contracts/utils/ReentrancyGuard.sol\":2702:2720  _status == ENTERED */\n      sub\n        /* \"@openzeppelin/contracts/utils/ReentrancyGuard.sol\":2698:2784  if (_status == ENTERED) {... */\n      tag_298\n      jumpi\n        /* \"@openzeppelin/contracts/utils/ReentrancyGuard.sol\":2743:2773  ReentrancyGuardReentrantCall() */\n      mload(0x40)\n      0x3ee5aeb500000000000000000000000000000000000000000000000000000000\n      dup2\n      mstore\n      0x04\n      add\n      mload(0x40)\n      dup1\n      swap2\n      sub\n      swap1\n      revert\n        /* \"@openzeppelin/contracts/utils/ReentrancyGuard.sol\":2698:2784  if (_status == ENTERED) {... */\n    tag_298:\n        /* \"@openzeppelin/contracts/utils/ReentrancyGuard.sol\":1899:1900  2 */\n      0x02\n        /* \"@openzeppelin/contracts/utils/ReentrancyGuard.sol\":2858:2865  _status */\n      0x01\n        /* \"@openzeppelin/contracts/utils/ReentrancyGuard.sol\":2858:2875  _status = ENTERED */\n      dup2\n      swap1\n      sstore\n      pop\n        /* \"@openzeppelin/contracts/utils/ReentrancyGuard.sol\":2575:2882  function _nonReentrantBefore() private {... */\n      jump\t// out\n        /* \"contracts/KipuBank.sol\":4742:4835  function _incrementTotalWithdrawlsCount() private {... */\n    tag_180:\n        /* \"contracts/KipuBank.sol\":4827:4828  1 */\n      0x01\n        /* \"contracts/KipuBank.sol\":4802:4823  totalWithdrawalsCount */\n      0x05\n      0x00\n        /* \"contracts/KipuBank.sol\":4802:4828  totalWithdrawalsCount += 1 */\n      dup3\n      dup3\n      sload\n      tag_300\n      swap2\n      swap1\n      tag_166\n      jump\t// in\n    tag_300:\n      swap3\n      pop\n      pop\n      dup2\n      swap1\n      sstore\n      pop\n        /* \"contracts/KipuBank.sol\":4742:4835  function _incrementTotalWithdrawlsCount() private {... */\n      jump\t// out\n        /* \"@openzeppelin/contracts/utils/ReentrancyGuard.sol\":2888:3096  function _nonReentrantAfter() private {... */\n    tag_193:\n        /* \"@openzeppelin/contracts/utils/ReentrancyGuard.sol\":1857:1858  1 */\n      0x01\n        /* \"@openzeppelin/contracts/utils/ReentrancyGuard.sol\":3068:3075  _status */\n      dup1\n        /* \"@openzeppelin/contracts/utils/ReentrancyGuard.sol\":3068:3089  _status = NOT_ENTERED */\n      dup2\n      swap1\n      sstore\n      pop\n        /* \"@openzeppelin/contracts/utils/ReentrancyGuard.sol\":2888:3096  function _nonReentrantAfter() private {... */\n      jump\t// out\n        /* \"@openzeppelin/contracts/access/Ownable.sol\":2912:3099  function _transferOwnership(address newOwner) internal virtual {... */\n    tag_228:\n        /* \"@openzeppelin/contracts/access/Ownable.sol\":2985:3001  address oldOwner */\n      0x00\n        /* \"@openzeppelin/contracts/access/Ownable.sol\":3004:3010  _owner */\n      0x00\n      0x00\n      swap1\n      sload\n      swap1\n      0x0100\n      exp\n      swap1\n      div\n      0xffffffffffffffffffffffffffffffffffffffff\n      and\n        /* \"@openzeppelin/contracts/access/Ownable.sol\":2985:3010  address oldOwner = _owner */\n      swap1\n      pop\n        /* \"@openzeppelin/contracts/access/Ownable.sol\":3029:3037  newOwner */\n      dup2\n        /* \"@openzeppelin/contracts/access/Ownable.sol\":3020:3026  _owner */\n      0x00\n      0x00\n        /* \"@openzeppelin/contracts/access/Ownable.sol\":3020:3037  _owner = newOwner */\n      0x0100\n      exp\n      dup2\n      sload\n      dup2\n      0xffffffffffffffffffffffffffffffffffffffff\n      mul\n      not\n      and\n      swap1\n      dup4\n      0xffffffffffffffffffffffffffffffffffffffff\n      and\n      mul\n      or\n      swap1\n      sstore\n      pop\n        /* \"@openzeppelin/contracts/access/Ownable.sol\":3083:3091  newOwner */\n      dup2\n        /* \"@openzeppelin/contracts/access/Ownable.sol\":3052:3092  OwnershipTransferred(oldOwner, newOwner) */\n      0xffffffffffffffffffffffffffffffffffffffff\n      and\n        /* \"@openzeppelin/contracts/access/Ownable.sol\":3073:3081  oldOwner */\n      dup2\n        /* \"@openzeppelin/contracts/access/Ownable.sol\":3052:3092  OwnershipTransferred(oldOwner, newOwner) */\n      0xffffffffffffffffffffffffffffffffffffffff\n      and\n      0x8be0079c531659141344cd1fd0a4f28419497f9722a3daafe3b4186f6b6457e0\n      mload(0x40)\n      mload(0x40)\n      dup1\n      swap2\n      sub\n      swap1\n      log3\n        /* \"@openzeppelin/contracts/access/Ownable.sol\":2975:3099  {... */\n      pop\n        /* \"@openzeppelin/contracts/access/Ownable.sol\":2912:3099  function _transferOwnership(address newOwner) internal virtual {... */\n      pop\n      jump\t// out\n        /* \"contracts/KipuBank.sol\":3608:3696  function _incrementTotalDepositsCount() private {... */\n    tag_272:\n        /* \"contracts/KipuBank.sol\":3688:3689  1 */\n      0x01\n        /* \"contracts/KipuBank.sol\":3666:3684  totalDepositsCount */\n      0x04\n      0x00\n        /* \"contracts/KipuBank.sol\":3666:3689  totalDepositsCount += 1 */\n      dup3\n      dup3\n      sload\n      tag_304\n      swap2\n      swap1\n      tag_166\n      jump\t// in\n    tag_304:\n      swap3\n      pop\n      pop\n      dup2\n      swap1\n      sstore\n      pop\n        /* \"contracts/KipuBank.sol\":3608:3696  function _incrementTotalDepositsCount() private {... */\n      jump\t// out\n        /* \"@openzeppelin/contracts/utils/Context.sol\":656:752  function _msgSender() internal view virtual returns (address) {... */\n    tag_292:\n        /* \"@openzeppelin/contracts/utils/Context.sol\":709:716  address */\n      0x00\n        /* \"@openzeppelin/contracts/utils/Context.sol\":735:745  msg.sender */\n      caller\n        /* \"@openzeppelin/contracts/utils/Context.sol\":728:745  return msg.sender */\n      swap1\n      pop\n        /* \"@openzeppelin/contracts/utils/Context.sol\":656:752  function _msgSender() internal view virtual returns (address) {... */\n      swap1\n      jump\t// out\n        /* \"#utility.yul\":7:84   */\n    tag_306:\n        /* \"#utility.yul\":44:51   */\n      0x00\n        /* \"#utility.yul\":73:78   */\n      dup2\n        /* \"#utility.yul\":62:78   */\n      swap1\n      pop\n        /* \"#utility.yul\":7:84   */\n      swap2\n      swap1\n      pop\n      jump\t// out\n        /* \"#utility.yul\":90:208   */\n    tag_307:\n        /* \"#utility.yul\":177:201   */\n      tag_359\n        /* \"#utility.yul\":195:200   */\n      dup2\n        /* \"#utility.yul\":177:201   */\n      tag_306\n      jump\t// in\n    tag_359:\n        /* \"#utility.yul\":172:175   */\n      dup3\n        /* \"#utility.yul\":165:202   */\n      mstore\n        /* \"#utility.yul\":90:208   */\n      pop\n      pop\n      jump\t// out\n        /* \"#utility.yul\":214:436   */\n    tag_35:\n        /* \"#utility.yul\":307:311   */\n      0x00\n        /* \"#utility.yul\":345:347   */\n      0x20\n        /* \"#utility.yul\":334:343   */\n      dup3\n        /* \"#utility.yul\":330:348   */\n      add\n        /* \"#utility.yul\":322:348   */\n      swap1\n      pop\n        /* \"#utility.yul\":358:429   */\n      tag_361\n        /* \"#utility.yul\":426:427   */\n      0x00\n        /* \"#utility.yul\":415:424   */\n      dup4\n        /* \"#utility.yul\":411:428   */\n      add\n        /* \"#utility.yul\":402:408   */\n      dup5\n        /* \"#utility.yul\":358:429   */\n      tag_307\n      jump\t// in\n    tag_361:\n        /* \"#utility.yul\":214:436   */\n      swap3\n      swap2\n      pop\n      pop\n      jump\t// out\n        /* \"#utility.yul\":523:640   */\n    tag_309:\n        /* \"#utility.yul\":632:633   */\n      0x00\n        /* \"#utility.yul\":629:630   */\n      0x00\n        /* \"#utility.yul\":622:634   */\n      revert\n        /* \"#utility.yul\":769:895   */\n    tag_311:\n        /* \"#utility.yul\":806:813   */\n      0x00\n        /* \"#utility.yul\":846:888   */\n      0xffffffffffffffffffffffffffffffffffffffff\n        /* \"#utility.yul\":839:844   */\n      dup3\n        /* \"#utility.yul\":835:889   */\n      and\n        /* \"#utility.yul\":824:889   */\n      swap1\n      pop\n        /* \"#utility.yul\":769:895   */\n      swap2\n      swap1\n      pop\n      jump\t// out\n        /* \"#utility.yul\":901:997   */\n    tag_312:\n        /* \"#utility.yul\":938:945   */\n      0x00\n        /* \"#utility.yul\":967:991   */\n      tag_367\n        /* \"#utility.yul\":985:990   */\n      dup3\n        /* \"#utility.yul\":967:991   */\n      tag_311\n      jump\t// in\n    tag_367:\n        /* \"#utility.yul\":956:991   */\n      swap1\n      pop\n        /* \"#utility.yul\":901:997   */\n      swap2\n      swap1\n      pop\n      jump\t// out\n        /* \"#utility.yul\":1003:1125   */\n    tag_313:\n        /* \"#utility.yul\":1076:1100   */\n      tag_369\n        /* \"#utility.yul\":1094:1099   */\n      dup2\n        /* \"#utility.yul\":1076:1100   */\n      tag_312\n      jump\t// in\n    tag_369:\n        /* \"#utility.yul\":1069:1074   */\n      dup2\n        /* \"#utility.yul\":1066:1101   */\n      eq\n        /* \"#utility.yul\":1056:1119   */\n      tag_370\n      jumpi\n        /* \"#utility.yul\":1115:1116   */\n      0x00\n        /* \"#utility.yul\":1112:1113   */\n      0x00\n        /* \"#utility.yul\":1105:1117   */\n      revert\n        /* \"#utility.yul\":1056:1119   */\n    tag_370:\n        /* \"#utility.yul\":1003:1125   */\n      pop\n      jump\t// out\n        /* \"#utility.yul\":1131:1270   */\n    tag_314:\n        /* \"#utility.yul\":1177:1182   */\n      0x00\n        /* \"#utility.yul\":1215:1221   */\n      dup2\n        /* \"#utility.yul\":1202:1222   */\n      calldataload\n        /* \"#utility.yul\":1193:1222   */\n      swap1\n      pop\n        /* \"#utility.yul\":1231:1264   */\n      tag_372\n        /* \"#utility.yul\":1258:1263   */\n      dup2\n        /* \"#utility.yul\":1231:1264   */\n      tag_313\n      jump\t// in\n    tag_372:\n        /* \"#utility.yul\":1131:1270   */\n      swap3\n      swap2\n      pop\n      pop\n      jump\t// out\n        /* \"#utility.yul\":1276:1605   */\n    tag_39:\n        /* \"#utility.yul\":1335:1341   */\n      0x00\n        /* \"#utility.yul\":1384:1386   */\n      0x20\n        /* \"#utility.yul\":1372:1381   */\n      dup3\n        /* \"#utility.yul\":1363:1370   */\n      dup5\n        /* \"#utility.yul\":1359:1382   */\n      sub\n        /* \"#utility.yul\":1355:1387   */\n      slt\n        /* \"#utility.yul\":1352:1471   */\n      iszero\n      tag_374\n      jumpi\n        /* \"#utility.yul\":1390:1469   */\n      tag_375\n      tag_309\n      jump\t// in\n    tag_375:\n        /* \"#utility.yul\":1352:1471   */\n    tag_374:\n        /* \"#utility.yul\":1510:1511   */\n      0x00\n        /* \"#utility.yul\":1535:1588   */\n      tag_376\n        /* \"#utility.yul\":1580:1587   */\n      dup5\n        /* \"#utility.yul\":1571:1577   */\n      dup3\n        /* \"#utility.yul\":1560:1569   */\n      dup6\n        /* \"#utility.yul\":1556:1578   */\n      add\n        /* \"#utility.yul\":1535:1588   */\n      tag_314\n      jump\t// in\n    tag_376:\n        /* \"#utility.yul\":1525:1588   */\n      swap2\n      pop\n        /* \"#utility.yul\":1481:1598   */\n      pop\n        /* \"#utility.yul\":1276:1605   */\n      swap3\n      swap2\n      pop\n      pop\n      jump\t// out\n        /* \"#utility.yul\":1611:1733   */\n    tag_315:\n        /* \"#utility.yul\":1684:1708   */\n      tag_378\n        /* \"#utility.yul\":1702:1707   */\n      dup2\n        /* \"#utility.yul\":1684:1708   */\n      tag_306\n      jump\t// in\n    tag_378:\n        /* \"#utility.yul\":1677:1682   */\n      dup2\n        /* \"#utility.yul\":1674:1709   */\n      eq\n        /* \"#utility.yul\":1664:1727   */\n      tag_379\n      jumpi\n        /* \"#utility.yul\":1723:1724   */\n      0x00\n        /* \"#utility.yul\":1720:1721   */\n      0x00\n        /* \"#utility.yul\":1713:1725   */\n      revert\n        /* \"#utility.yul\":1664:1727   */\n    tag_379:\n        /* \"#utility.yul\":1611:1733   */\n      pop\n      jump\t// out\n        /* \"#utility.yul\":1739:1878   */\n    tag_316:\n        /* \"#utility.yul\":1785:1790   */\n      0x00\n        /* \"#utility.yul\":1823:1829   */\n      dup2\n        /* \"#utility.yul\":1810:1830   */\n      calldataload\n        /* \"#utility.yul\":1801:1830   */\n      swap1\n      pop\n        /* \"#utility.yul\":1839:1872   */\n      tag_381\n        /* \"#utility.yul\":1866:1871   */\n      dup2\n        /* \"#utility.yul\":1839:1872   */\n      tag_315\n      jump\t// in\n    tag_381:\n        /* \"#utility.yul\":1739:1878   */\n      swap3\n      swap2\n      pop\n      pop\n      jump\t// out\n        /* \"#utility.yul\":1884:2213   */\n    tag_49:\n        /* \"#utility.yul\":1943:1949   */\n      0x00\n        /* \"#utility.yul\":1992:1994   */\n      0x20\n        /* \"#utility.yul\":1980:1989   */\n      dup3\n        /* \"#utility.yul\":1971:1978   */\n      dup5\n        /* \"#utility.yul\":1967:1990   */\n      sub\n        /* \"#utility.yul\":1963:1995   */\n      slt\n        /* \"#utility.yul\":1960:2079   */\n      iszero\n      tag_383\n      jumpi\n        /* \"#utility.yul\":1998:2077   */\n      tag_384\n      tag_309\n      jump\t// in\n    tag_384:\n        /* \"#utility.yul\":1960:2079   */\n    tag_383:\n        /* \"#utility.yul\":2118:2119   */\n      0x00\n        /* \"#utility.yul\":2143:2196   */\n      tag_385\n        /* \"#utility.yul\":2188:2195   */\n      dup5\n        /* \"#utility.yul\":2179:2185   */\n      dup3\n        /* \"#utility.yul\":2168:2177   */\n      dup6\n        /* \"#utility.yul\":2164:2186   */\n      add\n        /* \"#utility.yul\":2143:2196   */\n      tag_316\n      jump\t// in\n    tag_385:\n        /* \"#utility.yul\":2133:2196   */\n      swap2\n      pop\n        /* \"#utility.yul\":2089:2206   */\n      pop\n        /* \"#utility.yul\":1884:2213   */\n      swap3\n      swap2\n      pop\n      pop\n      jump\t// out\n        /* \"#utility.yul\":2219:2309   */\n    tag_317:\n        /* \"#utility.yul\":2253:2260   */\n      0x00\n        /* \"#utility.yul\":2296:2301   */\n      dup2\n        /* \"#utility.yul\":2289:2302   */\n      iszero\n        /* \"#utility.yul\":2282:2303   */\n      iszero\n        /* \"#utility.yul\":2271:2303   */\n      swap1\n      pop\n        /* \"#utility.yul\":2219:2309   */\n      swap2\n      swap1\n      pop\n      jump\t// out\n        /* \"#utility.yul\":2315:2424   */\n    tag_318:\n        /* \"#utility.yul\":2396:2417   */\n      tag_388\n        /* \"#utility.yul\":2411:2416   */\n      dup2\n        /* \"#utility.yul\":2396:2417   */\n      tag_317\n      jump\t// in\n    tag_388:\n        /* \"#utility.yul\":2391:2394   */\n      dup3\n        /* \"#utility.yul\":2384:2418   */\n      mstore\n        /* \"#utility.yul\":2315:2424   */\n      pop\n      pop\n      jump\t// out\n        /* \"#utility.yul\":2430:3082   */\n    tag_63:\n        /* \"#utility.yul\":2629:2633   */\n      0x00\n        /* \"#utility.yul\":2667:2670   */\n      0xa0\n        /* \"#utility.yul\":2656:2665   */\n      dup3\n        /* \"#utility.yul\":2652:2671   */\n      add\n        /* \"#utility.yul\":2644:2671   */\n      swap1\n      pop\n        /* \"#utility.yul\":2681:2752   */\n      tag_390\n        /* \"#utility.yul\":2749:2750   */\n      0x00\n        /* \"#utility.yul\":2738:2747   */\n      dup4\n        /* \"#utility.yul\":2734:2751   */\n      add\n        /* \"#utility.yul\":2725:2731   */\n      dup9\n        /* \"#utility.yul\":2681:2752   */\n      tag_307\n      jump\t// in\n    tag_390:\n        /* \"#utility.yul\":2762:2834   */\n      tag_391\n        /* \"#utility.yul\":2830:2832   */\n      0x20\n        /* \"#utility.yul\":2819:2828   */\n      dup4\n        /* \"#utility.yul\":2815:2833   */\n      add\n        /* \"#utility.yul\":2806:2812   */\n      dup8\n        /* \"#utility.yul\":2762:2834   */\n      tag_307\n      jump\t// in\n    tag_391:\n        /* \"#utility.yul\":2844:2910   */\n      tag_392\n        /* \"#utility.yul\":2906:2908   */\n      0x40\n        /* \"#utility.yul\":2895:2904   */\n      dup4\n        /* \"#utility.yul\":2891:2909   */\n      add\n        /* \"#utility.yul\":2882:2888   */\n      dup7\n        /* \"#utility.yul\":2844:2910   */\n      tag_318\n      jump\t// in\n    tag_392:\n        /* \"#utility.yul\":2920:2992   */\n      tag_393\n        /* \"#utility.yul\":2988:2990   */\n      0x60\n        /* \"#utility.yul\":2977:2986   */\n      dup4\n        /* \"#utility.yul\":2973:2991   */\n      add\n        /* \"#utility.yul\":2964:2970   */\n      dup6\n        /* \"#utility.yul\":2920:2992   */\n      tag_307\n      jump\t// in\n    tag_393:\n        /* \"#utility.yul\":3002:3075   */\n      tag_394\n        /* \"#utility.yul\":3070:3073   */\n      0x80\n        /* \"#utility.yul\":3059:3068   */\n      dup4\n        /* \"#utility.yul\":3055:3074   */\n      add\n        /* \"#utility.yul\":3046:3052   */\n      dup5\n        /* \"#utility.yul\":3002:3075   */\n      tag_307\n      jump\t// in\n    tag_394:\n        /* \"#utility.yul\":2430:3082   */\n      swap7\n      swap6\n      pop\n      pop\n      pop\n      pop\n      pop\n      pop\n      jump\t// out\n        /* \"#utility.yul\":3088:3206   */\n    tag_319:\n        /* \"#utility.yul\":3175:3199   */\n      tag_396\n        /* \"#utility.yul\":3193:3198   */\n      dup2\n        /* \"#utility.yul\":3175:3199   */\n      tag_312\n      jump\t// in\n    tag_396:\n        /* \"#utility.yul\":3170:3173   */\n      dup3\n        /* \"#utility.yul\":3163:3200   */\n      mstore\n        /* \"#utility.yul\":3088:3206   */\n      pop\n      pop\n      jump\t// out\n        /* \"#utility.yul\":3212:3434   */\n    tag_87:\n        /* \"#utility.yul\":3305:3309   */\n      0x00\n        /* \"#utility.yul\":3343:3345   */\n      0x20\n        /* \"#utility.yul\":3332:3341   */\n      dup3\n        /* \"#utility.yul\":3328:3346   */\n      add\n        /* \"#utility.yul\":3320:3346   */\n      swap1\n      pop\n        /* \"#utility.yul\":3356:3427   */\n      tag_398\n        /* \"#utility.yul\":3424:3425   */\n      0x00\n        /* \"#utility.yul\":3413:3422   */\n      dup4\n        /* \"#utility.yul\":3409:3426   */\n      add\n        /* \"#utility.yul\":3400:3406   */\n      dup5\n        /* \"#utility.yul\":3356:3427   */\n      tag_319\n      jump\t// in\n    tag_398:\n        /* \"#utility.yul\":3212:3434   */\n      swap3\n      swap2\n      pop\n      pop\n      jump\t// out\n        /* \"#utility.yul\":3440:3500   */\n    tag_320:\n        /* \"#utility.yul\":3468:3471   */\n      0x00\n        /* \"#utility.yul\":3489:3494   */\n      dup2\n        /* \"#utility.yul\":3482:3494   */\n      swap1\n      pop\n        /* \"#utility.yul\":3440:3500   */\n      swap2\n      swap1\n      pop\n      jump\t// out\n        /* \"#utility.yul\":3506:3648   */\n    tag_321:\n        /* \"#utility.yul\":3556:3565   */\n      0x00\n        /* \"#utility.yul\":3589:3642   */\n      tag_401\n        /* \"#utility.yul\":3607:3641   */\n      tag_402\n        /* \"#utility.yul\":3616:3640   */\n      tag_403\n        /* \"#utility.yul\":3634:3639   */\n      dup5\n        /* \"#utility.yul\":3616:3640   */\n      tag_311\n      jump\t// in\n    tag_403:\n        /* \"#utility.yul\":3607:3641   */\n      tag_320\n      jump\t// in\n    tag_402:\n        /* \"#utility.yul\":3589:3642   */\n      tag_311\n      jump\t// in\n    tag_401:\n        /* \"#utility.yul\":3576:3642   */\n      swap1\n      pop\n        /* \"#utility.yul\":3506:3648   */\n      swap2\n      swap1\n      pop\n      jump\t// out\n        /* \"#utility.yul\":3654:3780   */\n    tag_322:\n        /* \"#utility.yul\":3704:3713   */\n      0x00\n        /* \"#utility.yul\":3737:3774   */\n      tag_405\n        /* \"#utility.yul\":3768:3773   */\n      dup3\n        /* \"#utility.yul\":3737:3774   */\n      tag_321\n      jump\t// in\n    tag_405:\n        /* \"#utility.yul\":3724:3774   */\n      swap1\n      pop\n        /* \"#utility.yul\":3654:3780   */\n      swap2\n      swap1\n      pop\n      jump\t// out\n        /* \"#utility.yul\":3786:3926   */\n    tag_323:\n        /* \"#utility.yul\":3850:3859   */\n      0x00\n        /* \"#utility.yul\":3883:3920   */\n      tag_407\n        /* \"#utility.yul\":3914:3919   */\n      dup3\n        /* \"#utility.yul\":3883:3920   */\n      tag_322\n      jump\t// in\n    tag_407:\n        /* \"#utility.yul\":3870:3920   */\n      swap1\n      pop\n        /* \"#utility.yul\":3786:3926   */\n      swap2\n      swap1\n      pop\n      jump\t// out\n        /* \"#utility.yul\":3932:4091   */\n    tag_324:\n        /* \"#utility.yul\":4033:4084   */\n      tag_409\n        /* \"#utility.yul\":4078:4083   */\n      dup2\n        /* \"#utility.yul\":4033:4084   */\n      tag_323\n      jump\t// in\n    tag_409:\n        /* \"#utility.yul\":4028:4031   */\n      dup3\n        /* \"#utility.yul\":4021:4085   */\n      mstore\n        /* \"#utility.yul\":3932:4091   */\n      pop\n      pop\n      jump\t// out\n        /* \"#utility.yul\":4097:4347   */\n    tag_136:\n        /* \"#utility.yul\":4204:4208   */\n      0x00\n        /* \"#utility.yul\":4242:4244   */\n      0x20\n        /* \"#utility.yul\":4231:4240   */\n      dup3\n        /* \"#utility.yul\":4227:4245   */\n      add\n        /* \"#utility.yul\":4219:4245   */\n      swap1\n      pop\n        /* \"#utility.yul\":4255:4340   */\n      tag_411\n        /* \"#utility.yul\":4337:4338   */\n      0x00\n        /* \"#utility.yul\":4326:4335   */\n      dup4\n        /* \"#utility.yul\":4322:4339   */\n      add\n        /* \"#utility.yul\":4313:4319   */\n      dup5\n        /* \"#utility.yul\":4255:4340   */\n      tag_324\n      jump\t// in\n    tag_411:\n        /* \"#utility.yul\":4097:4347   */\n      swap3\n      swap2\n      pop\n      pop\n      jump\t// out\n        /* \"#utility.yul\":4353:4522   */\n    tag_325:\n        /* \"#utility.yul\":4437:4448   */\n      0x00\n        /* \"#utility.yul\":4471:4477   */\n      dup3\n        /* \"#utility.yul\":4466:4469   */\n      dup3\n        /* \"#utility.yul\":4459:4478   */\n      mstore\n        /* \"#utility.yul\":4511:4515   */\n      0x20\n        /* \"#utility.yul\":4506:4509   */\n      dup3\n        /* \"#utility.yul\":4502:4516   */\n      add\n        /* \"#utility.yul\":4487:4516   */\n      swap1\n      pop\n        /* \"#utility.yul\":4353:4522   */\n      swap3\n      swap2\n      pop\n      pop\n      jump\t// out\n        /* \"#utility.yul\":4528:4700   */\n    tag_326:\n        /* \"#utility.yul\":4668:4692   */\n      0x4163636f756e7420646f6573206e6f7420657869737400000000000000000000\n        /* \"#utility.yul\":4664:4665   */\n      0x00\n        /* \"#utility.yul\":4656:4662   */\n      dup3\n        /* \"#utility.yul\":4652:4666   */\n      add\n        /* \"#utility.yul\":4645:4693   */\n      mstore\n        /* \"#utility.yul\":4528:4700   */\n      pop\n      jump\t// out\n        /* \"#utility.yul\":4706:5072   */\n    tag_327:\n        /* \"#utility.yul\":4848:4851   */\n      0x00\n        /* \"#utility.yul\":4869:4936   */\n      tag_415\n        /* \"#utility.yul\":4933:4935   */\n      0x16\n        /* \"#utility.yul\":4928:4931   */\n      dup4\n        /* \"#utility.yul\":4869:4936   */\n      tag_325\n      jump\t// in\n    tag_415:\n        /* \"#utility.yul\":4862:4936   */\n      swap2\n      pop\n        /* \"#utility.yul\":4945:5038   */\n      tag_416\n        /* \"#utility.yul\":5034:5037   */\n      dup3\n        /* \"#utility.yul\":4945:5038   */\n      tag_326\n      jump\t// in\n    tag_416:\n        /* \"#utility.yul\":5063:5065   */\n      0x20\n        /* \"#utility.yul\":5058:5061   */\n      dup3\n        /* \"#utility.yul\":5054:5066   */\n      add\n        /* \"#utility.yul\":5047:5066   */\n      swap1\n      pop\n        /* \"#utility.yul\":4706:5072   */\n      swap2\n      swap1\n      pop\n      jump\t// out\n        /* \"#utility.yul\":5078:5497   */\n    tag_140:\n        /* \"#utility.yul\":5244:5248   */\n      0x00\n        /* \"#utility.yul\":5282:5284   */\n      0x20\n        /* \"#utility.yul\":5271:5280   */\n      dup3\n        /* \"#utility.yul\":5267:5285   */\n      add\n        /* \"#utility.yul\":5259:5285   */\n      swap1\n      pop\n        /* \"#utility.yul\":5331:5340   */\n      dup2\n        /* \"#utility.yul\":5325:5329   */\n      dup2\n        /* \"#utility.yul\":5321:5341   */\n      sub\n        /* \"#utility.yul\":5317:5318   */\n      0x00\n        /* \"#utility.yul\":5306:5315   */\n      dup4\n        /* \"#utility.yul\":5302:5319   */\n      add\n        /* \"#utility.yul\":5295:5342   */\n      mstore\n        /* \"#utility.yul\":5359:5490   */\n      tag_418\n        /* \"#utility.yul\":5485:5489   */\n      dup2\n        /* \"#utility.yul\":5359:5490   */\n      tag_327\n      jump\t// in\n    tag_418:\n        /* \"#utility.yul\":5351:5490   */\n      swap1\n      pop\n        /* \"#utility.yul\":5078:5497   */\n      swap2\n      swap1\n      pop\n      jump\t// out\n        /* \"#utility.yul\":5503:5681   */\n    tag_328:\n        /* \"#utility.yul\":5643:5673   */\n      0x546f6b656e20616464726573732063616e6e6f74206265207a65726f00000000\n        /* \"#utility.yul\":5639:5640   */\n      0x00\n        /* \"#utility.yul\":5631:5637   */\n      dup3\n        /* \"#utility.yul\":5627:5641   */\n      add\n        /* \"#utility.yul\":5620:5674   */\n      mstore\n        /* \"#utility.yul\":5503:5681   */\n      pop\n      jump\t// out\n        /* \"#utility.yul\":5687:6053   */\n    tag_329:\n        /* \"#utility.yul\":5829:5832   */\n      0x00\n        /* \"#utility.yul\":5850:5917   */\n      tag_421\n        /* \"#utility.yul\":5914:5916   */\n      0x1c\n        /* \"#utility.yul\":5909:5912   */\n      dup4\n        /* \"#utility.yul\":5850:5917   */\n      tag_325\n      jump\t// in\n    tag_421:\n        /* \"#utility.yul\":5843:5917   */\n      swap2\n      pop\n        /* \"#utility.yul\":5926:6019   */\n      tag_422\n        /* \"#utility.yul\":6015:6018   */\n      dup3\n        /* \"#utility.yul\":5926:6019   */\n      tag_328\n      jump\t// in\n    tag_422:\n        /* \"#utility.yul\":6044:6046   */\n      0x20\n        /* \"#utility.yul\":6039:6042   */\n      dup3\n        /* \"#utility.yul\":6035:6047   */\n      add\n        /* \"#utility.yul\":6028:6047   */\n      swap1\n      pop\n        /* \"#utility.yul\":5687:6053   */\n      swap2\n      swap1\n      pop\n      jump\t// out\n        /* \"#utility.yul\":6059:6478   */\n    tag_147:\n        /* \"#utility.yul\":6225:6229   */\n      0x00\n        /* \"#utility.yul\":6263:6265   */\n      0x20\n        /* \"#utility.yul\":6252:6261   */\n      dup3\n        /* \"#utility.yul\":6248:6266   */\n      add\n        /* \"#utility.yul\":6240:6266   */\n      swap1\n      pop\n        /* \"#utility.yul\":6312:6321   */\n      dup2\n        /* \"#utility.yul\":6306:6310   */\n      dup2\n        /* \"#utility.yul\":6302:6322   */\n      sub\n        /* \"#utility.yul\":6298:6299   */\n      0x00\n        /* \"#utility.yul\":6287:6296   */\n      dup4\n        /* \"#utility.yul\":6283:6300   */\n      add\n        /* \"#utility.yul\":6276:6323   */\n      mstore\n        /* \"#utility.yul\":6340:6471   */\n      tag_424\n        /* \"#utility.yul\":6466:6470   */\n      dup2\n        /* \"#utility.yul\":6340:6471   */\n      tag_329\n      jump\t// in\n    tag_424:\n        /* \"#utility.yul\":6332:6471   */\n      swap1\n      pop\n        /* \"#utility.yul\":6059:6478   */\n      swap2\n      swap1\n      pop\n      jump\t// out\n        /* \"#utility.yul\":6484:6569   */\n    tag_330:\n        /* \"#utility.yul\":6529:6536   */\n      0x00\n        /* \"#utility.yul\":6558:6563   */\n      dup2\n        /* \"#utility.yul\":6547:6563   */\n      swap1\n      pop\n        /* \"#utility.yul\":6484:6569   */\n      swap2\n      swap1\n      pop\n      jump\t// out\n        /* \"#utility.yul\":6575:6733   */\n    tag_331:\n        /* \"#utility.yul\":6633:6642   */\n      0x00\n        /* \"#utility.yul\":6666:6727   */\n      tag_427\n        /* \"#utility.yul\":6684:6726   */\n      tag_428\n        /* \"#utility.yul\":6693:6725   */\n      tag_429\n        /* \"#utility.yul\":6719:6724   */\n      dup5\n        /* \"#utility.yul\":6693:6725   */\n      tag_330\n      jump\t// in\n    tag_429:\n        /* \"#utility.yul\":6684:6726   */\n      tag_320\n      jump\t// in\n    tag_428:\n        /* \"#utility.yul\":6666:6727   */\n      tag_306\n      jump\t// in\n    tag_427:\n        /* \"#utility.yul\":6653:6727   */\n      swap1\n      pop\n        /* \"#utility.yul\":6575:6733   */\n      swap2\n      swap1\n      pop\n      jump\t// out\n        /* \"#utility.yul\":6739:6886   */\n    tag_332:\n        /* \"#utility.yul\":6834:6879   */\n      tag_431\n        /* \"#utility.yul\":6873:6878   */\n      dup2\n        /* \"#utility.yul\":6834:6879   */\n      tag_331\n      jump\t// in\n    tag_431:\n        /* \"#utility.yul\":6829:6832   */\n      dup3\n        /* \"#utility.yul\":6822:6880   */\n      mstore\n        /* \"#utility.yul\":6739:6886   */\n      pop\n      pop\n      jump\t// out\n        /* \"#utility.yul\":6892:7240   */\n    tag_155:\n        /* \"#utility.yul\":7021:7025   */\n      0x00\n        /* \"#utility.yul\":7059:7061   */\n      0x40\n        /* \"#utility.yul\":7048:7057   */\n      dup3\n        /* \"#utility.yul\":7044:7062   */\n      add\n        /* \"#utility.yul\":7036:7062   */\n      swap1\n      pop\n        /* \"#utility.yul\":7072:7143   */\n      tag_433\n        /* \"#utility.yul\":7140:7141   */\n      0x00\n        /* \"#utility.yul\":7129:7138   */\n      dup4\n        /* \"#utility.yul\":7125:7142   */\n      add\n        /* \"#utility.yul\":7116:7122   */\n      dup6\n        /* \"#utility.yul\":7072:7143   */\n      tag_319\n      jump\t// in\n    tag_433:\n        /* \"#utility.yul\":7153:7233   */\n      tag_434\n        /* \"#utility.yul\":7229:7231   */\n      0x20\n        /* \"#utility.yul\":7218:7227   */\n      dup4\n        /* \"#utility.yul\":7214:7232   */\n      add\n        /* \"#utility.yul\":7205:7211   */\n      dup5\n        /* \"#utility.yul\":7153:7233   */\n      tag_332\n      jump\t// in\n    tag_434:\n        /* \"#utility.yul\":6892:7240   */\n      swap4\n      swap3\n      pop\n      pop\n      pop\n      jump\t// out\n        /* \"#utility.yul\":7246:7416   */\n    tag_333:\n        /* \"#utility.yul\":7386:7408   */\n      0x496e73756666696369656e742062616c616e6365000000000000000000000000\n        /* \"#utility.yul\":7382:7383   */\n      0x00\n        /* \"#utility.yul\":7374:7380   */\n      dup3\n        /* \"#utility.yul\":7370:7384   */\n      add\n        /* \"#utility.yul\":7363:7409   */\n      mstore\n        /* \"#utility.yul\":7246:7416   */\n      pop\n      jump\t// out\n        /* \"#utility.yul\":7422:7788   */\n    tag_334:\n        /* \"#utility.yul\":7564:7567   */\n      0x00\n        /* \"#utility.yul\":7585:7652   */\n      tag_437\n        /* \"#utility.yul\":7649:7651   */\n      0x14\n        /* \"#utility.yul\":7644:7647   */\n      dup4\n        /* \"#utility.yul\":7585:7652   */\n      tag_325\n      jump\t// in\n    tag_437:\n        /* \"#utility.yul\":7578:7652   */\n      swap2\n      pop\n        /* \"#utility.yul\":7661:7754   */\n      tag_438\n        /* \"#utility.yul\":7750:7753   */\n      dup3\n        /* \"#utility.yul\":7661:7754   */\n      tag_333\n      jump\t// in\n    tag_438:\n        /* \"#utility.yul\":7779:7781   */\n      0x20\n        /* \"#utility.yul\":7774:7777   */\n      dup3\n        /* \"#utility.yul\":7770:7782   */\n      add\n        /* \"#utility.yul\":7763:7782   */\n      swap1\n      pop\n        /* \"#utility.yul\":7422:7788   */\n      swap2\n      swap1\n      pop\n      jump\t// out\n        /* \"#utility.yul\":7794:8213   */\n    tag_161:\n        /* \"#utility.yul\":7960:7964   */\n      0x00\n        /* \"#utility.yul\":7998:8000   */\n      0x20\n        /* \"#utility.yul\":7987:7996   */\n      dup3\n        /* \"#utility.yul\":7983:8001   */\n      add\n        /* \"#utility.yul\":7975:8001   */\n      swap1\n      pop\n        /* \"#utility.yul\":8047:8056   */\n      dup2\n        /* \"#utility.yul\":8041:8045   */\n      dup2\n        /* \"#utility.yul\":8037:8057   */\n      sub\n        /* \"#utility.yul\":8033:8034   */\n      0x00\n        /* \"#utility.yul\":8022:8031   */\n      dup4\n        /* \"#utility.yul\":8018:8035   */\n      add\n        /* \"#utility.yul\":8011:8058   */\n      mstore\n        /* \"#utility.yul\":8075:8206   */\n      tag_440\n        /* \"#utility.yul\":8201:8205   */\n      dup2\n        /* \"#utility.yul\":8075:8206   */\n      tag_334\n      jump\t// in\n    tag_440:\n        /* \"#utility.yul\":8067:8206   */\n      swap1\n      pop\n        /* \"#utility.yul\":7794:8213   */\n      swap2\n      swap1\n      pop\n      jump\t// out\n        /* \"#utility.yul\":8219:8399   */\n    tag_335:\n        /* \"#utility.yul\":8359:8391   */\n      0x43616e6e6f7420657863656564207769746864726177616c206c696d69740000\n        /* \"#utility.yul\":8355:8356   */\n      0x00\n        /* \"#utility.yul\":8347:8353   */\n      dup3\n        /* \"#utility.yul\":8343:8357   */\n      add\n        /* \"#utility.yul\":8336:8392   */\n      mstore\n        /* \"#utility.yul\":8219:8399   */\n      pop\n      jump\t// out\n        /* \"#utility.yul\":8405:8771   */\n    tag_336:\n        /* \"#utility.yul\":8547:8550   */\n      0x00\n        /* \"#utility.yul\":8568:8635   */\n      tag_443\n        /* \"#utility.yul\":8632:8634   */\n      0x1e\n        /* \"#utility.yul\":8627:8630   */\n      dup4\n        /* \"#utility.yul\":8568:8635   */\n      tag_325\n      jump\t// in\n    tag_443:\n        /* \"#utility.yul\":8561:8635   */\n      swap2\n      pop\n        /* \"#utility.yul\":8644:8737   */\n      tag_444\n        /* \"#utility.yul\":8733:8736   */\n      dup3\n        /* \"#utility.yul\":8644:8737   */\n      tag_335\n      jump\t// in\n    tag_444:\n        /* \"#utility.yul\":8762:8764   */\n      0x20\n        /* \"#utility.yul\":8757:8760   */\n      dup3\n        /* \"#utility.yul\":8753:8765   */\n      add\n        /* \"#utility.yul\":8746:8765   */\n      swap1\n      pop\n        /* \"#utility.yul\":8405:8771   */\n      swap2\n      swap1\n      pop\n      jump\t// out\n        /* \"#utility.yul\":8777:9196   */\n    tag_164:\n        /* \"#utility.yul\":8943:8947   */\n      0x00\n        /* \"#utility.yul\":8981:8983   */\n      0x20\n        /* \"#utility.yul\":8970:8979   */\n      dup3\n        /* \"#utility.yul\":8966:8984   */\n      add\n        /* \"#utility.yul\":8958:8984   */\n      swap1\n      pop\n        /* \"#utility.yul\":9030:9039   */\n      dup2\n        /* \"#utility.yul\":9024:9028   */\n      dup2\n        /* \"#utility.yul\":9020:9040   */\n      sub\n        /* \"#utility.yul\":9016:9017   */\n      0x00\n        /* \"#utility.yul\":9005:9014   */\n      dup4\n        /* \"#utility.yul\":9001:9018   */\n      add\n        /* \"#utility.yul\":8994:9041   */\n      mstore\n        /* \"#utility.yul\":9058:9189   */\n      tag_446\n        /* \"#utility.yul\":9184:9188   */\n      dup2\n        /* \"#utility.yul\":9058:9189   */\n      tag_336\n      jump\t// in\n    tag_446:\n        /* \"#utility.yul\":9050:9189   */\n      swap1\n      pop\n        /* \"#utility.yul\":8777:9196   */\n      swap2\n      swap1\n      pop\n      jump\t// out\n        /* \"#utility.yul\":9202:9382   */\n    tag_337:\n        /* \"#utility.yul\":9250:9327   */\n      0x4e487b7100000000000000000000000000000000000000000000000000000000\n        /* \"#utility.yul\":9247:9248   */\n      0x00\n        /* \"#utility.yul\":9240:9328   */\n      mstore\n        /* \"#utility.yul\":9347:9351   */\n      0x11\n        /* \"#utility.yul\":9344:9345   */\n      0x04\n        /* \"#utility.yul\":9337:9352   */\n      mstore\n        /* \"#utility.yul\":9371:9375   */\n      0x24\n        /* \"#utility.yul\":9368:9369   */\n      0x00\n        /* \"#utility.yul\":9361:9376   */\n      revert\n        /* \"#utility.yul\":9388:9579   */\n    tag_166:\n        /* \"#utility.yul\":9428:9431   */\n      0x00\n        /* \"#utility.yul\":9447:9467   */\n      tag_449\n        /* \"#utility.yul\":9465:9466   */\n      dup3\n        /* \"#utility.yul\":9447:9467   */\n      tag_306\n      jump\t// in\n    tag_449:\n        /* \"#utility.yul\":9442:9467   */\n      swap2\n      pop\n        /* \"#utility.yul\":9481:9501   */\n      tag_450\n        /* \"#utility.yul\":9499:9500   */\n      dup4\n        /* \"#utility.yul\":9481:9501   */\n      tag_306\n      jump\t// in\n    tag_450:\n        /* \"#utility.yul\":9476:9501   */\n      swap3\n      pop\n        /* \"#utility.yul\":9524:9525   */\n      dup3\n        /* \"#utility.yul\":9521:9522   */\n      dup3\n        /* \"#utility.yul\":9517:9526   */\n      add\n        /* \"#utility.yul\":9510:9526   */\n      swap1\n      pop\n        /* \"#utility.yul\":9545:9548   */\n      dup1\n        /* \"#utility.yul\":9542:9543   */\n      dup3\n        /* \"#utility.yul\":9539:9549   */\n      gt\n        /* \"#utility.yul\":9536:9572   */\n      iszero\n      tag_451\n      jumpi\n        /* \"#utility.yul\":9552:9570   */\n      tag_452\n      tag_337\n      jump\t// in\n    tag_452:\n        /* \"#utility.yul\":9536:9572   */\n    tag_451:\n        /* \"#utility.yul\":9388:9579   */\n      swap3\n      swap2\n      pop\n      pop\n      jump\t// out\n        /* \"#utility.yul\":9585:9751   */\n    tag_338:\n        /* \"#utility.yul\":9725:9743   */\n      0x46756e647320617265206c6f636b656400000000000000000000000000000000\n        /* \"#utility.yul\":9721:9722   */\n      0x00\n        /* \"#utility.yul\":9713:9719   */\n      dup3\n        /* \"#utility.yul\":9709:9723   */\n      add\n        /* \"#utility.yul\":9702:9744   */\n      mstore\n        /* \"#utility.yul\":9585:9751   */\n      pop\n      jump\t// out\n        /* \"#utility.yul\":9757:10123   */\n    tag_339:\n        /* \"#utility.yul\":9899:9902   */\n      0x00\n        /* \"#utility.yul\":9920:9987   */\n      tag_455\n        /* \"#utility.yul\":9984:9986   */\n      0x10\n        /* \"#utility.yul\":9979:9982   */\n      dup4\n        /* \"#utility.yul\":9920:9987   */\n      tag_325\n      jump\t// in\n    tag_455:\n        /* \"#utility.yul\":9913:9987   */\n      swap2\n      pop\n        /* \"#utility.yul\":9996:10089   */\n      tag_456\n        /* \"#utility.yul\":10085:10088   */\n      dup3\n        /* \"#utility.yul\":9996:10089   */\n      tag_338\n      jump\t// in\n    tag_456:\n        /* \"#utility.yul\":10114:10116   */\n      0x20\n        /* \"#utility.yul\":10109:10112   */\n      dup3\n        /* \"#utility.yul\":10105:10117   */\n      add\n        /* \"#utility.yul\":10098:10117   */\n      swap1\n      pop\n        /* \"#utility.yul\":9757:10123   */\n      swap2\n      swap1\n      pop\n      jump\t// out\n        /* \"#utility.yul\":10129:10548   */\n    tag_169:\n        /* \"#utility.yul\":10295:10299   */\n      0x00\n        /* \"#utility.yul\":10333:10335   */\n      0x20\n        /* \"#utility.yul\":10322:10331   */\n      dup3\n        /* \"#utility.yul\":10318:10336   */\n      add\n        /* \"#utility.yul\":10310:10336   */\n      swap1\n      pop\n        /* \"#utility.yul\":10382:10391   */\n      dup2\n        /* \"#utility.yul\":10376:10380   */\n      dup2\n        /* \"#utility.yul\":10372:10392   */\n      sub\n        /* \"#utility.yul\":10368:10369   */\n      0x00\n        /* \"#utility.yul\":10357:10366   */\n      dup4\n        /* \"#utility.yul\":10353:10370   */\n      add\n        /* \"#utility.yul\":10346:10393   */\n      mstore\n        /* \"#utility.yul\":10410:10541   */\n      tag_458\n        /* \"#utility.yul\":10536:10540   */\n      dup2\n        /* \"#utility.yul\":10410:10541   */\n      tag_339\n      jump\t// in\n    tag_458:\n        /* \"#utility.yul\":10402:10541   */\n      swap1\n      pop\n        /* \"#utility.yul\":10129:10548   */\n      swap2\n      swap1\n      pop\n      jump\t// out\n        /* \"#utility.yul\":10554:10964   */\n    tag_171:\n        /* \"#utility.yul\":10594:10601   */\n      0x00\n        /* \"#utility.yul\":10617:10637   */\n      tag_460\n        /* \"#utility.yul\":10635:10636   */\n      dup3\n        /* \"#utility.yul\":10617:10637   */\n      tag_306\n      jump\t// in\n    tag_460:\n        /* \"#utility.yul\":10612:10637   */\n      swap2\n      pop\n        /* \"#utility.yul\":10651:10671   */\n      tag_461\n        /* \"#utility.yul\":10669:10670   */\n      dup4\n        /* \"#utility.yul\":10651:10671   */\n      tag_306\n      jump\t// in\n    tag_461:\n        /* \"#utility.yul\":10646:10671   */\n      swap3\n      pop\n        /* \"#utility.yul\":10706:10707   */\n      dup3\n        /* \"#utility.yul\":10703:10704   */\n      dup3\n        /* \"#utility.yul\":10699:10708   */\n      mul\n        /* \"#utility.yul\":10728:10758   */\n      tag_462\n        /* \"#utility.yul\":10746:10757   */\n      dup2\n        /* \"#utility.yul\":10728:10758   */\n      tag_306\n      jump\t// in\n    tag_462:\n        /* \"#utility.yul\":10717:10758   */\n      swap2\n      pop\n        /* \"#utility.yul\":10907:10908   */\n      dup3\n        /* \"#utility.yul\":10898:10905   */\n      dup3\n        /* \"#utility.yul\":10894:10909   */\n      div\n        /* \"#utility.yul\":10891:10892   */\n      dup5\n        /* \"#utility.yul\":10888:10910   */\n      eq\n        /* \"#utility.yul\":10868:10869   */\n      dup4\n        /* \"#utility.yul\":10861:10870   */\n      iszero\n        /* \"#utility.yul\":10841:10924   */\n      or\n        /* \"#utility.yul\":10818:10957   */\n      tag_463\n      jumpi\n        /* \"#utility.yul\":10937:10955   */\n      tag_464\n      tag_337\n      jump\t// in\n    tag_464:\n        /* \"#utility.yul\":10818:10957   */\n    tag_463:\n        /* \"#utility.yul\":10602:10964   */\n      pop\n        /* \"#utility.yul\":10554:10964   */\n      swap3\n      swap2\n      pop\n      pop\n      jump\t// out\n        /* \"#utility.yul\":10970:11150   */\n    tag_340:\n        /* \"#utility.yul\":11018:11095   */\n      0x4e487b7100000000000000000000000000000000000000000000000000000000\n        /* \"#utility.yul\":11015:11016   */\n      0x00\n        /* \"#utility.yul\":11008:11096   */\n      mstore\n        /* \"#utility.yul\":11115:11119   */\n      0x12\n        /* \"#utility.yul\":11112:11113   */\n      0x04\n        /* \"#utility.yul\":11105:11120   */\n      mstore\n        /* \"#utility.yul\":11139:11143   */\n      0x24\n        /* \"#utility.yul\":11136:11137   */\n      0x00\n        /* \"#utility.yul\":11129:11144   */\n      revert\n        /* \"#utility.yul\":11156:11341   */\n    tag_173:\n        /* \"#utility.yul\":11196:11197   */\n      0x00\n        /* \"#utility.yul\":11213:11233   */\n      tag_467\n        /* \"#utility.yul\":11231:11232   */\n      dup3\n        /* \"#utility.yul\":11213:11233   */\n      tag_306\n      jump\t// in\n    tag_467:\n        /* \"#utility.yul\":11208:11233   */\n      swap2\n      pop\n        /* \"#utility.yul\":11247:11267   */\n      tag_468\n        /* \"#utility.yul\":11265:11266   */\n      dup4\n        /* \"#utility.yul\":11247:11267   */\n      tag_306\n      jump\t// in\n    tag_468:\n        /* \"#utility.yul\":11242:11267   */\n      swap3\n      pop\n        /* \"#utility.yul\":11286:11287   */\n      dup3\n        /* \"#utility.yul\":11276:11311   */\n      tag_469\n      jumpi\n        /* \"#utility.yul\":11291:11309   */\n      tag_470\n      tag_340\n      jump\t// in\n    tag_470:\n        /* \"#utility.yul\":11276:11311   */\n    tag_469:\n        /* \"#utility.yul\":11333:11334   */\n      dup3\n        /* \"#utility.yul\":11330:11331   */\n      dup3\n        /* \"#utility.yul\":11326:11335   */\n      div\n        /* \"#utility.yul\":11321:11335   */\n      swap1\n      pop\n        /* \"#utility.yul\":11156:11341   */\n      swap3\n      swap2\n      pop\n      pop\n      jump\t// out\n        /* \"#utility.yul\":11347:11541   */\n    tag_175:\n        /* \"#utility.yul\":11387:11391   */\n      0x00\n        /* \"#utility.yul\":11407:11427   */\n      tag_472\n        /* \"#utility.yul\":11425:11426   */\n      dup3\n        /* \"#utility.yul\":11407:11427   */\n      tag_306\n      jump\t// in\n    tag_472:\n        /* \"#utility.yul\":11402:11427   */\n      swap2\n      pop\n        /* \"#utility.yul\":11441:11461   */\n      tag_473\n        /* \"#utility.yul\":11459:11460   */\n      dup4\n        /* \"#utility.yul\":11441:11461   */\n      tag_306\n      jump\t// in\n    tag_473:\n        /* \"#utility.yul\":11436:11461   */\n      swap3\n      pop\n        /* \"#utility.yul\":11485:11486   */\n      dup3\n        /* \"#utility.yul\":11482:11483   */\n      dup3\n        /* \"#utility.yul\":11478:11487   */\n      sub\n        /* \"#utility.yul\":11470:11487   */\n      swap1\n      pop\n        /* \"#utility.yul\":11509:11510   */\n      dup2\n        /* \"#utility.yul\":11503:11507   */\n      dup2\n        /* \"#utility.yul\":11500:11511   */\n      gt\n        /* \"#utility.yul\":11497:11534   */\n      iszero\n      tag_474\n      jumpi\n        /* \"#utility.yul\":11514:11532   */\n      tag_475\n      tag_337\n      jump\t// in\n    tag_475:\n        /* \"#utility.yul\":11497:11534   */\n    tag_474:\n        /* \"#utility.yul\":11347:11541   */\n      swap3\n      swap2\n      pop\n      pop\n      jump\t// out\n        /* \"#utility.yul\":11547:11879   */\n    tag_182:\n        /* \"#utility.yul\":11668:11672   */\n      0x00\n        /* \"#utility.yul\":11706:11708   */\n      0x40\n        /* \"#utility.yul\":11695:11704   */\n      dup3\n        /* \"#utility.yul\":11691:11709   */\n      add\n        /* \"#utility.yul\":11683:11709   */\n      swap1\n      pop\n        /* \"#utility.yul\":11719:11790   */\n      tag_477\n        /* \"#utility.yul\":11787:11788   */\n      0x00\n        /* \"#utility.yul\":11776:11785   */\n      dup4\n        /* \"#utility.yul\":11772:11789   */\n      add\n        /* \"#utility.yul\":11763:11769   */\n      dup6\n        /* \"#utility.yul\":11719:11790   */\n      tag_319\n      jump\t// in\n    tag_477:\n        /* \"#utility.yul\":11800:11872   */\n      tag_478\n        /* \"#utility.yul\":11868:11870   */\n      0x20\n        /* \"#utility.yul\":11857:11866   */\n      dup4\n        /* \"#utility.yul\":11853:11871   */\n      add\n        /* \"#utility.yul\":11844:11850   */\n      dup5\n        /* \"#utility.yul\":11800:11872   */\n      tag_307\n      jump\t// in\n    tag_478:\n        /* \"#utility.yul\":11547:11879   */\n      swap4\n      swap3\n      pop\n      pop\n      pop\n      jump\t// out\n        /* \"#utility.yul\":11885:12001   */\n    tag_341:\n        /* \"#utility.yul\":11955:11976   */\n      tag_480\n        /* \"#utility.yul\":11970:11975   */\n      dup2\n        /* \"#utility.yul\":11955:11976   */\n      tag_317\n      jump\t// in\n    tag_480:\n        /* \"#utility.yul\":11948:11953   */\n      dup2\n        /* \"#utility.yul\":11945:11977   */\n      eq\n        /* \"#utility.yul\":11935:11995   */\n      tag_481\n      jumpi\n        /* \"#utility.yul\":11991:11992   */\n      0x00\n        /* \"#utility.yul\":11988:11989   */\n      0x00\n        /* \"#utility.yul\":11981:11993   */\n      revert\n        /* \"#utility.yul\":11935:11995   */\n    tag_481:\n        /* \"#utility.yul\":11885:12001   */\n      pop\n      jump\t// out\n        /* \"#utility.yul\":12007:12144   */\n    tag_342:\n        /* \"#utility.yul\":12061:12066   */\n      0x00\n        /* \"#utility.yul\":12092:12098   */\n      dup2\n        /* \"#utility.yul\":12086:12099   */\n      mload\n        /* \"#utility.yul\":12077:12099   */\n      swap1\n      pop\n        /* \"#utility.yul\":12108:12138   */\n      tag_483\n        /* \"#utility.yul\":12132:12137   */\n      dup2\n        /* \"#utility.yul\":12108:12138   */\n      tag_341\n      jump\t// in\n    tag_483:\n        /* \"#utility.yul\":12007:12144   */\n      swap3\n      swap2\n      pop\n      pop\n      jump\t// out\n        /* \"#utility.yul\":12150:12495   */\n    tag_186:\n        /* \"#utility.yul\":12217:12223   */\n      0x00\n        /* \"#utility.yul\":12266:12268   */\n      0x20\n        /* \"#utility.yul\":12254:12263   */\n      dup3\n        /* \"#utility.yul\":12245:12252   */\n      dup5\n        /* \"#utility.yul\":12241:12264   */\n      sub\n        /* \"#utility.yul\":12237:12269   */\n      slt\n        /* \"#utility.yul\":12234:12353   */\n      iszero\n      tag_485\n      jumpi\n        /* \"#utility.yul\":12272:12351   */\n      tag_486\n      tag_309\n      jump\t// in\n    tag_486:\n        /* \"#utility.yul\":12234:12353   */\n    tag_485:\n        /* \"#utility.yul\":12392:12393   */\n      0x00\n        /* \"#utility.yul\":12417:12478   */\n      tag_487\n        /* \"#utility.yul\":12470:12477   */\n      dup5\n        /* \"#utility.yul\":12461:12467   */\n      dup3\n        /* \"#utility.yul\":12450:12459   */\n      dup6\n        /* \"#utility.yul\":12446:12468   */\n      add\n        /* \"#utility.yul\":12417:12478   */\n      tag_342\n      jump\t// in\n    tag_487:\n        /* \"#utility.yul\":12407:12478   */\n      swap2\n      pop\n        /* \"#utility.yul\":12363:12488   */\n      pop\n        /* \"#utility.yul\":12150:12495   */\n      swap3\n      swap2\n      pop\n      pop\n      jump\t// out\n        /* \"#utility.yul\":12501:12672   */\n    tag_343:\n        /* \"#utility.yul\":12641:12664   */\n      0x546f6b656e207472616e73666572206661696c65640000000000000000000000\n        /* \"#utility.yul\":12637:12638   */\n      0x00\n        /* \"#utility.yul\":12629:12635   */\n      dup3\n        /* \"#utility.yul\":12625:12639   */\n      add\n        /* \"#utility.yul\":12618:12665   */\n      mstore\n        /* \"#utility.yul\":12501:12672   */\n      pop\n      jump\t// out\n        /* \"#utility.yul\":12678:13044   */\n    tag_344:\n        /* \"#utility.yul\":12820:12823   */\n      0x00\n        /* \"#utility.yul\":12841:12908   */\n      tag_490\n        /* \"#utility.yul\":12905:12907   */\n      0x15\n        /* \"#utility.yul\":12900:12903   */\n      dup4\n        /* \"#utility.yul\":12841:12908   */\n      tag_325\n      jump\t// in\n    tag_490:\n        /* \"#utility.yul\":12834:12908   */\n      swap2\n      pop\n        /* \"#utility.yul\":12917:13010   */\n      tag_491\n        /* \"#utility.yul\":13006:13009   */\n      dup3\n        /* \"#utility.yul\":12917:13010   */\n      tag_343\n      jump\t// in\n    tag_491:\n        /* \"#utility.yul\":13035:13037   */\n      0x20\n        /* \"#utility.yul\":13030:13033   */\n      dup3\n        /* \"#utility.yul\":13026:13038   */\n      add\n        /* \"#utility.yul\":13019:13038   */\n      swap1\n      pop\n        /* \"#utility.yul\":12678:13044   */\n      swap2\n      swap1\n      pop\n      jump\t// out\n        /* \"#utility.yul\":13050:13469   */\n    tag_189:\n        /* \"#utility.yul\":13216:13220   */\n      0x00\n        /* \"#utility.yul\":13254:13256   */\n      0x20\n        /* \"#utility.yul\":13243:13252   */\n      dup3\n        /* \"#utility.yul\":13239:13257   */\n      add\n        /* \"#utility.yul\":13231:13257   */\n      swap1\n      pop\n        /* \"#utility.yul\":13303:13312   */\n      dup2\n        /* \"#utility.yul\":13297:13301   */\n      dup2\n        /* \"#utility.yul\":13293:13313   */\n      sub\n        /* \"#utility.yul\":13289:13290   */\n      0x00\n        /* \"#utility.yul\":13278:13287   */\n      dup4\n        /* \"#utility.yul\":13274:13291   */\n      add\n        /* \"#utility.yul\":13267:13314   */\n      mstore\n        /* \"#utility.yul\":13331:13462   */\n      tag_493\n        /* \"#utility.yul\":13457:13461   */\n      dup2\n        /* \"#utility.yul\":13331:13462   */\n      tag_344\n      jump\t// in\n    tag_493:\n        /* \"#utility.yul\":13323:13462   */\n      swap1\n      pop\n        /* \"#utility.yul\":13050:13469   */\n      swap2\n      swap1\n      pop\n      jump\t// out\n        /* \"#utility.yul\":13475:14028   */\n    tag_191:\n        /* \"#utility.yul\":13652:13656   */\n      0x00\n        /* \"#utility.yul\":13690:13693   */\n      0x80\n        /* \"#utility.yul\":13679:13688   */\n      dup3\n        /* \"#utility.yul\":13675:13694   */\n      add\n        /* \"#utility.yul\":13667:13694   */\n      swap1\n      pop\n        /* \"#utility.yul\":13704:13775   */\n      tag_495\n        /* \"#utility.yul\":13772:13773   */\n      0x00\n        /* \"#utility.yul\":13761:13770   */\n      dup4\n        /* \"#utility.yul\":13757:13774   */\n      add\n        /* \"#utility.yul\":13748:13754   */\n      dup8\n        /* \"#utility.yul\":13704:13775   */\n      tag_307\n      jump\t// in\n    tag_495:\n        /* \"#utility.yul\":13785:13857   */\n      tag_496\n        /* \"#utility.yul\":13853:13855   */\n      0x20\n        /* \"#utility.yul\":13842:13851   */\n      dup4\n        /* \"#utility.yul\":13838:13856   */\n      add\n        /* \"#utility.yul\":13829:13835   */\n      dup7\n        /* \"#utility.yul\":13785:13857   */\n      tag_307\n      jump\t// in\n    tag_496:\n        /* \"#utility.yul\":13867:13939   */\n      tag_497\n        /* \"#utility.yul\":13935:13937   */\n      0x40\n        /* \"#utility.yul\":13924:13933   */\n      dup4\n        /* \"#utility.yul\":13920:13938   */\n      add\n        /* \"#utility.yul\":13911:13917   */\n      dup6\n        /* \"#utility.yul\":13867:13939   */\n      tag_307\n      jump\t// in\n    tag_497:\n        /* \"#utility.yul\":13949:14021   */\n      tag_498\n        /* \"#utility.yul\":14017:14019   */\n      0x60\n        /* \"#utility.yul\":14006:14015   */\n      dup4\n        /* \"#utility.yul\":14002:14020   */\n      add\n        /* \"#utility.yul\":13993:13999   */\n      dup5\n        /* \"#utility.yul\":13949:14021   */\n      tag_307\n      jump\t// in\n    tag_498:\n        /* \"#utility.yul\":13475:14028   */\n      swap6\n      swap5\n      pop\n      pop\n      pop\n      pop\n      pop\n      jump\t// out\n        /* \"#utility.yul\":14034:14177   */\n    tag_345:\n        /* \"#utility.yul\":14091:14096   */\n      0x00\n        /* \"#utility.yul\":14122:14128   */\n      dup2\n        /* \"#utility.yul\":14116:14129   */\n      mload\n        /* \"#utility.yul\":14107:14129   */\n      swap1\n      pop\n        /* \"#utility.yul\":14138:14171   */\n      tag_500\n        /* \"#utility.yul\":14165:14170   */\n      dup2\n        /* \"#utility.yul\":14138:14171   */\n      tag_315\n      jump\t// in\n    tag_500:\n        /* \"#utility.yul\":14034:14177   */\n      swap3\n      swap2\n      pop\n      pop\n      jump\t// out\n        /* \"#utility.yul\":14183:14534   */\n    tag_201:\n        /* \"#utility.yul\":14253:14259   */\n      0x00\n        /* \"#utility.yul\":14302:14304   */\n      0x20\n        /* \"#utility.yul\":14290:14299   */\n      dup3\n        /* \"#utility.yul\":14281:14288   */\n      dup5\n        /* \"#utility.yul\":14277:14300   */\n      sub\n        /* \"#utility.yul\":14273:14305   */\n      slt\n        /* \"#utility.yul\":14270:14389   */\n      iszero\n      tag_502\n      jumpi\n        /* \"#utility.yul\":14308:14387   */\n      tag_503\n      tag_309\n      jump\t// in\n    tag_503:\n        /* \"#utility.yul\":14270:14389   */\n    tag_502:\n        /* \"#utility.yul\":14428:14429   */\n      0x00\n        /* \"#utility.yul\":14453:14517   */\n      tag_504\n        /* \"#utility.yul\":14509:14516   */\n      dup5\n        /* \"#utility.yul\":14500:14506   */\n      dup3\n        /* \"#utility.yul\":14489:14498   */\n      dup6\n        /* \"#utility.yul\":14485:14507   */\n      add\n        /* \"#utility.yul\":14453:14517   */\n      tag_345\n      jump\t// in\n    tag_504:\n        /* \"#utility.yul\":14443:14517   */\n      swap2\n      pop\n        /* \"#utility.yul\":14399:14527   */\n      pop\n        /* \"#utility.yul\":14183:14534   */\n      swap3\n      swap2\n      pop\n      pop\n      jump\t// out\n        /* \"#utility.yul\":14540:14720   */\n    tag_204:\n        /* \"#utility.yul\":14588:14665   */\n      0x4e487b7100000000000000000000000000000000000000000000000000000000\n        /* \"#utility.yul\":14585:14586   */\n      0x00\n        /* \"#utility.yul\":14578:14666   */\n      mstore\n        /* \"#utility.yul\":14685:14689   */\n      0x41\n        /* \"#utility.yul\":14682:14683   */\n      0x04\n        /* \"#utility.yul\":14675:14690   */\n      mstore\n        /* \"#utility.yul\":14709:14713   */\n      0x24\n        /* \"#utility.yul\":14706:14707   */\n      0x00\n        /* \"#utility.yul\":14699:14714   */\n      revert\n        /* \"#utility.yul\":14726:14906   */\n    tag_211:\n        /* \"#utility.yul\":14774:14851   */\n      0x4e487b7100000000000000000000000000000000000000000000000000000000\n        /* \"#utility.yul\":14771:14772   */\n      0x00\n        /* \"#utility.yul\":14764:14852   */\n      mstore\n        /* \"#utility.yul\":14871:14875   */\n      0x32\n        /* \"#utility.yul\":14868:14869   */\n      0x04\n        /* \"#utility.yul\":14861:14876   */\n      mstore\n        /* \"#utility.yul\":14895:14899   */\n      0x24\n        /* \"#utility.yul\":14892:14893   */\n      0x00\n        /* \"#utility.yul\":14885:14900   */\n      revert\n        /* \"#utility.yul\":14912:15081   */\n    tag_346:\n        /* \"#utility.yul\":15052:15073   */\n      0x4e6f206665657320746f20776974686472617700000000000000000000000000\n        /* \"#utility.yul\":15048:15049   */\n      0x00\n        /* \"#utility.yul\":15040:15046   */\n      dup3\n        /* \"#utility.yul\":15036:15050   */\n      add\n        /* \"#utility.yul\":15029:15074   */\n      mstore\n        /* \"#utility.yul\":14912:15081   */\n      pop\n      jump\t// out\n        /* \"#utility.yul\":15087:15453   */\n    tag_347:\n        /* \"#utility.yul\":15229:15232   */\n      0x00\n        /* \"#utility.yul\":15250:15317   */\n      tag_509\n        /* \"#utility.yul\":15314:15316   */\n      0x13\n        /* \"#utility.yul\":15309:15312   */\n      dup4\n        /* \"#utility.yul\":15250:15317   */\n      tag_325\n      jump\t// in\n    tag_509:\n        /* \"#utility.yul\":15243:15317   */\n      swap2\n      pop\n        /* \"#utility.yul\":15326:15419   */\n      tag_510\n        /* \"#utility.yul\":15415:15418   */\n      dup3\n        /* \"#utility.yul\":15326:15419   */\n      tag_346\n      jump\t// in\n    tag_510:\n        /* \"#utility.yul\":15444:15446   */\n      0x20\n        /* \"#utility.yul\":15439:15442   */\n      dup3\n        /* \"#utility.yul\":15435:15447   */\n      add\n        /* \"#utility.yul\":15428:15447   */\n      swap1\n      pop\n        /* \"#utility.yul\":15087:15453   */\n      swap2\n      swap1\n      pop\n      jump\t// out\n        /* \"#utility.yul\":15459:15878   */\n    tag_216:\n        /* \"#utility.yul\":15625:15629   */\n      0x00\n        /* \"#utility.yul\":15663:15665   */\n      0x20\n        /* \"#utility.yul\":15652:15661   */\n      dup3\n        /* \"#utility.yul\":15648:15666   */\n      add\n        /* \"#utility.yul\":15640:15666   */\n      swap1\n      pop\n        /* \"#utility.yul\":15712:15721   */\n      dup2\n        /* \"#utility.yul\":15706:15710   */\n      dup2\n        /* \"#utility.yul\":15702:15722   */\n      sub\n        /* \"#utility.yul\":15698:15699   */\n      0x00\n        /* \"#utility.yul\":15687:15696   */\n      dup4\n        /* \"#utility.yul\":15683:15700   */\n      add\n        /* \"#utility.yul\":15676:15723   */\n      mstore\n        /* \"#utility.yul\":15740:15871   */\n      tag_512\n        /* \"#utility.yul\":15866:15870   */\n      dup2\n        /* \"#utility.yul\":15740:15871   */\n      tag_347\n      jump\t// in\n    tag_512:\n        /* \"#utility.yul\":15732:15871   */\n      swap1\n      pop\n        /* \"#utility.yul\":15459:15878   */\n      swap2\n      swap1\n      pop\n      jump\t// out\n        /* \"#utility.yul\":15884:16056   */\n    tag_348:\n        /* \"#utility.yul\":16024:16048   */\n      0x4163636f756e7420616c72656164792065786973747300000000000000000000\n        /* \"#utility.yul\":16020:16021   */\n      0x00\n        /* \"#utility.yul\":16012:16018   */\n      dup3\n        /* \"#utility.yul\":16008:16022   */\n      add\n        /* \"#utility.yul\":16001:16049   */\n      mstore\n        /* \"#utility.yul\":15884:16056   */\n      pop\n      jump\t// out\n        /* \"#utility.yul\":16062:16428   */\n    tag_349:\n        /* \"#utility.yul\":16204:16207   */\n      0x00\n        /* \"#utility.yul\":16225:16292   */\n      tag_515\n        /* \"#utility.yul\":16289:16291   */\n      0x16\n        /* \"#utility.yul\":16284:16287   */\n      dup4\n        /* \"#utility.yul\":16225:16292   */\n      tag_325\n      jump\t// in\n    tag_515:\n        /* \"#utility.yul\":16218:16292   */\n      swap2\n      pop\n        /* \"#utility.yul\":16301:16394   */\n      tag_516\n        /* \"#utility.yul\":16390:16393   */\n      dup3\n        /* \"#utility.yul\":16301:16394   */\n      tag_348\n      jump\t// in\n    tag_516:\n        /* \"#utility.yul\":16419:16421   */\n      0x20\n        /* \"#utility.yul\":16414:16417   */\n      dup3\n        /* \"#utility.yul\":16410:16422   */\n      add\n        /* \"#utility.yul\":16403:16422   */\n      swap1\n      pop\n        /* \"#utility.yul\":16062:16428   */\n      swap2\n      swap1\n      pop\n      jump\t// out\n        /* \"#utility.yul\":16434:16853   */\n    tag_240:\n        /* \"#utility.yul\":16600:16604   */\n      0x00\n        /* \"#utility.yul\":16638:16640   */\n      0x20\n        /* \"#utility.yul\":16627:16636   */\n      dup3\n        /* \"#utility.yul\":16623:16641   */\n      add\n        /* \"#utility.yul\":16615:16641   */\n      swap1\n      pop\n        /* \"#utility.yul\":16687:16696   */\n      dup2\n        /* \"#utility.yul\":16681:16685   */\n      dup2\n        /* \"#utility.yul\":16677:16697   */\n      sub\n        /* \"#utility.yul\":16673:16674   */\n      0x00\n        /* \"#utility.yul\":16662:16671   */\n      dup4\n        /* \"#utility.yul\":16658:16675   */\n      add\n        /* \"#utility.yul\":16651:16698   */\n      mstore\n        /* \"#utility.yul\":16715:16846   */\n      tag_518\n        /* \"#utility.yul\":16841:16845   */\n      dup2\n        /* \"#utility.yul\":16715:16846   */\n      tag_349\n      jump\t// in\n    tag_518:\n        /* \"#utility.yul\":16707:16846   */\n      swap1\n      pop\n        /* \"#utility.yul\":16434:16853   */\n      swap2\n      swap1\n      pop\n      jump\t// out\n        /* \"#utility.yul\":16859:17030   */\n    tag_350:\n        /* \"#utility.yul\":16999:17022   */\n      0x4665652063616e6e6f7420657863656564203130250000000000000000000000\n        /* \"#utility.yul\":16995:16996   */\n      0x00\n        /* \"#utility.yul\":16987:16993   */\n      dup3\n        /* \"#utility.yul\":16983:16997   */\n      add\n        /* \"#utility.yul\":16976:17023   */\n      mstore\n        /* \"#utility.yul\":16859:17030   */\n      pop\n      jump\t// out\n        /* \"#utility.yul\":17036:17402   */\n    tag_351:\n        /* \"#utility.yul\":17178:17181   */\n      0x00\n        /* \"#utility.yul\":17199:17266   */\n      tag_521\n        /* \"#utility.yul\":17263:17265   */\n      0x15\n        /* \"#utility.yul\":17258:17261   */\n      dup4\n        /* \"#utility.yul\":17199:17266   */\n      tag_325\n      jump\t// in\n    tag_521:\n        /* \"#utility.yul\":17192:17266   */\n      swap2\n      pop\n        /* \"#utility.yul\":17275:17368   */\n      tag_522\n        /* \"#utility.yul\":17364:17367   */\n      dup3\n        /* \"#utility.yul\":17275:17368   */\n      tag_350\n      jump\t// in\n    tag_522:\n        /* \"#utility.yul\":17393:17395   */\n      0x20\n        /* \"#utility.yul\":17388:17391   */\n      dup3\n        /* \"#utility.yul\":17384:17396   */\n      add\n        /* \"#utility.yul\":17377:17396   */\n      swap1\n      pop\n        /* \"#utility.yul\":17036:17402   */\n      swap2\n      swap1\n      pop\n      jump\t// out\n        /* \"#utility.yul\":17408:17827   */\n    tag_246:\n        /* \"#utility.yul\":17574:17578   */\n      0x00\n        /* \"#utility.yul\":17612:17614   */\n      0x20\n        /* \"#utility.yul\":17601:17610   */\n      dup3\n        /* \"#utility.yul\":17597:17615   */\n      add\n        /* \"#utility.yul\":17589:17615   */\n      swap1\n      pop\n        /* \"#utility.yul\":17661:17670   */\n      dup2\n        /* \"#utility.yul\":17655:17659   */\n      dup2\n        /* \"#utility.yul\":17651:17671   */\n      sub\n        /* \"#utility.yul\":17647:17648   */\n      0x00\n        /* \"#utility.yul\":17636:17645   */\n      dup4\n        /* \"#utility.yul\":17632:17649   */\n      add\n        /* \"#utility.yul\":17625:17672   */\n      mstore\n        /* \"#utility.yul\":17689:17820   */\n      tag_524\n        /* \"#utility.yul\":17815:17819   */\n      dup2\n        /* \"#utility.yul\":17689:17820   */\n      tag_351\n      jump\t// in\n    tag_524:\n        /* \"#utility.yul\":17681:17820   */\n      swap1\n      pop\n        /* \"#utility.yul\":17408:17827   */\n      swap2\n      swap1\n      pop\n      jump\t// out\n        /* \"#utility.yul\":17833:18011   */\n    tag_352:\n        /* \"#utility.yul\":17973:18003   */\n      0x416d6f756e742062656c6f77206d696e696d756d206465706f73697400000000\n        /* \"#utility.yul\":17969:17970   */\n      0x00\n        /* \"#utility.yul\":17961:17967   */\n      dup3\n        /* \"#utility.yul\":17957:17971   */\n      add\n        /* \"#utility.yul\":17950:18004   */\n      mstore\n        /* \"#utility.yul\":17833:18011   */\n      pop\n      jump\t// out\n        /* \"#utility.yul\":18017:18383   */\n    tag_353:\n        /* \"#utility.yul\":18159:18162   */\n      0x00\n        /* \"#utility.yul\":18180:18247   */\n      tag_527\n        /* \"#utility.yul\":18244:18246   */\n      0x1c\n        /* \"#utility.yul\":18239:18242   */\n      dup4\n        /* \"#utility.yul\":18180:18247   */\n      tag_325\n      jump\t// in\n    tag_527:\n        /* \"#utility.yul\":18173:18247   */\n      swap2\n      pop\n        /* \"#utility.yul\":18256:18349   */\n      tag_528\n        /* \"#utility.yul\":18345:18348   */\n      dup3\n        /* \"#utility.yul\":18256:18349   */\n      tag_352\n      jump\t// in\n    tag_528:\n        /* \"#utility.yul\":18374:18376   */\n      0x20\n        /* \"#utility.yul\":18369:18372   */\n      dup3\n        /* \"#utility.yul\":18365:18377   */\n      add\n        /* \"#utility.yul\":18358:18377   */\n      swap1\n      pop\n        /* \"#utility.yul\":18017:18383   */\n      swap2\n      swap1\n      pop\n      jump\t// out\n        /* \"#utility.yul\":18389:18808   */\n    tag_256:\n        /* \"#utility.yul\":18555:18559   */\n      0x00\n        /* \"#utility.yul\":18593:18595   */\n      0x20\n        /* \"#utility.yul\":18582:18591   */\n      dup3\n        /* \"#utility.yul\":18578:18596   */\n      add\n        /* \"#utility.yul\":18570:18596   */\n      swap1\n      pop\n        /* \"#utility.yul\":18642:18651   */\n      dup2\n        /* \"#utility.yul\":18636:18640   */\n      dup2\n        /* \"#utility.yul\":18632:18652   */\n      sub\n        /* \"#utility.yul\":18628:18629   */\n      0x00\n        /* \"#utility.yul\":18617:18626   */\n      dup4\n        /* \"#utility.yul\":18613:18630   */\n      add\n        /* \"#utility.yul\":18606:18653   */\n      mstore\n        /* \"#utility.yul\":18670:18801   */\n      tag_530\n        /* \"#utility.yul\":18796:18800   */\n      dup2\n        /* \"#utility.yul\":18670:18801   */\n      tag_353\n      jump\t// in\n    tag_530:\n        /* \"#utility.yul\":18662:18801   */\n      swap1\n      pop\n        /* \"#utility.yul\":18389:18808   */\n      swap2\n      swap1\n      pop\n      jump\t// out\n        /* \"#utility.yul\":18814:19035   */\n    tag_354:\n        /* \"#utility.yul\":18954:18988   */\n      0x4465706f73697420776f756c64206578636565642062616e6b20636170616369\n        /* \"#utility.yul\":18950:18951   */\n      0x00\n        /* \"#utility.yul\":18942:18948   */\n      dup3\n        /* \"#utility.yul\":18938:18952   */\n      add\n        /* \"#utility.yul\":18931:18989   */\n      mstore\n        /* \"#utility.yul\":19023:19027   */\n      0x7479000000000000000000000000000000000000000000000000000000000000\n        /* \"#utility.yul\":19018:19020   */\n      0x20\n        /* \"#utility.yul\":19010:19016   */\n      dup3\n        /* \"#utility.yul\":19006:19021   */\n      add\n        /* \"#utility.yul\":18999:19028   */\n      mstore\n        /* \"#utility.yul\":18814:19035   */\n      pop\n      jump\t// out\n        /* \"#utility.yul\":19041:19407   */\n    tag_355:\n        /* \"#utility.yul\":19183:19186   */\n      0x00\n        /* \"#utility.yul\":19204:19271   */\n      tag_533\n        /* \"#utility.yul\":19268:19270   */\n      0x22\n        /* \"#utility.yul\":19263:19266   */\n      dup4\n        /* \"#utility.yul\":19204:19271   */\n      tag_325\n      jump\t// in\n    tag_533:\n        /* \"#utility.yul\":19197:19271   */\n      swap2\n      pop\n        /* \"#utility.yul\":19280:19373   */\n      tag_534\n        /* \"#utility.yul\":19369:19372   */\n      dup3\n        /* \"#utility.yul\":19280:19373   */\n      tag_354\n      jump\t// in\n    tag_534:\n        /* \"#utility.yul\":19398:19400   */\n      0x40\n        /* \"#utility.yul\":19393:19396   */\n      dup3\n        /* \"#utility.yul\":19389:19401   */\n      add\n        /* \"#utility.yul\":19382:19401   */\n      swap1\n      pop\n        /* \"#utility.yul\":19041:19407   */\n      swap2\n      swap1\n      pop\n      jump\t// out\n        /* \"#utility.yul\":19413:19832   */\n    tag_260:\n        /* \"#utility.yul\":19579:19583   */\n      0x00\n        /* \"#utility.yul\":19617:19619   */\n      0x20\n        /* \"#utility.yul\":19606:19615   */\n      dup3\n        /* \"#utility.yul\":19602:19620   */\n      add\n        /* \"#utility.yul\":19594:19620   */\n      swap1\n      pop\n        /* \"#utility.yul\":19666:19675   */\n      dup2\n        /* \"#utility.yul\":19660:19664   */\n      dup2\n        /* \"#utility.yul\":19656:19676   */\n      sub\n        /* \"#utility.yul\":19652:19653   */\n      0x00\n        /* \"#utility.yul\":19641:19650   */\n      dup4\n        /* \"#utility.yul\":19637:19654   */\n      add\n        /* \"#utility.yul\":19630:19677   */\n      mstore\n        /* \"#utility.yul\":19694:19825   */\n      tag_536\n        /* \"#utility.yul\":19820:19824   */\n      dup2\n        /* \"#utility.yul\":19694:19825   */\n      tag_355\n      jump\t// in\n    tag_536:\n        /* \"#utility.yul\":19686:19825   */\n      swap1\n      pop\n        /* \"#utility.yul\":19413:19832   */\n      swap2\n      swap1\n      pop\n      jump\t// out\n        /* \"#utility.yul\":19838:20280   */\n    tag_262:\n        /* \"#utility.yul\":19987:19991   */\n      0x00\n        /* \"#utility.yul\":20025:20027   */\n      0x60\n        /* \"#utility.yul\":20014:20023   */\n      dup3\n        /* \"#utility.yul\":20010:20028   */\n      add\n        /* \"#utility.yul\":20002:20028   */\n      swap1\n      pop\n        /* \"#utility.yul\":20038:20109   */\n      tag_538\n        /* \"#utility.yul\":20106:20107   */\n      0x00\n        /* \"#utility.yul\":20095:20104   */\n      dup4\n        /* \"#utility.yul\":20091:20108   */\n      add\n        /* \"#utility.yul\":20082:20088   */\n      dup7\n        /* \"#utility.yul\":20038:20109   */\n      tag_319\n      jump\t// in\n    tag_538:\n        /* \"#utility.yul\":20119:20191   */\n      tag_539\n        /* \"#utility.yul\":20187:20189   */\n      0x20\n        /* \"#utility.yul\":20176:20185   */\n      dup4\n        /* \"#utility.yul\":20172:20190   */\n      add\n        /* \"#utility.yul\":20163:20169   */\n      dup6\n        /* \"#utility.yul\":20119:20191   */\n      tag_319\n      jump\t// in\n    tag_539:\n        /* \"#utility.yul\":20201:20273   */\n      tag_540\n        /* \"#utility.yul\":20269:20271   */\n      0x40\n        /* \"#utility.yul\":20258:20267   */\n      dup4\n        /* \"#utility.yul\":20254:20272   */\n      add\n        /* \"#utility.yul\":20245:20251   */\n      dup5\n        /* \"#utility.yul\":20201:20273   */\n      tag_307\n      jump\t// in\n    tag_540:\n        /* \"#utility.yul\":19838:20280   */\n      swap5\n      swap4\n      pop\n      pop\n      pop\n      pop\n      jump\t// out\n        /* \"#utility.yul\":20286:20728   */\n    tag_274:\n        /* \"#utility.yul\":20435:20439   */\n      0x00\n        /* \"#utility.yul\":20473:20475   */\n      0x60\n        /* \"#utility.yul\":20462:20471   */\n      dup3\n        /* \"#utility.yul\":20458:20476   */\n      add\n        /* \"#utility.yul\":20450:20476   */\n      swap1\n      pop\n        /* \"#utility.yul\":20486:20557   */\n      tag_542\n        /* \"#utility.yul\":20554:20555   */\n      0x00\n        /* \"#utility.yul\":20543:20552   */\n      dup4\n        /* \"#utility.yul\":20539:20556   */\n      add\n        /* \"#utility.yul\":20530:20536   */\n      dup7\n        /* \"#utility.yul\":20486:20557   */\n      tag_307\n      jump\t// in\n    tag_542:\n        /* \"#utility.yul\":20567:20639   */\n      tag_543\n        /* \"#utility.yul\":20635:20637   */\n      0x20\n        /* \"#utility.yul\":20624:20633   */\n      dup4\n        /* \"#utility.yul\":20620:20638   */\n      add\n        /* \"#utility.yul\":20611:20617   */\n      dup6\n        /* \"#utility.yul\":20567:20639   */\n      tag_307\n      jump\t// in\n    tag_543:\n        /* \"#utility.yul\":20649:20721   */\n      tag_544\n        /* \"#utility.yul\":20717:20719   */\n      0x40\n        /* \"#utility.yul\":20706:20715   */\n      dup4\n        /* \"#utility.yul\":20702:20720   */\n      add\n        /* \"#utility.yul\":20693:20699   */\n      dup5\n        /* \"#utility.yul\":20649:20721   */\n      tag_307\n      jump\t// in\n    tag_544:\n        /* \"#utility.yul\":20286:20728   */\n      swap5\n      swap4\n      pop\n      pop\n      pop\n      pop\n      jump\t// out\n\n    auxdata: 0xa2646970667358221220275b3dc24617eee1dfda248a86d7618a8637b25cf39a86559c505f5c1db94e6764736f6c634300081e0033\n}\n",
				"bytecode": {
					"linkReferences": {},
					"object": "60c060405268056bc75e2d6310000060075560056008556201518060095560c860a090815250348015610030575f5ffd5b506040516127b23803806127b283398181016040528101906100529190610367565b335f73ffffffffffffffffffffffffffffffffffffffff168173ffffffffffffffffffffffffffffffffffffffff16036100c3575f6040517f1e4fbdf70000000000000000000000000000000000000000000000000000000081526004016100ba91906103b4565b60405180910390fd5b6100d28161021560201b60201c565b50600180819055505f73ffffffffffffffffffffffffffffffffffffffff168273ffffffffffffffffffffffffffffffffffffffff160361014a57816040517f9771e7a300000000000000000000000000000000000000000000000000000000815260040161014191906103b4565b60405180910390fd5b5f81101561018f57806040517f7eeee0e100000000000000000000000000000000000000000000000000000000815260040161018691906103dc565b60405180910390fd5b8160025f6101000a81548173ffffffffffffffffffffffffffffffffffffffff021916908373ffffffffffffffffffffffffffffffffffffffff16021790555080608081815250507fd8224a2376272b81083832b8284e6cd2d1c3fd0c1951cbe8a9c1d20c534e8b538160405161020691906103dc565b60405180910390a150506103f5565b5f5f5f9054906101000a900473ffffffffffffffffffffffffffffffffffffffff169050815f5f6101000a81548173ffffffffffffffffffffffffffffffffffffffff021916908373ffffffffffffffffffffffffffffffffffffffff1602179055508173ffffffffffffffffffffffffffffffffffffffff168173ffffffffffffffffffffffffffffffffffffffff167f8be0079c531659141344cd1fd0a4f28419497f9722a3daafe3b4186f6b6457e060405160405180910390a35050565b5f5ffd5b5f73ffffffffffffffffffffffffffffffffffffffff82169050919050565b5f610303826102da565b9050919050565b610313816102f9565b811461031d575f5ffd5b50565b5f8151905061032e8161030a565b92915050565b5f819050919050565b61034681610334565b8114610350575f5ffd5b50565b5f815190506103618161033d565b92915050565b5f5f6040838503121561037d5761037c6102d6565b5b5f61038a85828601610320565b925050602061039b85828601610353565b9150509250929050565b6103ae816102f9565b82525050565b5f6020820190506103c75f8301846103a5565b92915050565b6103d681610334565b82525050565b5f6020820190506103ef5f8301846103cd565b92915050565b60805160a05161239561041d5f395f6108a901525f818161127a01526116a901526123955ff3fe608060405260043610610165575f3560e01c80638da5cb5b116100d0578063b6e7d83011610089578063e78ec42e11610063578063e78ec42e146104d5578063ecbea24d146104fd578063f2fde38b14610527578063fc0c546a1461054f57610165565b8063b6e7d83014610445578063c847119d1461046f578063d3b5f5201461049957610165565b80638da5cb5b1461035b57806393423e9c146103855780639dca362f146103c1578063ac1e5025146103d7578063b30d5815146103ff578063b6b55f251461042957610165565b80635e5c06e2116101225780635e5c06e21461025f578063636bfbab1461029f578063715018a6146102c9578063779972da146102df5780637d882097146103075780638bc7e8c41461033157610165565b80630770e571146101695780631bae91a41461019357806326a4e8d2146101cf5780632e1a7d4d146101f75780633fd8b02f1461021f578063476343ee14610249575b5f5ffd5b348015610174575f5ffd5b5061017d610579565b60405161018a9190611960565b60405180910390f35b34801561019e575f5ffd5b506101b960048036038101906101b491906119d7565b61057f565b6040516101c69190611960565b60405180910390f35b3480156101da575f5ffd5b506101f560048036038101906101f091906119d7565b610654565b005b348015610202575f5ffd5b5061021d60048036038101906102189190611a2c565b610744565b005b34801561022a575f5ffd5b50610233610b26565b6040516102409190611960565b60405180910390f35b348015610254575f5ffd5b5061025d610b2c565b005b34801561026a575f5ffd5b50610285600480360381019061028091906119d7565b610de1565b604051610296959493929190611a71565b60405180910390f35b3480156102aa575f5ffd5b506102b3610e1f565b6040516102c09190611960565b60405180910390f35b3480156102d4575f5ffd5b506102dd610e25565b005b3480156102ea575f5ffd5b5061030560048036038101906103009190611a2c565b610e38565b005b348015610312575f5ffd5b5061031b610e81565b6040516103289190611960565b60405180910390f35b34801561033c575f5ffd5b50610345610e87565b6040516103529190611960565b60405180910390f35b348015610366575f5ffd5b5061036f610e8d565b60405161037c9190611ad1565b60405180910390f35b348015610390575f5ffd5b506103ab60048036038101906103a691906119d7565b610eb4565b6040516103b89190611960565b60405180910390f35b3480156103cc575f5ffd5b506103d5610f88565b005b3480156103e2575f5ffd5b506103fd60048036038101906103f89190611a2c565b611109565b005b34801561040a575f5ffd5b50610413611196565b6040516104209190611960565b60405180910390f35b610443600480360381019061043e9190611a2c565b61119f565b005b348015610450575f5ffd5b5061045961157a565b6040516104669190611960565b60405180910390f35b34801561047a575f5ffd5b50610483611583565b6040516104909190611960565b60405180910390f35b3480156104a4575f5ffd5b506104bf60048036038101906104ba91906119d7565b611589565b6040516104cc9190611960565b60405180910390f35b3480156104e0575f5ffd5b506104fb60048036038101906104f69190611a2c565b61165e565b005b348015610508575f5ffd5b506105116116a7565b60405161051e9190611960565b60405180910390f35b348015610532575f5ffd5b5061054d600480360381019061054891906119d7565b6116cb565b005b34801561055a575f5ffd5b5061056361174f565b6040516105709190611b45565b60405180910390f35b60055481565b5f60065f8373ffffffffffffffffffffffffffffffffffffffff1673ffffffffffffffffffffffffffffffffffffffff1681526020019081526020015f206002015f9054906101000a900460ff1661060c576040517f08c379a000000000000000000000000000000000000000000000000000000000815260040161060390611bb8565b60405180910390fd5b60065f8373ffffffffffffffffffffffffffffffffffffffff1673ffffffffffffffffffffffffffffffffffffffff1681526020019081526020015f20600301549050919050565b61065c611774565b5f73ffffffffffffffffffffffffffffffffffffffff168173ffffffffffffffffffffffffffffffffffffffff16036106ca576040517f08c379a00000000000000000000000000000000000000000000000000000000081526004016106c190611c20565b60405180910390fd5b8060025f6101000a81548173ffffffffffffffffffffffffffffffffffffffff021916908373ffffffffffffffffffffffffffffffffffffffff1602179055507f2f0c7f17be551d1f4566672cd67adbe50173e96632f56ff80d80acc4ac00f328816040516107399190611ad1565b60405180910390a150565b61074c6117fb565b5f60065f3373ffffffffffffffffffffffffffffffffffffffff1673ffffffffffffffffffffffffffffffffffffffff1681526020019081526020015f205f0154116107d157335f6040517f474784260000000000000000000000000000000000000000000000000000000081526004016107c8929190611c77565b60405180910390fd5b5f60065f3373ffffffffffffffffffffffffffffffffffffffff1673ffffffffffffffffffffffffffffffffffffffff1681526020019081526020015f209050806002015f9054906101000a900460ff16610861576040517f08c379a000000000000000000000000000000000000000000000000000000000815260040161085890611bb8565b60405180910390fd5b81815f015410156108a7576040517f08c379a000000000000000000000000000000000000000000000000000000000815260040161089e90611ce8565b60405180910390fd5b7f000000000000000000000000000000000000000000000000000000000000000082111561090a576040517f08c379a000000000000000000000000000000000000000000000000000000000815260040161090190611d50565b60405180910390fd5b600954816001015461091c9190611d9b565b42101561095e576040517f08c379a000000000000000000000000000000000000000000000000000000000815260040161095590611e18565b60405180910390fd5b5f60646008548461096f9190611e36565b6109799190611ea4565b90505f81846109889190611ed4565b905083835f015f82825461099c9190611ed4565b925050819055506001836004015f8282546109b79190611d9b565b925050819055508360035f8282546109cf9190611ed4565b925050819055506109de611841565b5f60025f9054906101000a900473ffffffffffffffffffffffffffffffffffffffff1673ffffffffffffffffffffffffffffffffffffffff1663a9059cbb33846040518363ffffffff1660e01b8152600401610a3b929190611f07565b6020604051808303815f875af1158015610a57573d5f5f3e3d5ffd5b505050506040513d601f19601f82011682018060405250810190610a7b9190611f58565b905080610abd576040517f08c379a0000000000000000000000000000000000000000000000000000000008152600401610ab490611fcd565b60405180910390fd5b3373ffffffffffffffffffffffffffffffffffffffff167f94ffd6b85c71b847775c89ef6496b93cee961bdc6ff827fd117f174f06f745ae86858760040154600554604051610b0f9493929190611feb565b60405180910390a250505050610b2361185c565b50565b60095481565b610b34611774565b5f60025f9054906101000a900473ffffffffffffffffffffffffffffffffffffffff1673ffffffffffffffffffffffffffffffffffffffff166370a08231306040518263ffffffff1660e01b8152600401610b8f9190611ad1565b602060405180830381865afa158015610baa573d5f5f3e3d5ffd5b505050506040513d601f19601f82011682018060405250810190610bce9190612042565b90505f5f90505f5f67ffffffffffffffff811115610bef57610bee61206d565b5b604051908082528060200260200182016040528015610c1d5781602001602082028036833780820191505090505b5090505f5f90505b8151811015610ca25760065f838381518110610c4457610c4361209a565b5b602002602001015173ffffffffffffffffffffffffffffffffffffffff1673ffffffffffffffffffffffffffffffffffffffff1681526020019081526020015f205f015483610c939190611d9b565b92508080600101915050610c25565b505f8284610cb09190611ed4565b90505f8111610cf4576040517f08c379a0000000000000000000000000000000000000000000000000000000008152600401610ceb90612111565b60405180910390fd5b5f60025f9054906101000a900473ffffffffffffffffffffffffffffffffffffffff1673ffffffffffffffffffffffffffffffffffffffff1663a9059cbb610d3a610e8d565b846040518363ffffffff1660e01b8152600401610d58929190611f07565b6020604051808303815f875af1158015610d74573d5f5f3e3d5ffd5b505050506040513d601f19601f82011682018060405250810190610d989190611f58565b905080610dda576040517f08c379a0000000000000000000000000000000000000000000000000000000008152600401610dd190611fcd565b60405180910390fd5b5050505050565b6006602052805f5260405f205f91509050805f015490806001015490806002015f9054906101000a900460ff16908060030154908060040154905085565b60075481565b610e2d611774565b610e365f611865565b565b610e40611774565b806009819055507f8249ec545e68f6f1e1230133ca48c704d831a7f8e635ded80f3dd9e99b09bb2f81604051610e769190611960565b60405180910390a150565b60035481565b60085481565b5f5f5f9054906101000a900473ffffffffffffffffffffffffffffffffffffffff16905090565b5f60065f8373ffffffffffffffffffffffffffffffffffffffff1673ffffffffffffffffffffffffffffffffffffffff1681526020019081526020015f206002015f9054906101000a900460ff16610f41576040517f08c379a0000000000000000000000000000000000000000000000000000000008152600401610f3890611bb8565b60405180910390fd5b60065f8373ffffffffffffffffffffffffffffffffffffffff1673ffffffffffffffffffffffffffffffffffffffff1681526020019081526020015f205f01549050919050565b60065f3373ffffffffffffffffffffffffffffffffffffffff1673ffffffffffffffffffffffffffffffffffffffff1681526020019081526020015f206002015f9054906101000a900460ff1615611015576040517f08c379a000000000000000000000000000000000000000000000000000000000815260040161100c90612179565b60405180910390fd5b6040518060a001604052805f81526020015f81526020016001151581526020015f81526020015f81525060065f3373ffffffffffffffffffffffffffffffffffffffff1673ffffffffffffffffffffffffffffffffffffffff1681526020019081526020015f205f820151815f0155602082015181600101556040820151816002015f6101000a81548160ff02191690831515021790555060608201518160030155608082015181600401559050503373ffffffffffffffffffffffffffffffffffffffff167f805996f252884581e2f74cf3d2b03564d5ec26ccc90850ae12653dc1b72d1fa260405160405180910390a2565b611111611774565b600a811115611155576040517f08c379a000000000000000000000000000000000000000000000000000000000815260040161114c906121e1565b60405180910390fd5b806008819055507fe94edcc114da5287ecb30ee8aacf12e6c16b11b8583d7f9e477ab1616e33d53d8160405161118b9190611960565b60405180910390a150565b5f600454905090565b6111a76117fb565b60065f3373ffffffffffffffffffffffffffffffffffffffff1673ffffffffffffffffffffffffffffffffffffffff1681526020019081526020015f206002015f9054906101000a900460ff16611233576040517f08c379a000000000000000000000000000000000000000000000000000000000815260040161122a90611bb8565b60405180910390fd5b600754811015611278576040517f08c379a000000000000000000000000000000000000000000000000000000000815260040161126f90612249565b60405180910390fd5b7f0000000000000000000000000000000000000000000000000000000000000000816003546112a79190611d9b565b11156112e8576040517f08c379a00000000000000000000000000000000000000000000000000000000081526004016112df906122d7565b60405180910390fd5b5f60025f9054906101000a900473ffffffffffffffffffffffffffffffffffffffff1673ffffffffffffffffffffffffffffffffffffffff166323b872dd3330856040518463ffffffff1660e01b8152600401611347939291906122f5565b6020604051808303815f875af1158015611363573d5f5f3e3d5ffd5b505050506040513d601f19601f820116820180604052508101906113879190611f58565b9050806113c9576040517f08c379a00000000000000000000000000000000000000000000000000000000081526004016113c090611fcd565b60405180910390fd5b8160065f3373ffffffffffffffffffffffffffffffffffffffff1673ffffffffffffffffffffffffffffffffffffffff1681526020019081526020015f205f015f8282546114179190611d9b565b925050819055504260065f3373ffffffffffffffffffffffffffffffffffffffff1673ffffffffffffffffffffffffffffffffffffffff1681526020019081526020015f2060010181905550600160065f3373ffffffffffffffffffffffffffffffffffffffff1673ffffffffffffffffffffffffffffffffffffffff1681526020019081526020015f206003015f8282546114b39190611d9b565b925050819055508160035f8282546114cb9190611d9b565b925050819055506114da611926565b3373ffffffffffffffffffffffffffffffffffffffff167f91ede45f04a37a7c170f5c1207df3b6bc748dc1e04ad5e917a241d0f52feada38360065f3373ffffffffffffffffffffffffffffffffffffffff1673ffffffffffffffffffffffffffffffffffffffff1681526020019081526020015f20600301546004546040516115669392919061232a565b60405180910390a25061157761185c565b50565b5f600554905090565b60045481565b5f60065f8373ffffffffffffffffffffffffffffffffffffffff1673ffffffffffffffffffffffffffffffffffffffff1681526020019081526020015f206002015f9054906101000a900460ff16611616576040517f08c379a000000000000000000000000000000000000000000000000000000000815260040161160d90611bb8565b60405180910390fd5b60065f8373ffffffffffffffffffffffffffffffffffffffff1673ffffffffffffffffffffffffffffffffffffffff1681526020019081526020015f20600401549050919050565b611666611774565b806007819055507fd939191be6b640bc40ef7c6a17554ac82dfea02602fcacfad13dcd71d0abe6d08160405161169c9190611960565b60405180910390a150565b7f000000000000000000000000000000000000000000000000000000000000000081565b6116d3611774565b5f73ffffffffffffffffffffffffffffffffffffffff168173ffffffffffffffffffffffffffffffffffffffff1603611743575f6040517f1e4fbdf700000000000000000000000000000000000000000000000000000000815260040161173a9190611ad1565b60405180910390fd5b61174c81611865565b50565b60025f9054906101000a900473ffffffffffffffffffffffffffffffffffffffff1681565b61177c611941565b73ffffffffffffffffffffffffffffffffffffffff1661179a610e8d565b73ffffffffffffffffffffffffffffffffffffffff16146117f9576117bd611941565b6040517f118cdaa70000000000000000000000000000000000000000000000000000000081526004016117f09190611ad1565b60405180910390fd5b565b600260015403611837576040517f3ee5aeb500000000000000000000000000000000000000000000000000000000815260040160405180910390fd5b6002600181905550565b600160055f8282546118539190611d9b565b92505081905550565b60018081905550565b5f5f5f9054906101000a900473ffffffffffffffffffffffffffffffffffffffff169050815f5f6101000a81548173ffffffffffffffffffffffffffffffffffffffff021916908373ffffffffffffffffffffffffffffffffffffffff1602179055508173ffffffffffffffffffffffffffffffffffffffff168173ffffffffffffffffffffffffffffffffffffffff167f8be0079c531659141344cd1fd0a4f28419497f9722a3daafe3b4186f6b6457e060405160405180910390a35050565b600160045f8282546119389190611d9b565b92505081905550565b5f33905090565b5f819050919050565b61195a81611948565b82525050565b5f6020820190506119735f830184611951565b92915050565b5f5ffd5b5f73ffffffffffffffffffffffffffffffffffffffff82169050919050565b5f6119a68261197d565b9050919050565b6119b68161199c565b81146119c0575f5ffd5b50565b5f813590506119d1816119ad565b92915050565b5f602082840312156119ec576119eb611979565b5b5f6119f9848285016119c3565b91505092915050565b611a0b81611948565b8114611a15575f5ffd5b50565b5f81359050611a2681611a02565b92915050565b5f60208284031215611a4157611a40611979565b5b5f611a4e84828501611a18565b91505092915050565b5f8115159050919050565b611a6b81611a57565b82525050565b5f60a082019050611a845f830188611951565b611a916020830187611951565b611a9e6040830186611a62565b611aab6060830185611951565b611ab86080830184611951565b9695505050505050565b611acb8161199c565b82525050565b5f602082019050611ae45f830184611ac2565b92915050565b5f819050919050565b5f611b0d611b08611b038461197d565b611aea565b61197d565b9050919050565b5f611b1e82611af3565b9050919050565b5f611b2f82611b14565b9050919050565b611b3f81611b25565b82525050565b5f602082019050611b585f830184611b36565b92915050565b5f82825260208201905092915050565b7f4163636f756e7420646f6573206e6f74206578697374000000000000000000005f82015250565b5f611ba2601683611b5e565b9150611bad82611b6e565b602082019050919050565b5f6020820190508181035f830152611bcf81611b96565b9050919050565b7f546f6b656e20616464726573732063616e6e6f74206265207a65726f000000005f82015250565b5f611c0a601c83611b5e565b9150611c1582611bd6565b602082019050919050565b5f6020820190508181035f830152611c3781611bfe565b9050919050565b5f819050919050565b5f611c61611c5c611c5784611c3e565b611aea565b611948565b9050919050565b611c7181611c47565b82525050565b5f604082019050611c8a5f830185611ac2565b611c976020830184611c68565b9392505050565b7f496e73756666696369656e742062616c616e63650000000000000000000000005f82015250565b5f611cd2601483611b5e565b9150611cdd82611c9e565b602082019050919050565b5f6020820190508181035f830152611cff81611cc6565b9050919050565b7f43616e6e6f7420657863656564207769746864726177616c206c696d697400005f82015250565b5f611d3a601e83611b5e565b9150611d4582611d06565b602082019050919050565b5f6020820190508181035f830152611d6781611d2e565b9050919050565b7f4e487b71000000000000000000000000000000000000000000000000000000005f52601160045260245ffd5b5f611da582611948565b9150611db083611948565b9250828201905080821115611dc857611dc7611d6e565b5b92915050565b7f46756e647320617265206c6f636b6564000000000000000000000000000000005f82015250565b5f611e02601083611b5e565b9150611e0d82611dce565b602082019050919050565b5f6020820190508181035f830152611e2f81611df6565b9050919050565b5f611e4082611948565b9150611e4b83611948565b9250828202611e5981611948565b91508282048414831517611e7057611e6f611d6e565b5b5092915050565b7f4e487b71000000000000000000000000000000000000000000000000000000005f52601260045260245ffd5b5f611eae82611948565b9150611eb983611948565b925082611ec957611ec8611e77565b5b828204905092915050565b5f611ede82611948565b9150611ee983611948565b9250828203905081811115611f0157611f00611d6e565b5b92915050565b5f604082019050611f1a5f830185611ac2565b611f276020830184611951565b9392505050565b611f3781611a57565b8114611f41575f5ffd5b50565b5f81519050611f5281611f2e565b92915050565b5f60208284031215611f6d57611f6c611979565b5b5f611f7a84828501611f44565b91505092915050565b7f546f6b656e207472616e73666572206661696c656400000000000000000000005f82015250565b5f611fb7601583611b5e565b9150611fc282611f83565b602082019050919050565b5f6020820190508181035f830152611fe481611fab565b9050919050565b5f608082019050611ffe5f830187611951565b61200b6020830186611951565b6120186040830185611951565b6120256060830184611951565b95945050505050565b5f8151905061203c81611a02565b92915050565b5f6020828403121561205757612056611979565b5b5f6120648482850161202e565b91505092915050565b7f4e487b71000000000000000000000000000000000000000000000000000000005f52604160045260245ffd5b7f4e487b71000000000000000000000000000000000000000000000000000000005f52603260045260245ffd5b7f4e6f206665657320746f207769746864726177000000000000000000000000005f82015250565b5f6120fb601383611b5e565b9150612106826120c7565b602082019050919050565b5f6020820190508181035f830152612128816120ef565b9050919050565b7f4163636f756e7420616c726561647920657869737473000000000000000000005f82015250565b5f612163601683611b5e565b915061216e8261212f565b602082019050919050565b5f6020820190508181035f83015261219081612157565b9050919050565b7f4665652063616e6e6f74206578636565642031302500000000000000000000005f82015250565b5f6121cb601583611b5e565b91506121d682612197565b602082019050919050565b5f6020820190508181035f8301526121f8816121bf565b9050919050565b7f416d6f756e742062656c6f77206d696e696d756d206465706f736974000000005f82015250565b5f612233601c83611b5e565b915061223e826121ff565b602082019050919050565b5f6020820190508181035f83015261226081612227565b9050919050565b7f4465706f73697420776f756c64206578636565642062616e6b206361706163695f8201527f7479000000000000000000000000000000000000000000000000000000000000602082015250565b5f6122c1602283611b5e565b91506122cc82612267565b604082019050919050565b5f6020820190508181035f8301526122ee816122b5565b9050919050565b5f6060820190506123085f830186611ac2565b6123156020830185611ac2565b6123226040830184611951565b949350505050565b5f60608201905061233d5f830186611951565b61234a6020830185611951565b6123576040830184611951565b94935050505056fea2646970667358221220275b3dc24617eee1dfda248a86d7618a8637b25cf39a86559c505f5c1db94e6764736f6c634300081e0033",
					"opcodes": "PUSH1 0xC0 PUSH1 0x40 MSTORE PUSH9 0x56BC75E2D63100000 PUSH1 0x7 SSTORE PUSH1 0x5 PUSH1 0x8 SSTORE PUSH3 0x15180 PUSH1 0x9 SSTORE PUSH1 0xC8 PUSH1 0xA0 SWAP1 DUP2 MSTORE POP CALLVALUE DUP1 ISZERO PUSH2 0x30 JUMPI PUSH0 PUSH0 REVERT JUMPDEST POP PUSH1 0x40 MLOAD PUSH2 0x27B2 CODESIZE SUB DUP1 PUSH2 0x27B2 DUP4 CODECOPY DUP2 DUP2 ADD PUSH1 0x40 MSTORE DUP2 ADD SWAP1 PUSH2 0x52 SWAP2 SWAP1 PUSH2 0x367 JUMP JUMPDEST CALLER PUSH0 PUSH20 0xFFFFFFFFFFFFFFFFFFFFFFFFFFFFFFFFFFFFFFFF AND DUP2 PUSH20 0xFFFFFFFFFFFFFFFFFFFFFFFFFFFFFFFFFFFFFFFF AND SUB PUSH2 0xC3 JUMPI PUSH0 PUSH1 0x40 MLOAD PUSH32 0x1E4FBDF700000000000000000000000000000000000000000000000000000000 DUP2 MSTORE PUSH1 0x4 ADD PUSH2 0xBA SWAP2 SWAP1 PUSH2 0x3B4 JUMP JUMPDEST PUSH1 0x40 MLOAD DUP1 SWAP2 SUB SWAP1 REVERT JUMPDEST PUSH2 0xD2 DUP2 PUSH2 0x215 PUSH1 0x20 SHL PUSH1 0x20 SHR JUMP JUMPDEST POP PUSH1 0x1 DUP1 DUP2 SWAP1 SSTORE POP PUSH0 PUSH20 0xFFFFFFFFFFFFFFFFFFFFFFFFFFFFFFFFFFFFFFFF AND DUP3 PUSH20 0xFFFFFFFFFFFFFFFFFFFFFFFFFFFFFFFFFFFFFFFF AND SUB PUSH2 0x14A JUMPI DUP2 PUSH1 0x40 MLOAD PUSH32 0x9771E7A300000000000000000000000000000000000000000000000000000000 DUP2 MSTORE PUSH1 0x4 ADD PUSH2 0x141 SWAP2 SWAP1 PUSH2 0x3B4 JUMP JUMPDEST PUSH1 0x40 MLOAD DUP1 SWAP2 SUB SWAP1 REVERT JUMPDEST PUSH0 DUP2 LT ISZERO PUSH2 0x18F JUMPI DUP1 PUSH1 0x40 MLOAD PUSH32 0x7EEEE0E100000000000000000000000000000000000000000000000000000000 DUP2 MSTORE PUSH1 0x4 ADD PUSH2 0x186 SWAP2 SWAP1 PUSH2 0x3DC JUMP JUMPDEST PUSH1 0x40 MLOAD DUP1 SWAP2 SUB SWAP1 REVERT JUMPDEST DUP2 PUSH1 0x2 PUSH0 PUSH2 0x100 EXP DUP2 SLOAD DUP2 PUSH20 0xFFFFFFFFFFFFFFFFFFFFFFFFFFFFFFFFFFFFFFFF MUL NOT AND SWAP1 DUP4 PUSH20 0xFFFFFFFFFFFFFFFFFFFFFFFFFFFFFFFFFFFFFFFF AND MUL OR SWAP1 SSTORE POP DUP1 PUSH1 0x80 DUP2 DUP2 MSTORE POP POP PUSH32 0xD8224A2376272B81083832B8284E6CD2D1C3FD0C1951CBE8A9C1D20C534E8B53 DUP2 PUSH1 0x40 MLOAD PUSH2 0x206 SWAP2 SWAP1 PUSH2 0x3DC JUMP JUMPDEST PUSH1 0x40 MLOAD DUP1 SWAP2 SUB SWAP1 LOG1 POP POP PUSH2 0x3F5 JUMP JUMPDEST PUSH0 PUSH0 PUSH0 SWAP1 SLOAD SWAP1 PUSH2 0x100 EXP SWAP1 DIV PUSH20 0xFFFFFFFFFFFFFFFFFFFFFFFFFFFFFFFFFFFFFFFF AND SWAP1 POP DUP2 PUSH0 PUSH0 PUSH2 0x100 EXP DUP2 SLOAD DUP2 PUSH20 0xFFFFFFFFFFFFFFFFFFFFFFFFFFFFFFFFFFFFFFFF MUL NOT AND SWAP1 DUP4 PUSH20 0xFFFFFFFFFFFFFFFFFFFFFFFFFFFFFFFFFFFFFFFF AND MUL OR SWAP1 SSTORE POP DUP2 PUSH20 0xFFFFFFFFFFFFFFFFFFFFFFFFFFFFFFFFFFFFFFFF AND DUP2 PUSH20 0xFFFFFFFFFFFFFFFFFFFFFFFFFFFFFFFFFFFFFFFF AND PUSH32 0x8BE0079C531659141344CD1FD0A4F28419497F9722A3DAAFE3B4186F6B6457E0 PUSH1 0x40 MLOAD PUSH1 0x40 MLOAD DUP1 SWAP2 SUB SWAP1 LOG3 POP POP JUMP JUMPDEST PUSH0 PUSH0 REVERT JUMPDEST PUSH0 PUSH20 0xFFFFFFFFFFFFFFFFFFFFFFFFFFFFFFFFFFFFFFFF DUP3 AND SWAP1 POP SWAP2 SWAP1 POP JUMP JUMPDEST PUSH0 PUSH2 0x303 DUP3 PUSH2 0x2DA JUMP JUMPDEST SWAP1 POP SWAP2 SWAP1 POP JUMP JUMPDEST PUSH2 0x313 DUP2 PUSH2 0x2F9 JUMP JUMPDEST DUP2 EQ PUSH2 0x31D JUMPI PUSH0 PUSH0 REVERT JUMPDEST POP JUMP JUMPDEST PUSH0 DUP2 MLOAD SWAP1 POP PUSH2 0x32E DUP2 PUSH2 0x30A JUMP JUMPDEST SWAP3 SWAP2 POP POP JUMP JUMPDEST PUSH0 DUP2 SWAP1 POP SWAP2 SWAP1 POP JUMP JUMPDEST PUSH2 0x346 DUP2 PUSH2 0x334 JUMP JUMPDEST DUP2 EQ PUSH2 0x350 JUMPI PUSH0 PUSH0 REVERT JUMPDEST POP JUMP JUMPDEST PUSH0 DUP2 MLOAD SWAP1 POP PUSH2 0x361 DUP2 PUSH2 0x33D JUMP JUMPDEST SWAP3 SWAP2 POP POP JUMP JUMPDEST PUSH0 PUSH0 PUSH1 0x40 DUP4 DUP6 SUB SLT ISZERO PUSH2 0x37D JUMPI PUSH2 0x37C PUSH2 0x2D6 JUMP JUMPDEST JUMPDEST PUSH0 PUSH2 0x38A DUP6 DUP3 DUP7 ADD PUSH2 0x320 JUMP JUMPDEST SWAP3 POP POP PUSH1 0x20 PUSH2 0x39B DUP6 DUP3 DUP7 ADD PUSH2 0x353 JUMP JUMPDEST SWAP2 POP POP SWAP3 POP SWAP3 SWAP1 POP JUMP JUMPDEST PUSH2 0x3AE DUP2 PUSH2 0x2F9 JUMP JUMPDEST DUP3 MSTORE POP POP JUMP JUMPDEST PUSH0 PUSH1 0x20 DUP3 ADD SWAP1 POP PUSH2 0x3C7 PUSH0 DUP4 ADD DUP5 PUSH2 0x3A5 JUMP JUMPDEST SWAP3 SWAP2 POP POP JUMP JUMPDEST PUSH2 0x3D6 DUP2 PUSH2 0x334 JUMP JUMPDEST DUP3 MSTORE POP POP JUMP JUMPDEST PUSH0 PUSH1 0x20 DUP3 ADD SWAP1 POP PUSH2 0x3EF PUSH0 DUP4 ADD DUP5 PUSH2 0x3CD JUMP JUMPDEST SWAP3 SWAP2 POP POP JUMP JUMPDEST PUSH1 0x80 MLOAD PUSH1 0xA0 MLOAD PUSH2 0x2395 PUSH2 0x41D PUSH0 CODECOPY PUSH0 PUSH2 0x8A9 ADD MSTORE PUSH0 DUP2 DUP2 PUSH2 0x127A ADD MSTORE PUSH2 0x16A9 ADD MSTORE PUSH2 0x2395 PUSH0 RETURN INVALID PUSH1 0x80 PUSH1 0x40 MSTORE PUSH1 0x4 CALLDATASIZE LT PUSH2 0x165 JUMPI PUSH0 CALLDATALOAD PUSH1 0xE0 SHR DUP1 PUSH4 0x8DA5CB5B GT PUSH2 0xD0 JUMPI DUP1 PUSH4 0xB6E7D830 GT PUSH2 0x89 JUMPI DUP1 PUSH4 0xE78EC42E GT PUSH2 0x63 JUMPI DUP1 PUSH4 0xE78EC42E EQ PUSH2 0x4D5 JUMPI DUP1 PUSH4 0xECBEA24D EQ PUSH2 0x4FD JUMPI DUP1 PUSH4 0xF2FDE38B EQ PUSH2 0x527 JUMPI DUP1 PUSH4 0xFC0C546A EQ PUSH2 0x54F JUMPI PUSH2 0x165 JUMP JUMPDEST DUP1 PUSH4 0xB6E7D830 EQ PUSH2 0x445 JUMPI DUP1 PUSH4 0xC847119D EQ PUSH2 0x46F JUMPI DUP1 PUSH4 0xD3B5F520 EQ PUSH2 0x499 JUMPI PUSH2 0x165 JUMP JUMPDEST DUP1 PUSH4 0x8DA5CB5B EQ PUSH2 0x35B JUMPI DUP1 PUSH4 0x93423E9C EQ PUSH2 0x385 JUMPI DUP1 PUSH4 0x9DCA362F EQ PUSH2 0x3C1 JUMPI DUP1 PUSH4 0xAC1E5025 EQ PUSH2 0x3D7 JUMPI DUP1 PUSH4 0xB30D5815 EQ PUSH2 0x3FF JUMPI DUP1 PUSH4 0xB6B55F25 EQ PUSH2 0x429 JUMPI PUSH2 0x165 JUMP JUMPDEST DUP1 PUSH4 0x5E5C06E2 GT PUSH2 0x122 JUMPI DUP1 PUSH4 0x5E5C06E2 EQ PUSH2 0x25F JUMPI DUP1 PUSH4 0x636BFBAB EQ PUSH2 0x29F JUMPI DUP1 PUSH4 0x715018A6 EQ PUSH2 0x2C9 JUMPI DUP1 PUSH4 0x779972DA EQ PUSH2 0x2DF JUMPI DUP1 PUSH4 0x7D882097 EQ PUSH2 0x307 JUMPI DUP1 PUSH4 0x8BC7E8C4 EQ PUSH2 0x331 JUMPI PUSH2 0x165 JUMP JUMPDEST DUP1 PUSH4 0x770E571 EQ PUSH2 0x169 JUMPI DUP1 PUSH4 0x1BAE91A4 EQ PUSH2 0x193 JUMPI DUP1 PUSH4 0x26A4E8D2 EQ PUSH2 0x1CF JUMPI DUP1 PUSH4 0x2E1A7D4D EQ PUSH2 0x1F7 JUMPI DUP1 PUSH4 0x3FD8B02F EQ PUSH2 0x21F JUMPI DUP1 PUSH4 0x476343EE EQ PUSH2 0x249 JUMPI JUMPDEST PUSH0 PUSH0 REVERT JUMPDEST CALLVALUE DUP1 ISZERO PUSH2 0x174 JUMPI PUSH0 PUSH0 REVERT JUMPDEST POP PUSH2 0x17D PUSH2 0x579 JUMP JUMPDEST PUSH1 0x40 MLOAD PUSH2 0x18A SWAP2 SWAP1 PUSH2 0x1960 JUMP JUMPDEST PUSH1 0x40 MLOAD DUP1 SWAP2 SUB SWAP1 RETURN JUMPDEST CALLVALUE DUP1 ISZERO PUSH2 0x19E JUMPI PUSH0 PUSH0 REVERT JUMPDEST POP PUSH2 0x1B9 PUSH1 0x4 DUP1 CALLDATASIZE SUB DUP2 ADD SWAP1 PUSH2 0x1B4 SWAP2 SWAP1 PUSH2 0x19D7 JUMP JUMPDEST PUSH2 0x57F JUMP JUMPDEST PUSH1 0x40 MLOAD PUSH2 0x1C6 SWAP2 SWAP1 PUSH2 0x1960 JUMP JUMPDEST PUSH1 0x40 MLOAD DUP1 SWAP2 SUB SWAP1 RETURN JUMPDEST CALLVALUE DUP1 ISZERO PUSH2 0x1DA JUMPI PUSH0 PUSH0 REVERT JUMPDEST POP PUSH2 0x1F5 PUSH1 0x4 DUP1 CALLDATASIZE SUB DUP2 ADD SWAP1 PUSH2 0x1F0 SWAP2 SWAP1 PUSH2 0x19D7 JUMP JUMPDEST PUSH2 0x654 JUMP JUMPDEST STOP JUMPDEST CALLVALUE DUP1 ISZERO PUSH2 0x202 JUMPI PUSH0 PUSH0 REVERT JUMPDEST POP PUSH2 0x21D PUSH1 0x4 DUP1 CALLDATASIZE SUB DUP2 ADD SWAP1 PUSH2 0x218 SWAP2 SWAP1 PUSH2 0x1A2C JUMP JUMPDEST PUSH2 0x744 JUMP JUMPDEST STOP JUMPDEST CALLVALUE DUP1 ISZERO PUSH2 0x22A JUMPI PUSH0 PUSH0 REVERT JUMPDEST POP PUSH2 0x233 PUSH2 0xB26 JUMP JUMPDEST PUSH1 0x40 MLOAD PUSH2 0x240 SWAP2 SWAP1 PUSH2 0x1960 JUMP JUMPDEST PUSH1 0x40 MLOAD DUP1 SWAP2 SUB SWAP1 RETURN JUMPDEST CALLVALUE DUP1 ISZERO PUSH2 0x254 JUMPI PUSH0 PUSH0 REVERT JUMPDEST POP PUSH2 0x25D PUSH2 0xB2C JUMP JUMPDEST STOP JUMPDEST CALLVALUE DUP1 ISZERO PUSH2 0x26A JUMPI PUSH0 PUSH0 REVERT JUMPDEST POP PUSH2 0x285 PUSH1 0x4 DUP1 CALLDATASIZE SUB DUP2 ADD SWAP1 PUSH2 0x280 SWAP2 SWAP1 PUSH2 0x19D7 JUMP JUMPDEST PUSH2 0xDE1 JUMP JUMPDEST PUSH1 0x40 MLOAD PUSH2 0x296 SWAP6 SWAP5 SWAP4 SWAP3 SWAP2 SWAP1 PUSH2 0x1A71 JUMP JUMPDEST PUSH1 0x40 MLOAD DUP1 SWAP2 SUB SWAP1 RETURN JUMPDEST CALLVALUE DUP1 ISZERO PUSH2 0x2AA JUMPI PUSH0 PUSH0 REVERT JUMPDEST POP PUSH2 0x2B3 PUSH2 0xE1F JUMP JUMPDEST PUSH1 0x40 MLOAD PUSH2 0x2C0 SWAP2 SWAP1 PUSH2 0x1960 JUMP JUMPDEST PUSH1 0x40 MLOAD DUP1 SWAP2 SUB SWAP1 RETURN JUMPDEST CALLVALUE DUP1 ISZERO PUSH2 0x2D4 JUMPI PUSH0 PUSH0 REVERT JUMPDEST POP PUSH2 0x2DD PUSH2 0xE25 JUMP JUMPDEST STOP JUMPDEST CALLVALUE DUP1 ISZERO PUSH2 0x2EA JUMPI PUSH0 PUSH0 REVERT JUMPDEST POP PUSH2 0x305 PUSH1 0x4 DUP1 CALLDATASIZE SUB DUP2 ADD SWAP1 PUSH2 0x300 SWAP2 SWAP1 PUSH2 0x1A2C JUMP JUMPDEST PUSH2 0xE38 JUMP JUMPDEST STOP JUMPDEST CALLVALUE DUP1 ISZERO PUSH2 0x312 JUMPI PUSH0 PUSH0 REVERT JUMPDEST POP PUSH2 0x31B PUSH2 0xE81 JUMP JUMPDEST PUSH1 0x40 MLOAD PUSH2 0x328 SWAP2 SWAP1 PUSH2 0x1960 JUMP JUMPDEST PUSH1 0x40 MLOAD DUP1 SWAP2 SUB SWAP1 RETURN JUMPDEST CALLVALUE DUP1 ISZERO PUSH2 0x33C JUMPI PUSH0 PUSH0 REVERT JUMPDEST POP PUSH2 0x345 PUSH2 0xE87 JUMP JUMPDEST PUSH1 0x40 MLOAD PUSH2 0x352 SWAP2 SWAP1 PUSH2 0x1960 JUMP JUMPDEST PUSH1 0x40 MLOAD DUP1 SWAP2 SUB SWAP1 RETURN JUMPDEST CALLVALUE DUP1 ISZERO PUSH2 0x366 JUMPI PUSH0 PUSH0 REVERT JUMPDEST POP PUSH2 0x36F PUSH2 0xE8D JUMP JUMPDEST PUSH1 0x40 MLOAD PUSH2 0x37C SWAP2 SWAP1 PUSH2 0x1AD1 JUMP JUMPDEST PUSH1 0x40 MLOAD DUP1 SWAP2 SUB SWAP1 RETURN JUMPDEST CALLVALUE DUP1 ISZERO PUSH2 0x390 JUMPI PUSH0 PUSH0 REVERT JUMPDEST POP PUSH2 0x3AB PUSH1 0x4 DUP1 CALLDATASIZE SUB DUP2 ADD SWAP1 PUSH2 0x3A6 SWAP2 SWAP1 PUSH2 0x19D7 JUMP JUMPDEST PUSH2 0xEB4 JUMP JUMPDEST PUSH1 0x40 MLOAD PUSH2 0x3B8 SWAP2 SWAP1 PUSH2 0x1960 JUMP JUMPDEST PUSH1 0x40 MLOAD DUP1 SWAP2 SUB SWAP1 RETURN JUMPDEST CALLVALUE DUP1 ISZERO PUSH2 0x3CC JUMPI PUSH0 PUSH0 REVERT JUMPDEST POP PUSH2 0x3D5 PUSH2 0xF88 JUMP JUMPDEST STOP JUMPDEST CALLVALUE DUP1 ISZERO PUSH2 0x3E2 JUMPI PUSH0 PUSH0 REVERT JUMPDEST POP PUSH2 0x3FD PUSH1 0x4 DUP1 CALLDATASIZE SUB DUP2 ADD SWAP1 PUSH2 0x3F8 SWAP2 SWAP1 PUSH2 0x1A2C JUMP JUMPDEST PUSH2 0x1109 JUMP JUMPDEST STOP JUMPDEST CALLVALUE DUP1 ISZERO PUSH2 0x40A JUMPI PUSH0 PUSH0 REVERT JUMPDEST POP PUSH2 0x413 PUSH2 0x1196 JUMP JUMPDEST PUSH1 0x40 MLOAD PUSH2 0x420 SWAP2 SWAP1 PUSH2 0x1960 JUMP JUMPDEST PUSH1 0x40 MLOAD DUP1 SWAP2 SUB SWAP1 RETURN JUMPDEST PUSH2 0x443 PUSH1 0x4 DUP1 CALLDATASIZE SUB DUP2 ADD SWAP1 PUSH2 0x43E SWAP2 SWAP1 PUSH2 0x1A2C JUMP JUMPDEST PUSH2 0x119F JUMP JUMPDEST STOP JUMPDEST CALLVALUE DUP1 ISZERO PUSH2 0x450 JUMPI PUSH0 PUSH0 REVERT JUMPDEST POP PUSH2 0x459 PUSH2 0x157A JUMP JUMPDEST PUSH1 0x40 MLOAD PUSH2 0x466 SWAP2 SWAP1 PUSH2 0x1960 JUMP JUMPDEST PUSH1 0x40 MLOAD DUP1 SWAP2 SUB SWAP1 RETURN JUMPDEST CALLVALUE DUP1 ISZERO PUSH2 0x47A JUMPI PUSH0 PUSH0 REVERT JUMPDEST POP PUSH2 0x483 PUSH2 0x1583 JUMP JUMPDEST PUSH1 0x40 MLOAD PUSH2 0x490 SWAP2 SWAP1 PUSH2 0x1960 JUMP JUMPDEST PUSH1 0x40 MLOAD DUP1 SWAP2 SUB SWAP1 RETURN JUMPDEST CALLVALUE DUP1 ISZERO PUSH2 0x4A4 JUMPI PUSH0 PUSH0 REVERT JUMPDEST POP PUSH2 0x4BF PUSH1 0x4 DUP1 CALLDATASIZE SUB DUP2 ADD SWAP1 PUSH2 0x4BA SWAP2 SWAP1 PUSH2 0x19D7 JUMP JUMPDEST PUSH2 0x1589 JUMP JUMPDEST PUSH1 0x40 MLOAD PUSH2 0x4CC SWAP2 SWAP1 PUSH2 0x1960 JUMP JUMPDEST PUSH1 0x40 MLOAD DUP1 SWAP2 SUB SWAP1 RETURN JUMPDEST CALLVALUE DUP1 ISZERO PUSH2 0x4E0 JUMPI PUSH0 PUSH0 REVERT JUMPDEST POP PUSH2 0x4FB PUSH1 0x4 DUP1 CALLDATASIZE SUB DUP2 ADD SWAP1 PUSH2 0x4F6 SWAP2 SWAP1 PUSH2 0x1A2C JUMP JUMPDEST PUSH2 0x165E JUMP JUMPDEST STOP JUMPDEST CALLVALUE DUP1 ISZERO PUSH2 0x508 JUMPI PUSH0 PUSH0 REVERT JUMPDEST POP PUSH2 0x511 PUSH2 0x16A7 JUMP JUMPDEST PUSH1 0x40 MLOAD PUSH2 0x51E SWAP2 SWAP1 PUSH2 0x1960 JUMP JUMPDEST PUSH1 0x40 MLOAD DUP1 SWAP2 SUB SWAP1 RETURN JUMPDEST CALLVALUE DUP1 ISZERO PUSH2 0x532 JUMPI PUSH0 PUSH0 REVERT JUMPDEST POP PUSH2 0x54D PUSH1 0x4 DUP1 CALLDATASIZE SUB DUP2 ADD SWAP1 PUSH2 0x548 SWAP2 SWAP1 PUSH2 0x19D7 JUMP JUMPDEST PUSH2 0x16CB JUMP JUMPDEST STOP JUMPDEST CALLVALUE DUP1 ISZERO PUSH2 0x55A JUMPI PUSH0 PUSH0 REVERT JUMPDEST POP PUSH2 0x563 PUSH2 0x174F JUMP JUMPDEST PUSH1 0x40 MLOAD PUSH2 0x570 SWAP2 SWAP1 PUSH2 0x1B45 JUMP JUMPDEST PUSH1 0x40 MLOAD DUP1 SWAP2 SUB SWAP1 RETURN JUMPDEST PUSH1 0x5 SLOAD DUP2 JUMP JUMPDEST PUSH0 PUSH1 0x6 PUSH0 DUP4 PUSH20 0xFFFFFFFFFFFFFFFFFFFFFFFFFFFFFFFFFFFFFFFF AND PUSH20 0xFFFFFFFFFFFFFFFFFFFFFFFFFFFFFFFFFFFFFFFF AND DUP2 MSTORE PUSH1 0x20 ADD SWAP1 DUP2 MSTORE PUSH1 0x20 ADD PUSH0 KECCAK256 PUSH1 0x2 ADD PUSH0 SWAP1 SLOAD SWAP1 PUSH2 0x100 EXP SWAP1 DIV PUSH1 0xFF AND PUSH2 0x60C JUMPI PUSH1 0x40 MLOAD PUSH32 0x8C379A000000000000000000000000000000000000000000000000000000000 DUP2 MSTORE PUSH1 0x4 ADD PUSH2 0x603 SWAP1 PUSH2 0x1BB8 JUMP JUMPDEST PUSH1 0x40 MLOAD DUP1 SWAP2 SUB SWAP1 REVERT JUMPDEST PUSH1 0x6 PUSH0 DUP4 PUSH20 0xFFFFFFFFFFFFFFFFFFFFFFFFFFFFFFFFFFFFFFFF AND PUSH20 0xFFFFFFFFFFFFFFFFFFFFFFFFFFFFFFFFFFFFFFFF AND DUP2 MSTORE PUSH1 0x20 ADD SWAP1 DUP2 MSTORE PUSH1 0x20 ADD PUSH0 KECCAK256 PUSH1 0x3 ADD SLOAD SWAP1 POP SWAP2 SWAP1 POP JUMP JUMPDEST PUSH2 0x65C PUSH2 0x1774 JUMP JUMPDEST PUSH0 PUSH20 0xFFFFFFFFFFFFFFFFFFFFFFFFFFFFFFFFFFFFFFFF AND DUP2 PUSH20 0xFFFFFFFFFFFFFFFFFFFFFFFFFFFFFFFFFFFFFFFF AND SUB PUSH2 0x6CA JUMPI PUSH1 0x40 MLOAD PUSH32 0x8C379A000000000000000000000000000000000000000000000000000000000 DUP2 MSTORE PUSH1 0x4 ADD PUSH2 0x6C1 SWAP1 PUSH2 0x1C20 JUMP JUMPDEST PUSH1 0x40 MLOAD DUP1 SWAP2 SUB SWAP1 REVERT JUMPDEST DUP1 PUSH1 0x2 PUSH0 PUSH2 0x100 EXP DUP2 SLOAD DUP2 PUSH20 0xFFFFFFFFFFFFFFFFFFFFFFFFFFFFFFFFFFFFFFFF MUL NOT AND SWAP1 DUP4 PUSH20 0xFFFFFFFFFFFFFFFFFFFFFFFFFFFFFFFFFFFFFFFF AND MUL OR SWAP1 SSTORE POP PUSH32 0x2F0C7F17BE551D1F4566672CD67ADBE50173E96632F56FF80D80ACC4AC00F328 DUP2 PUSH1 0x40 MLOAD PUSH2 0x739 SWAP2 SWAP1 PUSH2 0x1AD1 JUMP JUMPDEST PUSH1 0x40 MLOAD DUP1 SWAP2 SUB SWAP1 LOG1 POP JUMP JUMPDEST PUSH2 0x74C PUSH2 0x17FB JUMP JUMPDEST PUSH0 PUSH1 0x6 PUSH0 CALLER PUSH20 0xFFFFFFFFFFFFFFFFFFFFFFFFFFFFFFFFFFFFFFFF AND PUSH20 0xFFFFFFFFFFFFFFFFFFFFFFFFFFFFFFFFFFFFFFFF AND DUP2 MSTORE PUSH1 0x20 ADD SWAP1 DUP2 MSTORE PUSH1 0x20 ADD PUSH0 KECCAK256 PUSH0 ADD SLOAD GT PUSH2 0x7D1 JUMPI CALLER PUSH0 PUSH1 0x40 MLOAD PUSH32 0x4747842600000000000000000000000000000000000000000000000000000000 DUP2 MSTORE PUSH1 0x4 ADD PUSH2 0x7C8 SWAP3 SWAP2 SWAP1 PUSH2 0x1C77 JUMP JUMPDEST PUSH1 0x40 MLOAD DUP1 SWAP2 SUB SWAP1 REVERT JUMPDEST PUSH0 PUSH1 0x6 PUSH0 CALLER PUSH20 0xFFFFFFFFFFFFFFFFFFFFFFFFFFFFFFFFFFFFFFFF AND PUSH20 0xFFFFFFFFFFFFFFFFFFFFFFFFFFFFFFFFFFFFFFFF AND DUP2 MSTORE PUSH1 0x20 ADD SWAP1 DUP2 MSTORE PUSH1 0x20 ADD PUSH0 KECCAK256 SWAP1 POP DUP1 PUSH1 0x2 ADD PUSH0 SWAP1 SLOAD SWAP1 PUSH2 0x100 EXP SWAP1 DIV PUSH1 0xFF AND PUSH2 0x861 JUMPI PUSH1 0x40 MLOAD PUSH32 0x8C379A000000000000000000000000000000000000000000000000000000000 DUP2 MSTORE PUSH1 0x4 ADD PUSH2 0x858 SWAP1 PUSH2 0x1BB8 JUMP JUMPDEST PUSH1 0x40 MLOAD DUP1 SWAP2 SUB SWAP1 REVERT JUMPDEST DUP2 DUP2 PUSH0 ADD SLOAD LT ISZERO PUSH2 0x8A7 JUMPI PUSH1 0x40 MLOAD PUSH32 0x8C379A000000000000000000000000000000000000000000000000000000000 DUP2 MSTORE PUSH1 0x4 ADD PUSH2 0x89E SWAP1 PUSH2 0x1CE8 JUMP JUMPDEST PUSH1 0x40 MLOAD DUP1 SWAP2 SUB SWAP1 REVERT JUMPDEST PUSH32 0x0 DUP3 GT ISZERO PUSH2 0x90A JUMPI PUSH1 0x40 MLOAD PUSH32 0x8C379A000000000000000000000000000000000000000000000000000000000 DUP2 MSTORE PUSH1 0x4 ADD PUSH2 0x901 SWAP1 PUSH2 0x1D50 JUMP JUMPDEST PUSH1 0x40 MLOAD DUP1 SWAP2 SUB SWAP1 REVERT JUMPDEST PUSH1 0x9 SLOAD DUP2 PUSH1 0x1 ADD SLOAD PUSH2 0x91C SWAP2 SWAP1 PUSH2 0x1D9B JUMP JUMPDEST TIMESTAMP LT ISZERO PUSH2 0x95E JUMPI PUSH1 0x40 MLOAD PUSH32 0x8C379A000000000000000000000000000000000000000000000000000000000 DUP2 MSTORE PUSH1 0x4 ADD PUSH2 0x955 SWAP1 PUSH2 0x1E18 JUMP JUMPDEST PUSH1 0x40 MLOAD DUP1 SWAP2 SUB SWAP1 REVERT JUMPDEST PUSH0 PUSH1 0x64 PUSH1 0x8 SLOAD DUP5 PUSH2 0x96F SWAP2 SWAP1 PUSH2 0x1E36 JUMP JUMPDEST PUSH2 0x979 SWAP2 SWAP1 PUSH2 0x1EA4 JUMP JUMPDEST SWAP1 POP PUSH0 DUP2 DUP5 PUSH2 0x988 SWAP2 SWAP1 PUSH2 0x1ED4 JUMP JUMPDEST SWAP1 POP DUP4 DUP4 PUSH0 ADD PUSH0 DUP3 DUP3 SLOAD PUSH2 0x99C SWAP2 SWAP1 PUSH2 0x1ED4 JUMP JUMPDEST SWAP3 POP POP DUP2 SWAP1 SSTORE POP PUSH1 0x1 DUP4 PUSH1 0x4 ADD PUSH0 DUP3 DUP3 SLOAD PUSH2 0x9B7 SWAP2 SWAP1 PUSH2 0x1D9B JUMP JUMPDEST SWAP3 POP POP DUP2 SWAP1 SSTORE POP DUP4 PUSH1 0x3 PUSH0 DUP3 DUP3 SLOAD PUSH2 0x9CF SWAP2 SWAP1 PUSH2 0x1ED4 JUMP JUMPDEST SWAP3 POP POP DUP2 SWAP1 SSTORE POP PUSH2 0x9DE PUSH2 0x1841 JUMP JUMPDEST PUSH0 PUSH1 0x2 PUSH0 SWAP1 SLOAD SWAP1 PUSH2 0x100 EXP SWAP1 DIV PUSH20 0xFFFFFFFFFFFFFFFFFFFFFFFFFFFFFFFFFFFFFFFF AND PUSH20 0xFFFFFFFFFFFFFFFFFFFFFFFFFFFFFFFFFFFFFFFF AND PUSH4 0xA9059CBB CALLER DUP5 PUSH1 0x40 MLOAD DUP4 PUSH4 0xFFFFFFFF AND PUSH1 0xE0 SHL DUP2 MSTORE PUSH1 0x4 ADD PUSH2 0xA3B SWAP3 SWAP2 SWAP1 PUSH2 0x1F07 JUMP JUMPDEST PUSH1 0x20 PUSH1 0x40 MLOAD DUP1 DUP4 SUB DUP2 PUSH0 DUP8 GAS CALL ISZERO DUP1 ISZERO PUSH2 0xA57 JUMPI RETURNDATASIZE PUSH0 PUSH0 RETURNDATACOPY RETURNDATASIZE PUSH0 REVERT JUMPDEST POP POP POP POP PUSH1 0x40 MLOAD RETURNDATASIZE PUSH1 0x1F NOT PUSH1 0x1F DUP3 ADD AND DUP3 ADD DUP1 PUSH1 0x40 MSTORE POP DUP2 ADD SWAP1 PUSH2 0xA7B SWAP2 SWAP1 PUSH2 0x1F58 JUMP JUMPDEST SWAP1 POP DUP1 PUSH2 0xABD JUMPI PUSH1 0x40 MLOAD PUSH32 0x8C379A000000000000000000000000000000000000000000000000000000000 DUP2 MSTORE PUSH1 0x4 ADD PUSH2 0xAB4 SWAP1 PUSH2 0x1FCD JUMP JUMPDEST PUSH1 0x40 MLOAD DUP1 SWAP2 SUB SWAP1 REVERT JUMPDEST CALLER PUSH20 0xFFFFFFFFFFFFFFFFFFFFFFFFFFFFFFFFFFFFFFFF AND PUSH32 0x94FFD6B85C71B847775C89EF6496B93CEE961BDC6FF827FD117F174F06F745AE DUP7 DUP6 DUP8 PUSH1 0x4 ADD SLOAD PUSH1 0x5 SLOAD PUSH1 0x40 MLOAD PUSH2 0xB0F SWAP5 SWAP4 SWAP3 SWAP2 SWAP1 PUSH2 0x1FEB JUMP JUMPDEST PUSH1 0x40 MLOAD DUP1 SWAP2 SUB SWAP1 LOG2 POP POP POP POP PUSH2 0xB23 PUSH2 0x185C JUMP JUMPDEST POP JUMP JUMPDEST PUSH1 0x9 SLOAD DUP2 JUMP JUMPDEST PUSH2 0xB34 PUSH2 0x1774 JUMP JUMPDEST PUSH0 PUSH1 0x2 PUSH0 SWAP1 SLOAD SWAP1 PUSH2 0x100 EXP SWAP1 DIV PUSH20 0xFFFFFFFFFFFFFFFFFFFFFFFFFFFFFFFFFFFFFFFF AND PUSH20 0xFFFFFFFFFFFFFFFFFFFFFFFFFFFFFFFFFFFFFFFF AND PUSH4 0x70A08231 ADDRESS PUSH1 0x40 MLOAD DUP3 PUSH4 0xFFFFFFFF AND PUSH1 0xE0 SHL DUP2 MSTORE PUSH1 0x4 ADD PUSH2 0xB8F SWAP2 SWAP1 PUSH2 0x1AD1 JUMP JUMPDEST PUSH1 0x20 PUSH1 0x40 MLOAD DUP1 DUP4 SUB DUP2 DUP7 GAS STATICCALL ISZERO DUP1 ISZERO PUSH2 0xBAA JUMPI RETURNDATASIZE PUSH0 PUSH0 RETURNDATACOPY RETURNDATASIZE PUSH0 REVERT JUMPDEST POP POP POP POP PUSH1 0x40 MLOAD RETURNDATASIZE PUSH1 0x1F NOT PUSH1 0x1F DUP3 ADD AND DUP3 ADD DUP1 PUSH1 0x40 MSTORE POP DUP2 ADD SWAP1 PUSH2 0xBCE SWAP2 SWAP1 PUSH2 0x2042 JUMP JUMPDEST SWAP1 POP PUSH0 PUSH0 SWAP1 POP PUSH0 PUSH0 PUSH8 0xFFFFFFFFFFFFFFFF DUP2 GT ISZERO PUSH2 0xBEF JUMPI PUSH2 0xBEE PUSH2 0x206D JUMP JUMPDEST JUMPDEST PUSH1 0x40 MLOAD SWAP1 DUP1 DUP3 MSTORE DUP1 PUSH1 0x20 MUL PUSH1 0x20 ADD DUP3 ADD PUSH1 0x40 MSTORE DUP1 ISZERO PUSH2 0xC1D JUMPI DUP2 PUSH1 0x20 ADD PUSH1 0x20 DUP3 MUL DUP1 CALLDATASIZE DUP4 CALLDATACOPY DUP1 DUP3 ADD SWAP2 POP POP SWAP1 POP JUMPDEST POP SWAP1 POP PUSH0 PUSH0 SWAP1 POP JUMPDEST DUP2 MLOAD DUP2 LT ISZERO PUSH2 0xCA2 JUMPI PUSH1 0x6 PUSH0 DUP4 DUP4 DUP2 MLOAD DUP2 LT PUSH2 0xC44 JUMPI PUSH2 0xC43 PUSH2 0x209A JUMP JUMPDEST JUMPDEST PUSH1 0x20 MUL PUSH1 0x20 ADD ADD MLOAD PUSH20 0xFFFFFFFFFFFFFFFFFFFFFFFFFFFFFFFFFFFFFFFF AND PUSH20 0xFFFFFFFFFFFFFFFFFFFFFFFFFFFFFFFFFFFFFFFF AND DUP2 MSTORE PUSH1 0x20 ADD SWAP1 DUP2 MSTORE PUSH1 0x20 ADD PUSH0 KECCAK256 PUSH0 ADD SLOAD DUP4 PUSH2 0xC93 SWAP2 SWAP1 PUSH2 0x1D9B JUMP JUMPDEST SWAP3 POP DUP1 DUP1 PUSH1 0x1 ADD SWAP2 POP POP PUSH2 0xC25 JUMP JUMPDEST POP PUSH0 DUP3 DUP5 PUSH2 0xCB0 SWAP2 SWAP1 PUSH2 0x1ED4 JUMP JUMPDEST SWAP1 POP PUSH0 DUP2 GT PUSH2 0xCF4 JUMPI PUSH1 0x40 MLOAD PUSH32 0x8C379A000000000000000000000000000000000000000000000000000000000 DUP2 MSTORE PUSH1 0x4 ADD PUSH2 0xCEB SWAP1 PUSH2 0x2111 JUMP JUMPDEST PUSH1 0x40 MLOAD DUP1 SWAP2 SUB SWAP1 REVERT JUMPDEST PUSH0 PUSH1 0x2 PUSH0 SWAP1 SLOAD SWAP1 PUSH2 0x100 EXP SWAP1 DIV PUSH20 0xFFFFFFFFFFFFFFFFFFFFFFFFFFFFFFFFFFFFFFFF AND PUSH20 0xFFFFFFFFFFFFFFFFFFFFFFFFFFFFFFFFFFFFFFFF AND PUSH4 0xA9059CBB PUSH2 0xD3A PUSH2 0xE8D JUMP JUMPDEST DUP5 PUSH1 0x40 MLOAD DUP4 PUSH4 0xFFFFFFFF AND PUSH1 0xE0 SHL DUP2 MSTORE PUSH1 0x4 ADD PUSH2 0xD58 SWAP3 SWAP2 SWAP1 PUSH2 0x1F07 JUMP JUMPDEST PUSH1 0x20 PUSH1 0x40 MLOAD DUP1 DUP4 SUB DUP2 PUSH0 DUP8 GAS CALL ISZERO DUP1 ISZERO PUSH2 0xD74 JUMPI RETURNDATASIZE PUSH0 PUSH0 RETURNDATACOPY RETURNDATASIZE PUSH0 REVERT JUMPDEST POP POP POP POP PUSH1 0x40 MLOAD RETURNDATASIZE PUSH1 0x1F NOT PUSH1 0x1F DUP3 ADD AND DUP3 ADD DUP1 PUSH1 0x40 MSTORE POP DUP2 ADD SWAP1 PUSH2 0xD98 SWAP2 SWAP1 PUSH2 0x1F58 JUMP JUMPDEST SWAP1 POP DUP1 PUSH2 0xDDA JUMPI PUSH1 0x40 MLOAD PUSH32 0x8C379A000000000000000000000000000000000000000000000000000000000 DUP2 MSTORE PUSH1 0x4 ADD PUSH2 0xDD1 SWAP1 PUSH2 0x1FCD JUMP JUMPDEST PUSH1 0x40 MLOAD DUP1 SWAP2 SUB SWAP1 REVERT JUMPDEST POP POP POP POP POP JUMP JUMPDEST PUSH1 0x6 PUSH1 0x20 MSTORE DUP1 PUSH0 MSTORE PUSH1 0x40 PUSH0 KECCAK256 PUSH0 SWAP2 POP SWAP1 POP DUP1 PUSH0 ADD SLOAD SWAP1 DUP1 PUSH1 0x1 ADD SLOAD SWAP1 DUP1 PUSH1 0x2 ADD PUSH0 SWAP1 SLOAD SWAP1 PUSH2 0x100 EXP SWAP1 DIV PUSH1 0xFF AND SWAP1 DUP1 PUSH1 0x3 ADD SLOAD SWAP1 DUP1 PUSH1 0x4 ADD SLOAD SWAP1 POP DUP6 JUMP JUMPDEST PUSH1 0x7 SLOAD DUP2 JUMP JUMPDEST PUSH2 0xE2D PUSH2 0x1774 JUMP JUMPDEST PUSH2 0xE36 PUSH0 PUSH2 0x1865 JUMP JUMPDEST JUMP JUMPDEST PUSH2 0xE40 PUSH2 0x1774 JUMP JUMPDEST DUP1 PUSH1 0x9 DUP2 SWAP1 SSTORE POP PUSH32 0x8249EC545E68F6F1E1230133CA48C704D831A7F8E635DED80F3DD9E99B09BB2F DUP2 PUSH1 0x40 MLOAD PUSH2 0xE76 SWAP2 SWAP1 PUSH2 0x1960 JUMP JUMPDEST PUSH1 0x40 MLOAD DUP1 SWAP2 SUB SWAP1 LOG1 POP JUMP JUMPDEST PUSH1 0x3 SLOAD DUP2 JUMP JUMPDEST PUSH1 0x8 SLOAD DUP2 JUMP JUMPDEST PUSH0 PUSH0 PUSH0 SWAP1 SLOAD SWAP1 PUSH2 0x100 EXP SWAP1 DIV PUSH20 0xFFFFFFFFFFFFFFFFFFFFFFFFFFFFFFFFFFFFFFFF AND SWAP1 POP SWAP1 JUMP JUMPDEST PUSH0 PUSH1 0x6 PUSH0 DUP4 PUSH20 0xFFFFFFFFFFFFFFFFFFFFFFFFFFFFFFFFFFFFFFFF AND PUSH20 0xFFFFFFFFFFFFFFFFFFFFFFFFFFFFFFFFFFFFFFFF AND DUP2 MSTORE PUSH1 0x20 ADD SWAP1 DUP2 MSTORE PUSH1 0x20 ADD PUSH0 KECCAK256 PUSH1 0x2 ADD PUSH0 SWAP1 SLOAD SWAP1 PUSH2 0x100 EXP SWAP1 DIV PUSH1 0xFF AND PUSH2 0xF41 JUMPI PUSH1 0x40 MLOAD PUSH32 0x8C379A000000000000000000000000000000000000000000000000000000000 DUP2 MSTORE PUSH1 0x4 ADD PUSH2 0xF38 SWAP1 PUSH2 0x1BB8 JUMP JUMPDEST PUSH1 0x40 MLOAD DUP1 SWAP2 SUB SWAP1 REVERT JUMPDEST PUSH1 0x6 PUSH0 DUP4 PUSH20 0xFFFFFFFFFFFFFFFFFFFFFFFFFFFFFFFFFFFFFFFF AND PUSH20 0xFFFFFFFFFFFFFFFFFFFFFFFFFFFFFFFFFFFFFFFF AND DUP2 MSTORE PUSH1 0x20 ADD SWAP1 DUP2 MSTORE PUSH1 0x20 ADD PUSH0 KECCAK256 PUSH0 ADD SLOAD SWAP1 POP SWAP2 SWAP1 POP JUMP JUMPDEST PUSH1 0x6 PUSH0 CALLER PUSH20 0xFFFFFFFFFFFFFFFFFFFFFFFFFFFFFFFFFFFFFFFF AND PUSH20 0xFFFFFFFFFFFFFFFFFFFFFFFFFFFFFFFFFFFFFFFF AND DUP2 MSTORE PUSH1 0x20 ADD SWAP1 DUP2 MSTORE PUSH1 0x20 ADD PUSH0 KECCAK256 PUSH1 0x2 ADD PUSH0 SWAP1 SLOAD SWAP1 PUSH2 0x100 EXP SWAP1 DIV PUSH1 0xFF AND ISZERO PUSH2 0x1015 JUMPI PUSH1 0x40 MLOAD PUSH32 0x8C379A000000000000000000000000000000000000000000000000000000000 DUP2 MSTORE PUSH1 0x4 ADD PUSH2 0x100C SWAP1 PUSH2 0x2179 JUMP JUMPDEST PUSH1 0x40 MLOAD DUP1 SWAP2 SUB SWAP1 REVERT JUMPDEST PUSH1 0x40 MLOAD DUP1 PUSH1 0xA0 ADD PUSH1 0x40 MSTORE DUP1 PUSH0 DUP2 MSTORE PUSH1 0x20 ADD PUSH0 DUP2 MSTORE PUSH1 0x20 ADD PUSH1 0x1 ISZERO ISZERO DUP2 MSTORE PUSH1 0x20 ADD PUSH0 DUP2 MSTORE PUSH1 0x20 ADD PUSH0 DUP2 MSTORE POP PUSH1 0x6 PUSH0 CALLER PUSH20 0xFFFFFFFFFFFFFFFFFFFFFFFFFFFFFFFFFFFFFFFF AND PUSH20 0xFFFFFFFFFFFFFFFFFFFFFFFFFFFFFFFFFFFFFFFF AND DUP2 MSTORE PUSH1 0x20 ADD SWAP1 DUP2 MSTORE PUSH1 0x20 ADD PUSH0 KECCAK256 PUSH0 DUP3 ADD MLOAD DUP2 PUSH0 ADD SSTORE PUSH1 0x20 DUP3 ADD MLOAD DUP2 PUSH1 0x1 ADD SSTORE PUSH1 0x40 DUP3 ADD MLOAD DUP2 PUSH1 0x2 ADD PUSH0 PUSH2 0x100 EXP DUP2 SLOAD DUP2 PUSH1 0xFF MUL NOT AND SWAP1 DUP4 ISZERO ISZERO MUL OR SWAP1 SSTORE POP PUSH1 0x60 DUP3 ADD MLOAD DUP2 PUSH1 0x3 ADD SSTORE PUSH1 0x80 DUP3 ADD MLOAD DUP2 PUSH1 0x4 ADD SSTORE SWAP1 POP POP CALLER PUSH20 0xFFFFFFFFFFFFFFFFFFFFFFFFFFFFFFFFFFFFFFFF AND PUSH32 0x805996F252884581E2F74CF3D2B03564D5EC26CCC90850AE12653DC1B72D1FA2 PUSH1 0x40 MLOAD PUSH1 0x40 MLOAD DUP1 SWAP2 SUB SWAP1 LOG2 JUMP JUMPDEST PUSH2 0x1111 PUSH2 0x1774 JUMP JUMPDEST PUSH1 0xA DUP2 GT ISZERO PUSH2 0x1155 JUMPI PUSH1 0x40 MLOAD PUSH32 0x8C379A000000000000000000000000000000000000000000000000000000000 DUP2 MSTORE PUSH1 0x4 ADD PUSH2 0x114C SWAP1 PUSH2 0x21E1 JUMP JUMPDEST PUSH1 0x40 MLOAD DUP1 SWAP2 SUB SWAP1 REVERT JUMPDEST DUP1 PUSH1 0x8 DUP2 SWAP1 SSTORE POP PUSH32 0xE94EDCC114DA5287ECB30EE8AACF12E6C16B11B8583D7F9E477AB1616E33D53D DUP2 PUSH1 0x40 MLOAD PUSH2 0x118B SWAP2 SWAP1 PUSH2 0x1960 JUMP JUMPDEST PUSH1 0x40 MLOAD DUP1 SWAP2 SUB SWAP1 LOG1 POP JUMP JUMPDEST PUSH0 PUSH1 0x4 SLOAD SWAP1 POP SWAP1 JUMP JUMPDEST PUSH2 0x11A7 PUSH2 0x17FB JUMP JUMPDEST PUSH1 0x6 PUSH0 CALLER PUSH20 0xFFFFFFFFFFFFFFFFFFFFFFFFFFFFFFFFFFFFFFFF AND PUSH20 0xFFFFFFFFFFFFFFFFFFFFFFFFFFFFFFFFFFFFFFFF AND DUP2 MSTORE PUSH1 0x20 ADD SWAP1 DUP2 MSTORE PUSH1 0x20 ADD PUSH0 KECCAK256 PUSH1 0x2 ADD PUSH0 SWAP1 SLOAD SWAP1 PUSH2 0x100 EXP SWAP1 DIV PUSH1 0xFF AND PUSH2 0x1233 JUMPI PUSH1 0x40 MLOAD PUSH32 0x8C379A000000000000000000000000000000000000000000000000000000000 DUP2 MSTORE PUSH1 0x4 ADD PUSH2 0x122A SWAP1 PUSH2 0x1BB8 JUMP JUMPDEST PUSH1 0x40 MLOAD DUP1 SWAP2 SUB SWAP1 REVERT JUMPDEST PUSH1 0x7 SLOAD DUP2 LT ISZERO PUSH2 0x1278 JUMPI PUSH1 0x40 MLOAD PUSH32 0x8C379A000000000000000000000000000000000000000000000000000000000 DUP2 MSTORE PUSH1 0x4 ADD PUSH2 0x126F SWAP1 PUSH2 0x2249 JUMP JUMPDEST PUSH1 0x40 MLOAD DUP1 SWAP2 SUB SWAP1 REVERT JUMPDEST PUSH32 0x0 DUP2 PUSH1 0x3 SLOAD PUSH2 0x12A7 SWAP2 SWAP1 PUSH2 0x1D9B JUMP JUMPDEST GT ISZERO PUSH2 0x12E8 JUMPI PUSH1 0x40 MLOAD PUSH32 0x8C379A000000000000000000000000000000000000000000000000000000000 DUP2 MSTORE PUSH1 0x4 ADD PUSH2 0x12DF SWAP1 PUSH2 0x22D7 JUMP JUMPDEST PUSH1 0x40 MLOAD DUP1 SWAP2 SUB SWAP1 REVERT JUMPDEST PUSH0 PUSH1 0x2 PUSH0 SWAP1 SLOAD SWAP1 PUSH2 0x100 EXP SWAP1 DIV PUSH20 0xFFFFFFFFFFFFFFFFFFFFFFFFFFFFFFFFFFFFFFFF AND PUSH20 0xFFFFFFFFFFFFFFFFFFFFFFFFFFFFFFFFFFFFFFFF AND PUSH4 0x23B872DD CALLER ADDRESS DUP6 PUSH1 0x40 MLOAD DUP5 PUSH4 0xFFFFFFFF AND PUSH1 0xE0 SHL DUP2 MSTORE PUSH1 0x4 ADD PUSH2 0x1347 SWAP4 SWAP3 SWAP2 SWAP1 PUSH2 0x22F5 JUMP JUMPDEST PUSH1 0x20 PUSH1 0x40 MLOAD DUP1 DUP4 SUB DUP2 PUSH0 DUP8 GAS CALL ISZERO DUP1 ISZERO PUSH2 0x1363 JUMPI RETURNDATASIZE PUSH0 PUSH0 RETURNDATACOPY RETURNDATASIZE PUSH0 REVERT JUMPDEST POP POP POP POP PUSH1 0x40 MLOAD RETURNDATASIZE PUSH1 0x1F NOT PUSH1 0x1F DUP3 ADD AND DUP3 ADD DUP1 PUSH1 0x40 MSTORE POP DUP2 ADD SWAP1 PUSH2 0x1387 SWAP2 SWAP1 PUSH2 0x1F58 JUMP JUMPDEST SWAP1 POP DUP1 PUSH2 0x13C9 JUMPI PUSH1 0x40 MLOAD PUSH32 0x8C379A000000000000000000000000000000000000000000000000000000000 DUP2 MSTORE PUSH1 0x4 ADD PUSH2 0x13C0 SWAP1 PUSH2 0x1FCD JUMP JUMPDEST PUSH1 0x40 MLOAD DUP1 SWAP2 SUB SWAP1 REVERT JUMPDEST DUP2 PUSH1 0x6 PUSH0 CALLER PUSH20 0xFFFFFFFFFFFFFFFFFFFFFFFFFFFFFFFFFFFFFFFF AND PUSH20 0xFFFFFFFFFFFFFFFFFFFFFFFFFFFFFFFFFFFFFFFF AND DUP2 MSTORE PUSH1 0x20 ADD SWAP1 DUP2 MSTORE PUSH1 0x20 ADD PUSH0 KECCAK256 PUSH0 ADD PUSH0 DUP3 DUP3 SLOAD PUSH2 0x1417 SWAP2 SWAP1 PUSH2 0x1D9B JUMP JUMPDEST SWAP3 POP POP DUP2 SWAP1 SSTORE POP TIMESTAMP PUSH1 0x6 PUSH0 CALLER PUSH20 0xFFFFFFFFFFFFFFFFFFFFFFFFFFFFFFFFFFFFFFFF AND PUSH20 0xFFFFFFFFFFFFFFFFFFFFFFFFFFFFFFFFFFFFFFFF AND DUP2 MSTORE PUSH1 0x20 ADD SWAP1 DUP2 MSTORE PUSH1 0x20 ADD PUSH0 KECCAK256 PUSH1 0x1 ADD DUP2 SWAP1 SSTORE POP PUSH1 0x1 PUSH1 0x6 PUSH0 CALLER PUSH20 0xFFFFFFFFFFFFFFFFFFFFFFFFFFFFFFFFFFFFFFFF AND PUSH20 0xFFFFFFFFFFFFFFFFFFFFFFFFFFFFFFFFFFFFFFFF AND DUP2 MSTORE PUSH1 0x20 ADD SWAP1 DUP2 MSTORE PUSH1 0x20 ADD PUSH0 KECCAK256 PUSH1 0x3 ADD PUSH0 DUP3 DUP3 SLOAD PUSH2 0x14B3 SWAP2 SWAP1 PUSH2 0x1D9B JUMP JUMPDEST SWAP3 POP POP DUP2 SWAP1 SSTORE POP DUP2 PUSH1 0x3 PUSH0 DUP3 DUP3 SLOAD PUSH2 0x14CB SWAP2 SWAP1 PUSH2 0x1D9B JUMP JUMPDEST SWAP3 POP POP DUP2 SWAP1 SSTORE POP PUSH2 0x14DA PUSH2 0x1926 JUMP JUMPDEST CALLER PUSH20 0xFFFFFFFFFFFFFFFFFFFFFFFFFFFFFFFFFFFFFFFF AND PUSH32 0x91EDE45F04A37A7C170F5C1207DF3B6BC748DC1E04AD5E917A241D0F52FEADA3 DUP4 PUSH1 0x6 PUSH0 CALLER PUSH20 0xFFFFFFFFFFFFFFFFFFFFFFFFFFFFFFFFFFFFFFFF AND PUSH20 0xFFFFFFFFFFFFFFFFFFFFFFFFFFFFFFFFFFFFFFFF AND DUP2 MSTORE PUSH1 0x20 ADD SWAP1 DUP2 MSTORE PUSH1 0x20 ADD PUSH0 KECCAK256 PUSH1 0x3 ADD SLOAD PUSH1 0x4 SLOAD PUSH1 0x40 MLOAD PUSH2 0x1566 SWAP4 SWAP3 SWAP2 SWAP1 PUSH2 0x232A JUMP JUMPDEST PUSH1 0x40 MLOAD DUP1 SWAP2 SUB SWAP1 LOG2 POP PUSH2 0x1577 PUSH2 0x185C JUMP JUMPDEST POP JUMP JUMPDEST PUSH0 PUSH1 0x5 SLOAD SWAP1 POP SWAP1 JUMP JUMPDEST PUSH1 0x4 SLOAD DUP2 JUMP JUMPDEST PUSH0 PUSH1 0x6 PUSH0 DUP4 PUSH20 0xFFFFFFFFFFFFFFFFFFFFFFFFFFFFFFFFFFFFFFFF AND PUSH20 0xFFFFFFFFFFFFFFFFFFFFFFFFFFFFFFFFFFFFFFFF AND DUP2 MSTORE PUSH1 0x20 ADD SWAP1 DUP2 MSTORE PUSH1 0x20 ADD PUSH0 KECCAK256 PUSH1 0x2 ADD PUSH0 SWAP1 SLOAD SWAP1 PUSH2 0x100 EXP SWAP1 DIV PUSH1 0xFF AND PUSH2 0x1616 JUMPI PUSH1 0x40 MLOAD PUSH32 0x8C379A000000000000000000000000000000000000000000000000000000000 DUP2 MSTORE PUSH1 0x4 ADD PUSH2 0x160D SWAP1 PUSH2 0x1BB8 JUMP JUMPDEST PUSH1 0x40 MLOAD DUP1 SWAP2 SUB SWAP1 REVERT JUMPDEST PUSH1 0x6 PUSH0 DUP4 PUSH20 0xFFFFFFFFFFFFFFFFFFFFFFFFFFFFFFFFFFFFFFFF AND PUSH20 0xFFFFFFFFFFFFFFFFFFFFFFFFFFFFFFFFFFFFFFFF AND DUP2 MSTORE PUSH1 0x20 ADD SWAP1 DUP2 MSTORE PUSH1 0x20 ADD PUSH0 KECCAK256 PUSH1 0x4 ADD SLOAD SWAP1 POP SWAP2 SWAP1 POP JUMP JUMPDEST PUSH2 0x1666 PUSH2 0x1774 JUMP JUMPDEST DUP1 PUSH1 0x7 DUP2 SWAP1 SSTORE POP PUSH32 0xD939191BE6B640BC40EF7C6A17554AC82DFEA02602FCACFAD13DCD71D0ABE6D0 DUP2 PUSH1 0x40 MLOAD PUSH2 0x169C SWAP2 SWAP1 PUSH2 0x1960 JUMP JUMPDEST PUSH1 0x40 MLOAD DUP1 SWAP2 SUB SWAP1 LOG1 POP JUMP JUMPDEST PUSH32 0x0 DUP2 JUMP JUMPDEST PUSH2 0x16D3 PUSH2 0x1774 JUMP JUMPDEST PUSH0 PUSH20 0xFFFFFFFFFFFFFFFFFFFFFFFFFFFFFFFFFFFFFFFF AND DUP2 PUSH20 0xFFFFFFFFFFFFFFFFFFFFFFFFFFFFFFFFFFFFFFFF AND SUB PUSH2 0x1743 JUMPI PUSH0 PUSH1 0x40 MLOAD PUSH32 0x1E4FBDF700000000000000000000000000000000000000000000000000000000 DUP2 MSTORE PUSH1 0x4 ADD PUSH2 0x173A SWAP2 SWAP1 PUSH2 0x1AD1 JUMP JUMPDEST PUSH1 0x40 MLOAD DUP1 SWAP2 SUB SWAP1 REVERT JUMPDEST PUSH2 0x174C DUP2 PUSH2 0x1865 JUMP JUMPDEST POP JUMP JUMPDEST PUSH1 0x2 PUSH0 SWAP1 SLOAD SWAP1 PUSH2 0x100 EXP SWAP1 DIV PUSH20 0xFFFFFFFFFFFFFFFFFFFFFFFFFFFFFFFFFFFFFFFF AND DUP2 JUMP JUMPDEST PUSH2 0x177C PUSH2 0x1941 JUMP JUMPDEST PUSH20 0xFFFFFFFFFFFFFFFFFFFFFFFFFFFFFFFFFFFFFFFF AND PUSH2 0x179A PUSH2 0xE8D JUMP JUMPDEST PUSH20 0xFFFFFFFFFFFFFFFFFFFFFFFFFFFFFFFFFFFFFFFF AND EQ PUSH2 0x17F9 JUMPI PUSH2 0x17BD PUSH2 0x1941 JUMP JUMPDEST PUSH1 0x40 MLOAD PUSH32 0x118CDAA700000000000000000000000000000000000000000000000000000000 DUP2 MSTORE PUSH1 0x4 ADD PUSH2 0x17F0 SWAP2 SWAP1 PUSH2 0x1AD1 JUMP JUMPDEST PUSH1 0x40 MLOAD DUP1 SWAP2 SUB SWAP1 REVERT JUMPDEST JUMP JUMPDEST PUSH1 0x2 PUSH1 0x1 SLOAD SUB PUSH2 0x1837 JUMPI PUSH1 0x40 MLOAD PUSH32 0x3EE5AEB500000000000000000000000000000000000000000000000000000000 DUP2 MSTORE PUSH1 0x4 ADD PUSH1 0x40 MLOAD DUP1 SWAP2 SUB SWAP1 REVERT JUMPDEST PUSH1 0x2 PUSH1 0x1 DUP2 SWAP1 SSTORE POP JUMP JUMPDEST PUSH1 0x1 PUSH1 0x5 PUSH0 DUP3 DUP3 SLOAD PUSH2 0x1853 SWAP2 SWAP1 PUSH2 0x1D9B JUMP JUMPDEST SWAP3 POP POP DUP2 SWAP1 SSTORE POP JUMP JUMPDEST PUSH1 0x1 DUP1 DUP2 SWAP1 SSTORE POP JUMP JUMPDEST PUSH0 PUSH0 PUSH0 SWAP1 SLOAD SWAP1 PUSH2 0x100 EXP SWAP1 DIV PUSH20 0xFFFFFFFFFFFFFFFFFFFFFFFFFFFFFFFFFFFFFFFF AND SWAP1 POP DUP2 PUSH0 PUSH0 PUSH2 0x100 EXP DUP2 SLOAD DUP2 PUSH20 0xFFFFFFFFFFFFFFFFFFFFFFFFFFFFFFFFFFFFFFFF MUL NOT AND SWAP1 DUP4 PUSH20 0xFFFFFFFFFFFFFFFFFFFFFFFFFFFFFFFFFFFFFFFF AND MUL OR SWAP1 SSTORE POP DUP2 PUSH20 0xFFFFFFFFFFFFFFFFFFFFFFFFFFFFFFFFFFFFFFFF AND DUP2 PUSH20 0xFFFFFFFFFFFFFFFFFFFFFFFFFFFFFFFFFFFFFFFF AND PUSH32 0x8BE0079C531659141344CD1FD0A4F28419497F9722A3DAAFE3B4186F6B6457E0 PUSH1 0x40 MLOAD PUSH1 0x40 MLOAD DUP1 SWAP2 SUB SWAP1 LOG3 POP POP JUMP JUMPDEST PUSH1 0x1 PUSH1 0x4 PUSH0 DUP3 DUP3 SLOAD PUSH2 0x1938 SWAP2 SWAP1 PUSH2 0x1D9B JUMP JUMPDEST SWAP3 POP POP DUP2 SWAP1 SSTORE POP JUMP JUMPDEST PUSH0 CALLER SWAP1 POP SWAP1 JUMP JUMPDEST PUSH0 DUP2 SWAP1 POP SWAP2 SWAP1 POP JUMP JUMPDEST PUSH2 0x195A DUP2 PUSH2 0x1948 JUMP JUMPDEST DUP3 MSTORE POP POP JUMP JUMPDEST PUSH0 PUSH1 0x20 DUP3 ADD SWAP1 POP PUSH2 0x1973 PUSH0 DUP4 ADD DUP5 PUSH2 0x1951 JUMP JUMPDEST SWAP3 SWAP2 POP POP JUMP JUMPDEST PUSH0 PUSH0 REVERT JUMPDEST PUSH0 PUSH20 0xFFFFFFFFFFFFFFFFFFFFFFFFFFFFFFFFFFFFFFFF DUP3 AND SWAP1 POP SWAP2 SWAP1 POP JUMP JUMPDEST PUSH0 PUSH2 0x19A6 DUP3 PUSH2 0x197D JUMP JUMPDEST SWAP1 POP SWAP2 SWAP1 POP JUMP JUMPDEST PUSH2 0x19B6 DUP2 PUSH2 0x199C JUMP JUMPDEST DUP2 EQ PUSH2 0x19C0 JUMPI PUSH0 PUSH0 REVERT JUMPDEST POP JUMP JUMPDEST PUSH0 DUP2 CALLDATALOAD SWAP1 POP PUSH2 0x19D1 DUP2 PUSH2 0x19AD JUMP JUMPDEST SWAP3 SWAP2 POP POP JUMP JUMPDEST PUSH0 PUSH1 0x20 DUP3 DUP5 SUB SLT ISZERO PUSH2 0x19EC JUMPI PUSH2 0x19EB PUSH2 0x1979 JUMP JUMPDEST JUMPDEST PUSH0 PUSH2 0x19F9 DUP5 DUP3 DUP6 ADD PUSH2 0x19C3 JUMP JUMPDEST SWAP2 POP POP SWAP3 SWAP2 POP POP JUMP JUMPDEST PUSH2 0x1A0B DUP2 PUSH2 0x1948 JUMP JUMPDEST DUP2 EQ PUSH2 0x1A15 JUMPI PUSH0 PUSH0 REVERT JUMPDEST POP JUMP JUMPDEST PUSH0 DUP2 CALLDATALOAD SWAP1 POP PUSH2 0x1A26 DUP2 PUSH2 0x1A02 JUMP JUMPDEST SWAP3 SWAP2 POP POP JUMP JUMPDEST PUSH0 PUSH1 0x20 DUP3 DUP5 SUB SLT ISZERO PUSH2 0x1A41 JUMPI PUSH2 0x1A40 PUSH2 0x1979 JUMP JUMPDEST JUMPDEST PUSH0 PUSH2 0x1A4E DUP5 DUP3 DUP6 ADD PUSH2 0x1A18 JUMP JUMPDEST SWAP2 POP POP SWAP3 SWAP2 POP POP JUMP JUMPDEST PUSH0 DUP2 ISZERO ISZERO SWAP1 POP SWAP2 SWAP1 POP JUMP JUMPDEST PUSH2 0x1A6B DUP2 PUSH2 0x1A57 JUMP JUMPDEST DUP3 MSTORE POP POP JUMP JUMPDEST PUSH0 PUSH1 0xA0 DUP3 ADD SWAP1 POP PUSH2 0x1A84 PUSH0 DUP4 ADD DUP9 PUSH2 0x1951 JUMP JUMPDEST PUSH2 0x1A91 PUSH1 0x20 DUP4 ADD DUP8 PUSH2 0x1951 JUMP JUMPDEST PUSH2 0x1A9E PUSH1 0x40 DUP4 ADD DUP7 PUSH2 0x1A62 JUMP JUMPDEST PUSH2 0x1AAB PUSH1 0x60 DUP4 ADD DUP6 PUSH2 0x1951 JUMP JUMPDEST PUSH2 0x1AB8 PUSH1 0x80 DUP4 ADD DUP5 PUSH2 0x1951 JUMP JUMPDEST SWAP7 SWAP6 POP POP POP POP POP POP JUMP JUMPDEST PUSH2 0x1ACB DUP2 PUSH2 0x199C JUMP JUMPDEST DUP3 MSTORE POP POP JUMP JUMPDEST PUSH0 PUSH1 0x20 DUP3 ADD SWAP1 POP PUSH2 0x1AE4 PUSH0 DUP4 ADD DUP5 PUSH2 0x1AC2 JUMP JUMPDEST SWAP3 SWAP2 POP POP JUMP JUMPDEST PUSH0 DUP2 SWAP1 POP SWAP2 SWAP1 POP JUMP JUMPDEST PUSH0 PUSH2 0x1B0D PUSH2 0x1B08 PUSH2 0x1B03 DUP5 PUSH2 0x197D JUMP JUMPDEST PUSH2 0x1AEA JUMP JUMPDEST PUSH2 0x197D JUMP JUMPDEST SWAP1 POP SWAP2 SWAP1 POP JUMP JUMPDEST PUSH0 PUSH2 0x1B1E DUP3 PUSH2 0x1AF3 JUMP JUMPDEST SWAP1 POP SWAP2 SWAP1 POP JUMP JUMPDEST PUSH0 PUSH2 0x1B2F DUP3 PUSH2 0x1B14 JUMP JUMPDEST SWAP1 POP SWAP2 SWAP1 POP JUMP JUMPDEST PUSH2 0x1B3F DUP2 PUSH2 0x1B25 JUMP JUMPDEST DUP3 MSTORE POP POP JUMP JUMPDEST PUSH0 PUSH1 0x20 DUP3 ADD SWAP1 POP PUSH2 0x1B58 PUSH0 DUP4 ADD DUP5 PUSH2 0x1B36 JUMP JUMPDEST SWAP3 SWAP2 POP POP JUMP JUMPDEST PUSH0 DUP3 DUP3 MSTORE PUSH1 0x20 DUP3 ADD SWAP1 POP SWAP3 SWAP2 POP POP JUMP JUMPDEST PUSH32 0x4163636F756E7420646F6573206E6F7420657869737400000000000000000000 PUSH0 DUP3 ADD MSTORE POP JUMP JUMPDEST PUSH0 PUSH2 0x1BA2 PUSH1 0x16 DUP4 PUSH2 0x1B5E JUMP JUMPDEST SWAP2 POP PUSH2 0x1BAD DUP3 PUSH2 0x1B6E JUMP JUMPDEST PUSH1 0x20 DUP3 ADD SWAP1 POP SWAP2 SWAP1 POP JUMP JUMPDEST PUSH0 PUSH1 0x20 DUP3 ADD SWAP1 POP DUP2 DUP2 SUB PUSH0 DUP4 ADD MSTORE PUSH2 0x1BCF DUP2 PUSH2 0x1B96 JUMP JUMPDEST SWAP1 POP SWAP2 SWAP1 POP JUMP JUMPDEST PUSH32 0x546F6B656E20616464726573732063616E6E6F74206265207A65726F00000000 PUSH0 DUP3 ADD MSTORE POP JUMP JUMPDEST PUSH0 PUSH2 0x1C0A PUSH1 0x1C DUP4 PUSH2 0x1B5E JUMP JUMPDEST SWAP2 POP PUSH2 0x1C15 DUP3 PUSH2 0x1BD6 JUMP JUMPDEST PUSH1 0x20 DUP3 ADD SWAP1 POP SWAP2 SWAP1 POP JUMP JUMPDEST PUSH0 PUSH1 0x20 DUP3 ADD SWAP1 POP DUP2 DUP2 SUB PUSH0 DUP4 ADD MSTORE PUSH2 0x1C37 DUP2 PUSH2 0x1BFE JUMP JUMPDEST SWAP1 POP SWAP2 SWAP1 POP JUMP JUMPDEST PUSH0 DUP2 SWAP1 POP SWAP2 SWAP1 POP JUMP JUMPDEST PUSH0 PUSH2 0x1C61 PUSH2 0x1C5C PUSH2 0x1C57 DUP5 PUSH2 0x1C3E JUMP JUMPDEST PUSH2 0x1AEA JUMP JUMPDEST PUSH2 0x1948 JUMP JUMPDEST SWAP1 POP SWAP2 SWAP1 POP JUMP JUMPDEST PUSH2 0x1C71 DUP2 PUSH2 0x1C47 JUMP JUMPDEST DUP3 MSTORE POP POP JUMP JUMPDEST PUSH0 PUSH1 0x40 DUP3 ADD SWAP1 POP PUSH2 0x1C8A PUSH0 DUP4 ADD DUP6 PUSH2 0x1AC2 JUMP JUMPDEST PUSH2 0x1C97 PUSH1 0x20 DUP4 ADD DUP5 PUSH2 0x1C68 JUMP JUMPDEST SWAP4 SWAP3 POP POP POP JUMP JUMPDEST PUSH32 0x496E73756666696369656E742062616C616E6365000000000000000000000000 PUSH0 DUP3 ADD MSTORE POP JUMP JUMPDEST PUSH0 PUSH2 0x1CD2 PUSH1 0x14 DUP4 PUSH2 0x1B5E JUMP JUMPDEST SWAP2 POP PUSH2 0x1CDD DUP3 PUSH2 0x1C9E JUMP JUMPDEST PUSH1 0x20 DUP3 ADD SWAP1 POP SWAP2 SWAP1 POP JUMP JUMPDEST PUSH0 PUSH1 0x20 DUP3 ADD SWAP1 POP DUP2 DUP2 SUB PUSH0 DUP4 ADD MSTORE PUSH2 0x1CFF DUP2 PUSH2 0x1CC6 JUMP JUMPDEST SWAP1 POP SWAP2 SWAP1 POP JUMP JUMPDEST PUSH32 0x43616E6E6F7420657863656564207769746864726177616C206C696D69740000 PUSH0 DUP3 ADD MSTORE POP JUMP JUMPDEST PUSH0 PUSH2 0x1D3A PUSH1 0x1E DUP4 PUSH2 0x1B5E JUMP JUMPDEST SWAP2 POP PUSH2 0x1D45 DUP3 PUSH2 0x1D06 JUMP JUMPDEST PUSH1 0x20 DUP3 ADD SWAP1 POP SWAP2 SWAP1 POP JUMP JUMPDEST PUSH0 PUSH1 0x20 DUP3 ADD SWAP1 POP DUP2 DUP2 SUB PUSH0 DUP4 ADD MSTORE PUSH2 0x1D67 DUP2 PUSH2 0x1D2E JUMP JUMPDEST SWAP1 POP SWAP2 SWAP1 POP JUMP JUMPDEST PUSH32 0x4E487B7100000000000000000000000000000000000000000000000000000000 PUSH0 MSTORE PUSH1 0x11 PUSH1 0x4 MSTORE PUSH1 0x24 PUSH0 REVERT JUMPDEST PUSH0 PUSH2 0x1DA5 DUP3 PUSH2 0x1948 JUMP JUMPDEST SWAP2 POP PUSH2 0x1DB0 DUP4 PUSH2 0x1948 JUMP JUMPDEST SWAP3 POP DUP3 DUP3 ADD SWAP1 POP DUP1 DUP3 GT ISZERO PUSH2 0x1DC8 JUMPI PUSH2 0x1DC7 PUSH2 0x1D6E JUMP JUMPDEST JUMPDEST SWAP3 SWAP2 POP POP JUMP JUMPDEST PUSH32 0x46756E647320617265206C6F636B656400000000000000000000000000000000 PUSH0 DUP3 ADD MSTORE POP JUMP JUMPDEST PUSH0 PUSH2 0x1E02 PUSH1 0x10 DUP4 PUSH2 0x1B5E JUMP JUMPDEST SWAP2 POP PUSH2 0x1E0D DUP3 PUSH2 0x1DCE JUMP JUMPDEST PUSH1 0x20 DUP3 ADD SWAP1 POP SWAP2 SWAP1 POP JUMP JUMPDEST PUSH0 PUSH1 0x20 DUP3 ADD SWAP1 POP DUP2 DUP2 SUB PUSH0 DUP4 ADD MSTORE PUSH2 0x1E2F DUP2 PUSH2 0x1DF6 JUMP JUMPDEST SWAP1 POP SWAP2 SWAP1 POP JUMP JUMPDEST PUSH0 PUSH2 0x1E40 DUP3 PUSH2 0x1948 JUMP JUMPDEST SWAP2 POP PUSH2 0x1E4B DUP4 PUSH2 0x1948 JUMP JUMPDEST SWAP3 POP DUP3 DUP3 MUL PUSH2 0x1E59 DUP2 PUSH2 0x1948 JUMP JUMPDEST SWAP2 POP DUP3 DUP3 DIV DUP5 EQ DUP4 ISZERO OR PUSH2 0x1E70 JUMPI PUSH2 0x1E6F PUSH2 0x1D6E JUMP JUMPDEST JUMPDEST POP SWAP3 SWAP2 POP POP JUMP JUMPDEST PUSH32 0x4E487B7100000000000000000000000000000000000000000000000000000000 PUSH0 MSTORE PUSH1 0x12 PUSH1 0x4 MSTORE PUSH1 0x24 PUSH0 REVERT JUMPDEST PUSH0 PUSH2 0x1EAE DUP3 PUSH2 0x1948 JUMP JUMPDEST SWAP2 POP PUSH2 0x1EB9 DUP4 PUSH2 0x1948 JUMP JUMPDEST SWAP3 POP DUP3 PUSH2 0x1EC9 JUMPI PUSH2 0x1EC8 PUSH2 0x1E77 JUMP JUMPDEST JUMPDEST DUP3 DUP3 DIV SWAP1 POP SWAP3 SWAP2 POP POP JUMP JUMPDEST PUSH0 PUSH2 0x1EDE DUP3 PUSH2 0x1948 JUMP JUMPDEST SWAP2 POP PUSH2 0x1EE9 DUP4 PUSH2 0x1948 JUMP JUMPDEST SWAP3 POP DUP3 DUP3 SUB SWAP1 POP DUP2 DUP2 GT ISZERO PUSH2 0x1F01 JUMPI PUSH2 0x1F00 PUSH2 0x1D6E JUMP JUMPDEST JUMPDEST SWAP3 SWAP2 POP POP JUMP JUMPDEST PUSH0 PUSH1 0x40 DUP3 ADD SWAP1 POP PUSH2 0x1F1A PUSH0 DUP4 ADD DUP6 PUSH2 0x1AC2 JUMP JUMPDEST PUSH2 0x1F27 PUSH1 0x20 DUP4 ADD DUP5 PUSH2 0x1951 JUMP JUMPDEST SWAP4 SWAP3 POP POP POP JUMP JUMPDEST PUSH2 0x1F37 DUP2 PUSH2 0x1A57 JUMP JUMPDEST DUP2 EQ PUSH2 0x1F41 JUMPI PUSH0 PUSH0 REVERT JUMPDEST POP JUMP JUMPDEST PUSH0 DUP2 MLOAD SWAP1 POP PUSH2 0x1F52 DUP2 PUSH2 0x1F2E JUMP JUMPDEST SWAP3 SWAP2 POP POP JUMP JUMPDEST PUSH0 PUSH1 0x20 DUP3 DUP5 SUB SLT ISZERO PUSH2 0x1F6D JUMPI PUSH2 0x1F6C PUSH2 0x1979 JUMP JUMPDEST JUMPDEST PUSH0 PUSH2 0x1F7A DUP5 DUP3 DUP6 ADD PUSH2 0x1F44 JUMP JUMPDEST SWAP2 POP POP SWAP3 SWAP2 POP POP JUMP JUMPDEST PUSH32 0x546F6B656E207472616E73666572206661696C65640000000000000000000000 PUSH0 DUP3 ADD MSTORE POP JUMP JUMPDEST PUSH0 PUSH2 0x1FB7 PUSH1 0x15 DUP4 PUSH2 0x1B5E JUMP JUMPDEST SWAP2 POP PUSH2 0x1FC2 DUP3 PUSH2 0x1F83 JUMP JUMPDEST PUSH1 0x20 DUP3 ADD SWAP1 POP SWAP2 SWAP1 POP JUMP JUMPDEST PUSH0 PUSH1 0x20 DUP3 ADD SWAP1 POP DUP2 DUP2 SUB PUSH0 DUP4 ADD MSTORE PUSH2 0x1FE4 DUP2 PUSH2 0x1FAB JUMP JUMPDEST SWAP1 POP SWAP2 SWAP1 POP JUMP JUMPDEST PUSH0 PUSH1 0x80 DUP3 ADD SWAP1 POP PUSH2 0x1FFE PUSH0 DUP4 ADD DUP8 PUSH2 0x1951 JUMP JUMPDEST PUSH2 0x200B PUSH1 0x20 DUP4 ADD DUP7 PUSH2 0x1951 JUMP JUMPDEST PUSH2 0x2018 PUSH1 0x40 DUP4 ADD DUP6 PUSH2 0x1951 JUMP JUMPDEST PUSH2 0x2025 PUSH1 0x60 DUP4 ADD DUP5 PUSH2 0x1951 JUMP JUMPDEST SWAP6 SWAP5 POP POP POP POP POP JUMP JUMPDEST PUSH0 DUP2 MLOAD SWAP1 POP PUSH2 0x203C DUP2 PUSH2 0x1A02 JUMP JUMPDEST SWAP3 SWAP2 POP POP JUMP JUMPDEST PUSH0 PUSH1 0x20 DUP3 DUP5 SUB SLT ISZERO PUSH2 0x2057 JUMPI PUSH2 0x2056 PUSH2 0x1979 JUMP JUMPDEST JUMPDEST PUSH0 PUSH2 0x2064 DUP5 DUP3 DUP6 ADD PUSH2 0x202E JUMP JUMPDEST SWAP2 POP POP SWAP3 SWAP2 POP POP JUMP JUMPDEST PUSH32 0x4E487B7100000000000000000000000000000000000000000000000000000000 PUSH0 MSTORE PUSH1 0x41 PUSH1 0x4 MSTORE PUSH1 0x24 PUSH0 REVERT JUMPDEST PUSH32 0x4E487B7100000000000000000000000000000000000000000000000000000000 PUSH0 MSTORE PUSH1 0x32 PUSH1 0x4 MSTORE PUSH1 0x24 PUSH0 REVERT JUMPDEST PUSH32 0x4E6F206665657320746F20776974686472617700000000000000000000000000 PUSH0 DUP3 ADD MSTORE POP JUMP JUMPDEST PUSH0 PUSH2 0x20FB PUSH1 0x13 DUP4 PUSH2 0x1B5E JUMP JUMPDEST SWAP2 POP PUSH2 0x2106 DUP3 PUSH2 0x20C7 JUMP JUMPDEST PUSH1 0x20 DUP3 ADD SWAP1 POP SWAP2 SWAP1 POP JUMP JUMPDEST PUSH0 PUSH1 0x20 DUP3 ADD SWAP1 POP DUP2 DUP2 SUB PUSH0 DUP4 ADD MSTORE PUSH2 0x2128 DUP2 PUSH2 0x20EF JUMP JUMPDEST SWAP1 POP SWAP2 SWAP1 POP JUMP JUMPDEST PUSH32 0x4163636F756E7420616C72656164792065786973747300000000000000000000 PUSH0 DUP3 ADD MSTORE POP JUMP JUMPDEST PUSH0 PUSH2 0x2163 PUSH1 0x16 DUP4 PUSH2 0x1B5E JUMP JUMPDEST SWAP2 POP PUSH2 0x216E DUP3 PUSH2 0x212F JUMP JUMPDEST PUSH1 0x20 DUP3 ADD SWAP1 POP SWAP2 SWAP1 POP JUMP JUMPDEST PUSH0 PUSH1 0x20 DUP3 ADD SWAP1 POP DUP2 DUP2 SUB PUSH0 DUP4 ADD MSTORE PUSH2 0x2190 DUP2 PUSH2 0x2157 JUMP JUMPDEST SWAP1 POP SWAP2 SWAP1 POP JUMP JUMPDEST PUSH32 0x4665652063616E6E6F7420657863656564203130250000000000000000000000 PUSH0 DUP3 ADD MSTORE POP JUMP JUMPDEST PUSH0 PUSH2 0x21CB PUSH1 0x15 DUP4 PUSH2 0x1B5E JUMP JUMPDEST SWAP2 POP PUSH2 0x21D6 DUP3 PUSH2 0x2197 JUMP JUMPDEST PUSH1 0x20 DUP3 ADD SWAP1 POP SWAP2 SWAP1 POP JUMP JUMPDEST PUSH0 PUSH1 0x20 DUP3 ADD SWAP1 POP DUP2 DUP2 SUB PUSH0 DUP4 ADD MSTORE PUSH2 0x21F8 DUP2 PUSH2 0x21BF JUMP JUMPDEST SWAP1 POP SWAP2 SWAP1 POP JUMP JUMPDEST PUSH32 0x416D6F756E742062656C6F77206D696E696D756D206465706F73697400000000 PUSH0 DUP3 ADD MSTORE POP JUMP JUMPDEST PUSH0 PUSH2 0x2233 PUSH1 0x1C DUP4 PUSH2 0x1B5E JUMP JUMPDEST SWAP2 POP PUSH2 0x223E DUP3 PUSH2 0x21FF JUMP JUMPDEST PUSH1 0x20 DUP3 ADD SWAP1 POP SWAP2 SWAP1 POP JUMP JUMPDEST PUSH0 PUSH1 0x20 DUP3 ADD SWAP1 POP DUP2 DUP2 SUB PUSH0 DUP4 ADD MSTORE PUSH2 0x2260 DUP2 PUSH2 0x2227 JUMP JUMPDEST SWAP1 POP SWAP2 SWAP1 POP JUMP JUMPDEST PUSH32 0x4465706F73697420776F756C64206578636565642062616E6B20636170616369 PUSH0 DUP3 ADD MSTORE PUSH32 0x7479000000000000000000000000000000000000000000000000000000000000 PUSH1 0x20 DUP3 ADD MSTORE POP JUMP JUMPDEST PUSH0 PUSH2 0x22C1 PUSH1 0x22 DUP4 PUSH2 0x1B5E JUMP JUMPDEST SWAP2 POP PUSH2 0x22CC DUP3 PUSH2 0x2267 JUMP JUMPDEST PUSH1 0x40 DUP3 ADD SWAP1 POP SWAP2 SWAP1 POP JUMP JUMPDEST PUSH0 PUSH1 0x20 DUP3 ADD SWAP1 POP DUP2 DUP2 SUB PUSH0 DUP4 ADD MSTORE PUSH2 0x22EE DUP2 PUSH2 0x22B5 JUMP JUMPDEST SWAP1 POP SWAP2 SWAP1 POP JUMP JUMPDEST PUSH0 PUSH1 0x60 DUP3 ADD SWAP1 POP PUSH2 0x2308 PUSH0 DUP4 ADD DUP7 PUSH2 0x1AC2 JUMP JUMPDEST PUSH2 0x2315 PUSH1 0x20 DUP4 ADD DUP6 PUSH2 0x1AC2 JUMP JUMPDEST PUSH2 0x2322 PUSH1 0x40 DUP4 ADD DUP5 PUSH2 0x1951 JUMP JUMPDEST SWAP5 SWAP4 POP POP POP POP JUMP JUMPDEST PUSH0 PUSH1 0x60 DUP3 ADD SWAP1 POP PUSH2 0x233D PUSH0 DUP4 ADD DUP7 PUSH2 0x1951 JUMP JUMPDEST PUSH2 0x234A PUSH1 0x20 DUP4 ADD DUP6 PUSH2 0x1951 JUMP JUMPDEST PUSH2 0x2357 PUSH1 0x40 DUP4 ADD DUP5 PUSH2 0x1951 JUMP JUMPDEST SWAP5 SWAP4 POP POP POP POP JUMP INVALID LOG2 PUSH5 0x6970667358 0x22 SLT KECCAK256 0x27 JUMPDEST RETURNDATASIZE 0xC2 CHAINID OR RETURNCONTRACT 0xE1 0xDF 0xDA 0x24 DUP11 DUP7 0xD7 PUSH2 0x8A86 CALLDATACOPY 0xB2 TLOAD RETURN SWAP11 DUP7 SSTORE SWAP13 POP PUSH0 TLOAD SAR 0xB9 0x4E PUSH8 0x64736F6C63430008 0x1E STOP CALLER "
				},
				"gasEstimates": {
					"creation": {
						"codeDepositCost": "1821800",
						"executionCost": "infinite",
						"totalCost": "infinite"
					},
					"external": {
						"accounts(address)": "infinite",
						"bankCap()": "infinite",
						"createAccount()": "48193",
						"deposit(uint256)": "infinite",
						"getAccountBalance(address)": "5125",
						"getTotalDepositsCount()": "2543",
						"getTotalWithdrawalsCount()": "2477",
						"getUserDepositCount(address)": "5127",
						"getUserWithdrawalCount(address)": "5170",
						"lockPeriod()": "2537",
						"minimumDeposit()": "2470",
						"owner()": "2537",
						"renounceOwnership()": "infinite",
						"setLockPeriod(uint256)": "infinite",
						"setMinimumDeposit(uint256)": "infinite",
						"setTokenAddress(address)": "infinite",
						"setWithdrawalFee(uint256)": "infinite",
						"token()": "infinite",
						"totalDeposits()": "2536",
						"totalDepositsCount()": "2492",
						"totalWithdrawalsCount()": "2449",
						"transferOwnership(address)": "infinite",
						"withdraw(uint256)": "infinite",
						"withdrawFees()": "infinite",
						"withdrawalFee()": "2558"
					},
					"internal": {
						"_incrementTotalDepositsCount()": "infinite",
						"_incrementTotalWithdrawlsCount()": "infinite"
					}
				},
				"methodIdentifiers": {
					"accounts(address)": "5e5c06e2",
					"bankCap()": "ecbea24d",
					"createAccount()": "9dca362f",
					"deposit(uint256)": "b6b55f25",
					"getAccountBalance(address)": "93423e9c",
					"getTotalDepositsCount()": "b30d5815",
					"getTotalWithdrawalsCount()": "b6e7d830",
					"getUserDepositCount(address)": "1bae91a4",
					"getUserWithdrawalCount(address)": "d3b5f520",
					"lockPeriod()": "3fd8b02f",
					"minimumDeposit()": "636bfbab",
					"owner()": "8da5cb5b",
					"renounceOwnership()": "715018a6",
					"setLockPeriod(uint256)": "779972da",
					"setMinimumDeposit(uint256)": "e78ec42e",
					"setTokenAddress(address)": "26a4e8d2",
					"setWithdrawalFee(uint256)": "ac1e5025",
					"token()": "fc0c546a",
					"totalDeposits()": "7d882097",
					"totalDepositsCount()": "c847119d",
					"totalWithdrawalsCount()": "0770e571",
					"transferOwnership(address)": "f2fde38b",
					"withdraw(uint256)": "2e1a7d4d",
					"withdrawFees()": "476343ee",
					"withdrawalFee()": "8bc7e8c4"
				}
			},
			"storageLayout": {
				"storage": [
					{
						"astId": 8,
						"contract": "contracts/KipuBank.sol:KipuBank",
						"label": "_owner",
						"offset": 0,
						"slot": "0",
						"type": "t_address"
					},
					{
						"astId": 266,
						"contract": "contracts/KipuBank.sol:KipuBank",
						"label": "_status",
						"offset": 0,
						"slot": "1",
						"type": "t_uint256"
					},
					{
						"astId": 336,
						"contract": "contracts/KipuBank.sol:KipuBank",
						"label": "token",
						"offset": 0,
						"slot": "2",
						"type": "t_contract(IERC20)225"
					},
					{
						"astId": 340,
						"contract": "contracts/KipuBank.sol:KipuBank",
						"label": "totalDeposits",
						"offset": 0,
						"slot": "3",
						"type": "t_uint256"
					},
					{
						"astId": 342,
						"contract": "contracts/KipuBank.sol:KipuBank",
						"label": "totalDepositsCount",
						"offset": 0,
						"slot": "4",
						"type": "t_uint256"
					},
					{
						"astId": 344,
						"contract": "contracts/KipuBank.sol:KipuBank",
						"label": "totalWithdrawalsCount",
						"offset": 0,
						"slot": "5",
						"type": "t_uint256"
					},
					{
						"astId": 360,
						"contract": "contracts/KipuBank.sol:KipuBank",
						"label": "accounts",
						"offset": 0,
						"slot": "6",
						"type": "t_mapping(t_address,t_struct(Account)355_storage)"
					},
					{
						"astId": 367,
						"contract": "contracts/KipuBank.sol:KipuBank",
						"label": "minimumDeposit",
						"offset": 0,
						"slot": "7",
						"type": "t_uint256"
					},
					{
						"astId": 370,
						"contract": "contracts/KipuBank.sol:KipuBank",
						"label": "withdrawalFee",
						"offset": 0,
						"slot": "8",
						"type": "t_uint256"
					},
					{
						"astId": 373,
						"contract": "contracts/KipuBank.sol:KipuBank",
						"label": "lockPeriod",
						"offset": 0,
						"slot": "9",
						"type": "t_uint256"
					}
				],
				"types": {
					"t_address": {
						"encoding": "inplace",
						"label": "address",
						"numberOfBytes": "20"
					},
					"t_bool": {
						"encoding": "inplace",
						"label": "bool",
						"numberOfBytes": "1"
					},
					"t_contract(IERC20)225": {
						"encoding": "inplace",
						"label": "contract IERC20",
						"numberOfBytes": "20"
					},
					"t_mapping(t_address,t_struct(Account)355_storage)": {
						"encoding": "mapping",
						"key": "t_address",
						"label": "mapping(address => struct KipuBank.Account)",
						"numberOfBytes": "32",
						"value": "t_struct(Account)355_storage"
					},
					"t_struct(Account)355_storage": {
						"encoding": "inplace",
						"label": "struct KipuBank.Account",
						"members": [
							{
								"astId": 346,
								"contract": "contracts/KipuBank.sol:KipuBank",
								"label": "balance",
								"offset": 0,
								"slot": "0",
								"type": "t_uint256"
							},
							{
								"astId": 348,
								"contract": "contracts/KipuBank.sol:KipuBank",
								"label": "lastDepositTimestamp",
								"offset": 0,
								"slot": "1",
								"type": "t_uint256"
							},
							{
								"astId": 350,
								"contract": "contracts/KipuBank.sol:KipuBank",
								"label": "exists",
								"offset": 0,
								"slot": "2",
								"type": "t_bool"
							},
							{
								"astId": 352,
								"contract": "contracts/KipuBank.sol:KipuBank",
								"label": "depositCount",
								"offset": 0,
								"slot": "3",
								"type": "t_uint256"
							},
							{
								"astId": 354,
								"contract": "contracts/KipuBank.sol:KipuBank",
								"label": "withdrawalCount",
								"offset": 0,
								"slot": "4",
								"type": "t_uint256"
							}
						],
						"numberOfBytes": "160"
					},
					"t_uint256": {
						"encoding": "inplace",
						"label": "uint256",
						"numberOfBytes": "32"
					}
				}
			},
			"userdoc": {
				"kind": "user",
				"methods": {},
				"version": 1
			}
		}
	}
}